{
	"vrfGeneratorArbitrumSepolia_flattened.sol": {
		"ConfirmedOwnerWithProposal": {
			"abi": [
				{
					"inputs": [
						{
							"internalType": "address",
							"name": "newOwner",
							"type": "address"
						},
						{
							"internalType": "address",
							"name": "pendingOwner",
							"type": "address"
						}
					],
					"stateMutability": "nonpayable",
					"type": "constructor"
				},
				{
					"anonymous": false,
					"inputs": [
						{
							"indexed": true,
							"internalType": "address",
							"name": "from",
							"type": "address"
						},
						{
							"indexed": true,
							"internalType": "address",
							"name": "to",
							"type": "address"
						}
					],
					"name": "OwnershipTransferRequested",
					"type": "event"
				},
				{
					"anonymous": false,
					"inputs": [
						{
							"indexed": true,
							"internalType": "address",
							"name": "from",
							"type": "address"
						},
						{
							"indexed": true,
							"internalType": "address",
							"name": "to",
							"type": "address"
						}
					],
					"name": "OwnershipTransferred",
					"type": "event"
				},
				{
					"inputs": [],
					"name": "acceptOwnership",
					"outputs": [],
					"stateMutability": "nonpayable",
					"type": "function"
				},
				{
					"inputs": [],
					"name": "owner",
					"outputs": [
						{
							"internalType": "address",
							"name": "",
							"type": "address"
						}
					],
					"stateMutability": "view",
					"type": "function"
				},
				{
					"inputs": [
						{
							"internalType": "address",
							"name": "to",
							"type": "address"
						}
					],
					"name": "transferOwnership",
					"outputs": [],
					"stateMutability": "nonpayable",
					"type": "function"
				}
			],
			"devdoc": {
				"kind": "dev",
				"methods": {},
				"title": "The ConfirmedOwner contract",
				"version": 1
			},
			"evm": {
				"assembly": "    /* \"vrfGeneratorArbitrumSepolia_flattened.sol\":7828:9721  contract ConfirmedOwnerWithProposal is IOwnable {... */\n  mstore(0x40, 0x80)\n    /* \"vrfGeneratorArbitrumSepolia_flattened.sol\":8093:8375  constructor(address newOwner, address pendingOwner) {... */\n  callvalue\n  dup1\n  iszero\n  tag_1\n  jumpi\n  0x00\n  dup1\n  revert\ntag_1:\n  pop\n  mload(0x40)\n  sub(codesize, bytecodeSize)\n  dup1\n  bytecodeSize\n  dup4\n  codecopy\n  dup2\n  add\n  0x40\n  dup2\n  swap1\n  mstore\n  tag_2\n  swap2\n  tag_3\n  jump\t// in\ntag_2:\n  sub(shl(0xa0, 0x01), 0x01)\n    /* \"vrfGeneratorArbitrumSepolia_flattened.sol\":8210:8232  newOwner != address(0) */\n  dup3\n  and\n    /* \"vrfGeneratorArbitrumSepolia_flattened.sol\":8202:8261  require(newOwner != address(0), \"Cannot set owner to zero\") */\n  tag_6\n  jumpi\n  mload(0x40)\n  shl(0xe5, 0x461bcd)\n  dup2\n  mstore\n    /* \"#utility.yul\":696:698   */\n  0x20\n    /* \"vrfGeneratorArbitrumSepolia_flattened.sol\":8202:8261  require(newOwner != address(0), \"Cannot set owner to zero\") */\n  0x04\n  dup3\n  add\n    /* \"#utility.yul\":678:699   */\n  mstore\n    /* \"#utility.yul\":735:737   */\n  0x18\n    /* \"#utility.yul\":715:733   */\n  0x24\n  dup3\n  add\n    /* \"#utility.yul\":708:738   */\n  mstore\n    /* \"#utility.yul\":774:800   */\n  0x43616e6e6f7420736574206f776e657220746f207a65726f0000000000000000\n    /* \"#utility.yul\":754:772   */\n  0x44\n  dup3\n  add\n    /* \"#utility.yul\":747:801   */\n  mstore\n    /* \"#utility.yul\":818:836   */\n  0x64\n  add\n    /* \"vrfGeneratorArbitrumSepolia_flattened.sol\":8202:8261  require(newOwner != address(0), \"Cannot set owner to zero\") */\ntag_7:\n  mload(0x40)\n  dup1\n  swap2\n  sub\n  swap1\n  revert\ntag_6:\n    /* \"vrfGeneratorArbitrumSepolia_flattened.sol\":8268:8275  s_owner */\n  0x00\n    /* \"vrfGeneratorArbitrumSepolia_flattened.sol\":8268:8286  s_owner = newOwner */\n  dup1\n  sload\n  not(sub(shl(0xa0, 0x01), 0x01))\n  and\n  sub(shl(0xa0, 0x01), 0x01)\n  dup5\n  dup2\n  and\n  swap2\n  swap1\n  swap2\n  or\n  swap1\n  swap2\n  sstore\n    /* \"vrfGeneratorArbitrumSepolia_flattened.sol\":8296:8322  pendingOwner != address(0) */\n  dup2\n  and\n  iszero\n    /* \"vrfGeneratorArbitrumSepolia_flattened.sol\":8292:8371  if (pendingOwner != address(0)) {... */\n  tag_10\n  jumpi\n    /* \"vrfGeneratorArbitrumSepolia_flattened.sol\":8332:8364  _transferOwnership(pendingOwner) */\n  tag_10\n    /* \"vrfGeneratorArbitrumSepolia_flattened.sol\":8351:8363  pendingOwner */\n  dup2\n    /* \"vrfGeneratorArbitrumSepolia_flattened.sol\":8332:8350  _transferOwnership */\n  tag_11\n    /* \"vrfGeneratorArbitrumSepolia_flattened.sol\":8332:8364  _transferOwnership(pendingOwner) */\n  jump\t// in\ntag_10:\n    /* \"vrfGeneratorArbitrumSepolia_flattened.sol\":8093:8375  constructor(address newOwner, address pendingOwner) {... */\n  pop\n  pop\n    /* \"vrfGeneratorArbitrumSepolia_flattened.sol\":7828:9721  contract ConfirmedOwnerWithProposal is IOwnable {... */\n  jump(tag_18)\n    /* \"vrfGeneratorArbitrumSepolia_flattened.sol\":9148:9387  function _transferOwnership(address to) private {... */\ntag_11:\n    /* \"vrfGeneratorArbitrumSepolia_flattened.sol\":9267:9277  msg.sender */\n  caller\n  sub(shl(0xa0, 0x01), 0x01)\n    /* \"vrfGeneratorArbitrumSepolia_flattened.sol\":9261:9277  to != msg.sender */\n  dup3\n  and\n  sub\n    /* \"vrfGeneratorArbitrumSepolia_flattened.sol\":9253:9305  require(to != msg.sender, \"Cannot transfer to self\") */\n  tag_14\n  jumpi\n  mload(0x40)\n  shl(0xe5, 0x461bcd)\n  dup2\n  mstore\n    /* \"#utility.yul\":1049:1051   */\n  0x20\n    /* \"vrfGeneratorArbitrumSepolia_flattened.sol\":9253:9305  require(to != msg.sender, \"Cannot transfer to self\") */\n  0x04\n  dup3\n  add\n    /* \"#utility.yul\":1031:1052   */\n  mstore\n    /* \"#utility.yul\":1088:1090   */\n  0x17\n    /* \"#utility.yul\":1068:1086   */\n  0x24\n  dup3\n  add\n    /* \"#utility.yul\":1061:1091   */\n  mstore\n    /* \"#utility.yul\":1127:1152   */\n  0x43616e6e6f74207472616e7366657220746f2073656c66000000000000000000\n    /* \"#utility.yul\":1107:1125   */\n  0x44\n  dup3\n  add\n    /* \"#utility.yul\":1100:1153   */\n  mstore\n    /* \"#utility.yul\":1170:1188   */\n  0x64\n  add\n    /* \"vrfGeneratorArbitrumSepolia_flattened.sol\":9253:9305  require(to != msg.sender, \"Cannot transfer to self\") */\n  tag_7\n    /* \"#utility.yul\":847:1194   */\n  jump\n    /* \"vrfGeneratorArbitrumSepolia_flattened.sol\":9253:9305  require(to != msg.sender, \"Cannot transfer to self\") */\ntag_14:\n    /* \"vrfGeneratorArbitrumSepolia_flattened.sol\":9312:9326  s_pendingOwner */\n  0x01\n    /* \"vrfGeneratorArbitrumSepolia_flattened.sol\":9312:9331  s_pendingOwner = to */\n  dup1\n  sload\n  not(sub(shl(0xa0, 0x01), 0x01))\n  and\n  sub(shl(0xa0, 0x01), 0x01)\n  dup4\n  dup2\n  and\n  swap2\n  dup3\n  or\n  swap1\n  swap3\n  sstore\n  0x00\n    /* \"vrfGeneratorArbitrumSepolia_flattened.sol\":9370:9377  s_owner */\n  dup1\n  sload\n    /* \"vrfGeneratorArbitrumSepolia_flattened.sol\":9343:9382  OwnershipTransferRequested(s_owner, to) */\n  mload(0x40)\n    /* \"vrfGeneratorArbitrumSepolia_flattened.sol\":9312:9331  s_pendingOwner = to */\n  swap3\n  swap4\n    /* \"vrfGeneratorArbitrumSepolia_flattened.sol\":9370:9377  s_owner */\n  and\n  swap2\n    /* \"vrfGeneratorArbitrumSepolia_flattened.sol\":9343:9382  OwnershipTransferRequested(s_owner, to) */\n  0xed8889f560326eb138920d842192f0eb3dd22b4f139c87a2c57538e05bae1278\n  swap2\n  swap1\n  log3\n    /* \"vrfGeneratorArbitrumSepolia_flattened.sol\":9148:9387  function _transferOwnership(address to) private {... */\n  pop\n  jump\t// out\n    /* \"#utility.yul\":14:191   */\ntag_17:\n    /* \"#utility.yul\":93:106   */\n  dup1\n  mload\n  sub(shl(0xa0, 0x01), 0x01)\n    /* \"#utility.yul\":135:166   */\n  dup2\n  and\n    /* \"#utility.yul\":125:167   */\n  dup2\n  eq\n    /* \"#utility.yul\":115:185   */\n  tag_20\n  jumpi\n    /* \"#utility.yul\":181:182   */\n  0x00\n    /* \"#utility.yul\":178:179   */\n  dup1\n    /* \"#utility.yul\":171:183   */\n  revert\n    /* \"#utility.yul\":115:185   */\ntag_20:\n    /* \"#utility.yul\":14:191   */\n  swap2\n  swap1\n  pop\n  jump\t// out\n    /* \"#utility.yul\":196:489   */\ntag_3:\n    /* \"#utility.yul\":275:281   */\n  0x00\n    /* \"#utility.yul\":283:289   */\n  dup1\n    /* \"#utility.yul\":336:338   */\n  0x40\n    /* \"#utility.yul\":324:333   */\n  dup4\n    /* \"#utility.yul\":315:322   */\n  dup6\n    /* \"#utility.yul\":311:334   */\n  sub\n    /* \"#utility.yul\":307:339   */\n  slt\n    /* \"#utility.yul\":304:356   */\n  iszero\n  tag_22\n  jumpi\n    /* \"#utility.yul\":352:353   */\n  0x00\n    /* \"#utility.yul\":349:350   */\n  dup1\n    /* \"#utility.yul\":342:354   */\n  revert\n    /* \"#utility.yul\":304:356   */\ntag_22:\n    /* \"#utility.yul\":375:415   */\n  tag_23\n    /* \"#utility.yul\":405:414   */\n  dup4\n    /* \"#utility.yul\":375:415   */\n  tag_17\n  jump\t// in\ntag_23:\n    /* \"#utility.yul\":365:415   */\n  swap2\n  pop\n    /* \"#utility.yul\":434:483   */\n  tag_24\n    /* \"#utility.yul\":479:481   */\n  0x20\n    /* \"#utility.yul\":468:477   */\n  dup5\n    /* \"#utility.yul\":464:482   */\n  add\n    /* \"#utility.yul\":434:483   */\n  tag_17\n  jump\t// in\ntag_24:\n    /* \"#utility.yul\":424:483   */\n  swap1\n  pop\n    /* \"#utility.yul\":196:489   */\n  swap3\n  pop\n  swap3\n  swap1\n  pop\n  jump\t// out\n    /* \"#utility.yul\":847:1194   */\ntag_18:\n    /* \"vrfGeneratorArbitrumSepolia_flattened.sol\":7828:9721  contract ConfirmedOwnerWithProposal is IOwnable {... */\n  dataSize(sub_0)\n  dup1\n  dataOffset(sub_0)\n  0x00\n  codecopy\n  0x00\n  return\nstop\n\nsub_0: assembly {\n        /* \"vrfGeneratorArbitrumSepolia_flattened.sol\":7828:9721  contract ConfirmedOwnerWithProposal is IOwnable {... */\n      mstore(0x40, 0x80)\n      callvalue\n      dup1\n      iszero\n      tag_1\n      jumpi\n      0x00\n      dup1\n      revert\n    tag_1:\n      pop\n      jumpi(tag_2, lt(calldatasize, 0x04))\n      shr(0xe0, calldataload(0x00))\n      dup1\n      0x79ba5097\n      eq\n      tag_3\n      jumpi\n      dup1\n      0x8da5cb5b\n      eq\n      tag_4\n      jumpi\n      dup1\n      0xf2fde38b\n      eq\n      tag_5\n      jumpi\n    tag_2:\n      0x00\n      dup1\n      revert\n        /* \"vrfGeneratorArbitrumSepolia_flattened.sol\":8638:8954  function acceptOwnership() external override {... */\n    tag_3:\n      tag_6\n      tag_7\n      jump\t// in\n    tag_6:\n      stop\n        /* \"vrfGeneratorArbitrumSepolia_flattened.sol\":8994:9075  function owner() public view override returns (address) {... */\n    tag_4:\n        /* \"vrfGeneratorArbitrumSepolia_flattened.sol\":9041:9048  address */\n      0x00\n        /* \"vrfGeneratorArbitrumSepolia_flattened.sol\":9063:9070  s_owner */\n      sload\n        /* \"vrfGeneratorArbitrumSepolia_flattened.sol\":8994:9075  function owner() public view override returns (address) {... */\n      0x40\n      dup1\n      mload\n      sub(shl(0xa0, 0x01), 0x01)\n        /* \"vrfGeneratorArbitrumSepolia_flattened.sol\":9063:9070  s_owner */\n      swap1\n      swap3\n      and\n        /* \"#utility.yul\":160:211   */\n      dup3\n      mstore\n        /* \"vrfGeneratorArbitrumSepolia_flattened.sol\":8994:9075  function owner() public view override returns (address) {... */\n      mload\n      swap1\n      dup2\n      swap1\n      sub\n        /* \"#utility.yul\":148:150   */\n      0x20\n        /* \"vrfGeneratorArbitrumSepolia_flattened.sol\":8994:9075  function owner() public view override returns (address) {... */\n      add\n      swap1\n      return\n        /* \"vrfGeneratorArbitrumSepolia_flattened.sol\":8459:8557  function transferOwnership(address to) public override onlyOwner {... */\n    tag_5:\n      tag_6\n      tag_13\n      calldatasize\n      0x04\n      tag_14\n      jump\t// in\n    tag_13:\n      tag_15\n      jump\t// in\n        /* \"vrfGeneratorArbitrumSepolia_flattened.sol\":8638:8954  function acceptOwnership() external override {... */\n    tag_7:\n        /* \"vrfGeneratorArbitrumSepolia_flattened.sol\":8762:8776  s_pendingOwner */\n      and(sub(shl(0xa0, 0x01), 0x01), sload(0x01))\n        /* \"vrfGeneratorArbitrumSepolia_flattened.sol\":8748:8758  msg.sender */\n      caller\n        /* \"vrfGeneratorArbitrumSepolia_flattened.sol\":8748:8776  msg.sender == s_pendingOwner */\n      eq\n        /* \"vrfGeneratorArbitrumSepolia_flattened.sol\":8740:8803  require(msg.sender == s_pendingOwner, \"Must be proposed owner\") */\n      tag_17\n      jumpi\n      mload(0x40)\n      shl(0xe5, 0x461bcd)\n      dup2\n      mstore\n        /* \"#utility.yul\":715:717   */\n      0x20\n        /* \"vrfGeneratorArbitrumSepolia_flattened.sol\":8740:8803  require(msg.sender == s_pendingOwner, \"Must be proposed owner\") */\n      0x04\n      dup3\n      add\n        /* \"#utility.yul\":697:718   */\n      mstore\n        /* \"#utility.yul\":754:756   */\n      0x16\n        /* \"#utility.yul\":734:752   */\n      0x24\n      dup3\n      add\n        /* \"#utility.yul\":727:757   */\n      mstore\n      shl(0x51, 0x26bab9ba10313290383937b837b9b2b21037bbb732b9)\n        /* \"#utility.yul\":773:791   */\n      0x44\n      dup3\n      add\n        /* \"#utility.yul\":766:818   */\n      mstore\n        /* \"#utility.yul\":835:853   */\n      0x64\n      add\n        /* \"vrfGeneratorArbitrumSepolia_flattened.sol\":8740:8803  require(msg.sender == s_pendingOwner, \"Must be proposed owner\") */\n    tag_18:\n      mload(0x40)\n      dup1\n      swap2\n      sub\n      swap1\n      revert\n    tag_17:\n        /* \"vrfGeneratorArbitrumSepolia_flattened.sol\":8810:8826  address oldOwner */\n      0x00\n        /* \"vrfGeneratorArbitrumSepolia_flattened.sol\":8829:8836  s_owner */\n      dup1\n      sload\n        /* \"vrfGeneratorArbitrumSepolia_flattened.sol\":8852:8862  msg.sender */\n      caller\n      not(sub(shl(0xa0, 0x01), 0x01))\n        /* \"vrfGeneratorArbitrumSepolia_flattened.sol\":8842:8862  s_owner = msg.sender */\n      dup1\n      dup4\n      and\n      dup3\n      or\n      dup5\n      sstore\n      0x01\n        /* \"vrfGeneratorArbitrumSepolia_flattened.sol\":8868:8895  s_pendingOwner = address(0) */\n      dup1\n      sload\n      swap1\n      swap2\n      and\n      swap1\n      sstore\n        /* \"vrfGeneratorArbitrumSepolia_flattened.sol\":8907:8949  OwnershipTransferred(oldOwner, msg.sender) */\n      mload(0x40)\n      sub(shl(0xa0, 0x01), 0x01)\n        /* \"vrfGeneratorArbitrumSepolia_flattened.sol\":8829:8836  s_owner */\n      swap1\n      swap3\n      and\n      swap3\n        /* \"vrfGeneratorArbitrumSepolia_flattened.sol\":8852:8862  msg.sender */\n      swap1\n      swap2\n        /* \"vrfGeneratorArbitrumSepolia_flattened.sol\":8829:8836  s_owner */\n      dup4\n      swap2\n        /* \"vrfGeneratorArbitrumSepolia_flattened.sol\":8907:8949  OwnershipTransferred(oldOwner, msg.sender) */\n      0x8be0079c531659141344cd1fd0a4f28419497f9722a3daafe3b4186f6b6457e0\n      swap2\n      log3\n        /* \"vrfGeneratorArbitrumSepolia_flattened.sol\":8683:8954  {... */\n      pop\n        /* \"vrfGeneratorArbitrumSepolia_flattened.sol\":8638:8954  function acceptOwnership() external override {... */\n      jump\t// out\n        /* \"vrfGeneratorArbitrumSepolia_flattened.sol\":8459:8557  function transferOwnership(address to) public override onlyOwner {... */\n    tag_15:\n        /* \"vrfGeneratorArbitrumSepolia_flattened.sol\":9687:9707  _validateOwnership() */\n      tag_22\n        /* \"vrfGeneratorArbitrumSepolia_flattened.sol\":9687:9705  _validateOwnership */\n      tag_23\n        /* \"vrfGeneratorArbitrumSepolia_flattened.sol\":9687:9707  _validateOwnership() */\n      jump\t// in\n    tag_22:\n        /* \"vrfGeneratorArbitrumSepolia_flattened.sol\":8530:8552  _transferOwnership(to) */\n      tag_25\n        /* \"vrfGeneratorArbitrumSepolia_flattened.sol\":8549:8551  to */\n      dup2\n        /* \"vrfGeneratorArbitrumSepolia_flattened.sol\":8530:8548  _transferOwnership */\n      tag_26\n        /* \"vrfGeneratorArbitrumSepolia_flattened.sol\":8530:8552  _transferOwnership(to) */\n      jump\t// in\n    tag_25:\n        /* \"vrfGeneratorArbitrumSepolia_flattened.sol\":8459:8557  function transferOwnership(address to) public override onlyOwner {... */\n      pop\n      jump\t// out\n        /* \"vrfGeneratorArbitrumSepolia_flattened.sol\":9421:9583  function _validateOwnership() internal view {... */\n    tag_23:\n        /* \"vrfGeneratorArbitrumSepolia_flattened.sol\":9544:9551  s_owner */\n      and(sub(shl(0xa0, 0x01), 0x01), sload(0x00))\n        /* \"vrfGeneratorArbitrumSepolia_flattened.sol\":9530:9540  msg.sender */\n      caller\n        /* \"vrfGeneratorArbitrumSepolia_flattened.sol\":9530:9551  msg.sender == s_owner */\n      eq\n        /* \"vrfGeneratorArbitrumSepolia_flattened.sol\":9522:9578  require(msg.sender == s_owner, \"Only callable by owner\") */\n      tag_28\n      jumpi\n      mload(0x40)\n      shl(0xe5, 0x461bcd)\n      dup2\n      mstore\n        /* \"#utility.yul\":1066:1068   */\n      0x20\n        /* \"vrfGeneratorArbitrumSepolia_flattened.sol\":9522:9578  require(msg.sender == s_owner, \"Only callable by owner\") */\n      0x04\n      dup3\n      add\n        /* \"#utility.yul\":1048:1069   */\n      mstore\n        /* \"#utility.yul\":1105:1107   */\n      0x16\n        /* \"#utility.yul\":1085:1103   */\n      0x24\n      dup3\n      add\n        /* \"#utility.yul\":1078:1108   */\n      mstore\n      shl(0x51, 0x27b7363c9031b0b63630b1363290313c9037bbb732b9)\n        /* \"#utility.yul\":1124:1142   */\n      0x44\n      dup3\n      add\n        /* \"#utility.yul\":1117:1169   */\n      mstore\n        /* \"#utility.yul\":1186:1204   */\n      0x64\n      add\n        /* \"vrfGeneratorArbitrumSepolia_flattened.sol\":9522:9578  require(msg.sender == s_owner, \"Only callable by owner\") */\n      tag_18\n        /* \"#utility.yul\":864:1210   */\n      jump\n        /* \"vrfGeneratorArbitrumSepolia_flattened.sol\":9522:9578  require(msg.sender == s_owner, \"Only callable by owner\") */\n    tag_28:\n        /* \"vrfGeneratorArbitrumSepolia_flattened.sol\":9421:9583  function _validateOwnership() internal view {... */\n      jump\t// out\n        /* \"vrfGeneratorArbitrumSepolia_flattened.sol\":9148:9387  function _transferOwnership(address to) private {... */\n    tag_26:\n        /* \"vrfGeneratorArbitrumSepolia_flattened.sol\":9267:9277  msg.sender */\n      caller\n      sub(shl(0xa0, 0x01), 0x01)\n        /* \"vrfGeneratorArbitrumSepolia_flattened.sol\":9261:9277  to != msg.sender */\n      dup3\n      and\n      sub\n        /* \"vrfGeneratorArbitrumSepolia_flattened.sol\":9253:9305  require(to != msg.sender, \"Cannot transfer to self\") */\n      tag_32\n      jumpi\n      mload(0x40)\n      shl(0xe5, 0x461bcd)\n      dup2\n      mstore\n        /* \"#utility.yul\":1417:1419   */\n      0x20\n        /* \"vrfGeneratorArbitrumSepolia_flattened.sol\":9253:9305  require(to != msg.sender, \"Cannot transfer to self\") */\n      0x04\n      dup3\n      add\n        /* \"#utility.yul\":1399:1420   */\n      mstore\n        /* \"#utility.yul\":1456:1458   */\n      0x17\n        /* \"#utility.yul\":1436:1454   */\n      0x24\n      dup3\n      add\n        /* \"#utility.yul\":1429:1459   */\n      mstore\n        /* \"#utility.yul\":1495:1520   */\n      0x43616e6e6f74207472616e7366657220746f2073656c66000000000000000000\n        /* \"#utility.yul\":1475:1493   */\n      0x44\n      dup3\n      add\n        /* \"#utility.yul\":1468:1521   */\n      mstore\n        /* \"#utility.yul\":1538:1556   */\n      0x64\n      add\n        /* \"vrfGeneratorArbitrumSepolia_flattened.sol\":9253:9305  require(to != msg.sender, \"Cannot transfer to self\") */\n      tag_18\n        /* \"#utility.yul\":1215:1562   */\n      jump\n        /* \"vrfGeneratorArbitrumSepolia_flattened.sol\":9253:9305  require(to != msg.sender, \"Cannot transfer to self\") */\n    tag_32:\n        /* \"vrfGeneratorArbitrumSepolia_flattened.sol\":9312:9326  s_pendingOwner */\n      0x01\n        /* \"vrfGeneratorArbitrumSepolia_flattened.sol\":9312:9331  s_pendingOwner = to */\n      dup1\n      sload\n      not(sub(shl(0xa0, 0x01), 0x01))\n      and\n      sub(shl(0xa0, 0x01), 0x01)\n      dup4\n      dup2\n      and\n      swap2\n      dup3\n      or\n      swap1\n      swap3\n      sstore\n      0x00\n        /* \"vrfGeneratorArbitrumSepolia_flattened.sol\":9370:9377  s_owner */\n      dup1\n      sload\n        /* \"vrfGeneratorArbitrumSepolia_flattened.sol\":9343:9382  OwnershipTransferRequested(s_owner, to) */\n      mload(0x40)\n        /* \"vrfGeneratorArbitrumSepolia_flattened.sol\":9312:9331  s_pendingOwner = to */\n      swap3\n      swap4\n        /* \"vrfGeneratorArbitrumSepolia_flattened.sol\":9370:9377  s_owner */\n      and\n      swap2\n        /* \"vrfGeneratorArbitrumSepolia_flattened.sol\":9343:9382  OwnershipTransferRequested(s_owner, to) */\n      0xed8889f560326eb138920d842192f0eb3dd22b4f139c87a2c57538e05bae1278\n      swap2\n      swap1\n      log3\n        /* \"vrfGeneratorArbitrumSepolia_flattened.sol\":9148:9387  function _transferOwnership(address to) private {... */\n      pop\n      jump\t// out\n        /* \"#utility.yul\":222:508   */\n    tag_14:\n        /* \"#utility.yul\":281:287   */\n      0x00\n        /* \"#utility.yul\":334:336   */\n      0x20\n        /* \"#utility.yul\":322:331   */\n      dup3\n        /* \"#utility.yul\":313:320   */\n      dup5\n        /* \"#utility.yul\":309:332   */\n      sub\n        /* \"#utility.yul\":305:337   */\n      slt\n        /* \"#utility.yul\":302:354   */\n      iszero\n      tag_38\n      jumpi\n        /* \"#utility.yul\":350:351   */\n      0x00\n        /* \"#utility.yul\":347:348   */\n      dup1\n        /* \"#utility.yul\":340:352   */\n      revert\n        /* \"#utility.yul\":302:354   */\n    tag_38:\n        /* \"#utility.yul\":376:399   */\n      dup2\n      calldataload\n      sub(shl(0xa0, 0x01), 0x01)\n        /* \"#utility.yul\":428:459   */\n      dup2\n      and\n        /* \"#utility.yul\":418:460   */\n      dup2\n      eq\n        /* \"#utility.yul\":408:478   */\n      tag_39\n      jumpi\n        /* \"#utility.yul\":474:475   */\n      0x00\n        /* \"#utility.yul\":471:472   */\n      dup1\n        /* \"#utility.yul\":464:476   */\n      revert\n        /* \"#utility.yul\":408:478   */\n    tag_39:\n        /* \"#utility.yul\":497:502   */\n      swap4\n        /* \"#utility.yul\":222:508   */\n      swap3\n      pop\n      pop\n      pop\n      jump\t// out\n\n    auxdata: 0xa2646970667358221220ab149bdebec2b7d6100bd8d697dfed87ea371a5c202926901be3b02524f3753964736f6c63430008130033\n}\n",
				"bytecode": {
					"linkReferences": {},
					"object": "608060405234801561001057600080fd5b5060405161047138038061047183398101604081905261002f91610186565b6001600160a01b03821661008a5760405162461bcd60e51b815260206004820152601860248201527f43616e6e6f7420736574206f776e657220746f207a65726f000000000000000060448201526064015b60405180910390fd5b600080546001600160a01b0319166001600160a01b03848116919091179091558116156100ba576100ba816100c1565b50506101b9565b336001600160a01b038216036101195760405162461bcd60e51b815260206004820152601760248201527f43616e6e6f74207472616e7366657220746f2073656c660000000000000000006044820152606401610081565b600180546001600160a01b0319166001600160a01b0383811691821790925560008054604051929316917fed8889f560326eb138920d842192f0eb3dd22b4f139c87a2c57538e05bae12789190a350565b80516001600160a01b038116811461018157600080fd5b919050565b6000806040838503121561019957600080fd5b6101a28361016a565b91506101b06020840161016a565b90509250929050565b6102a9806101c86000396000f3fe608060405234801561001057600080fd5b50600436106100415760003560e01c806379ba5097146100465780638da5cb5b14610050578063f2fde38b1461006f575b600080fd5b61004e610082565b005b600054604080516001600160a01b039092168252519081900360200190f35b61004e61007d366004610243565b610131565b6001546001600160a01b031633146100da5760405162461bcd60e51b815260206004820152601660248201527526bab9ba10313290383937b837b9b2b21037bbb732b960511b60448201526064015b60405180910390fd5b60008054336001600160a01b0319808316821784556001805490911690556040516001600160a01b0390921692909183917f8be0079c531659141344cd1fd0a4f28419497f9722a3daafe3b4186f6b6457e091a350565b610139610145565b6101428161019a565b50565b6000546001600160a01b031633146101985760405162461bcd60e51b815260206004820152601660248201527527b7363c9031b0b63630b1363290313c9037bbb732b960511b60448201526064016100d1565b565b336001600160a01b038216036101f25760405162461bcd60e51b815260206004820152601760248201527f43616e6e6f74207472616e7366657220746f2073656c6600000000000000000060448201526064016100d1565b600180546001600160a01b0319166001600160a01b0383811691821790925560008054604051929316917fed8889f560326eb138920d842192f0eb3dd22b4f139c87a2c57538e05bae12789190a350565b60006020828403121561025557600080fd5b81356001600160a01b038116811461026c57600080fd5b939250505056fea2646970667358221220ab149bdebec2b7d6100bd8d697dfed87ea371a5c202926901be3b02524f3753964736f6c63430008130033",
					"opcodes": "PUSH1 0x80 PUSH1 0x40 MSTORE CALLVALUE DUP1 ISZERO PUSH2 0x10 JUMPI PUSH1 0x0 DUP1 REVERT JUMPDEST POP PUSH1 0x40 MLOAD PUSH2 0x471 CODESIZE SUB DUP1 PUSH2 0x471 DUP4 CODECOPY DUP2 ADD PUSH1 0x40 DUP2 SWAP1 MSTORE PUSH2 0x2F SWAP2 PUSH2 0x186 JUMP JUMPDEST PUSH1 0x1 PUSH1 0x1 PUSH1 0xA0 SHL SUB DUP3 AND PUSH2 0x8A JUMPI PUSH1 0x40 MLOAD PUSH3 0x461BCD PUSH1 0xE5 SHL DUP2 MSTORE PUSH1 0x20 PUSH1 0x4 DUP3 ADD MSTORE PUSH1 0x18 PUSH1 0x24 DUP3 ADD MSTORE PUSH32 0x43616E6E6F7420736574206F776E657220746F207A65726F0000000000000000 PUSH1 0x44 DUP3 ADD MSTORE PUSH1 0x64 ADD JUMPDEST PUSH1 0x40 MLOAD DUP1 SWAP2 SUB SWAP1 REVERT JUMPDEST PUSH1 0x0 DUP1 SLOAD PUSH1 0x1 PUSH1 0x1 PUSH1 0xA0 SHL SUB NOT AND PUSH1 0x1 PUSH1 0x1 PUSH1 0xA0 SHL SUB DUP5 DUP2 AND SWAP2 SWAP1 SWAP2 OR SWAP1 SWAP2 SSTORE DUP2 AND ISZERO PUSH2 0xBA JUMPI PUSH2 0xBA DUP2 PUSH2 0xC1 JUMP JUMPDEST POP POP PUSH2 0x1B9 JUMP JUMPDEST CALLER PUSH1 0x1 PUSH1 0x1 PUSH1 0xA0 SHL SUB DUP3 AND SUB PUSH2 0x119 JUMPI PUSH1 0x40 MLOAD PUSH3 0x461BCD PUSH1 0xE5 SHL DUP2 MSTORE PUSH1 0x20 PUSH1 0x4 DUP3 ADD MSTORE PUSH1 0x17 PUSH1 0x24 DUP3 ADD MSTORE PUSH32 0x43616E6E6F74207472616E7366657220746F2073656C66000000000000000000 PUSH1 0x44 DUP3 ADD MSTORE PUSH1 0x64 ADD PUSH2 0x81 JUMP JUMPDEST PUSH1 0x1 DUP1 SLOAD PUSH1 0x1 PUSH1 0x1 PUSH1 0xA0 SHL SUB NOT AND PUSH1 0x1 PUSH1 0x1 PUSH1 0xA0 SHL SUB DUP4 DUP2 AND SWAP2 DUP3 OR SWAP1 SWAP3 SSTORE PUSH1 0x0 DUP1 SLOAD PUSH1 0x40 MLOAD SWAP3 SWAP4 AND SWAP2 PUSH32 0xED8889F560326EB138920D842192F0EB3DD22B4F139C87A2C57538E05BAE1278 SWAP2 SWAP1 LOG3 POP JUMP JUMPDEST DUP1 MLOAD PUSH1 0x1 PUSH1 0x1 PUSH1 0xA0 SHL SUB DUP2 AND DUP2 EQ PUSH2 0x181 JUMPI PUSH1 0x0 DUP1 REVERT JUMPDEST SWAP2 SWAP1 POP JUMP JUMPDEST PUSH1 0x0 DUP1 PUSH1 0x40 DUP4 DUP6 SUB SLT ISZERO PUSH2 0x199 JUMPI PUSH1 0x0 DUP1 REVERT JUMPDEST PUSH2 0x1A2 DUP4 PUSH2 0x16A JUMP JUMPDEST SWAP2 POP PUSH2 0x1B0 PUSH1 0x20 DUP5 ADD PUSH2 0x16A JUMP JUMPDEST SWAP1 POP SWAP3 POP SWAP3 SWAP1 POP JUMP JUMPDEST PUSH2 0x2A9 DUP1 PUSH2 0x1C8 PUSH1 0x0 CODECOPY PUSH1 0x0 RETURN INVALID PUSH1 0x80 PUSH1 0x40 MSTORE CALLVALUE DUP1 ISZERO PUSH2 0x10 JUMPI PUSH1 0x0 DUP1 REVERT JUMPDEST POP PUSH1 0x4 CALLDATASIZE LT PUSH2 0x41 JUMPI PUSH1 0x0 CALLDATALOAD PUSH1 0xE0 SHR DUP1 PUSH4 0x79BA5097 EQ PUSH2 0x46 JUMPI DUP1 PUSH4 0x8DA5CB5B EQ PUSH2 0x50 JUMPI DUP1 PUSH4 0xF2FDE38B EQ PUSH2 0x6F JUMPI JUMPDEST PUSH1 0x0 DUP1 REVERT JUMPDEST PUSH2 0x4E PUSH2 0x82 JUMP JUMPDEST STOP JUMPDEST PUSH1 0x0 SLOAD PUSH1 0x40 DUP1 MLOAD PUSH1 0x1 PUSH1 0x1 PUSH1 0xA0 SHL SUB SWAP1 SWAP3 AND DUP3 MSTORE MLOAD SWAP1 DUP2 SWAP1 SUB PUSH1 0x20 ADD SWAP1 RETURN JUMPDEST PUSH2 0x4E PUSH2 0x7D CALLDATASIZE PUSH1 0x4 PUSH2 0x243 JUMP JUMPDEST PUSH2 0x131 JUMP JUMPDEST PUSH1 0x1 SLOAD PUSH1 0x1 PUSH1 0x1 PUSH1 0xA0 SHL SUB AND CALLER EQ PUSH2 0xDA JUMPI PUSH1 0x40 MLOAD PUSH3 0x461BCD PUSH1 0xE5 SHL DUP2 MSTORE PUSH1 0x20 PUSH1 0x4 DUP3 ADD MSTORE PUSH1 0x16 PUSH1 0x24 DUP3 ADD MSTORE PUSH22 0x26BAB9BA10313290383937B837B9B2B21037BBB732B9 PUSH1 0x51 SHL PUSH1 0x44 DUP3 ADD MSTORE PUSH1 0x64 ADD JUMPDEST PUSH1 0x40 MLOAD DUP1 SWAP2 SUB SWAP1 REVERT JUMPDEST PUSH1 0x0 DUP1 SLOAD CALLER PUSH1 0x1 PUSH1 0x1 PUSH1 0xA0 SHL SUB NOT DUP1 DUP4 AND DUP3 OR DUP5 SSTORE PUSH1 0x1 DUP1 SLOAD SWAP1 SWAP2 AND SWAP1 SSTORE PUSH1 0x40 MLOAD PUSH1 0x1 PUSH1 0x1 PUSH1 0xA0 SHL SUB SWAP1 SWAP3 AND SWAP3 SWAP1 SWAP2 DUP4 SWAP2 PUSH32 0x8BE0079C531659141344CD1FD0A4F28419497F9722A3DAAFE3B4186F6B6457E0 SWAP2 LOG3 POP JUMP JUMPDEST PUSH2 0x139 PUSH2 0x145 JUMP JUMPDEST PUSH2 0x142 DUP2 PUSH2 0x19A JUMP JUMPDEST POP JUMP JUMPDEST PUSH1 0x0 SLOAD PUSH1 0x1 PUSH1 0x1 PUSH1 0xA0 SHL SUB AND CALLER EQ PUSH2 0x198 JUMPI PUSH1 0x40 MLOAD PUSH3 0x461BCD PUSH1 0xE5 SHL DUP2 MSTORE PUSH1 0x20 PUSH1 0x4 DUP3 ADD MSTORE PUSH1 0x16 PUSH1 0x24 DUP3 ADD MSTORE PUSH22 0x27B7363C9031B0B63630B1363290313C9037BBB732B9 PUSH1 0x51 SHL PUSH1 0x44 DUP3 ADD MSTORE PUSH1 0x64 ADD PUSH2 0xD1 JUMP JUMPDEST JUMP JUMPDEST CALLER PUSH1 0x1 PUSH1 0x1 PUSH1 0xA0 SHL SUB DUP3 AND SUB PUSH2 0x1F2 JUMPI PUSH1 0x40 MLOAD PUSH3 0x461BCD PUSH1 0xE5 SHL DUP2 MSTORE PUSH1 0x20 PUSH1 0x4 DUP3 ADD MSTORE PUSH1 0x17 PUSH1 0x24 DUP3 ADD MSTORE PUSH32 0x43616E6E6F74207472616E7366657220746F2073656C66000000000000000000 PUSH1 0x44 DUP3 ADD MSTORE PUSH1 0x64 ADD PUSH2 0xD1 JUMP JUMPDEST PUSH1 0x1 DUP1 SLOAD PUSH1 0x1 PUSH1 0x1 PUSH1 0xA0 SHL SUB NOT AND PUSH1 0x1 PUSH1 0x1 PUSH1 0xA0 SHL SUB DUP4 DUP2 AND SWAP2 DUP3 OR SWAP1 SWAP3 SSTORE PUSH1 0x0 DUP1 SLOAD PUSH1 0x40 MLOAD SWAP3 SWAP4 AND SWAP2 PUSH32 0xED8889F560326EB138920D842192F0EB3DD22B4F139C87A2C57538E05BAE1278 SWAP2 SWAP1 LOG3 POP JUMP JUMPDEST PUSH1 0x0 PUSH1 0x20 DUP3 DUP5 SUB SLT ISZERO PUSH2 0x255 JUMPI PUSH1 0x0 DUP1 REVERT JUMPDEST DUP2 CALLDATALOAD PUSH1 0x1 PUSH1 0x1 PUSH1 0xA0 SHL SUB DUP2 AND DUP2 EQ PUSH2 0x26C JUMPI PUSH1 0x0 DUP1 REVERT JUMPDEST SWAP4 SWAP3 POP POP POP JUMP INVALID LOG2 PUSH5 0x6970667358 0x22 SLT KECCAK256 0xAB EQ SWAP12 0xDE 0xBE 0xC2 0xB7 0xD6 LT SIGNEXTEND 0xD8 0xD6 SWAP8 0xDF 0xED DUP8 0xEA CALLDATACOPY BYTE 0x5C KECCAK256 0x29 0x26 SWAP1 SHL 0xE3 0xB0 0x25 0x24 RETURN PUSH22 0x3964736F6C6343000813003300000000000000000000 "
				},
				"gasEstimates": {
					"creation": {
						"codeDepositCost": "136200",
						"executionCost": "infinite",
						"totalCost": "infinite"
					},
					"external": {
						"acceptOwnership()": "52277",
						"owner()": "2292",
						"transferOwnership(address)": "30423"
					},
					"internal": {
						"_transferOwnership(address)": "infinite",
						"_validateOwnership()": "infinite"
					}
				},
				"methodIdentifiers": {
					"acceptOwnership()": "79ba5097",
					"owner()": "8da5cb5b",
					"transferOwnership(address)": "f2fde38b"
				}
			},
			"storageLayout": {
				"storage": [
					{
						"astId": 176,
						"contract": "vrfGeneratorArbitrumSepolia_flattened.sol:ConfirmedOwnerWithProposal",
						"label": "s_owner",
						"offset": 0,
						"slot": "0",
						"type": "t_address"
					},
					{
						"astId": 178,
						"contract": "vrfGeneratorArbitrumSepolia_flattened.sol:ConfirmedOwnerWithProposal",
						"label": "s_pendingOwner",
						"offset": 0,
						"slot": "1",
						"type": "t_address"
					}
				],
				"types": {
					"t_address": {
						"encoding": "inplace",
						"label": "address",
						"numberOfBytes": "20"
					}
				}
			},
			"userdoc": {
				"kind": "user",
				"methods": {
					"acceptOwnership()": {
						"notice": "Allows an ownership transfer to be completed by the recipient."
					},
					"owner()": {
						"notice": "Get the current owner"
					},
					"transferOwnership(address)": {
						"notice": "Allows an owner to begin transferring ownership to a new address."
					}
				},
				"notice": "A contract with helpers for basic contract ownership.",
				"version": 1
			}
		}
	}
}