{
	"vrfGeneratorArbitrumSepolia_flattened.sol": {
		"vrfGeneratorArbitrumSepolia": {
			"abi": [
				{
					"inputs": [],
					"stateMutability": "nonpayable",
					"type": "constructor"
				},
				{
					"inputs": [
						{
							"internalType": "address",
							"name": "router",
							"type": "address"
						}
					],
					"name": "InvalidRouter",
					"type": "error"
				},
				{
					"inputs": [
						{
							"internalType": "uint256",
							"name": "currentBalance",
							"type": "uint256"
						},
						{
							"internalType": "uint256",
							"name": "calculatedFees",
							"type": "uint256"
						}
					],
					"name": "NotEnoughBalance",
					"type": "error"
				},
				{
					"inputs": [
						{
							"internalType": "address",
							"name": "have",
							"type": "address"
						},
						{
							"internalType": "address",
							"name": "want",
							"type": "address"
						}
					],
					"name": "OnlyCoordinatorCanFulfill",
					"type": "error"
				},
				{
					"inputs": [
						{
							"internalType": "address",
							"name": "have",
							"type": "address"
						},
						{
							"internalType": "address",
							"name": "owner",
							"type": "address"
						},
						{
							"internalType": "address",
							"name": "coordinator",
							"type": "address"
						}
					],
					"name": "OnlyOwnerOrCoordinator",
					"type": "error"
				},
				{
					"inputs": [],
					"name": "ZeroAddress",
					"type": "error"
				},
				{
					"anonymous": false,
					"inputs": [
						{
							"indexed": false,
							"internalType": "address",
							"name": "vrfCoordinator",
							"type": "address"
						}
					],
					"name": "CoordinatorSet",
					"type": "event"
				},
				{
					"anonymous": false,
					"inputs": [
						{
							"indexed": true,
							"internalType": "bytes32",
							"name": "messageId",
							"type": "bytes32"
						},
						{
							"indexed": true,
							"internalType": "uint64",
							"name": "sourceChainSelector",
							"type": "uint64"
						},
						{
							"indexed": false,
							"internalType": "address",
							"name": "sender",
							"type": "address"
						},
						{
							"indexed": false,
							"internalType": "string",
							"name": "text",
							"type": "string"
						}
					],
					"name": "MessageReceived",
					"type": "event"
				},
				{
					"anonymous": false,
					"inputs": [
						{
							"indexed": true,
							"internalType": "bytes32",
							"name": "messageId",
							"type": "bytes32"
						},
						{
							"indexed": true,
							"internalType": "uint64",
							"name": "destinationChainSelector",
							"type": "uint64"
						},
						{
							"indexed": false,
							"internalType": "address",
							"name": "receiver",
							"type": "address"
						},
						{
							"indexed": false,
							"internalType": "uint256",
							"name": "randomNumber",
							"type": "uint256"
						},
						{
							"indexed": false,
							"internalType": "address",
							"name": "feeToken",
							"type": "address"
						},
						{
							"indexed": false,
							"internalType": "uint256",
							"name": "fees",
							"type": "uint256"
						}
					],
					"name": "MessageSent",
					"type": "event"
				},
				{
					"anonymous": false,
					"inputs": [
						{
							"indexed": true,
							"internalType": "address",
							"name": "from",
							"type": "address"
						},
						{
							"indexed": true,
							"internalType": "address",
							"name": "to",
							"type": "address"
						}
					],
					"name": "OwnershipTransferRequested",
					"type": "event"
				},
				{
					"anonymous": false,
					"inputs": [
						{
							"indexed": true,
							"internalType": "address",
							"name": "from",
							"type": "address"
						},
						{
							"indexed": true,
							"internalType": "address",
							"name": "to",
							"type": "address"
						}
					],
					"name": "OwnershipTransferred",
					"type": "event"
				},
				{
					"inputs": [],
					"name": "acceptOwnership",
					"outputs": [],
					"stateMutability": "nonpayable",
					"type": "function"
				},
				{
					"inputs": [
						{
							"components": [
								{
									"internalType": "bytes32",
									"name": "messageId",
									"type": "bytes32"
								},
								{
									"internalType": "uint64",
									"name": "sourceChainSelector",
									"type": "uint64"
								},
								{
									"internalType": "bytes",
									"name": "sender",
									"type": "bytes"
								},
								{
									"internalType": "bytes",
									"name": "data",
									"type": "bytes"
								},
								{
									"components": [
										{
											"internalType": "address",
											"name": "token",
											"type": "address"
										},
										{
											"internalType": "uint256",
											"name": "amount",
											"type": "uint256"
										}
									],
									"internalType": "struct Client.EVMTokenAmount[]",
									"name": "destTokenAmounts",
									"type": "tuple[]"
								}
							],
							"internalType": "struct Client.Any2EVMMessage",
							"name": "message",
							"type": "tuple"
						}
					],
					"name": "ccipReceive",
					"outputs": [],
					"stateMutability": "nonpayable",
					"type": "function"
				},
				{
					"inputs": [],
					"name": "generateRandomNumber",
					"outputs": [],
					"stateMutability": "nonpayable",
					"type": "function"
				},
				{
					"inputs": [],
					"name": "getRouter",
					"outputs": [
						{
							"internalType": "address",
							"name": "",
							"type": "address"
						}
					],
					"stateMutability": "view",
					"type": "function"
				},
				{
					"inputs": [],
					"name": "owner",
					"outputs": [
						{
							"internalType": "address",
							"name": "",
							"type": "address"
						}
					],
					"stateMutability": "view",
					"type": "function"
				},
				{
					"inputs": [
						{
							"internalType": "uint256",
							"name": "requestId",
							"type": "uint256"
						},
						{
							"internalType": "uint256[]",
							"name": "randomWords",
							"type": "uint256[]"
						}
					],
					"name": "rawFulfillRandomWords",
					"outputs": [],
					"stateMutability": "nonpayable",
					"type": "function"
				},
				{
					"inputs": [],
					"name": "s_lastReceivedMessageId",
					"outputs": [
						{
							"internalType": "bytes32",
							"name": "",
							"type": "bytes32"
						}
					],
					"stateMutability": "view",
					"type": "function"
				},
				{
					"inputs": [],
					"name": "s_lastReceivedText",
					"outputs": [
						{
							"internalType": "string",
							"name": "",
							"type": "string"
						}
					],
					"stateMutability": "view",
					"type": "function"
				},
				{
					"inputs": [],
					"name": "s_vrfCoordinator",
					"outputs": [
						{
							"internalType": "contract IVRFCoordinatorV2Plus",
							"name": "",
							"type": "address"
						}
					],
					"stateMutability": "view",
					"type": "function"
				},
				{
					"inputs": [
						{
							"internalType": "uint64",
							"name": "destinationChainSelector",
							"type": "uint64"
						},
						{
							"internalType": "address",
							"name": "receiver",
							"type": "address"
						},
						{
							"internalType": "uint256",
							"name": "randomNumber",
							"type": "uint256"
						}
					],
					"name": "sendMessage",
					"outputs": [
						{
							"internalType": "bytes32",
							"name": "messageId",
							"type": "bytes32"
						}
					],
					"stateMutability": "nonpayable",
					"type": "function"
				},
				{
					"inputs": [
						{
							"internalType": "address",
							"name": "_vrfCoordinator",
							"type": "address"
						}
					],
					"name": "setCoordinator",
					"outputs": [],
					"stateMutability": "nonpayable",
					"type": "function"
				},
				{
					"inputs": [
						{
							"internalType": "bytes4",
							"name": "interfaceId",
							"type": "bytes4"
						}
					],
					"name": "supportsInterface",
					"outputs": [
						{
							"internalType": "bool",
							"name": "",
							"type": "bool"
						}
					],
					"stateMutability": "pure",
					"type": "function"
				},
				{
					"inputs": [
						{
							"internalType": "address",
							"name": "to",
							"type": "address"
						}
					],
					"name": "transferOwnership",
					"outputs": [],
					"stateMutability": "nonpayable",
					"type": "function"
				}
			],
			"devdoc": {
				"kind": "dev",
				"methods": {
					"ccipReceive((bytes32,uint64,bytes,bytes,(address,uint256)[]))": {
						"details": "Note ensure you check the msg.sender is the OffRampRouter",
						"params": {
							"message": "CCIP Message"
						}
					},
					"getRouter()": {
						"returns": {
							"_0": "CCIP router address"
						}
					},
					"supportsInterface(bytes4)": {
						"details": "Should indicate whether the contract implements IAny2EVMMessageReceiver e.g. return interfaceId == type(IAny2EVMMessageReceiver).interfaceId || interfaceId == type(IERC165).interfaceId This allows CCIP to check if ccipReceive is available before calling it. If this returns false or reverts, only tokens are transferred to the receiver. If this returns true, tokens are transferred and ccipReceive is called atomically. Additionally, if the receiver address does not have code associated with it at the time of execution (EXTCODESIZE returns 0), only tokens will be transferred.",
						"params": {
							"interfaceId": "The interfaceId to check"
						},
						"returns": {
							"_0": "true if the interfaceId is supported"
						}
					}
				},
				"version": 1
			},
			"evm": {
				"assembly": "    /* \"vrfGeneratorArbitrumSepolia_flattened.sol\":26890:32654  contract vrfGeneratorArbitrumSepolia is CCIPReceiver, VRFConsumerBaseV2Plus {... */\n  mstore(0x40, 0xc0)\n    /* \"vrfGeneratorArbitrumSepolia_flattened.sol\":27083:27173  address vrfCoordinatorArbitrumSepolia =... */\n  0x03\n  dup1\n  sload\n  not(sub(shl(0xa0, 0x01), 0x01))\n  swap1\n  dup2\n  and\n    /* \"vrfGeneratorArbitrumSepolia_flattened.sol\":27131:27173  0x5CE8D5A2BC84beb22a398CCA51996F7930313D61 */\n  0x5ce8d5a2bc84beb22a398cca51996f7930313d61\n    /* \"vrfGeneratorArbitrumSepolia_flattened.sol\":27083:27173  address vrfCoordinatorArbitrumSepolia =... */\n  or\n  swap1\n  swap2\n  sstore\n    /* \"vrfGeneratorArbitrumSepolia_flattened.sol\":27254:27320  0x1770bdc7eec7771f7ba4ffd640f34260d7f095b79c92d34a5b2551d6f6cfd2be */\n  0x1770bdc7eec7771f7ba4ffd640f34260d7f095b79c92d34a5b2551d6f6cfd2be\n    /* \"vrfGeneratorArbitrumSepolia_flattened.sol\":27223:27320  bytes32 vrfV2KeyHash =... */\n  0x04\n  sstore\n    /* \"vrfGeneratorArbitrumSepolia_flattened.sol\":28515:28613  IRouterClient private s_router =... */\n  0x07\n  dup1\n  sload\n  dup3\n  and\n    /* \"vrfGeneratorArbitrumSepolia_flattened.sol\":28570:28612  0x2a9C5afB0d0e4BAb2BCdaE109EC4b0c4Be15a165 */\n  0x2a9c5afb0d0e4bab2bcdae109ec4b0c4be15a165\n    /* \"vrfGeneratorArbitrumSepolia_flattened.sol\":28515:28613  IRouterClient private s_router =... */\n  or\n  swap1\n  sstore\n    /* \"vrfGeneratorArbitrumSepolia_flattened.sol\":28620:28731  LinkTokenInterface private s_linkToken =... */\n  0x08\n  dup1\n  sload\n  swap1\n  swap2\n  and\n    /* \"vrfGeneratorArbitrumSepolia_flattened.sol\":28688:28730  0xb1D4538B4571d411F07960EF2838Ce337FE1E80E */\n  0xb1d4538b4571d411f07960ef2838ce337fe1e80e\n    /* \"vrfGeneratorArbitrumSepolia_flattened.sol\":28620:28731  LinkTokenInterface private s_linkToken =... */\n  or\n  swap1\n  sstore\n    /* \"vrfGeneratorArbitrumSepolia_flattened.sol\":28738:28998  constructor()... */\n  callvalue\n  dup1\n  iszero\n  tag_1\n  jumpi\n  0x00\n  dup1\n  revert\ntag_1:\n  pop\n    /* \"vrfGeneratorArbitrumSepolia_flattened.sol\":28782:28811  vrfCoordinatorArbitrumSepolia */\n  and(sub(shl(0xa0, 0x01), 0x01), sload(0x03))\n    /* \"vrfGeneratorArbitrumSepolia_flattened.sol\":16129:16139  msg.sender */\n  caller\n  dup1\n    /* \"vrfGeneratorArbitrumSepolia_flattened.sol\":28782:28811  vrfCoordinatorArbitrumSepolia */\n  0x00\n    /* \"vrfGeneratorArbitrumSepolia_flattened.sol\":28834:28876  0x2a9C5afB0d0e4BAb2BCdaE109EC4b0c4Be15a165 */\n  0x2a9c5afb0d0e4bab2bcdae109ec4b0c4be15a165\n    /* \"vrfGeneratorArbitrumSepolia_flattened.sol\":21670:21728  if (router == address(0)) revert InvalidRouter(address(0)) */\n  jump(tag_8)\n    /* \"vrfGeneratorArbitrumSepolia_flattened.sol\":21703:21728  InvalidRouter(address(0)) */\ntag_9:\n  mload(0x40)\n  dup1\n  swap2\n  sub\n  swap1\n  revert\n    /* \"vrfGeneratorArbitrumSepolia_flattened.sol\":21670:21728  if (router == address(0)) revert InvalidRouter(address(0)) */\ntag_8:\n  sub(shl(0xa0, 0x01), 0x01)\n    /* \"vrfGeneratorArbitrumSepolia_flattened.sol\":21734:21755  i_ccipRouter = router */\n  swap1\n  dup2\n  and\n  0x80\n  mstore\n    /* \"vrfGeneratorArbitrumSepolia_flattened.sol\":8210:8232  newOwner != address(0) */\n  dup3\n  and\n    /* \"vrfGeneratorArbitrumSepolia_flattened.sol\":8202:8261  require(newOwner != address(0), \"Cannot set owner to zero\") */\n  tag_12\n  jumpi\n  mload(0x40)\n  shl(0xe5, 0x461bcd)\n  dup2\n  mstore\n    /* \"#utility.yul\":424:426   */\n  0x20\n    /* \"vrfGeneratorArbitrumSepolia_flattened.sol\":8202:8261  require(newOwner != address(0), \"Cannot set owner to zero\") */\n  0x04\n  dup3\n  add\n    /* \"#utility.yul\":406:427   */\n  mstore\n    /* \"#utility.yul\":463:465   */\n  0x18\n    /* \"#utility.yul\":443:461   */\n  0x24\n  dup3\n  add\n    /* \"#utility.yul\":436:466   */\n  mstore\n    /* \"#utility.yul\":502:528   */\n  0x43616e6e6f7420736574206f776e657220746f207a65726f0000000000000000\n    /* \"#utility.yul\":482:500   */\n  0x44\n  dup3\n  add\n    /* \"#utility.yul\":475:529   */\n  mstore\n    /* \"#utility.yul\":546:564   */\n  0x64\n  add\n    /* \"vrfGeneratorArbitrumSepolia_flattened.sol\":8202:8261  require(newOwner != address(0), \"Cannot set owner to zero\") */\n  tag_9\n    /* \"#utility.yul\":222:570   */\n  jump\n    /* \"vrfGeneratorArbitrumSepolia_flattened.sol\":8202:8261  require(newOwner != address(0), \"Cannot set owner to zero\") */\ntag_12:\n    /* \"vrfGeneratorArbitrumSepolia_flattened.sol\":8268:8275  s_owner */\n  0x00\n    /* \"vrfGeneratorArbitrumSepolia_flattened.sol\":8268:8286  s_owner = newOwner */\n  dup1\n  sload\n  not(sub(shl(0xa0, 0x01), 0x01))\n  and\n  sub(shl(0xa0, 0x01), 0x01)\n  dup5\n  dup2\n  and\n  swap2\n  swap1\n  swap2\n  or\n  swap1\n  swap2\n  sstore\n    /* \"vrfGeneratorArbitrumSepolia_flattened.sol\":8296:8322  pendingOwner != address(0) */\n  dup2\n  and\n  iszero\n    /* \"vrfGeneratorArbitrumSepolia_flattened.sol\":8292:8371  if (pendingOwner != address(0)) {... */\n  tag_16\n  jumpi\n    /* \"vrfGeneratorArbitrumSepolia_flattened.sol\":8332:8364  _transferOwnership(pendingOwner) */\n  tag_16\n    /* \"vrfGeneratorArbitrumSepolia_flattened.sol\":8351:8363  pendingOwner */\n  dup2\n    /* \"vrfGeneratorArbitrumSepolia_flattened.sol\":8332:8350  _transferOwnership */\n  tag_17\n    /* \"vrfGeneratorArbitrumSepolia_flattened.sol\":8332:8364  _transferOwnership(pendingOwner) */\n  jump\t// in\ntag_16:\n  pop\n  pop\n  pop\n  sub(shl(0xa0, 0x01), 0x01)\n    /* \"vrfGeneratorArbitrumSepolia_flattened.sol\":16151:16180  _vrfCoordinator == address(0) */\n  dup2\n  and\n    /* \"vrfGeneratorArbitrumSepolia_flattened.sol\":16147:16217  if (_vrfCoordinator == address(0)) {... */\n  tag_20\n  jumpi\n    /* \"vrfGeneratorArbitrumSepolia_flattened.sol\":16197:16210  ZeroAddress() */\n  mload(0x40)\n  shl(0xe0, 0xd92e233d)\n  dup2\n  mstore\n  0x04\n  add\n  mload(0x40)\n  dup1\n  swap2\n  sub\n  swap1\n  revert\n    /* \"vrfGeneratorArbitrumSepolia_flattened.sol\":16147:16217  if (_vrfCoordinator == address(0)) {... */\ntag_20:\n    /* \"vrfGeneratorArbitrumSepolia_flattened.sol\":16222:16238  s_vrfCoordinator */\n  0x02\n    /* \"vrfGeneratorArbitrumSepolia_flattened.sol\":16222:16279  s_vrfCoordinator = IVRFCoordinatorV2Plus(_vrfCoordinator) */\n  dup1\n  sload\n  not(sub(shl(0xa0, 0x01), 0x01))\n  and\n  sub(shl(0xa0, 0x01), 0x01)\n  swap3\n  swap1\n  swap3\n  and\n  swap2\n  swap1\n  swap2\n  or\n  swap1\n  sstore\n    /* \"vrfGeneratorArbitrumSepolia_flattened.sol\":28914:28991  70968718472511649343744334382116497041800362490296615430929588015039822016242 */\n  0x9ce6df06a57d3e2e3ab551ecd52818a6d6ca9a88fa4ca8b8e26cb52b1cd1aef2\n    /* \"vrfGeneratorArbitrumSepolia_flattened.sol\":28892:28991  vrfV2SubscriptionId = 70968718472511649343744334382116497041800362490296615430929588015039822016242 */\n  0xa0\n  mstore\n    /* \"vrfGeneratorArbitrumSepolia_flattened.sol\":26890:32654  contract vrfGeneratorArbitrumSepolia is CCIPReceiver, VRFConsumerBaseV2Plus {... */\n  jump(tag_27)\n    /* \"vrfGeneratorArbitrumSepolia_flattened.sol\":9148:9387  function _transferOwnership(address to) private {... */\ntag_17:\n    /* \"vrfGeneratorArbitrumSepolia_flattened.sol\":9267:9277  msg.sender */\n  caller\n  sub(shl(0xa0, 0x01), 0x01)\n    /* \"vrfGeneratorArbitrumSepolia_flattened.sol\":9261:9277  to != msg.sender */\n  dup3\n  and\n  sub\n    /* \"vrfGeneratorArbitrumSepolia_flattened.sol\":9253:9305  require(to != msg.sender, \"Cannot transfer to self\") */\n  tag_24\n  jumpi\n  mload(0x40)\n  shl(0xe5, 0x461bcd)\n  dup2\n  mstore\n    /* \"#utility.yul\":777:779   */\n  0x20\n    /* \"vrfGeneratorArbitrumSepolia_flattened.sol\":9253:9305  require(to != msg.sender, \"Cannot transfer to self\") */\n  0x04\n  dup3\n  add\n    /* \"#utility.yul\":759:780   */\n  mstore\n    /* \"#utility.yul\":816:818   */\n  0x17\n    /* \"#utility.yul\":796:814   */\n  0x24\n  dup3\n  add\n    /* \"#utility.yul\":789:819   */\n  mstore\n    /* \"#utility.yul\":855:880   */\n  0x43616e6e6f74207472616e7366657220746f2073656c66000000000000000000\n    /* \"#utility.yul\":835:853   */\n  0x44\n  dup3\n  add\n    /* \"#utility.yul\":828:881   */\n  mstore\n    /* \"#utility.yul\":898:916   */\n  0x64\n  add\n    /* \"vrfGeneratorArbitrumSepolia_flattened.sol\":9253:9305  require(to != msg.sender, \"Cannot transfer to self\") */\n  tag_9\n    /* \"#utility.yul\":575:922   */\n  jump\n    /* \"vrfGeneratorArbitrumSepolia_flattened.sol\":9253:9305  require(to != msg.sender, \"Cannot transfer to self\") */\ntag_24:\n    /* \"vrfGeneratorArbitrumSepolia_flattened.sol\":9312:9326  s_pendingOwner */\n  0x01\n    /* \"vrfGeneratorArbitrumSepolia_flattened.sol\":9312:9331  s_pendingOwner = to */\n  dup1\n  sload\n  not(sub(shl(0xa0, 0x01), 0x01))\n  and\n  sub(shl(0xa0, 0x01), 0x01)\n  dup4\n  dup2\n  and\n  swap2\n  dup3\n  or\n  swap1\n  swap3\n  sstore\n  0x00\n    /* \"vrfGeneratorArbitrumSepolia_flattened.sol\":9370:9377  s_owner */\n  dup1\n  sload\n    /* \"vrfGeneratorArbitrumSepolia_flattened.sol\":9343:9382  OwnershipTransferRequested(s_owner, to) */\n  mload(0x40)\n    /* \"vrfGeneratorArbitrumSepolia_flattened.sol\":9312:9331  s_pendingOwner = to */\n  swap3\n  swap4\n    /* \"vrfGeneratorArbitrumSepolia_flattened.sol\":9370:9377  s_owner */\n  and\n  swap2\n    /* \"vrfGeneratorArbitrumSepolia_flattened.sol\":9343:9382  OwnershipTransferRequested(s_owner, to) */\n  0xed8889f560326eb138920d842192f0eb3dd22b4f139c87a2c57538e05bae1278\n  swap2\n  swap1\n  log3\n    /* \"vrfGeneratorArbitrumSepolia_flattened.sol\":9148:9387  function _transferOwnership(address to) private {... */\n  pop\n  jump\t// out\n    /* \"#utility.yul\":575:922   */\ntag_27:\n    /* \"vrfGeneratorArbitrumSepolia_flattened.sol\":26890:32654  contract vrfGeneratorArbitrumSepolia is CCIPReceiver, VRFConsumerBaseV2Plus {... */\n  mload(0x80)\n  mload(0xa0)\n  codecopy(0x00, dataOffset(sub_0), dataSize(sub_0))\n  0x00\n  assignImmutable(\"0x0313340cb1039bc53255facc38f37ab132ebf829821c84576a09678cd88587a7\")\n  0x00\n  assignImmutable(\"0x7c4b9619c581b88a141b2eb4807c7231fe75a5bedaa863d4150e3dabc19d88ab\")\n  return(0x00, dataSize(sub_0))\nstop\n\nsub_0: assembly {\n        /* \"vrfGeneratorArbitrumSepolia_flattened.sol\":26890:32654  contract vrfGeneratorArbitrumSepolia is CCIPReceiver, VRFConsumerBaseV2Plus {... */\n      mstore(0x40, 0x80)\n      callvalue\n      dup1\n      iszero\n      tag_1\n      jumpi\n      0x00\n      dup1\n      revert\n    tag_1:\n      pop\n      jumpi(tag_2, lt(calldatasize, 0x04))\n      shr(0xe0, calldataload(0x00))\n      dup1\n      0x85572ffb\n      gt\n      tag_16\n      jumpi\n      dup1\n      0x9eccacf6\n      gt\n      tag_17\n      jumpi\n      dup1\n      0x9eccacf6\n      eq\n      tag_12\n      jumpi\n      dup1\n      0xb0f479a1\n      eq\n      tag_13\n      jumpi\n      dup1\n      0xb5605b2e\n      eq\n      tag_14\n      jumpi\n      dup1\n      0xf2fde38b\n      eq\n      tag_15\n      jumpi\n      0x00\n      dup1\n      revert\n    tag_17:\n      dup1\n      0x85572ffb\n      eq\n      tag_9\n      jumpi\n      dup1\n      0x8da5cb5b\n      eq\n      tag_10\n      jumpi\n      dup1\n      0x8ea98117\n      eq\n      tag_11\n      jumpi\n      0x00\n      dup1\n      revert\n    tag_16:\n      dup1\n      0x01ffc9a7\n      eq\n      tag_3\n      jumpi\n      dup1\n      0x1fe543e3\n      eq\n      tag_4\n      jumpi\n      dup1\n      0x6812452e\n      eq\n      tag_5\n      jumpi\n      dup1\n      0x773a1154\n      eq\n      tag_6\n      jumpi\n      dup1\n      0x79ba5097\n      eq\n      tag_7\n      jumpi\n      dup1\n      0x7b2bf168\n      eq\n      tag_8\n      jumpi\n    tag_2:\n      0x00\n      dup1\n      revert\n        /* \"vrfGeneratorArbitrumSepolia_flattened.sol\":22537:22746  function supportsInterface(bytes4 interfaceId) public pure virtual override returns (bool) {... */\n    tag_3:\n      tag_18\n      tag_19\n      calldatasize\n      0x04\n      tag_20\n      jump\t// in\n    tag_19:\n      tag_21\n      jump\t// in\n    tag_18:\n      mload(0x40)\n        /* \"#utility.yul\":470:484   */\n      swap1\n      iszero\n        /* \"#utility.yul\":463:485   */\n      iszero\n        /* \"#utility.yul\":445:486   */\n      dup2\n      mstore\n        /* \"#utility.yul\":433:435   */\n      0x20\n        /* \"#utility.yul\":418:436   */\n      add\n        /* \"vrfGeneratorArbitrumSepolia_flattened.sol\":22537:22746  function supportsInterface(bytes4 interfaceId) public pure virtual override returns (bool) {... */\n    tag_22:\n      mload(0x40)\n      dup1\n      swap2\n      sub\n      swap1\n      return\n        /* \"vrfGeneratorArbitrumSepolia_flattened.sol\":17364:17644  function rawFulfillRandomWords(uint256 requestId, uint256[] calldata randomWords) external {... */\n    tag_4:\n      tag_24\n      tag_25\n      calldatasize\n      0x04\n      tag_26\n      jump\t// in\n    tag_25:\n      tag_27\n      jump\t// in\n    tag_24:\n      stop\n        /* \"vrfGeneratorArbitrumSepolia_flattened.sol\":27726:27758  string public s_lastReceivedText */\n    tag_5:\n      tag_28\n      tag_29\n      jump\t// in\n    tag_28:\n      mload(0x40)\n      tag_22\n      swap2\n      swap1\n      tag_31\n      jump\t// in\n        /* \"vrfGeneratorArbitrumSepolia_flattened.sol\":29641:30292  function generateRandomNumber() public {... */\n    tag_6:\n      tag_24\n      tag_33\n      jump\t// in\n        /* \"vrfGeneratorArbitrumSepolia_flattened.sol\":8638:8954  function acceptOwnership() external override {... */\n    tag_7:\n      tag_24\n      tag_35\n      jump\t// in\n        /* \"vrfGeneratorArbitrumSepolia_flattened.sol\":30794:32652  function sendMessage(... */\n    tag_8:\n      tag_36\n      tag_37\n      calldatasize\n      0x04\n      tag_38\n      jump\t// in\n    tag_37:\n      tag_39\n      jump\t// in\n    tag_36:\n      mload(0x40)\n        /* \"#utility.yul\":2791:2816   */\n      swap1\n      dup2\n      mstore\n        /* \"#utility.yul\":2779:2781   */\n      0x20\n        /* \"#utility.yul\":2764:2782   */\n      add\n        /* \"vrfGeneratorArbitrumSepolia_flattened.sol\":30794:32652  function sendMessage(... */\n      tag_22\n        /* \"#utility.yul\":2645:2822   */\n      jump\n        /* \"vrfGeneratorArbitrumSepolia_flattened.sol\":22792:22922  function ccipReceive(Client.Any2EVMMessage calldata message) external virtual override onlyRouter {... */\n    tag_9:\n      tag_24\n      tag_43\n      calldatasize\n      0x04\n      tag_44\n      jump\t// in\n    tag_43:\n      tag_45\n      jump\t// in\n        /* \"vrfGeneratorArbitrumSepolia_flattened.sol\":8994:9075  function owner() public view override returns (address) {... */\n    tag_10:\n        /* \"vrfGeneratorArbitrumSepolia_flattened.sol\":9041:9048  address */\n      0x00\n        /* \"vrfGeneratorArbitrumSepolia_flattened.sol\":9063:9070  s_owner */\n      sload\n      sub(shl(0xa0, 0x01), 0x01)\n      and\n        /* \"vrfGeneratorArbitrumSepolia_flattened.sol\":8994:9075  function owner() public view override returns (address) {... */\n    tag_46:\n      mload(0x40)\n      sub(shl(0xa0, 0x01), 0x01)\n        /* \"#utility.yul\":3498:3530   */\n      swap1\n      swap2\n      and\n        /* \"#utility.yul\":3480:3531   */\n      dup2\n      mstore\n        /* \"#utility.yul\":3468:3470   */\n      0x20\n        /* \"#utility.yul\":3453:3471   */\n      add\n        /* \"vrfGeneratorArbitrumSepolia_flattened.sol\":8994:9075  function owner() public view override returns (address) {... */\n      tag_22\n        /* \"#utility.yul\":3334:3537   */\n      jump\n        /* \"vrfGeneratorArbitrumSepolia_flattened.sol\":17706:17982  function setCoordinator(address _vrfCoordinator) external override onlyOwnerOrCoordinator {... */\n    tag_11:\n      tag_24\n      tag_51\n      calldatasize\n      0x04\n      tag_52\n      jump\t// in\n    tag_51:\n      tag_53\n      jump\t// in\n        /* \"vrfGeneratorArbitrumSepolia_flattened.sol\":15952:15997  IVRFCoordinatorV2Plus public s_vrfCoordinator */\n    tag_12:\n      sload(0x02)\n      tag_46\n      swap1\n      sub(shl(0xa0, 0x01), 0x01)\n      and\n      dup2\n      jump\n        /* \"vrfGeneratorArbitrumSepolia_flattened.sol\":23337:23427  function getRouter() public view returns (address) {... */\n    tag_13:\n        /* \"vrfGeneratorArbitrumSepolia_flattened.sol\":23409:23421  i_ccipRouter */\n      immutable(\"0x7c4b9619c581b88a141b2eb4807c7231fe75a5bedaa863d4150e3dabc19d88ab\")\n        /* \"vrfGeneratorArbitrumSepolia_flattened.sol\":23337:23427  function getRouter() public view returns (address) {... */\n      jump(tag_46)\n        /* \"vrfGeneratorArbitrumSepolia_flattened.sol\":27644:27682  bytes32 public s_lastReceivedMessageId */\n    tag_14:\n      tag_36\n      sload(0x05)\n      dup2\n      jump\n        /* \"vrfGeneratorArbitrumSepolia_flattened.sol\":8459:8557  function transferOwnership(address to) public override onlyOwner {... */\n    tag_15:\n      tag_24\n      tag_65\n      calldatasize\n      0x04\n      tag_52\n      jump\t// in\n    tag_65:\n      tag_66\n      jump\t// in\n        /* \"vrfGeneratorArbitrumSepolia_flattened.sol\":22537:22746  function supportsInterface(bytes4 interfaceId) public pure virtual override returns (bool) {... */\n    tag_21:\n        /* \"vrfGeneratorArbitrumSepolia_flattened.sol\":22622:22626  bool */\n      0x00\n      not(sub(shl(0xe0, 0x01), 0x01))\n        /* \"vrfGeneratorArbitrumSepolia_flattened.sol\":22641:22697  interfaceId == type(IAny2EVMMessageReceiver).interfaceId */\n      dup3\n      and\n      shl(0xe0, 0x85572ffb)\n      eq\n      dup1\n        /* \"vrfGeneratorArbitrumSepolia_flattened.sol\":22641:22741  interfaceId == type(IAny2EVMMessageReceiver).interfaceId || interfaceId == type(IERC165).interfaceId */\n      tag_68\n      jumpi\n      pop\n      not(sub(shl(0xe0, 0x01), 0x01))\n        /* \"vrfGeneratorArbitrumSepolia_flattened.sol\":22701:22741  interfaceId == type(IERC165).interfaceId */\n      dup3\n      and\n      shl(0xe0, 0x01ffc9a7)\n      eq\n        /* \"vrfGeneratorArbitrumSepolia_flattened.sol\":22641:22741  interfaceId == type(IAny2EVMMessageReceiver).interfaceId || interfaceId == type(IERC165).interfaceId */\n    tag_68:\n        /* \"vrfGeneratorArbitrumSepolia_flattened.sol\":22634:22741  return interfaceId == type(IAny2EVMMessageReceiver).interfaceId || interfaceId == type(IERC165).interfaceId */\n      swap3\n        /* \"vrfGeneratorArbitrumSepolia_flattened.sol\":22537:22746  function supportsInterface(bytes4 interfaceId) public pure virtual override returns (bool) {... */\n      swap2\n      pop\n      pop\n      jump\t// out\n        /* \"vrfGeneratorArbitrumSepolia_flattened.sol\":17364:17644  function rawFulfillRandomWords(uint256 requestId, uint256[] calldata randomWords) external {... */\n    tag_27:\n        /* \"vrfGeneratorArbitrumSepolia_flattened.sol\":17487:17503  s_vrfCoordinator */\n      and(sub(shl(0xa0, 0x01), 0x01), sload(0x02))\n        /* \"vrfGeneratorArbitrumSepolia_flattened.sol\":17465:17475  msg.sender */\n      caller\n        /* \"vrfGeneratorArbitrumSepolia_flattened.sol\":17465:17504  msg.sender != address(s_vrfCoordinator) */\n      eq\n        /* \"vrfGeneratorArbitrumSepolia_flattened.sol\":17461:17592  if (msg.sender != address(s_vrfCoordinator)) {... */\n      tag_70\n      jumpi\n        /* \"vrfGeneratorArbitrumSepolia_flattened.sol\":17567:17583  s_vrfCoordinator */\n      sload(0x02)\n        /* \"vrfGeneratorArbitrumSepolia_flattened.sol\":17521:17585  OnlyCoordinatorCanFulfill(msg.sender, address(s_vrfCoordinator)) */\n      mload(0x40)\n      shl(0xe2, 0x073e64fd)\n      dup2\n      mstore\n        /* \"vrfGeneratorArbitrumSepolia_flattened.sol\":17547:17557  msg.sender */\n      caller\n        /* \"vrfGeneratorArbitrumSepolia_flattened.sol\":17521:17585  OnlyCoordinatorCanFulfill(msg.sender, address(s_vrfCoordinator)) */\n      0x04\n      dup3\n      add\n        /* \"#utility.yul\":4243:4277   */\n      mstore\n      sub(shl(0xa0, 0x01), 0x01)\n        /* \"vrfGeneratorArbitrumSepolia_flattened.sol\":17567:17583  s_vrfCoordinator */\n      swap1\n      swap2\n      and\n        /* \"#utility.yul\":4293:4311   */\n      0x24\n      dup3\n      add\n        /* \"#utility.yul\":4286:4329   */\n      mstore\n        /* \"#utility.yul\":4178:4196   */\n      0x44\n      add\n        /* \"vrfGeneratorArbitrumSepolia_flattened.sol\":17521:17585  OnlyCoordinatorCanFulfill(msg.sender, address(s_vrfCoordinator)) */\n    tag_71:\n      mload(0x40)\n      dup1\n      swap2\n      sub\n      swap1\n      revert\n        /* \"vrfGeneratorArbitrumSepolia_flattened.sol\":17461:17592  if (msg.sender != address(s_vrfCoordinator)) {... */\n    tag_70:\n        /* \"vrfGeneratorArbitrumSepolia_flattened.sol\":17597:17639  fulfillRandomWords(requestId, randomWords) */\n      tag_73\n        /* \"vrfGeneratorArbitrumSepolia_flattened.sol\":17616:17625  requestId */\n      dup4\n        /* \"vrfGeneratorArbitrumSepolia_flattened.sol\":17627:17638  randomWords */\n      dup4\n      dup4\n        /* \"vrfGeneratorArbitrumSepolia_flattened.sol\":17597:17615  fulfillRandomWords */\n      tag_74\n        /* \"vrfGeneratorArbitrumSepolia_flattened.sol\":17597:17639  fulfillRandomWords(requestId, randomWords) */\n      jump\t// in\n    tag_73:\n        /* \"vrfGeneratorArbitrumSepolia_flattened.sol\":17364:17644  function rawFulfillRandomWords(uint256 requestId, uint256[] calldata randomWords) external {... */\n      pop\n      pop\n      pop\n      jump\t// out\n        /* \"vrfGeneratorArbitrumSepolia_flattened.sol\":27726:27758  string public s_lastReceivedText */\n    tag_29:\n      0x06\n      dup1\n      sload\n      tag_75\n      swap1\n      tag_76\n      jump\t// in\n    tag_75:\n      dup1\n      0x1f\n      add\n      0x20\n      dup1\n      swap2\n      div\n      mul\n      0x20\n      add\n      mload(0x40)\n      swap1\n      dup2\n      add\n      0x40\n      mstore\n      dup1\n      swap3\n      swap2\n      swap1\n      dup2\n      dup2\n      mstore\n      0x20\n      add\n      dup3\n      dup1\n      sload\n      tag_77\n      swap1\n      tag_76\n      jump\t// in\n    tag_77:\n      dup1\n      iszero\n      tag_78\n      jumpi\n      dup1\n      0x1f\n      lt\n      tag_79\n      jumpi\n      0x0100\n      dup1\n      dup4\n      sload\n      div\n      mul\n      dup4\n      mstore\n      swap2\n      0x20\n      add\n      swap2\n      jump(tag_78)\n    tag_79:\n      dup3\n      add\n      swap2\n      swap1\n      0x00\n      mstore\n      keccak256(0x00, 0x20)\n      swap1\n    tag_80:\n      dup2\n      sload\n      dup2\n      mstore\n      swap1\n      0x01\n      add\n      swap1\n      0x20\n      add\n      dup1\n      dup4\n      gt\n      tag_80\n      jumpi\n      dup3\n      swap1\n      sub\n      0x1f\n      and\n      dup3\n      add\n      swap2\n    tag_78:\n      pop\n      pop\n      pop\n      pop\n      pop\n      dup2\n      jump\t// out\n        /* \"vrfGeneratorArbitrumSepolia_flattened.sol\":29641:30292  function generateRandomNumber() public {... */\n    tag_33:\n        /* \"vrfGeneratorArbitrumSepolia_flattened.sol\":29721:29737  s_vrfCoordinator */\n      sload(0x02)\n        /* \"vrfGeneratorArbitrumSepolia_flattened.sol\":29770:30275  VRFV2PlusClient.RandomWordsRequest({... */\n      0x40\n      dup1\n      mload\n      0xc0\n      dup2\n      add\n      dup3\n      mstore\n        /* \"vrfGeneratorArbitrumSepolia_flattened.sol\":29832:29844  vrfV2KeyHash */\n      sload(0x04)\n        /* \"vrfGeneratorArbitrumSepolia_flattened.sol\":29770:30275  VRFV2PlusClient.RandomWordsRequest({... */\n      dup2\n      mstore\n        /* \"vrfGeneratorArbitrumSepolia_flattened.sol\":29869:29888  vrfV2SubscriptionId */\n      immutable(\"0x0313340cb1039bc53255facc38f37ab132ebf829821c84576a09678cd88587a7\")\n        /* \"vrfGeneratorArbitrumSepolia_flattened.sol\":29770:30275  VRFV2PlusClient.RandomWordsRequest({... */\n      0x20\n      dup1\n      dup4\n      add\n      swap2\n      swap1\n      swap2\n      mstore\n        /* \"vrfGeneratorArbitrumSepolia_flattened.sol\":29721:29737  s_vrfCoordinator */\n      0x01\n        /* \"vrfGeneratorArbitrumSepolia_flattened.sol\":29770:30275  VRFV2PlusClient.RandomWordsRequest({... */\n      dup3\n      dup5\n      add\n      dup2\n      swap1\n      mstore\n        /* \"vrfGeneratorArbitrumSepolia_flattened.sol\":29965:29972  2500000 */\n      0x2625a0\n        /* \"vrfGeneratorArbitrumSepolia_flattened.sol\":29770:30275  VRFV2PlusClient.RandomWordsRequest({... */\n      0x60\n      dup5\n      add\n      mstore\n      0x80\n      dup4\n      add\n      mstore\n        /* \"vrfGeneratorArbitrumSepolia_flattened.sol\":30191:30242  VRFV2PlusClient.ExtraArgsV1({nativePayment: false}) */\n      dup3\n      mload\n      swap1\n      dup2\n      add\n      swap1\n      swap3\n      mstore\n        /* \"vrfGeneratorArbitrumSepolia_flattened.sol\":29690:29718  uint256 ticketVerificationId */\n      0x00\n        /* \"vrfGeneratorArbitrumSepolia_flattened.sol\":30191:30242  VRFV2PlusClient.ExtraArgsV1({nativePayment: false}) */\n      dup1\n      dup4\n      mstore\n        /* \"vrfGeneratorArbitrumSepolia_flattened.sol\":29690:29718  uint256 ticketVerificationId */\n      swap3\n      sub(shl(0xa0, 0x01), 0x01)\n        /* \"vrfGeneratorArbitrumSepolia_flattened.sol\":29721:29737  s_vrfCoordinator */\n      and\n      swap2\n        /* \"vrfGeneratorArbitrumSepolia_flattened.sol\":29721:29756  s_vrfCoordinator.requestRandomWords */\n      0x9b1c385e\n      swap2\n        /* \"vrfGeneratorArbitrumSepolia_flattened.sol\":29770:30275  VRFV2PlusClient.RandomWordsRequest({... */\n      swap1\n      0xa0\n      dup3\n      add\n      swap1\n        /* \"vrfGeneratorArbitrumSepolia_flattened.sol\":30141:30260  VRFV2PlusClient._argsToBytes(... */\n      tag_82\n      swap1\n        /* \"vrfGeneratorArbitrumSepolia_flattened.sol\":30141:30169  VRFV2PlusClient._argsToBytes */\n      tag_83\n        /* \"vrfGeneratorArbitrumSepolia_flattened.sol\":30141:30260  VRFV2PlusClient._argsToBytes(... */\n      jump\t// in\n    tag_82:\n        /* \"vrfGeneratorArbitrumSepolia_flattened.sol\":29770:30275  VRFV2PlusClient.RandomWordsRequest({... */\n      dup2\n      mstore\n      pop\n        /* \"vrfGeneratorArbitrumSepolia_flattened.sol\":29721:30285  s_vrfCoordinator.requestRandomWords(... */\n      mload(0x40)\n      dup3\n      0xffffffff\n      and\n      0xe0\n      shl\n      dup2\n      mstore\n      0x04\n      add\n      tag_84\n      swap2\n      swap1\n      tag_85\n      jump\t// in\n    tag_84:\n      0x20\n      mload(0x40)\n      dup1\n      dup4\n      sub\n      dup2\n      0x00\n      dup8\n      gas\n      call\n      iszero\n      dup1\n      iszero\n      tag_87\n      jumpi\n      returndatasize\n      0x00\n      dup1\n      returndatacopy\n      revert(0x00, returndatasize)\n    tag_87:\n      pop\n      pop\n      pop\n      pop\n      mload(0x40)\n      returndatasize\n      not(0x1f)\n      0x1f\n      dup3\n      add\n      and\n      dup3\n      add\n      dup1\n      0x40\n      mstore\n      pop\n      dup2\n      add\n      swap1\n      tag_88\n      swap2\n      swap1\n      tag_89\n      jump\t// in\n    tag_88:\n      pop\n      pop\n        /* \"vrfGeneratorArbitrumSepolia_flattened.sol\":29641:30292  function generateRandomNumber() public {... */\n      jump\t// out\n        /* \"vrfGeneratorArbitrumSepolia_flattened.sol\":8638:8954  function acceptOwnership() external override {... */\n    tag_35:\n        /* \"vrfGeneratorArbitrumSepolia_flattened.sol\":8762:8776  s_pendingOwner */\n      and(sub(shl(0xa0, 0x01), 0x01), sload(0x01))\n        /* \"vrfGeneratorArbitrumSepolia_flattened.sol\":8748:8758  msg.sender */\n      caller\n        /* \"vrfGeneratorArbitrumSepolia_flattened.sol\":8748:8776  msg.sender == s_pendingOwner */\n      eq\n        /* \"vrfGeneratorArbitrumSepolia_flattened.sol\":8740:8803  require(msg.sender == s_pendingOwner, \"Must be proposed owner\") */\n      tag_91\n      jumpi\n      mload(0x40)\n      shl(0xe5, 0x461bcd)\n      dup2\n      mstore\n        /* \"#utility.yul\":5885:5887   */\n      0x20\n        /* \"vrfGeneratorArbitrumSepolia_flattened.sol\":8740:8803  require(msg.sender == s_pendingOwner, \"Must be proposed owner\") */\n      0x04\n      dup3\n      add\n        /* \"#utility.yul\":5867:5888   */\n      mstore\n        /* \"#utility.yul\":5924:5926   */\n      0x16\n        /* \"#utility.yul\":5904:5922   */\n      0x24\n      dup3\n      add\n        /* \"#utility.yul\":5897:5927   */\n      mstore\n      shl(0x51, 0x26bab9ba10313290383937b837b9b2b21037bbb732b9)\n        /* \"#utility.yul\":5943:5961   */\n      0x44\n      dup3\n      add\n        /* \"#utility.yul\":5936:5988   */\n      mstore\n        /* \"#utility.yul\":6005:6023   */\n      0x64\n      add\n        /* \"vrfGeneratorArbitrumSepolia_flattened.sol\":8740:8803  require(msg.sender == s_pendingOwner, \"Must be proposed owner\") */\n      tag_71\n        /* \"#utility.yul\":5683:6029   */\n      jump\n        /* \"vrfGeneratorArbitrumSepolia_flattened.sol\":8740:8803  require(msg.sender == s_pendingOwner, \"Must be proposed owner\") */\n    tag_91:\n        /* \"vrfGeneratorArbitrumSepolia_flattened.sol\":8810:8826  address oldOwner */\n      0x00\n        /* \"vrfGeneratorArbitrumSepolia_flattened.sol\":8829:8836  s_owner */\n      dup1\n      sload\n        /* \"vrfGeneratorArbitrumSepolia_flattened.sol\":8852:8862  msg.sender */\n      caller\n      not(sub(shl(0xa0, 0x01), 0x01))\n        /* \"vrfGeneratorArbitrumSepolia_flattened.sol\":8842:8862  s_owner = msg.sender */\n      dup1\n      dup4\n      and\n      dup3\n      or\n      dup5\n      sstore\n      0x01\n        /* \"vrfGeneratorArbitrumSepolia_flattened.sol\":8868:8895  s_pendingOwner = address(0) */\n      dup1\n      sload\n      swap1\n      swap2\n      and\n      swap1\n      sstore\n        /* \"vrfGeneratorArbitrumSepolia_flattened.sol\":8907:8949  OwnershipTransferred(oldOwner, msg.sender) */\n      mload(0x40)\n      sub(shl(0xa0, 0x01), 0x01)\n        /* \"vrfGeneratorArbitrumSepolia_flattened.sol\":8829:8836  s_owner */\n      swap1\n      swap3\n      and\n      swap3\n        /* \"vrfGeneratorArbitrumSepolia_flattened.sol\":8852:8862  msg.sender */\n      swap1\n      swap2\n        /* \"vrfGeneratorArbitrumSepolia_flattened.sol\":8829:8836  s_owner */\n      dup4\n      swap2\n        /* \"vrfGeneratorArbitrumSepolia_flattened.sol\":8907:8949  OwnershipTransferred(oldOwner, msg.sender) */\n      0x8be0079c531659141344cd1fd0a4f28419497f9722a3daafe3b4186f6b6457e0\n      swap2\n      log3\n        /* \"vrfGeneratorArbitrumSepolia_flattened.sol\":8683:8954  {... */\n      pop\n        /* \"vrfGeneratorArbitrumSepolia_flattened.sol\":8638:8954  function acceptOwnership() external override {... */\n      jump\t// out\n        /* \"vrfGeneratorArbitrumSepolia_flattened.sol\":30794:32652  function sendMessage(... */\n    tag_39:\n        /* \"vrfGeneratorArbitrumSepolia_flattened.sol\":31123:31708  Client.EVM2AnyMessage({... */\n      0x40\n      dup1\n      mload\n      0xa0\n      dup2\n      add\n      swap1\n      swap2\n      mstore\n      sub(shl(0xa0, 0x01), 0x01)\n        /* \"#utility.yul\":3498:3530   */\n      dup4\n      and\n        /* \"vrfGeneratorArbitrumSepolia_flattened.sol\":31169:31189  abi.encode(receiver) */\n      0xc0\n      dup3\n      add\n        /* \"#utility.yul\":3480:3531   */\n      mstore\n        /* \"vrfGeneratorArbitrumSepolia_flattened.sol\":30934:30951  bytes32 messageId */\n      0x00\n      swap1\n      dup2\n      swap1\n        /* \"vrfGeneratorArbitrumSepolia_flattened.sol\":31123:31708  Client.EVM2AnyMessage({... */\n      dup1\n        /* \"#utility.yul\":3453:3471   */\n      0xe0\n      dup2\n      add\n        /* \"vrfGeneratorArbitrumSepolia_flattened.sol\":31169:31189  abi.encode(receiver) */\n      mload(0x40)\n      0x20\n      dup2\n      dup4\n      sub\n      sub\n      dup2\n      mstore\n      swap1\n      0x40\n      mstore\n        /* \"vrfGeneratorArbitrumSepolia_flattened.sol\":31123:31708  Client.EVM2AnyMessage({... */\n      dup2\n      mstore\n      0x20\n      add\n        /* \"vrfGeneratorArbitrumSepolia_flattened.sol\":31252:31264  randomNumber */\n      dup5\n        /* \"vrfGeneratorArbitrumSepolia_flattened.sol\":31241:31265  abi.encode(randomNumber) */\n      add(0x20, mload(0x40))\n      tag_96\n      swap2\n        /* \"#utility.yul\":2791:2816   */\n      dup2\n      mstore\n        /* \"#utility.yul\":2779:2781   */\n      0x20\n        /* \"#utility.yul\":2764:2782   */\n      add\n      swap1\n        /* \"#utility.yul\":2645:2822   */\n      jump\n        /* \"vrfGeneratorArbitrumSepolia_flattened.sol\":31241:31265  abi.encode(randomNumber) */\n    tag_96:\n      0x40\n      dup1\n      mload\n      not(0x1f)\n      dup2\n      dup5\n      sub\n      add\n      dup2\n      mstore\n      swap2\n      swap1\n      mstore\n        /* \"vrfGeneratorArbitrumSepolia_flattened.sol\":31123:31708  Client.EVM2AnyMessage({... */\n      dup2\n      mstore\n        /* \"vrfGeneratorArbitrumSepolia_flattened.sol\":31241:31265  abi.encode(randomNumber) */\n      0x20\n        /* \"vrfGeneratorArbitrumSepolia_flattened.sol\":31123:31708  Client.EVM2AnyMessage({... */\n      add\n        /* \"vrfGeneratorArbitrumSepolia_flattened.sol\":31343:31344  0 */\n      0x00\n        /* \"vrfGeneratorArbitrumSepolia_flattened.sol\":31315:31345  new Client.EVMTokenAmount[](0) */\n      mload(0x40)\n      swap1\n      dup1\n      dup3\n      mstore\n      dup1\n      0x20\n      mul\n      0x20\n      add\n      dup3\n      add\n      0x40\n      mstore\n      dup1\n      iszero\n      tag_101\n      jumpi\n      dup2\n      0x20\n      add\n    tag_102:\n      0x40\n      dup1\n      mload\n      dup1\n      dup3\n      add\n      swap1\n      swap2\n      mstore\n      0x00\n      dup1\n      dup3\n      mstore\n      0x20\n      dup3\n      add\n      mstore\n      dup2\n      mstore\n      0x20\n      add\n      swap1\n      0x01\n      swap1\n      sub\n      swap1\n      dup2\n      tag_102\n      jumpi\n      swap1\n      pop\n    tag_101:\n      pop\n        /* \"vrfGeneratorArbitrumSepolia_flattened.sol\":31123:31708  Client.EVM2AnyMessage({... */\n      dup2\n      mstore\n        /* \"vrfGeneratorArbitrumSepolia_flattened.sol\":31685:31696  s_linkToken */\n      and(sub(shl(0xa0, 0x01), 0x01), sload(0x08))\n        /* \"vrfGeneratorArbitrumSepolia_flattened.sol\":31123:31708  Client.EVM2AnyMessage({... */\n      0x20\n      dup1\n      dup4\n      add\n      swap2\n      swap1\n      swap2\n      mstore\n      0x40\n        /* \"vrfGeneratorArbitrumSepolia_flattened.sol\":31517:31559  Client.EVMExtraArgsV1({gasLimit: 200_000}) */\n      dup1\n      mload\n      swap2\n      dup3\n      add\n      dup2\n      mstore\n        /* \"vrfGeneratorArbitrumSepolia_flattened.sol\":31550:31557  200_000 */\n      0x030d40\n        /* \"vrfGeneratorArbitrumSepolia_flattened.sol\":31517:31559  Client.EVMExtraArgsV1({gasLimit: 200_000}) */\n      dup3\n      mstore\n        /* \"vrfGeneratorArbitrumSepolia_flattened.sol\":31123:31708  Client.EVM2AnyMessage({... */\n      swap1\n      swap2\n      add\n      swap1\n        /* \"vrfGeneratorArbitrumSepolia_flattened.sol\":31421:31573  Client._argsToBytes(... */\n      tag_105\n      swap1\n        /* \"vrfGeneratorArbitrumSepolia_flattened.sol\":31421:31440  Client._argsToBytes */\n      tag_106\n        /* \"vrfGeneratorArbitrumSepolia_flattened.sol\":31421:31573  Client._argsToBytes(... */\n      jump\t// in\n    tag_105:\n        /* \"vrfGeneratorArbitrumSepolia_flattened.sol\":31123:31708  Client.EVM2AnyMessage({... */\n      swap1\n      mstore\n        /* \"vrfGeneratorArbitrumSepolia_flattened.sol\":31786:31794  s_router */\n      sload(0x07)\n        /* \"vrfGeneratorArbitrumSepolia_flattened.sol\":31786:31877  s_router.getFee(... */\n      mload(0x40)\n      shl(0xe0, 0x20487ded)\n      dup2\n      mstore\n        /* \"vrfGeneratorArbitrumSepolia_flattened.sol\":31077:31708  Client.EVM2AnyMessage memory evm2AnyMessage = Client.EVM2AnyMessage({... */\n      swap2\n      swap3\n      pop\n        /* \"vrfGeneratorArbitrumSepolia_flattened.sol\":31771:31783  uint256 fees */\n      0x00\n      swap2\n      sub(shl(0xa0, 0x01), 0x01)\n        /* \"vrfGeneratorArbitrumSepolia_flattened.sol\":31786:31794  s_router */\n      swap1\n      swap2\n      and\n      swap1\n        /* \"vrfGeneratorArbitrumSepolia_flattened.sol\":31786:31801  s_router.getFee */\n      0x20487ded\n      swap1\n        /* \"vrfGeneratorArbitrumSepolia_flattened.sol\":31786:31877  s_router.getFee(... */\n      tag_107\n      swap1\n        /* \"vrfGeneratorArbitrumSepolia_flattened.sol\":31815:31839  destinationChainSelector */\n      dup10\n      swap1\n        /* \"vrfGeneratorArbitrumSepolia_flattened.sol\":31077:31708  Client.EVM2AnyMessage memory evm2AnyMessage = Client.EVM2AnyMessage({... */\n      dup7\n      swap1\n        /* \"vrfGeneratorArbitrumSepolia_flattened.sol\":31786:31877  s_router.getFee(... */\n      0x04\n      add\n      tag_108\n      jump\t// in\n    tag_107:\n      0x20\n      mload(0x40)\n      dup1\n      dup4\n      sub\n      dup2\n      dup7\n      gas\n      staticcall\n      iszero\n      dup1\n      iszero\n      tag_110\n      jumpi\n      returndatasize\n      0x00\n      dup1\n      returndatacopy\n      revert(0x00, returndatasize)\n    tag_110:\n      pop\n      pop\n      pop\n      pop\n      mload(0x40)\n      returndatasize\n      not(0x1f)\n      0x1f\n      dup3\n      add\n      and\n      dup3\n      add\n      dup1\n      0x40\n      mstore\n      pop\n      dup2\n      add\n      swap1\n      tag_111\n      swap2\n      swap1\n      tag_89\n      jump\t// in\n    tag_111:\n        /* \"vrfGeneratorArbitrumSepolia_flattened.sol\":31899:31910  s_linkToken */\n      sload(0x08)\n        /* \"vrfGeneratorArbitrumSepolia_flattened.sol\":31899:31935  s_linkToken.balanceOf(address(this)) */\n      mload(0x40)\n      shl(0xe0, 0x70a08231)\n      dup2\n      mstore\n        /* \"vrfGeneratorArbitrumSepolia_flattened.sol\":31929:31933  this */\n      address\n        /* \"vrfGeneratorArbitrumSepolia_flattened.sol\":31899:31935  s_linkToken.balanceOf(address(this)) */\n      0x04\n      dup3\n      add\n        /* \"#utility.yul\":3480:3531   */\n      mstore\n        /* \"vrfGeneratorArbitrumSepolia_flattened.sol\":31771:31877  uint256 fees = s_router.getFee(... */\n      swap2\n      swap3\n      pop\n      sub(shl(0xa0, 0x01), 0x01)\n        /* \"vrfGeneratorArbitrumSepolia_flattened.sol\":31899:31910  s_linkToken */\n      and\n      swap1\n        /* \"vrfGeneratorArbitrumSepolia_flattened.sol\":31899:31920  s_linkToken.balanceOf */\n      0x70a08231\n      swap1\n        /* \"#utility.yul\":3453:3471   */\n      0x24\n      add\n        /* \"vrfGeneratorArbitrumSepolia_flattened.sol\":31899:31935  s_linkToken.balanceOf(address(this)) */\n      0x20\n      mload(0x40)\n      dup1\n      dup4\n      sub\n      dup2\n      dup7\n      gas\n      staticcall\n      iszero\n      dup1\n      iszero\n      tag_114\n      jumpi\n      returndatasize\n      0x00\n      dup1\n      returndatacopy\n      revert(0x00, returndatasize)\n    tag_114:\n      pop\n      pop\n      pop\n      pop\n      mload(0x40)\n      returndatasize\n      not(0x1f)\n      0x1f\n      dup3\n      add\n      and\n      dup3\n      add\n      dup1\n      0x40\n      mstore\n      pop\n      dup2\n      add\n      swap1\n      tag_115\n      swap2\n      swap1\n      tag_89\n      jump\t// in\n    tag_115:\n        /* \"vrfGeneratorArbitrumSepolia_flattened.sol\":31892:31896  fees */\n      dup2\n        /* \"vrfGeneratorArbitrumSepolia_flattened.sol\":31892:31935  fees > s_linkToken.balanceOf(address(this)) */\n      gt\n        /* \"vrfGeneratorArbitrumSepolia_flattened.sol\":31888:32016  if (fees > s_linkToken.balanceOf(address(this)))... */\n      iszero\n      tag_116\n      jumpi\n        /* \"vrfGeneratorArbitrumSepolia_flattened.sol\":31973:31984  s_linkToken */\n      sload(0x08)\n        /* \"vrfGeneratorArbitrumSepolia_flattened.sol\":31973:32009  s_linkToken.balanceOf(address(this)) */\n      mload(0x40)\n      shl(0xe0, 0x70a08231)\n      dup2\n      mstore\n        /* \"vrfGeneratorArbitrumSepolia_flattened.sol\":32003:32007  this */\n      address\n        /* \"vrfGeneratorArbitrumSepolia_flattened.sol\":31973:32009  s_linkToken.balanceOf(address(this)) */\n      0x04\n      dup3\n      add\n        /* \"#utility.yul\":3480:3531   */\n      mstore\n      sub(shl(0xa0, 0x01), 0x01)\n        /* \"vrfGeneratorArbitrumSepolia_flattened.sol\":31973:31984  s_linkToken */\n      swap1\n      swap2\n      and\n      swap1\n        /* \"vrfGeneratorArbitrumSepolia_flattened.sol\":31973:31994  s_linkToken.balanceOf */\n      0x70a08231\n      swap1\n        /* \"#utility.yul\":3453:3471   */\n      0x24\n      add\n        /* \"vrfGeneratorArbitrumSepolia_flattened.sol\":31973:32009  s_linkToken.balanceOf(address(this)) */\n      0x20\n      mload(0x40)\n      dup1\n      dup4\n      sub\n      dup2\n      dup7\n      gas\n      staticcall\n      iszero\n      dup1\n      iszero\n      tag_119\n      jumpi\n      returndatasize\n      0x00\n      dup1\n      returndatacopy\n      revert(0x00, returndatasize)\n    tag_119:\n      pop\n      pop\n      pop\n      pop\n      mload(0x40)\n      returndatasize\n      not(0x1f)\n      0x1f\n      dup3\n      add\n      and\n      dup3\n      add\n      dup1\n      0x40\n      mstore\n      pop\n      dup2\n      add\n      swap1\n      tag_120\n      swap2\n      swap1\n      tag_89\n      jump\t// in\n    tag_120:\n        /* \"vrfGeneratorArbitrumSepolia_flattened.sol\":31956:32016  NotEnoughBalance(s_linkToken.balanceOf(address(this)), fees) */\n      mload(0x40)\n      shl(0xe1, 0x4787a103)\n      dup2\n      mstore\n      0x04\n      dup2\n      add\n        /* \"#utility.yul\":8133:8158   */\n      swap2\n      swap1\n      swap2\n      mstore\n        /* \"#utility.yul\":8174:8192   */\n      0x24\n      dup2\n      add\n        /* \"#utility.yul\":8167:8201   */\n      dup3\n      swap1\n      mstore\n        /* \"#utility.yul\":8106:8124   */\n      0x44\n      add\n        /* \"vrfGeneratorArbitrumSepolia_flattened.sol\":31956:32016  NotEnoughBalance(s_linkToken.balanceOf(address(this)), fees) */\n      tag_71\n        /* \"#utility.yul\":7959:8207   */\n      jump\n        /* \"vrfGeneratorArbitrumSepolia_flattened.sol\":31888:32016  if (fees > s_linkToken.balanceOf(address(this)))... */\n    tag_116:\n        /* \"vrfGeneratorArbitrumSepolia_flattened.sol\":32134:32145  s_linkToken */\n      sload(0x08)\n        /* \"vrfGeneratorArbitrumSepolia_flattened.sol\":32162:32170  s_router */\n      sload(0x07)\n        /* \"vrfGeneratorArbitrumSepolia_flattened.sol\":32134:32178  s_linkToken.approve(address(s_router), fees) */\n      mload(0x40)\n      shl(0xe0, 0x095ea7b3)\n      dup2\n      mstore\n      sub(shl(0xa0, 0x01), 0x01)\n        /* \"vrfGeneratorArbitrumSepolia_flattened.sol\":32162:32170  s_router */\n      swap2\n      dup3\n      and\n        /* \"vrfGeneratorArbitrumSepolia_flattened.sol\":32134:32178  s_linkToken.approve(address(s_router), fees) */\n      0x04\n      dup3\n      add\n        /* \"#utility.yul\":8386:8437   */\n      mstore\n        /* \"#utility.yul\":8453:8471   */\n      0x24\n      dup2\n      add\n        /* \"#utility.yul\":8446:8480   */\n      dup5\n      swap1\n      mstore\n        /* \"vrfGeneratorArbitrumSepolia_flattened.sol\":32134:32145  s_linkToken */\n      swap2\n      and\n      swap1\n        /* \"vrfGeneratorArbitrumSepolia_flattened.sol\":32134:32153  s_linkToken.approve */\n      0x095ea7b3\n      swap1\n        /* \"#utility.yul\":8359:8377   */\n      0x44\n      add\n        /* \"vrfGeneratorArbitrumSepolia_flattened.sol\":32134:32178  s_linkToken.approve(address(s_router), fees) */\n      0x20\n      mload(0x40)\n      dup1\n      dup4\n      sub\n      dup2\n      0x00\n      dup8\n      gas\n      call\n      iszero\n      dup1\n      iszero\n      tag_126\n      jumpi\n      returndatasize\n      0x00\n      dup1\n      returndatacopy\n      revert(0x00, returndatasize)\n    tag_126:\n      pop\n      pop\n      pop\n      pop\n      mload(0x40)\n      returndatasize\n      not(0x1f)\n      0x1f\n      dup3\n      add\n      and\n      dup3\n      add\n      dup1\n      0x40\n      mstore\n      pop\n      dup2\n      add\n      swap1\n      tag_127\n      swap2\n      swap1\n      tag_128\n      jump\t// in\n    tag_127:\n      pop\n        /* \"vrfGeneratorArbitrumSepolia_flattened.sol\":32282:32290  s_router */\n      sload(0x07)\n        /* \"vrfGeneratorArbitrumSepolia_flattened.sol\":32282:32341  s_router.ccipSend(destinationChainSelector, evm2AnyMessage) */\n      mload(0x40)\n      shl(0xe0, 0x96f4e9f9)\n      dup2\n      mstore\n      sub(shl(0xa0, 0x01), 0x01)\n        /* \"vrfGeneratorArbitrumSepolia_flattened.sol\":32282:32290  s_router */\n      swap1\n      swap2\n      and\n      swap1\n        /* \"vrfGeneratorArbitrumSepolia_flattened.sol\":32282:32299  s_router.ccipSend */\n      0x96f4e9f9\n      swap1\n        /* \"vrfGeneratorArbitrumSepolia_flattened.sol\":32282:32341  s_router.ccipSend(destinationChainSelector, evm2AnyMessage) */\n      tag_129\n      swap1\n        /* \"vrfGeneratorArbitrumSepolia_flattened.sol\":32300:32324  destinationChainSelector */\n      dup10\n      swap1\n        /* \"vrfGeneratorArbitrumSepolia_flattened.sol\":32326:32340  evm2AnyMessage */\n      dup7\n      swap1\n        /* \"vrfGeneratorArbitrumSepolia_flattened.sol\":32282:32341  s_router.ccipSend(destinationChainSelector, evm2AnyMessage) */\n      0x04\n      add\n      tag_108\n      jump\t// in\n    tag_129:\n      0x20\n      mload(0x40)\n      dup1\n      dup4\n      sub\n      dup2\n      0x00\n      dup8\n      gas\n      call\n      iszero\n      dup1\n      iszero\n      tag_131\n      jumpi\n      returndatasize\n      0x00\n      dup1\n      returndatacopy\n      revert(0x00, returndatasize)\n    tag_131:\n      pop\n      pop\n      pop\n      pop\n      mload(0x40)\n      returndatasize\n      not(0x1f)\n      0x1f\n      dup3\n      add\n      and\n      dup3\n      add\n      dup1\n      0x40\n      mstore\n      pop\n      dup2\n      add\n      swap1\n      tag_132\n      swap2\n      swap1\n      tag_89\n      jump\t// in\n    tag_132:\n        /* \"vrfGeneratorArbitrumSepolia_flattened.sol\":32545:32556  s_linkToken */\n      sload(0x08)\n        /* \"vrfGeneratorArbitrumSepolia_flattened.sol\":32403:32585  MessageSent(... */\n      0x40\n      dup1\n      mload\n      sub(shl(0xa0, 0x01), 0x01)\n        /* \"#utility.yul\":9249:9264   */\n      dup1\n      dup11\n      and\n        /* \"#utility.yul\":9231:9265   */\n      dup3\n      mstore\n        /* \"#utility.yul\":9296:9298   */\n      0x20\n        /* \"#utility.yul\":9281:9299   */\n      dup3\n      add\n        /* \"#utility.yul\":9274:9308   */\n      dup10\n      swap1\n      mstore\n        /* \"vrfGeneratorArbitrumSepolia_flattened.sol\":32545:32556  s_linkToken */\n      swap1\n      swap3\n      and\n        /* \"#utility.yul\":9324:9342   */\n      swap1\n      dup3\n      add\n        /* \"#utility.yul\":9317:9360   */\n      mstore\n        /* \"#utility.yul\":9391:9393   */\n      0x60\n        /* \"#utility.yul\":9376:9394   */\n      dup2\n      add\n        /* \"#utility.yul\":9369:9403   */\n      dup4\n      swap1\n      mstore\n        /* \"vrfGeneratorArbitrumSepolia_flattened.sol\":32270:32341  messageId = s_router.ccipSend(destinationChainSelector, evm2AnyMessage) */\n      swap1\n      swap4\n      pop\n      sub(shl(0x40, 0x01), 0x01)\n        /* \"vrfGeneratorArbitrumSepolia_flattened.sol\":32403:32585  MessageSent(... */\n      dup8\n      and\n      swap1\n        /* \"vrfGeneratorArbitrumSepolia_flattened.sol\":32270:32341  messageId = s_router.ccipSend(destinationChainSelector, evm2AnyMessage) */\n      dup5\n      swap1\n        /* \"vrfGeneratorArbitrumSepolia_flattened.sol\":32403:32585  MessageSent(... */\n      0xeea8a479f07983d1364c4330c9bf3442a1cd421b79b16909bcc1867188ea676b\n      swap1\n        /* \"#utility.yul\":9180:9183   */\n      0x80\n        /* \"#utility.yul\":9165:9184   */\n      add\n        /* \"vrfGeneratorArbitrumSepolia_flattened.sol\":32403:32585  MessageSent(... */\n      mload(0x40)\n      dup1\n      swap2\n      sub\n      swap1\n      log3\n        /* \"vrfGeneratorArbitrumSepolia_flattened.sol\":32629:32645  return messageId */\n      pop\n      pop\n        /* \"vrfGeneratorArbitrumSepolia_flattened.sol\":30794:32652  function sendMessage(... */\n      swap4\n      swap3\n      pop\n      pop\n      pop\n      jump\t// out\n        /* \"vrfGeneratorArbitrumSepolia_flattened.sol\":22792:22922  function ccipReceive(Client.Any2EVMMessage calldata message) external virtual override onlyRouter {... */\n    tag_45:\n        /* \"vrfGeneratorArbitrumSepolia_flattened.sol\":23559:23569  msg.sender */\n      caller\n      sub(shl(0xa0, 0x01), 0x01)\n        /* \"vrfGeneratorArbitrumSepolia_flattened.sol\":23581:23593  i_ccipRouter */\n      immutable(\"0x7c4b9619c581b88a141b2eb4807c7231fe75a5bedaa863d4150e3dabc19d88ab\")\n        /* \"vrfGeneratorArbitrumSepolia_flattened.sol\":23559:23594  msg.sender != address(i_ccipRouter) */\n      and\n      eq\n        /* \"vrfGeneratorArbitrumSepolia_flattened.sol\":23555:23628  if (msg.sender != address(i_ccipRouter)) revert InvalidRouter(msg.sender) */\n      tag_137\n      jumpi\n        /* \"vrfGeneratorArbitrumSepolia_flattened.sol\":23603:23628  InvalidRouter(msg.sender) */\n      mload(0x40)\n      shl(0xe2, 0x35fdcccd)\n      dup2\n      mstore\n        /* \"vrfGeneratorArbitrumSepolia_flattened.sol\":23617:23627  msg.sender */\n      caller\n        /* \"vrfGeneratorArbitrumSepolia_flattened.sol\":23603:23628  InvalidRouter(msg.sender) */\n      0x04\n      dup3\n      add\n        /* \"#utility.yul\":3480:3531   */\n      mstore\n        /* \"#utility.yul\":3453:3471   */\n      0x24\n      add\n        /* \"vrfGeneratorArbitrumSepolia_flattened.sol\":23603:23628  InvalidRouter(msg.sender) */\n      tag_71\n        /* \"#utility.yul\":3334:3537   */\n      jump\n        /* \"vrfGeneratorArbitrumSepolia_flattened.sol\":23555:23628  if (msg.sender != address(i_ccipRouter)) revert InvalidRouter(msg.sender) */\n    tag_137:\n        /* \"vrfGeneratorArbitrumSepolia_flattened.sol\":22896:22917  _ccipReceive(message) */\n      tag_140\n      tag_141\n        /* \"vrfGeneratorArbitrumSepolia_flattened.sol\":22909:22916  message */\n      dup3\n        /* \"vrfGeneratorArbitrumSepolia_flattened.sol\":22896:22917  _ccipReceive(message) */\n      tag_142\n      jump\t// in\n    tag_141:\n        /* \"vrfGeneratorArbitrumSepolia_flattened.sol\":22896:22908  _ccipReceive */\n      tag_143\n        /* \"vrfGeneratorArbitrumSepolia_flattened.sol\":22896:22917  _ccipReceive(message) */\n      jump\t// in\n    tag_140:\n        /* \"vrfGeneratorArbitrumSepolia_flattened.sol\":22792:22922  function ccipReceive(Client.Any2EVMMessage calldata message) external virtual override onlyRouter {... */\n      pop\n      jump\t// out\n        /* \"vrfGeneratorArbitrumSepolia_flattened.sol\":17706:17982  function setCoordinator(address _vrfCoordinator) external override onlyOwnerOrCoordinator {... */\n    tag_53:\n        /* \"vrfGeneratorArbitrumSepolia_flattened.sol\":9041:9048  address */\n      0x00\n        /* \"vrfGeneratorArbitrumSepolia_flattened.sol\":9063:9070  s_owner */\n      sload\n      sub(shl(0xa0, 0x01), 0x01)\n      and\n        /* \"vrfGeneratorArbitrumSepolia_flattened.sol\":18030:18040  msg.sender */\n      caller\n        /* \"vrfGeneratorArbitrumSepolia_flattened.sol\":18030:18051  msg.sender != owner() */\n      eq\n      dup1\n      iszero\n      swap1\n        /* \"vrfGeneratorArbitrumSepolia_flattened.sol\":18030:18094  msg.sender != owner() && msg.sender != address(s_vrfCoordinator) */\n      tag_147\n      jumpi\n      pop\n        /* \"vrfGeneratorArbitrumSepolia_flattened.sol\":18077:18093  s_vrfCoordinator */\n      and(sub(shl(0xa0, 0x01), 0x01), sload(0x02))\n        /* \"vrfGeneratorArbitrumSepolia_flattened.sol\":18055:18065  msg.sender */\n      caller\n        /* \"vrfGeneratorArbitrumSepolia_flattened.sol\":18055:18094  msg.sender != address(s_vrfCoordinator) */\n      eq\n      iszero\n        /* \"vrfGeneratorArbitrumSepolia_flattened.sol\":18030:18094  msg.sender != owner() && msg.sender != address(s_vrfCoordinator) */\n    tag_147:\n        /* \"vrfGeneratorArbitrumSepolia_flattened.sol\":18026:18188  if (msg.sender != owner() && msg.sender != address(s_vrfCoordinator)) {... */\n      iszero\n      tag_148\n      jumpi\n        /* \"vrfGeneratorArbitrumSepolia_flattened.sol\":18134:18144  msg.sender */\n      caller\n        /* \"vrfGeneratorArbitrumSepolia_flattened.sol\":18146:18153  owner() */\n      tag_149\n        /* \"vrfGeneratorArbitrumSepolia_flattened.sol\":9041:9048  address */\n      0x00\n        /* \"vrfGeneratorArbitrumSepolia_flattened.sol\":9063:9070  s_owner */\n      sload\n      sub(shl(0xa0, 0x01), 0x01)\n      and\n      swap1\n        /* \"vrfGeneratorArbitrumSepolia_flattened.sol\":8994:9075  function owner() public view override returns (address) {... */\n      jump\n        /* \"vrfGeneratorArbitrumSepolia_flattened.sol\":18146:18153  owner() */\n    tag_149:\n        /* \"vrfGeneratorArbitrumSepolia_flattened.sol\":18163:18179  s_vrfCoordinator */\n      sload(0x02)\n        /* \"vrfGeneratorArbitrumSepolia_flattened.sol\":18111:18181  OnlyOwnerOrCoordinator(msg.sender, owner(), address(s_vrfCoordinator)) */\n      mload(0x40)\n      shl(0xe0, 0x061db9c1)\n      dup2\n      mstore\n      sub(shl(0xa0, 0x01), 0x01)\n        /* \"#utility.yul\":13216:13231   */\n      swap4\n      dup5\n      and\n        /* \"vrfGeneratorArbitrumSepolia_flattened.sol\":18111:18181  OnlyOwnerOrCoordinator(msg.sender, owner(), address(s_vrfCoordinator)) */\n      0x04\n      dup3\n      add\n        /* \"#utility.yul\":13198:13232   */\n      mstore\n        /* \"#utility.yul\":13268:13283   */\n      swap2\n      dup4\n      and\n        /* \"#utility.yul\":13248:13266   */\n      0x24\n      dup4\n      add\n        /* \"#utility.yul\":13241:13284   */\n      mstore\n        /* \"vrfGeneratorArbitrumSepolia_flattened.sol\":18163:18179  s_vrfCoordinator */\n      swap2\n      swap1\n      swap2\n      and\n        /* \"#utility.yul\":13300:13318   */\n      0x44\n      dup3\n      add\n        /* \"#utility.yul\":13293:13336   */\n      mstore\n        /* \"#utility.yul\":13133:13151   */\n      0x64\n      add\n        /* \"vrfGeneratorArbitrumSepolia_flattened.sol\":18111:18181  OnlyOwnerOrCoordinator(msg.sender, owner(), address(s_vrfCoordinator)) */\n      tag_71\n        /* \"#utility.yul\":12958:13342   */\n      jump\n        /* \"vrfGeneratorArbitrumSepolia_flattened.sol\":18026:18188  if (msg.sender != owner() && msg.sender != address(s_vrfCoordinator)) {... */\n    tag_148:\n      sub(shl(0xa0, 0x01), 0x01)\n        /* \"vrfGeneratorArbitrumSepolia_flattened.sol\":17806:17835  _vrfCoordinator == address(0) */\n      dup2\n      and\n        /* \"vrfGeneratorArbitrumSepolia_flattened.sol\":17802:17872  if (_vrfCoordinator == address(0)) {... */\n      tag_153\n      jumpi\n        /* \"vrfGeneratorArbitrumSepolia_flattened.sol\":17852:17865  ZeroAddress() */\n      mload(0x40)\n      shl(0xe0, 0xd92e233d)\n      dup2\n      mstore\n      0x04\n      add\n      mload(0x40)\n      dup1\n      swap2\n      sub\n      swap1\n      revert\n        /* \"vrfGeneratorArbitrumSepolia_flattened.sol\":17802:17872  if (_vrfCoordinator == address(0)) {... */\n    tag_153:\n        /* \"vrfGeneratorArbitrumSepolia_flattened.sol\":17877:17893  s_vrfCoordinator */\n      0x02\n        /* \"vrfGeneratorArbitrumSepolia_flattened.sol\":17877:17934  s_vrfCoordinator = IVRFCoordinatorV2Plus(_vrfCoordinator) */\n      dup1\n      sload\n      not(sub(shl(0xa0, 0x01), 0x01))\n      and\n      sub(shl(0xa0, 0x01), 0x01)\n      dup4\n      and\n      swap1\n      dup2\n      or\n      swap1\n      swap2\n      sstore\n        /* \"vrfGeneratorArbitrumSepolia_flattened.sol\":17946:17977  CoordinatorSet(_vrfCoordinator) */\n      mload(0x40)\n        /* \"#utility.yul\":3480:3531   */\n      swap1\n      dup2\n      mstore\n        /* \"vrfGeneratorArbitrumSepolia_flattened.sol\":17946:17977  CoordinatorSet(_vrfCoordinator) */\n      0xd1a6a14209a385a964d036e404cb5cfb71f4000cdb03c9366292430787261be6\n      swap1\n        /* \"#utility.yul\":3468:3470   */\n      0x20\n        /* \"#utility.yul\":3453:3471   */\n      add\n        /* \"vrfGeneratorArbitrumSepolia_flattened.sol\":17946:17977  CoordinatorSet(_vrfCoordinator) */\n      mload(0x40)\n      dup1\n      swap2\n      sub\n      swap1\n      log1\n        /* \"vrfGeneratorArbitrumSepolia_flattened.sol\":17706:17982  function setCoordinator(address _vrfCoordinator) external override onlyOwnerOrCoordinator {... */\n      pop\n      jump\t// out\n        /* \"vrfGeneratorArbitrumSepolia_flattened.sol\":8459:8557  function transferOwnership(address to) public override onlyOwner {... */\n    tag_66:\n        /* \"vrfGeneratorArbitrumSepolia_flattened.sol\":9687:9707  _validateOwnership() */\n      tag_157\n        /* \"vrfGeneratorArbitrumSepolia_flattened.sol\":9687:9705  _validateOwnership */\n      tag_158\n        /* \"vrfGeneratorArbitrumSepolia_flattened.sol\":9687:9707  _validateOwnership() */\n      jump\t// in\n    tag_157:\n        /* \"vrfGeneratorArbitrumSepolia_flattened.sol\":8530:8552  _transferOwnership(to) */\n      tag_140\n        /* \"vrfGeneratorArbitrumSepolia_flattened.sol\":8549:8551  to */\n      dup2\n        /* \"vrfGeneratorArbitrumSepolia_flattened.sol\":8530:8548  _transferOwnership */\n      tag_161\n        /* \"vrfGeneratorArbitrumSepolia_flattened.sol\":8530:8552  _transferOwnership(to) */\n      jump\t// in\n        /* \"vrfGeneratorArbitrumSepolia_flattened.sol\":30332:30788  function fulfillRandomWords(... */\n    tag_74:\n        /* \"vrfGeneratorArbitrumSepolia_flattened.sol\":30502:30522  uint256 randomNumber */\n      0x00\n        /* \"vrfGeneratorArbitrumSepolia_flattened.sol\":30525:30537  _randomWords */\n      dup3\n      dup3\n        /* \"vrfGeneratorArbitrumSepolia_flattened.sol\":30538:30539  0 */\n      0x00\n        /* \"vrfGeneratorArbitrumSepolia_flattened.sol\":30525:30540  _randomWords[0] */\n      dup2\n      dup2\n      lt\n      tag_164\n      jumpi\n      tag_164\n      tag_165\n      jump\t// in\n    tag_164:\n      swap1\n      pop\n      0x20\n      mul\n      add\n      calldataload\n        /* \"vrfGeneratorArbitrumSepolia_flattened.sol\":30502:30540  uint256 randomNumber = _randomWords[0] */\n      swap1\n      pop\n        /* \"vrfGeneratorArbitrumSepolia_flattened.sol\":30550:30582  uint64 _destinationChainSelector */\n      0x00\n        /* \"vrfGeneratorArbitrumSepolia_flattened.sol\":30585:30604  5224473277236331295 */\n      0x48810ec3e431431f\n        /* \"vrfGeneratorArbitrumSepolia_flattened.sol\":30550:30604  uint64 _destinationChainSelector = 5224473277236331295 */\n      swap1\n      pop\n        /* \"vrfGeneratorArbitrumSepolia_flattened.sol\":30615:30781  sendMessage(... */\n      tag_166\n        /* \"vrfGeneratorArbitrumSepolia_flattened.sol\":30640:30665  _destinationChainSelector */\n      dup2\n        /* \"vrfGeneratorArbitrumSepolia_flattened.sol\":30687:30729  0xec89fAf56A7029eB3069fFA90be0C6461f475bc1 */\n      0xec89faf56a7029eb3069ffa90be0c6461f475bc1\n        /* \"vrfGeneratorArbitrumSepolia_flattened.sol\":30759:30771  randomNumber */\n      dup5\n        /* \"vrfGeneratorArbitrumSepolia_flattened.sol\":30615:30626  sendMessage */\n      tag_39\n        /* \"vrfGeneratorArbitrumSepolia_flattened.sol\":30615:30781  sendMessage(... */\n      jump\t// in\n    tag_166:\n      pop\n        /* \"vrfGeneratorArbitrumSepolia_flattened.sol\":30453:30788  {... */\n      pop\n      pop\n        /* \"vrfGeneratorArbitrumSepolia_flattened.sol\":30332:30788  function fulfillRandomWords(... */\n      pop\n      pop\n      pop\n      jump\t// out\n        /* \"vrfGeneratorArbitrumSepolia_flattened.sol\":523:686  function _argsToBytes(ExtraArgsV1 memory extraArgs) internal pure returns (bytes memory bts) {... */\n    tag_83:\n        /* \"vrfGeneratorArbitrumSepolia_flattened.sol\":598:614  bytes memory bts */\n      0x60\n        /* \"vrfGeneratorArbitrumSepolia_flattened.sol\":259:287  keccak256(\"VRF ExtraArgsV1\") */\n      0x92fd13387c7fe7befbc38d303d6468778fb9731bc4583f17d92989c6fcfdeaaa\n        /* \"vrfGeneratorArbitrumSepolia_flattened.sol\":671:680  extraArgs */\n      dup3\n        /* \"vrfGeneratorArbitrumSepolia_flattened.sol\":629:681  abi.encodeWithSelector(EXTRA_ARGS_V1_TAG, extraArgs) */\n      add(0x24, mload(0x40))\n      tag_168\n      swap2\n        /* \"#utility.yul\":13711:13724   */\n      mload\n        /* \"#utility.yul\":13704:13725   */\n      iszero\n        /* \"#utility.yul\":13697:13726   */\n      iszero\n        /* \"#utility.yul\":13679:13727   */\n      dup2\n      mstore\n        /* \"#utility.yul\":13667:13669   */\n      0x20\n        /* \"#utility.yul\":13652:13670   */\n      add\n      swap1\n        /* \"#utility.yul\":13479:13733   */\n      jump\n        /* \"vrfGeneratorArbitrumSepolia_flattened.sol\":629:681  abi.encodeWithSelector(EXTRA_ARGS_V1_TAG, extraArgs) */\n    tag_168:\n      0x40\n      dup1\n      mload\n      not(0x1f)\n      dup2\n      dup5\n      sub\n      add\n      dup2\n      mstore\n      swap2\n      swap1\n      mstore\n      0x20\n      dup2\n      add\n      dup1\n      mload\n      sub(shl(0xe0, 0x01), 0x01)\n      and\n      not(sub(shl(0xe0, 0x01), 0x01))\n      swap1\n      swap4\n      and\n      swap3\n      swap1\n      swap3\n      or\n      swap1\n      swap2\n      mstore\n      swap3\n        /* \"vrfGeneratorArbitrumSepolia_flattened.sol\":523:686  function _argsToBytes(ExtraArgsV1 memory extraArgs) internal pure returns (bytes memory bts) {... */\n      swap2\n      pop\n      pop\n      jump\t// out\n        /* \"vrfGeneratorArbitrumSepolia_flattened.sol\":19534:19704  function _argsToBytes(EVMExtraArgsV1 memory extraArgs) internal pure returns (bytes memory bts) {... */\n    tag_106:\n        /* \"vrfGeneratorArbitrumSepolia_flattened.sol\":19643:19699  abi.encodeWithSelector(EVM_EXTRA_ARGS_V1_TAG, extraArgs) */\n      mload(0x40)\n        /* \"#utility.yul\":13964:13977   */\n      dup2\n      mload\n        /* \"vrfGeneratorArbitrumSepolia_flattened.sol\":19643:19699  abi.encodeWithSelector(EVM_EXTRA_ARGS_V1_TAG, extraArgs) */\n      0x24\n      dup3\n      add\n        /* \"#utility.yul\":13946:13978   */\n      mstore\n        /* \"vrfGeneratorArbitrumSepolia_flattened.sol\":19612:19628  bytes memory bts */\n      0x60\n      swap1\n      shl(0xe0, 0x97a657c9)\n        /* \"vrfGeneratorArbitrumSepolia_flattened.sol\":19666:19687  EVM_EXTRA_ARGS_V1_TAG */\n      swap1\n        /* \"#utility.yul\":13919:13937   */\n      0x44\n      add\n        /* \"vrfGeneratorArbitrumSepolia_flattened.sol\":19643:19699  abi.encodeWithSelector(EVM_EXTRA_ARGS_V1_TAG, extraArgs) */\n      tag_168\n        /* \"#utility.yul\":13738:13984   */\n      jump\n        /* \"vrfGeneratorArbitrumSepolia_flattened.sol\":29004:29635  function _ccipReceive(Client.Any2EVMMessage memory any2EvmMessage)... */\n    tag_143:\n        /* \"vrfGeneratorArbitrumSepolia_flattened.sol\":29145:29169  any2EvmMessage.messageId */\n      dup1\n      mload\n        /* \"vrfGeneratorArbitrumSepolia_flattened.sol\":29119:29142  s_lastReceivedMessageId */\n      0x05\n        /* \"vrfGeneratorArbitrumSepolia_flattened.sol\":29119:29169  s_lastReceivedMessageId = any2EvmMessage.messageId */\n      sstore\n        /* \"vrfGeneratorArbitrumSepolia_flattened.sol\":29234:29253  any2EvmMessage.data */\n      0x60\n      dup2\n      add\n      mload\n        /* \"vrfGeneratorArbitrumSepolia_flattened.sol\":29223:29264  abi.decode(any2EvmMessage.data, (string)) */\n      dup1\n      mload\n      tag_174\n      swap2\n      0x20\n      swap2\n      dup2\n      add\n      dup3\n      add\n      swap2\n      add\n      tag_175\n      jump\t// in\n    tag_174:\n        /* \"vrfGeneratorArbitrumSepolia_flattened.sol\":29202:29220  s_lastReceivedText */\n      0x06\n      swap1\n        /* \"vrfGeneratorArbitrumSepolia_flattened.sol\":29202:29264  s_lastReceivedText = abi.decode(any2EvmMessage.data, (string)) */\n      tag_176\n      swap1\n        /* \"vrfGeneratorArbitrumSepolia_flattened.sol\":29202:29220  s_lastReceivedText */\n      dup3\n        /* \"vrfGeneratorArbitrumSepolia_flattened.sol\":29202:29264  s_lastReceivedText = abi.decode(any2EvmMessage.data, (string)) */\n      tag_177\n      jump\t// in\n    tag_176:\n      pop\n        /* \"vrfGeneratorArbitrumSepolia_flattened.sol\":29275:29297  generateRandomNumber() */\n      tag_178\n        /* \"vrfGeneratorArbitrumSepolia_flattened.sol\":29275:29295  generateRandomNumber */\n      tag_33\n        /* \"vrfGeneratorArbitrumSepolia_flattened.sol\":29275:29297  generateRandomNumber() */\n      jump\t// in\n    tag_178:\n        /* \"vrfGeneratorArbitrumSepolia_flattened.sol\":29380:29394  any2EvmMessage */\n      dup1\n        /* \"vrfGeneratorArbitrumSepolia_flattened.sol\":29380:29414  any2EvmMessage.sourceChainSelector */\n      0x20\n      add\n      mload\n      sub(shl(0x40, 0x01), 0x01)\n        /* \"vrfGeneratorArbitrumSepolia_flattened.sol\":29313:29628  MessageReceived(... */\n      and\n        /* \"vrfGeneratorArbitrumSepolia_flattened.sol\":29342:29356  any2EvmMessage */\n      dup2\n        /* \"vrfGeneratorArbitrumSepolia_flattened.sol\":29342:29366  any2EvmMessage.messageId */\n      0x00\n      add\n      mload\n        /* \"vrfGeneratorArbitrumSepolia_flattened.sol\":29313:29628  MessageReceived(... */\n      0xb1e312a29937cc11967b0e4a346fef1ae132424ebaba9dc6d90249dba053e87c\n        /* \"vrfGeneratorArbitrumSepolia_flattened.sol\":29491:29505  any2EvmMessage */\n      dup4\n        /* \"vrfGeneratorArbitrumSepolia_flattened.sol\":29491:29512  any2EvmMessage.sender */\n      0x40\n      add\n      mload\n        /* \"vrfGeneratorArbitrumSepolia_flattened.sol\":29480:29524  abi.decode(any2EvmMessage.sender, (address)) */\n      dup1\n      0x20\n      add\n      swap1\n      mload\n      dup2\n      add\n      swap1\n      tag_179\n      swap2\n      swap1\n      tag_180\n      jump\t// in\n    tag_179:\n        /* \"vrfGeneratorArbitrumSepolia_flattened.sol\":29588:29602  any2EvmMessage */\n      dup5\n        /* \"vrfGeneratorArbitrumSepolia_flattened.sol\":29588:29607  any2EvmMessage.data */\n      0x60\n      add\n      mload\n        /* \"vrfGeneratorArbitrumSepolia_flattened.sol\":29577:29618  abi.decode(any2EvmMessage.data, (string)) */\n      dup1\n      0x20\n      add\n      swap1\n      mload\n      dup2\n      add\n      swap1\n      tag_181\n      swap2\n      swap1\n      tag_175\n      jump\t// in\n    tag_181:\n        /* \"vrfGeneratorArbitrumSepolia_flattened.sol\":29313:29628  MessageReceived(... */\n      mload(0x40)\n      tag_182\n      swap3\n      swap2\n      swap1\n      tag_183\n      jump\t// in\n    tag_182:\n      mload(0x40)\n      dup1\n      swap2\n      sub\n      swap1\n      log3\n        /* \"vrfGeneratorArbitrumSepolia_flattened.sol\":29004:29635  function _ccipReceive(Client.Any2EVMMessage memory any2EvmMessage)... */\n      pop\n      jump\t// out\n        /* \"vrfGeneratorArbitrumSepolia_flattened.sol\":9421:9583  function _validateOwnership() internal view {... */\n    tag_158:\n        /* \"vrfGeneratorArbitrumSepolia_flattened.sol\":9544:9551  s_owner */\n      and(sub(shl(0xa0, 0x01), 0x01), sload(0x00))\n        /* \"vrfGeneratorArbitrumSepolia_flattened.sol\":9530:9540  msg.sender */\n      caller\n        /* \"vrfGeneratorArbitrumSepolia_flattened.sol\":9530:9551  msg.sender == s_owner */\n      eq\n        /* \"vrfGeneratorArbitrumSepolia_flattened.sol\":9522:9578  require(msg.sender == s_owner, \"Only callable by owner\") */\n      tag_185\n      jumpi\n      mload(0x40)\n      shl(0xe5, 0x461bcd)\n      dup2\n      mstore\n        /* \"#utility.yul\":17642:17644   */\n      0x20\n        /* \"vrfGeneratorArbitrumSepolia_flattened.sol\":9522:9578  require(msg.sender == s_owner, \"Only callable by owner\") */\n      0x04\n      dup3\n      add\n        /* \"#utility.yul\":17624:17645   */\n      mstore\n        /* \"#utility.yul\":17681:17683   */\n      0x16\n        /* \"#utility.yul\":17661:17679   */\n      0x24\n      dup3\n      add\n        /* \"#utility.yul\":17654:17684   */\n      mstore\n      shl(0x51, 0x27b7363c9031b0b63630b1363290313c9037bbb732b9)\n        /* \"#utility.yul\":17700:17718   */\n      0x44\n      dup3\n      add\n        /* \"#utility.yul\":17693:17745   */\n      mstore\n        /* \"#utility.yul\":17762:17780   */\n      0x64\n      add\n        /* \"vrfGeneratorArbitrumSepolia_flattened.sol\":9522:9578  require(msg.sender == s_owner, \"Only callable by owner\") */\n      tag_71\n        /* \"#utility.yul\":17440:17786   */\n      jump\n        /* \"vrfGeneratorArbitrumSepolia_flattened.sol\":9522:9578  require(msg.sender == s_owner, \"Only callable by owner\") */\n    tag_185:\n        /* \"vrfGeneratorArbitrumSepolia_flattened.sol\":9421:9583  function _validateOwnership() internal view {... */\n      jump\t// out\n        /* \"vrfGeneratorArbitrumSepolia_flattened.sol\":9148:9387  function _transferOwnership(address to) private {... */\n    tag_161:\n        /* \"vrfGeneratorArbitrumSepolia_flattened.sol\":9267:9277  msg.sender */\n      caller\n      sub(shl(0xa0, 0x01), 0x01)\n        /* \"vrfGeneratorArbitrumSepolia_flattened.sol\":9261:9277  to != msg.sender */\n      dup3\n      and\n      sub\n        /* \"vrfGeneratorArbitrumSepolia_flattened.sol\":9253:9305  require(to != msg.sender, \"Cannot transfer to self\") */\n      tag_189\n      jumpi\n      mload(0x40)\n      shl(0xe5, 0x461bcd)\n      dup2\n      mstore\n        /* \"#utility.yul\":17993:17995   */\n      0x20\n        /* \"vrfGeneratorArbitrumSepolia_flattened.sol\":9253:9305  require(to != msg.sender, \"Cannot transfer to self\") */\n      0x04\n      dup3\n      add\n        /* \"#utility.yul\":17975:17996   */\n      mstore\n        /* \"#utility.yul\":18032:18034   */\n      0x17\n        /* \"#utility.yul\":18012:18030   */\n      0x24\n      dup3\n      add\n        /* \"#utility.yul\":18005:18035   */\n      mstore\n        /* \"#utility.yul\":18071:18096   */\n      0x43616e6e6f74207472616e7366657220746f2073656c66000000000000000000\n        /* \"#utility.yul\":18051:18069   */\n      0x44\n      dup3\n      add\n        /* \"#utility.yul\":18044:18097   */\n      mstore\n        /* \"#utility.yul\":18114:18132   */\n      0x64\n      add\n        /* \"vrfGeneratorArbitrumSepolia_flattened.sol\":9253:9305  require(to != msg.sender, \"Cannot transfer to self\") */\n      tag_71\n        /* \"#utility.yul\":17791:18138   */\n      jump\n        /* \"vrfGeneratorArbitrumSepolia_flattened.sol\":9253:9305  require(to != msg.sender, \"Cannot transfer to self\") */\n    tag_189:\n        /* \"vrfGeneratorArbitrumSepolia_flattened.sol\":9312:9326  s_pendingOwner */\n      0x01\n        /* \"vrfGeneratorArbitrumSepolia_flattened.sol\":9312:9331  s_pendingOwner = to */\n      dup1\n      sload\n      not(sub(shl(0xa0, 0x01), 0x01))\n      and\n      sub(shl(0xa0, 0x01), 0x01)\n      dup4\n      dup2\n      and\n      swap2\n      dup3\n      or\n      swap1\n      swap3\n      sstore\n      0x00\n        /* \"vrfGeneratorArbitrumSepolia_flattened.sol\":9370:9377  s_owner */\n      dup1\n      sload\n        /* \"vrfGeneratorArbitrumSepolia_flattened.sol\":9343:9382  OwnershipTransferRequested(s_owner, to) */\n      mload(0x40)\n        /* \"vrfGeneratorArbitrumSepolia_flattened.sol\":9312:9331  s_pendingOwner = to */\n      swap3\n      swap4\n        /* \"vrfGeneratorArbitrumSepolia_flattened.sol\":9370:9377  s_owner */\n      and\n      swap2\n        /* \"vrfGeneratorArbitrumSepolia_flattened.sol\":9343:9382  OwnershipTransferRequested(s_owner, to) */\n      0xed8889f560326eb138920d842192f0eb3dd22b4f139c87a2c57538e05bae1278\n      swap2\n      swap1\n      log3\n        /* \"vrfGeneratorArbitrumSepolia_flattened.sol\":9148:9387  function _transferOwnership(address to) private {... */\n      pop\n      jump\t// out\n        /* \"#utility.yul\":14:300   */\n    tag_20:\n        /* \"#utility.yul\":72:78   */\n      0x00\n        /* \"#utility.yul\":125:127   */\n      0x20\n        /* \"#utility.yul\":113:122   */\n      dup3\n        /* \"#utility.yul\":104:111   */\n      dup5\n        /* \"#utility.yul\":100:123   */\n      sub\n        /* \"#utility.yul\":96:128   */\n      slt\n        /* \"#utility.yul\":93:145   */\n      iszero\n      tag_208\n      jumpi\n        /* \"#utility.yul\":141:142   */\n      0x00\n        /* \"#utility.yul\":138:139   */\n      dup1\n        /* \"#utility.yul\":131:143   */\n      revert\n        /* \"#utility.yul\":93:145   */\n    tag_208:\n        /* \"#utility.yul\":167:190   */\n      dup2\n      calldataload\n      not(sub(shl(0xe0, 0x01), 0x01))\n        /* \"#utility.yul\":219:251   */\n      dup2\n      and\n        /* \"#utility.yul\":209:252   */\n      dup2\n      eq\n        /* \"#utility.yul\":199:270   */\n      tag_209\n      jumpi\n        /* \"#utility.yul\":266:267   */\n      0x00\n        /* \"#utility.yul\":263:264   */\n      dup1\n        /* \"#utility.yul\":256:268   */\n      revert\n        /* \"#utility.yul\":199:270   */\n    tag_209:\n        /* \"#utility.yul\":289:294   */\n      swap4\n        /* \"#utility.yul\":14:300   */\n      swap3\n      pop\n      pop\n      pop\n      jump\t// out\n        /* \"#utility.yul\":497:1180   */\n    tag_26:\n        /* \"#utility.yul\":592:598   */\n      0x00\n        /* \"#utility.yul\":600:606   */\n      dup1\n        /* \"#utility.yul\":608:614   */\n      0x00\n        /* \"#utility.yul\":661:663   */\n      0x40\n        /* \"#utility.yul\":649:658   */\n      dup5\n        /* \"#utility.yul\":640:647   */\n      dup7\n        /* \"#utility.yul\":636:659   */\n      sub\n        /* \"#utility.yul\":632:664   */\n      slt\n        /* \"#utility.yul\":629:681   */\n      iszero\n      tag_212\n      jumpi\n        /* \"#utility.yul\":677:678   */\n      0x00\n        /* \"#utility.yul\":674:675   */\n      dup1\n        /* \"#utility.yul\":667:679   */\n      revert\n        /* \"#utility.yul\":629:681   */\n    tag_212:\n        /* \"#utility.yul\":713:722   */\n      dup4\n        /* \"#utility.yul\":700:723   */\n      calldataload\n        /* \"#utility.yul\":690:723   */\n      swap3\n      pop\n        /* \"#utility.yul\":774:776   */\n      0x20\n        /* \"#utility.yul\":763:772   */\n      dup5\n        /* \"#utility.yul\":759:777   */\n      add\n        /* \"#utility.yul\":746:778   */\n      calldataload\n      sub(shl(0x40, 0x01), 0x01)\n        /* \"#utility.yul\":838:840   */\n      dup1\n        /* \"#utility.yul\":830:836   */\n      dup3\n        /* \"#utility.yul\":827:841   */\n      gt\n        /* \"#utility.yul\":824:858   */\n      iszero\n      tag_213\n      jumpi\n        /* \"#utility.yul\":854:855   */\n      0x00\n        /* \"#utility.yul\":851:852   */\n      dup1\n        /* \"#utility.yul\":844:856   */\n      revert\n        /* \"#utility.yul\":824:858   */\n    tag_213:\n        /* \"#utility.yul\":892:898   */\n      dup2\n        /* \"#utility.yul\":881:890   */\n      dup7\n        /* \"#utility.yul\":877:899   */\n      add\n        /* \"#utility.yul\":867:899   */\n      swap2\n      pop\n        /* \"#utility.yul\":937:944   */\n      dup7\n        /* \"#utility.yul\":930:934   */\n      0x1f\n        /* \"#utility.yul\":926:928   */\n      dup4\n        /* \"#utility.yul\":922:935   */\n      add\n        /* \"#utility.yul\":918:945   */\n      slt\n        /* \"#utility.yul\":908:963   */\n      tag_214\n      jumpi\n        /* \"#utility.yul\":959:960   */\n      0x00\n        /* \"#utility.yul\":956:957   */\n      dup1\n        /* \"#utility.yul\":949:961   */\n      revert\n        /* \"#utility.yul\":908:963   */\n    tag_214:\n        /* \"#utility.yul\":999:1001   */\n      dup2\n        /* \"#utility.yul\":986:1002   */\n      calldataload\n        /* \"#utility.yul\":1025:1027   */\n      dup2\n        /* \"#utility.yul\":1017:1023   */\n      dup2\n        /* \"#utility.yul\":1014:1028   */\n      gt\n        /* \"#utility.yul\":1011:1045   */\n      iszero\n      tag_215\n      jumpi\n        /* \"#utility.yul\":1041:1042   */\n      0x00\n        /* \"#utility.yul\":1038:1039   */\n      dup1\n        /* \"#utility.yul\":1031:1043   */\n      revert\n        /* \"#utility.yul\":1011:1045   */\n    tag_215:\n        /* \"#utility.yul\":1094:1101   */\n      dup8\n        /* \"#utility.yul\":1089:1091   */\n      0x20\n        /* \"#utility.yul\":1079:1085   */\n      dup3\n        /* \"#utility.yul\":1076:1077   */\n      0x05\n        /* \"#utility.yul\":1072:1086   */\n      shl\n        /* \"#utility.yul\":1068:1070   */\n      dup6\n        /* \"#utility.yul\":1064:1087   */\n      add\n        /* \"#utility.yul\":1060:1092   */\n      add\n        /* \"#utility.yul\":1057:1102   */\n      gt\n        /* \"#utility.yul\":1054:1119   */\n      iszero\n      tag_216\n      jumpi\n        /* \"#utility.yul\":1115:1116   */\n      0x00\n        /* \"#utility.yul\":1112:1113   */\n      dup1\n        /* \"#utility.yul\":1105:1117   */\n      revert\n        /* \"#utility.yul\":1054:1119   */\n    tag_216:\n        /* \"#utility.yul\":1146:1148   */\n      0x20\n        /* \"#utility.yul\":1142:1144   */\n      dup4\n        /* \"#utility.yul\":1138:1149   */\n      add\n        /* \"#utility.yul\":1128:1149   */\n      swap5\n      pop\n        /* \"#utility.yul\":1168:1174   */\n      dup1\n        /* \"#utility.yul\":1158:1174   */\n      swap4\n      pop\n      pop\n      pop\n      pop\n        /* \"#utility.yul\":497:1180   */\n      swap3\n      pop\n      swap3\n      pop\n      swap3\n      jump\t// out\n        /* \"#utility.yul\":1185:1435   */\n    tag_192:\n        /* \"#utility.yul\":1270:1271   */\n      0x00\n        /* \"#utility.yul\":1280:1393   */\n    tag_218:\n        /* \"#utility.yul\":1294:1300   */\n      dup4\n        /* \"#utility.yul\":1291:1292   */\n      dup2\n        /* \"#utility.yul\":1288:1301   */\n      lt\n        /* \"#utility.yul\":1280:1393   */\n      iszero\n      tag_220\n      jumpi\n        /* \"#utility.yul\":1370:1381   */\n      dup2\n      dup2\n      add\n        /* \"#utility.yul\":1364:1382   */\n      mload\n        /* \"#utility.yul\":1351:1362   */\n      dup4\n      dup3\n      add\n        /* \"#utility.yul\":1344:1383   */\n      mstore\n        /* \"#utility.yul\":1316:1318   */\n      0x20\n        /* \"#utility.yul\":1309:1319   */\n      add\n        /* \"#utility.yul\":1280:1393   */\n      jump(tag_218)\n    tag_220:\n      pop\n      pop\n        /* \"#utility.yul\":1427:1428   */\n      0x00\n        /* \"#utility.yul\":1409:1425   */\n      swap2\n      add\n        /* \"#utility.yul\":1402:1429   */\n      mstore\n        /* \"#utility.yul\":1185:1435   */\n      jump\t// out\n        /* \"#utility.yul\":1440:1711   */\n    tag_193:\n        /* \"#utility.yul\":1482:1485   */\n      0x00\n        /* \"#utility.yul\":1520:1525   */\n      dup2\n        /* \"#utility.yul\":1514:1526   */\n      mload\n        /* \"#utility.yul\":1547:1553   */\n      dup1\n        /* \"#utility.yul\":1542:1545   */\n      dup5\n        /* \"#utility.yul\":1535:1554   */\n      mstore\n        /* \"#utility.yul\":1563:1639   */\n      tag_222\n        /* \"#utility.yul\":1632:1638   */\n      dup2\n        /* \"#utility.yul\":1625:1629   */\n      0x20\n        /* \"#utility.yul\":1620:1623   */\n      dup7\n        /* \"#utility.yul\":1616:1630   */\n      add\n        /* \"#utility.yul\":1609:1613   */\n      0x20\n        /* \"#utility.yul\":1602:1607   */\n      dup7\n        /* \"#utility.yul\":1598:1614   */\n      add\n        /* \"#utility.yul\":1563:1639   */\n      tag_192\n      jump\t// in\n    tag_222:\n        /* \"#utility.yul\":1693:1695   */\n      0x1f\n        /* \"#utility.yul\":1672:1687   */\n      add\n      not(0x1f)\n        /* \"#utility.yul\":1668:1697   */\n      and\n        /* \"#utility.yul\":1659:1698   */\n      swap3\n      swap1\n      swap3\n      add\n        /* \"#utility.yul\":1700:1704   */\n      0x20\n        /* \"#utility.yul\":1655:1705   */\n      add\n      swap3\n        /* \"#utility.yul\":1440:1711   */\n      swap2\n      pop\n      pop\n      jump\t// out\n        /* \"#utility.yul\":1716:1936   */\n    tag_31:\n        /* \"#utility.yul\":1865:1867   */\n      0x20\n        /* \"#utility.yul\":1854:1863   */\n      dup2\n        /* \"#utility.yul\":1847:1868   */\n      mstore\n        /* \"#utility.yul\":1828:1832   */\n      0x00\n        /* \"#utility.yul\":1885:1930   */\n      tag_209\n        /* \"#utility.yul\":1926:1928   */\n      0x20\n        /* \"#utility.yul\":1915:1924   */\n      dup4\n        /* \"#utility.yul\":1911:1929   */\n      add\n        /* \"#utility.yul\":1903:1909   */\n      dup5\n        /* \"#utility.yul\":1885:1930   */\n      tag_193\n      jump\t// in\n        /* \"#utility.yul\":1941:2112   */\n    tag_194:\n        /* \"#utility.yul\":2008:2028   */\n      dup1\n      calldataload\n      sub(shl(0x40, 0x01), 0x01)\n        /* \"#utility.yul\":2057:2087   */\n      dup2\n      and\n        /* \"#utility.yul\":2047:2088   */\n      dup2\n      eq\n        /* \"#utility.yul\":2037:2106   */\n      tag_226\n      jumpi\n        /* \"#utility.yul\":2102:2103   */\n      0x00\n        /* \"#utility.yul\":2099:2100   */\n      dup1\n        /* \"#utility.yul\":2092:2104   */\n      revert\n        /* \"#utility.yul\":2037:2106   */\n    tag_226:\n        /* \"#utility.yul\":1941:2112   */\n      swap2\n      swap1\n      pop\n      jump\t// out\n        /* \"#utility.yul\":2117:2248   */\n    tag_195:\n      sub(shl(0xa0, 0x01), 0x01)\n        /* \"#utility.yul\":2192:2223   */\n      dup2\n      and\n        /* \"#utility.yul\":2182:2224   */\n      dup2\n      eq\n        /* \"#utility.yul\":2172:2242   */\n      tag_140\n      jumpi\n        /* \"#utility.yul\":2238:2239   */\n      0x00\n        /* \"#utility.yul\":2235:2236   */\n      dup1\n        /* \"#utility.yul\":2228:2240   */\n      revert\n        /* \"#utility.yul\":2253:2640   */\n    tag_38:\n        /* \"#utility.yul\":2329:2335   */\n      0x00\n        /* \"#utility.yul\":2337:2343   */\n      dup1\n        /* \"#utility.yul\":2345:2351   */\n      0x00\n        /* \"#utility.yul\":2398:2400   */\n      0x60\n        /* \"#utility.yul\":2386:2395   */\n      dup5\n        /* \"#utility.yul\":2377:2384   */\n      dup7\n        /* \"#utility.yul\":2373:2396   */\n      sub\n        /* \"#utility.yul\":2369:2401   */\n      slt\n        /* \"#utility.yul\":2366:2418   */\n      iszero\n      tag_230\n      jumpi\n        /* \"#utility.yul\":2414:2415   */\n      0x00\n        /* \"#utility.yul\":2411:2412   */\n      dup1\n        /* \"#utility.yul\":2404:2416   */\n      revert\n        /* \"#utility.yul\":2366:2418   */\n    tag_230:\n        /* \"#utility.yul\":2437:2465   */\n      tag_231\n        /* \"#utility.yul\":2455:2464   */\n      dup5\n        /* \"#utility.yul\":2437:2465   */\n      tag_194\n      jump\t// in\n    tag_231:\n        /* \"#utility.yul\":2427:2465   */\n      swap3\n      pop\n        /* \"#utility.yul\":2515:2517   */\n      0x20\n        /* \"#utility.yul\":2504:2513   */\n      dup5\n        /* \"#utility.yul\":2500:2518   */\n      add\n        /* \"#utility.yul\":2487:2519   */\n      calldataload\n        /* \"#utility.yul\":2528:2559   */\n      tag_232\n        /* \"#utility.yul\":2553:2558   */\n      dup2\n        /* \"#utility.yul\":2528:2559   */\n      tag_195\n      jump\t// in\n    tag_232:\n        /* \"#utility.yul\":2253:2640   */\n      swap3\n      swap6\n        /* \"#utility.yul\":2578:2583   */\n      swap3\n      swap5\n      pop\n      pop\n      pop\n        /* \"#utility.yul\":2630:2632   */\n      0x40\n        /* \"#utility.yul\":2615:2633   */\n      swap2\n      swap1\n      swap2\n      add\n        /* \"#utility.yul\":2602:2634   */\n      calldataload\n      swap1\n        /* \"#utility.yul\":2253:2640   */\n      jump\t// out\n        /* \"#utility.yul\":2827:3220   */\n    tag_44:\n        /* \"#utility.yul\":2919:2925   */\n      0x00\n        /* \"#utility.yul\":2972:2974   */\n      0x20\n        /* \"#utility.yul\":2960:2969   */\n      dup3\n        /* \"#utility.yul\":2951:2958   */\n      dup5\n        /* \"#utility.yul\":2947:2970   */\n      sub\n        /* \"#utility.yul\":2943:2975   */\n      slt\n        /* \"#utility.yul\":2940:2992   */\n      iszero\n      tag_235\n      jumpi\n        /* \"#utility.yul\":2988:2989   */\n      0x00\n        /* \"#utility.yul\":2985:2986   */\n      dup1\n        /* \"#utility.yul\":2978:2990   */\n      revert\n        /* \"#utility.yul\":2940:2992   */\n    tag_235:\n        /* \"#utility.yul\":3028:3037   */\n      dup2\n        /* \"#utility.yul\":3015:3038   */\n      calldataload\n      sub(shl(0x40, 0x01), 0x01)\n        /* \"#utility.yul\":3053:3059   */\n      dup2\n        /* \"#utility.yul\":3050:3080   */\n      gt\n        /* \"#utility.yul\":3047:3097   */\n      iszero\n      tag_236\n      jumpi\n        /* \"#utility.yul\":3093:3094   */\n      0x00\n        /* \"#utility.yul\":3090:3091   */\n      dup1\n        /* \"#utility.yul\":3083:3095   */\n      revert\n        /* \"#utility.yul\":3047:3097   */\n    tag_236:\n        /* \"#utility.yul\":3116:3138   */\n      dup3\n      add\n        /* \"#utility.yul\":3172:3175   */\n      0xa0\n        /* \"#utility.yul\":3154:3170   */\n      dup2\n      dup6\n      sub\n        /* \"#utility.yul\":3150:3176   */\n      slt\n        /* \"#utility.yul\":3147:3193   */\n      iszero\n      tag_209\n      jumpi\n        /* \"#utility.yul\":3189:3190   */\n      0x00\n        /* \"#utility.yul\":3186:3187   */\n      dup1\n        /* \"#utility.yul\":3179:3191   */\n      revert\n        /* \"#utility.yul\":3542:3789   */\n    tag_52:\n        /* \"#utility.yul\":3601:3607   */\n      0x00\n        /* \"#utility.yul\":3654:3656   */\n      0x20\n        /* \"#utility.yul\":3642:3651   */\n      dup3\n        /* \"#utility.yul\":3633:3640   */\n      dup5\n        /* \"#utility.yul\":3629:3652   */\n      sub\n        /* \"#utility.yul\":3625:3657   */\n      slt\n        /* \"#utility.yul\":3622:3674   */\n      iszero\n      tag_241\n      jumpi\n        /* \"#utility.yul\":3670:3671   */\n      0x00\n        /* \"#utility.yul\":3667:3668   */\n      dup1\n        /* \"#utility.yul\":3660:3672   */\n      revert\n        /* \"#utility.yul\":3622:3674   */\n    tag_241:\n        /* \"#utility.yul\":3709:3718   */\n      dup2\n        /* \"#utility.yul\":3696:3719   */\n      calldataload\n        /* \"#utility.yul\":3728:3759   */\n      tag_209\n        /* \"#utility.yul\":3753:3758   */\n      dup2\n        /* \"#utility.yul\":3728:3759   */\n      tag_195\n      jump\t// in\n        /* \"#utility.yul\":4340:4720   */\n    tag_76:\n        /* \"#utility.yul\":4419:4420   */\n      0x01\n        /* \"#utility.yul\":4415:4427   */\n      dup2\n      dup2\n      shr\n      swap1\n        /* \"#utility.yul\":4462:4474   */\n      dup3\n      and\n      dup1\n        /* \"#utility.yul\":4483:4544   */\n      tag_246\n      jumpi\n        /* \"#utility.yul\":4537:4541   */\n      0x7f\n        /* \"#utility.yul\":4529:4535   */\n      dup3\n        /* \"#utility.yul\":4525:4542   */\n      and\n        /* \"#utility.yul\":4515:4542   */\n      swap2\n      pop\n        /* \"#utility.yul\":4483:4544   */\n    tag_246:\n        /* \"#utility.yul\":4590:4592   */\n      0x20\n        /* \"#utility.yul\":4582:4588   */\n      dup3\n        /* \"#utility.yul\":4579:4593   */\n      lt\n        /* \"#utility.yul\":4559:4577   */\n      dup2\n        /* \"#utility.yul\":4556:4594   */\n      sub\n        /* \"#utility.yul\":4553:4714   */\n      tag_247\n      jumpi\n        /* \"#utility.yul\":4636:4646   */\n      0x4e487b71\n        /* \"#utility.yul\":4631:4634   */\n      0xe0\n        /* \"#utility.yul\":4627:4647   */\n      shl\n        /* \"#utility.yul\":4624:4625   */\n      0x00\n        /* \"#utility.yul\":4617:4648   */\n      mstore\n        /* \"#utility.yul\":4671:4675   */\n      0x22\n        /* \"#utility.yul\":4668:4669   */\n      0x04\n        /* \"#utility.yul\":4661:4676   */\n      mstore\n        /* \"#utility.yul\":4699:4703   */\n      0x24\n        /* \"#utility.yul\":4696:4697   */\n      0x00\n        /* \"#utility.yul\":4689:4704   */\n      revert\n        /* \"#utility.yul\":4553:4714   */\n    tag_247:\n      pop\n        /* \"#utility.yul\":4340:4720   */\n      swap2\n      swap1\n      pop\n      jump\t// out\n        /* \"#utility.yul\":4725:5489   */\n    tag_85:\n        /* \"#utility.yul\":4922:4924   */\n      0x20\n        /* \"#utility.yul\":4911:4920   */\n      dup2\n        /* \"#utility.yul\":4904:4925   */\n      mstore\n        /* \"#utility.yul\":4967:4973   */\n      dup2\n        /* \"#utility.yul\":4961:4974   */\n      mload\n        /* \"#utility.yul\":4956:4958   */\n      0x20\n        /* \"#utility.yul\":4945:4954   */\n      dup3\n        /* \"#utility.yul\":4941:4959   */\n      add\n        /* \"#utility.yul\":4934:4975   */\n      mstore\n        /* \"#utility.yul\":5029:5031   */\n      0x20\n        /* \"#utility.yul\":5021:5027   */\n      dup3\n        /* \"#utility.yul\":5017:5032   */\n      add\n        /* \"#utility.yul\":5011:5033   */\n      mload\n        /* \"#utility.yul\":5006:5008   */\n      0x40\n        /* \"#utility.yul\":4995:5004   */\n      dup3\n        /* \"#utility.yul\":4991:5009   */\n      add\n        /* \"#utility.yul\":4984:5034   */\n      mstore\n        /* \"#utility.yul\":5098:5104   */\n      0xffff\n        /* \"#utility.yul\":5092:5094   */\n      0x40\n        /* \"#utility.yul\":5084:5090   */\n      dup4\n        /* \"#utility.yul\":5080:5095   */\n      add\n        /* \"#utility.yul\":5074:5096   */\n      mload\n        /* \"#utility.yul\":5070:5105   */\n      and\n        /* \"#utility.yul\":5065:5067   */\n      0x60\n        /* \"#utility.yul\":5054:5063   */\n      dup3\n        /* \"#utility.yul\":5050:5068   */\n      add\n        /* \"#utility.yul\":5043:5106   */\n      mstore\n        /* \"#utility.yul\":4885:4889   */\n      0x00\n        /* \"#utility.yul\":5153:5155   */\n      0x60\n        /* \"#utility.yul\":5145:5151   */\n      dup4\n        /* \"#utility.yul\":5141:5156   */\n      add\n        /* \"#utility.yul\":5135:5157   */\n      mload\n        /* \"#utility.yul\":5176:5186   */\n      0xffffffff\n        /* \"#utility.yul\":5241:5243   */\n      dup1\n        /* \"#utility.yul\":5227:5239   */\n      dup3\n        /* \"#utility.yul\":5223:5244   */\n      and\n        /* \"#utility.yul\":5217:5220   */\n      0x80\n        /* \"#utility.yul\":5206:5215   */\n      dup6\n        /* \"#utility.yul\":5202:5221   */\n      add\n        /* \"#utility.yul\":5195:5245   */\n      mstore\n        /* \"#utility.yul\":5311:5313   */\n      dup1\n        /* \"#utility.yul\":5304:5307   */\n      0x80\n        /* \"#utility.yul\":5296:5302   */\n      dup7\n        /* \"#utility.yul\":5292:5308   */\n      add\n        /* \"#utility.yul\":5286:5309   */\n      mload\n        /* \"#utility.yul\":5282:5314   */\n      and\n        /* \"#utility.yul\":5276:5279   */\n      0xa0\n        /* \"#utility.yul\":5265:5274   */\n      dup6\n        /* \"#utility.yul\":5261:5280   */\n      add\n        /* \"#utility.yul\":5254:5315   */\n      mstore\n      pop\n      pop\n        /* \"#utility.yul\":5364:5367   */\n      0xa0\n        /* \"#utility.yul\":5356:5362   */\n      dup4\n        /* \"#utility.yul\":5352:5368   */\n      add\n        /* \"#utility.yul\":5346:5369   */\n      mload\n        /* \"#utility.yul\":5407:5411   */\n      0xc0\n        /* \"#utility.yul\":5400:5404   */\n      dup1\n        /* \"#utility.yul\":5389:5398   */\n      dup5\n        /* \"#utility.yul\":5385:5405   */\n      add\n        /* \"#utility.yul\":5378:5412   */\n      mstore\n        /* \"#utility.yul\":5429:5483   */\n      tag_249\n        /* \"#utility.yul\":5478:5481   */\n      0xe0\n        /* \"#utility.yul\":5467:5476   */\n      dup5\n        /* \"#utility.yul\":5463:5482   */\n      add\n        /* \"#utility.yul\":5447:5461   */\n      dup3\n        /* \"#utility.yul\":5429:5483   */\n      tag_193\n      jump\t// in\n    tag_249:\n        /* \"#utility.yul\":5421:5483   */\n      swap5\n        /* \"#utility.yul\":4725:5489   */\n      swap4\n      pop\n      pop\n      pop\n      pop\n      jump\t// out\n        /* \"#utility.yul\":5494:5678   */\n    tag_89:\n        /* \"#utility.yul\":5564:5570   */\n      0x00\n        /* \"#utility.yul\":5617:5619   */\n      0x20\n        /* \"#utility.yul\":5605:5614   */\n      dup3\n        /* \"#utility.yul\":5596:5603   */\n      dup5\n        /* \"#utility.yul\":5592:5615   */\n      sub\n        /* \"#utility.yul\":5588:5620   */\n      slt\n        /* \"#utility.yul\":5585:5637   */\n      iszero\n      tag_251\n      jumpi\n        /* \"#utility.yul\":5633:5634   */\n      0x00\n        /* \"#utility.yul\":5630:5631   */\n      dup1\n        /* \"#utility.yul\":5623:5635   */\n      revert\n        /* \"#utility.yul\":5585:5637   */\n    tag_251:\n      pop\n        /* \"#utility.yul\":5656:5672   */\n      mload\n      swap2\n        /* \"#utility.yul\":5494:5678   */\n      swap1\n      pop\n      jump\t// out\n        /* \"#utility.yul\":6216:6343   */\n    tag_100:\n        /* \"#utility.yul\":6277:6287   */\n      0x4e487b71\n        /* \"#utility.yul\":6272:6275   */\n      0xe0\n        /* \"#utility.yul\":6268:6288   */\n      shl\n        /* \"#utility.yul\":6265:6266   */\n      0x00\n        /* \"#utility.yul\":6258:6289   */\n      mstore\n        /* \"#utility.yul\":6308:6312   */\n      0x41\n        /* \"#utility.yul\":6305:6306   */\n      0x04\n        /* \"#utility.yul\":6298:6313   */\n      mstore\n        /* \"#utility.yul\":6332:6336   */\n      0x24\n        /* \"#utility.yul\":6329:6330   */\n      0x00\n        /* \"#utility.yul\":6322:6337   */\n      revert\n        /* \"#utility.yul\":6348:7954   */\n    tag_108:\n        /* \"#utility.yul\":6528:6532   */\n      0x00\n        /* \"#utility.yul\":6557:6559   */\n      0x40\n      sub(shl(0x40, 0x01), 0x01)\n        /* \"#utility.yul\":6590:6596   */\n      dup6\n        /* \"#utility.yul\":6586:6617   */\n      and\n        /* \"#utility.yul\":6575:6584   */\n      dup4\n        /* \"#utility.yul\":6568:6618   */\n      mstore\n        /* \"#utility.yul\":6637:6639   */\n      0x20\n        /* \"#utility.yul\":6675:6677   */\n      dup2\n        /* \"#utility.yul\":6670:6672   */\n      dup2\n        /* \"#utility.yul\":6659:6668   */\n      dup6\n        /* \"#utility.yul\":6655:6673   */\n      add\n        /* \"#utility.yul\":6648:6678   */\n      mstore\n        /* \"#utility.yul\":6713:6719   */\n      dup5\n        /* \"#utility.yul\":6707:6720   */\n      mload\n        /* \"#utility.yul\":6756:6760   */\n      0xa0\n        /* \"#utility.yul\":6751:6753   */\n      dup4\n        /* \"#utility.yul\":6740:6749   */\n      dup7\n        /* \"#utility.yul\":6736:6754   */\n      add\n        /* \"#utility.yul\":6729:6761   */\n      mstore\n        /* \"#utility.yul\":6784:6836   */\n      tag_256\n        /* \"#utility.yul\":6831:6834   */\n      0xe0\n        /* \"#utility.yul\":6820:6829   */\n      dup7\n        /* \"#utility.yul\":6816:6835   */\n      add\n        /* \"#utility.yul\":6802:6814   */\n      dup3\n        /* \"#utility.yul\":6784:6836   */\n      tag_193\n      jump\t// in\n    tag_256:\n        /* \"#utility.yul\":6770:6836   */\n      swap1\n      pop\n        /* \"#utility.yul\":6885:6887   */\n      dup2\n        /* \"#utility.yul\":6877:6883   */\n      dup7\n        /* \"#utility.yul\":6873:6888   */\n      add\n        /* \"#utility.yul\":6867:6889   */\n      mload\n        /* \"#utility.yul\":6912:6914   */\n      0x3f\n        /* \"#utility.yul\":6908:6915   */\n      not\n        /* \"#utility.yul\":6979:6981   */\n      dup1\n        /* \"#utility.yul\":6967:6976   */\n      dup8\n        /* \"#utility.yul\":6959:6965   */\n      dup5\n        /* \"#utility.yul\":6955:6977   */\n      sub\n        /* \"#utility.yul\":6951:6982   */\n      add\n        /* \"#utility.yul\":6946:6948   */\n      0x60\n        /* \"#utility.yul\":6935:6944   */\n      dup9\n        /* \"#utility.yul\":6931:6949   */\n      add\n        /* \"#utility.yul\":6924:6983   */\n      mstore\n        /* \"#utility.yul\":7006:7047   */\n      tag_257\n        /* \"#utility.yul\":7040:7046   */\n      dup4\n        /* \"#utility.yul\":7024:7038   */\n      dup4\n        /* \"#utility.yul\":7006:7047   */\n      tag_193\n      jump\t// in\n    tag_257:\n        /* \"#utility.yul\":7084:7099   */\n      dup9\n      dup7\n      add\n        /* \"#utility.yul\":7078:7100   */\n      mload\n        /* \"#utility.yul\":7141:7163   */\n      dup9\n      dup3\n      sub\n        /* \"#utility.yul\":7137:7168   */\n      dup4\n      add\n        /* \"#utility.yul\":7131:7134   */\n      0x80\n        /* \"#utility.yul\":7116:7135   */\n      dup11\n      add\n        /* \"#utility.yul\":7109:7169   */\n      mstore\n        /* \"#utility.yul\":7218:7239   */\n      dup1\n      mload\n        /* \"#utility.yul\":7248:7270   */\n      dup1\n      dup4\n      mstore\n        /* \"#utility.yul\":7324:7347   */\n      swap1\n      dup7\n      add\n      swap5\n      pop\n        /* \"#utility.yul\":7365:7366   */\n      0x00\n      swap4\n      pop\n        /* \"#utility.yul\":7286:7301   */\n      swap1\n      dup6\n      add\n      swap1\n        /* \"#utility.yul\":7375:7655   */\n    tag_258:\n        /* \"#utility.yul\":7389:7395   */\n      dup1\n        /* \"#utility.yul\":7386:7387   */\n      dup5\n        /* \"#utility.yul\":7383:7396   */\n      lt\n        /* \"#utility.yul\":7375:7655   */\n      iszero\n      tag_260\n      jumpi\n        /* \"#utility.yul\":7448:7461   */\n      dup5\n      mload\n        /* \"#utility.yul\":7490:7499   */\n      dup1\n      mload\n      sub(shl(0xa0, 0x01), 0x01)\n        /* \"#utility.yul\":7486:7521   */\n      and\n        /* \"#utility.yul\":7474:7522   */\n      dup4\n      mstore\n        /* \"#utility.yul\":7562:7573   */\n      dup7\n      add\n        /* \"#utility.yul\":7556:7574   */\n      mload\n        /* \"#utility.yul\":7542:7554   */\n      dup7\n      dup4\n      add\n        /* \"#utility.yul\":7535:7575   */\n      mstore\n        /* \"#utility.yul\":7630:7645   */\n      swap4\n      dup6\n      add\n      swap4\n        /* \"#utility.yul\":7518:7519   */\n      0x01\n        /* \"#utility.yul\":7404:7413   */\n      swap4\n      swap1\n      swap4\n      add\n      swap3\n        /* \"#utility.yul\":7595:7607   */\n      swap1\n      dup7\n      add\n      swap1\n        /* \"#utility.yul\":7375:7655   */\n      jump(tag_258)\n    tag_260:\n      pop\n        /* \"#utility.yul\":7704:7706   */\n      0x60\n        /* \"#utility.yul\":7692:7707   */\n      dup10\n      add\n        /* \"#utility.yul\":7686:7708   */\n      mload\n      sub(shl(0xa0, 0x01), 0x01)\n        /* \"#utility.yul\":3291:3322   */\n      and\n        /* \"#utility.yul\":7767:7771   */\n      0xa0\n        /* \"#utility.yul\":7752:7772   */\n      dup10\n      add\n        /* \"#utility.yul\":3279:3323   */\n      mstore\n        /* \"#utility.yul\":7822:7825   */\n      0x80\n        /* \"#utility.yul\":7810:7826   */\n      dup10\n      add\n        /* \"#utility.yul\":7804:7827   */\n      mload\n        /* \"#utility.yul\":7868:7887   */\n      dup9\n      dup3\n      sub\n        /* \"#utility.yul\":7864:7892   */\n      dup4\n      add\n        /* \"#utility.yul\":7858:7861   */\n      0xc0\n        /* \"#utility.yul\":7843:7862   */\n      dup11\n      add\n        /* \"#utility.yul\":7836:7893   */\n      mstore\n        /* \"#utility.yul\":7804:7827   */\n      swap6\n      pop\n        /* \"#utility.yul\":7910:7948   */\n      tag_262\n        /* \"#utility.yul\":7872:7875   */\n      dup2\n        /* \"#utility.yul\":7804:7827   */\n      dup8\n        /* \"#utility.yul\":7910:7948   */\n      tag_193\n      jump\t// in\n    tag_262:\n        /* \"#utility.yul\":7902:7948   */\n      swap11\n        /* \"#utility.yul\":6348:7954   */\n      swap10\n      pop\n      pop\n      pop\n      pop\n      pop\n      pop\n      pop\n      pop\n      pop\n      pop\n      jump\t// out\n        /* \"#utility.yul\":8491:8768   */\n    tag_128:\n        /* \"#utility.yul\":8558:8564   */\n      0x00\n        /* \"#utility.yul\":8611:8613   */\n      0x20\n        /* \"#utility.yul\":8599:8608   */\n      dup3\n        /* \"#utility.yul\":8590:8597   */\n      dup5\n        /* \"#utility.yul\":8586:8609   */\n      sub\n        /* \"#utility.yul\":8582:8614   */\n      slt\n        /* \"#utility.yul\":8579:8631   */\n      iszero\n      tag_266\n      jumpi\n        /* \"#utility.yul\":8627:8628   */\n      0x00\n        /* \"#utility.yul\":8624:8625   */\n      dup1\n        /* \"#utility.yul\":8617:8629   */\n      revert\n        /* \"#utility.yul\":8579:8631   */\n    tag_266:\n        /* \"#utility.yul\":8659:8668   */\n      dup2\n        /* \"#utility.yul\":8653:8669   */\n      mload\n        /* \"#utility.yul\":8712:8717   */\n      dup1\n        /* \"#utility.yul\":8705:8718   */\n      iszero\n        /* \"#utility.yul\":8698:8719   */\n      iszero\n        /* \"#utility.yul\":8691:8696   */\n      dup2\n        /* \"#utility.yul\":8688:8720   */\n      eq\n        /* \"#utility.yul\":8678:8738   */\n      tag_209\n      jumpi\n        /* \"#utility.yul\":8734:8735   */\n      0x00\n        /* \"#utility.yul\":8731:8732   */\n      dup1\n        /* \"#utility.yul\":8724:8736   */\n      revert\n        /* \"#utility.yul\":9414:9671   */\n    tag_197:\n        /* \"#utility.yul\":9486:9490   */\n      0x40\n        /* \"#utility.yul\":9480:9491   */\n      dup1\n      mload\n      swap1\n        /* \"#utility.yul\":9518:9535   */\n      dup2\n      add\n      sub(shl(0x40, 0x01), 0x01)\n        /* \"#utility.yul\":9550:9584   */\n      dup2\n      gt\n        /* \"#utility.yul\":9586:9608   */\n      dup3\n      dup3\n      lt\n        /* \"#utility.yul\":9547:9609   */\n      or\n        /* \"#utility.yul\":9544:9632   */\n      iszero\n      tag_273\n      jumpi\n        /* \"#utility.yul\":9612:9630   */\n      tag_273\n      tag_100\n      jump\t// in\n    tag_273:\n        /* \"#utility.yul\":9648:9652   */\n      0x40\n        /* \"#utility.yul\":9641:9665   */\n      mstore\n        /* \"#utility.yul\":9414:9671   */\n      swap1\n      jump\t// out\n        /* \"#utility.yul\":9676:9929   */\n    tag_198:\n        /* \"#utility.yul\":9748:9750   */\n      0x40\n        /* \"#utility.yul\":9742:9751   */\n      mload\n        /* \"#utility.yul\":9790:9794   */\n      0xa0\n        /* \"#utility.yul\":9778:9795   */\n      dup2\n      add\n      sub(shl(0x40, 0x01), 0x01)\n        /* \"#utility.yul\":9810:9844   */\n      dup2\n      gt\n        /* \"#utility.yul\":9846:9868   */\n      dup3\n      dup3\n      lt\n        /* \"#utility.yul\":9807:9869   */\n      or\n        /* \"#utility.yul\":9804:9892   */\n      iszero\n      tag_273\n      jumpi\n        /* \"#utility.yul\":9872:9890   */\n      tag_273\n      tag_100\n      jump\t// in\n        /* \"#utility.yul\":9934:10209   */\n    tag_199:\n        /* \"#utility.yul\":10005:10007   */\n      0x40\n        /* \"#utility.yul\":9999:10008   */\n      mload\n        /* \"#utility.yul\":10070:10072   */\n      0x1f\n        /* \"#utility.yul\":10051:10064   */\n      dup3\n      add\n      not(0x1f)\n        /* \"#utility.yul\":10047:10074   */\n      and\n        /* \"#utility.yul\":10035:10075   */\n      dup2\n      add\n      sub(shl(0x40, 0x01), 0x01)\n        /* \"#utility.yul\":10090:10124   */\n      dup2\n      gt\n        /* \"#utility.yul\":10126:10148   */\n      dup3\n      dup3\n      lt\n        /* \"#utility.yul\":10087:10149   */\n      or\n        /* \"#utility.yul\":10084:10172   */\n      iszero\n      tag_279\n      jumpi\n        /* \"#utility.yul\":10152:10170   */\n      tag_279\n      tag_100\n      jump\t// in\n    tag_279:\n        /* \"#utility.yul\":10188:10190   */\n      0x40\n        /* \"#utility.yul\":10181:10203   */\n      mstore\n        /* \"#utility.yul\":9934:10209   */\n      swap2\n      swap1\n      pop\n      jump\t// out\n        /* \"#utility.yul\":10214:10400   */\n    tag_200:\n        /* \"#utility.yul\":10262:10266   */\n      0x00\n      sub(shl(0x40, 0x01), 0x01)\n        /* \"#utility.yul\":10287:10293   */\n      dup3\n        /* \"#utility.yul\":10284:10314   */\n      gt\n        /* \"#utility.yul\":10281:10337   */\n      iszero\n      tag_282\n      jumpi\n        /* \"#utility.yul\":10317:10335   */\n      tag_282\n      tag_100\n      jump\t// in\n    tag_282:\n      pop\n        /* \"#utility.yul\":10383:10385   */\n      0x1f\n        /* \"#utility.yul\":10362:10377   */\n      add\n      not(0x1f)\n        /* \"#utility.yul\":10358:10387   */\n      and\n        /* \"#utility.yul\":10389:10393   */\n      0x20\n        /* \"#utility.yul\":10354:10394   */\n      add\n      swap1\n        /* \"#utility.yul\":10214:10400   */\n      jump\t// out\n        /* \"#utility.yul\":10405:10867   */\n    tag_201:\n        /* \"#utility.yul\":10447:10452   */\n      0x00\n        /* \"#utility.yul\":10500:10503   */\n      dup3\n        /* \"#utility.yul\":10493:10497   */\n      0x1f\n        /* \"#utility.yul\":10485:10491   */\n      dup4\n        /* \"#utility.yul\":10481:10498   */\n      add\n        /* \"#utility.yul\":10477:10504   */\n      slt\n        /* \"#utility.yul\":10467:10522   */\n      tag_284\n      jumpi\n        /* \"#utility.yul\":10518:10519   */\n      0x00\n        /* \"#utility.yul\":10515:10516   */\n      dup1\n        /* \"#utility.yul\":10508:10520   */\n      revert\n        /* \"#utility.yul\":10467:10522   */\n    tag_284:\n        /* \"#utility.yul\":10554:10560   */\n      dup2\n        /* \"#utility.yul\":10541:10561   */\n      calldataload\n        /* \"#utility.yul\":10585:10633   */\n      tag_285\n        /* \"#utility.yul\":10601:10632   */\n      tag_286\n        /* \"#utility.yul\":10629:10631   */\n      dup3\n        /* \"#utility.yul\":10601:10632   */\n      tag_200\n      jump\t// in\n    tag_286:\n        /* \"#utility.yul\":10585:10633   */\n      tag_199\n      jump\t// in\n    tag_285:\n        /* \"#utility.yul\":10658:10660   */\n      dup2\n        /* \"#utility.yul\":10649:10656   */\n      dup2\n        /* \"#utility.yul\":10642:10661   */\n      mstore\n        /* \"#utility.yul\":10704:10707   */\n      dup5\n        /* \"#utility.yul\":10697:10701   */\n      0x20\n        /* \"#utility.yul\":10692:10694   */\n      dup4\n        /* \"#utility.yul\":10684:10690   */\n      dup7\n        /* \"#utility.yul\":10680:10695   */\n      add\n        /* \"#utility.yul\":10676:10702   */\n      add\n        /* \"#utility.yul\":10673:10708   */\n      gt\n        /* \"#utility.yul\":10670:10725   */\n      iszero\n      tag_287\n      jumpi\n        /* \"#utility.yul\":10721:10722   */\n      0x00\n        /* \"#utility.yul\":10718:10719   */\n      dup1\n        /* \"#utility.yul\":10711:10723   */\n      revert\n        /* \"#utility.yul\":10670:10725   */\n    tag_287:\n        /* \"#utility.yul\":10786:10788   */\n      dup2\n        /* \"#utility.yul\":10779:10783   */\n      0x20\n        /* \"#utility.yul\":10771:10777   */\n      dup6\n        /* \"#utility.yul\":10767:10784   */\n      add\n        /* \"#utility.yul\":10760:10764   */\n      0x20\n        /* \"#utility.yul\":10751:10758   */\n      dup4\n        /* \"#utility.yul\":10747:10765   */\n      add\n        /* \"#utility.yul\":10734:10789   */\n      calldatacopy\n        /* \"#utility.yul\":10834:10835   */\n      0x00\n        /* \"#utility.yul\":10809:10825   */\n      swap2\n      dup2\n      add\n        /* \"#utility.yul\":10827:10831   */\n      0x20\n        /* \"#utility.yul\":10805:10832   */\n      add\n        /* \"#utility.yul\":10798:10836   */\n      swap2\n      swap1\n      swap2\n      mstore\n        /* \"#utility.yul\":10813:10820   */\n      swap4\n        /* \"#utility.yul\":10405:10867   */\n      swap3\n      pop\n      pop\n      pop\n      jump\t// out\n        /* \"#utility.yul\":10872:11939   */\n    tag_202:\n        /* \"#utility.yul\":10940:10945   */\n      0x00\n        /* \"#utility.yul\":10993:10996   */\n      dup3\n        /* \"#utility.yul\":10986:10990   */\n      0x1f\n        /* \"#utility.yul\":10978:10984   */\n      dup4\n        /* \"#utility.yul\":10974:10991   */\n      add\n        /* \"#utility.yul\":10970:10997   */\n      slt\n        /* \"#utility.yul\":10960:11015   */\n      tag_289\n      jumpi\n        /* \"#utility.yul\":11011:11012   */\n      0x00\n        /* \"#utility.yul\":11008:11009   */\n      dup1\n        /* \"#utility.yul\":11001:11013   */\n      revert\n        /* \"#utility.yul\":10960:11015   */\n    tag_289:\n        /* \"#utility.yul\":11047:11053   */\n      dup2\n        /* \"#utility.yul\":11034:11054   */\n      calldataload\n        /* \"#utility.yul\":11073:11077   */\n      0x20\n      sub(shl(0x40, 0x01), 0x01)\n        /* \"#utility.yul\":11092:11094   */\n      dup3\n        /* \"#utility.yul\":11089:11115   */\n      gt\n        /* \"#utility.yul\":11086:11138   */\n      iszero\n      tag_291\n      jumpi\n        /* \"#utility.yul\":11118:11136   */\n      tag_291\n      tag_100\n      jump\t// in\n    tag_291:\n        /* \"#utility.yul\":11158:11194   */\n      tag_292\n        /* \"#utility.yul\":11190:11192   */\n      dup2\n        /* \"#utility.yul\":11185:11187   */\n      dup4\n        /* \"#utility.yul\":11182:11183   */\n      0x05\n        /* \"#utility.yul\":11178:11188   */\n      shl\n        /* \"#utility.yul\":11174:11193   */\n      add\n        /* \"#utility.yul\":11158:11194   */\n      tag_199\n      jump\t// in\n    tag_292:\n        /* \"#utility.yul\":11228:11243   */\n      dup3\n      dup2\n      mstore\n        /* \"#utility.yul\":11314:11315   */\n      0x06\n        /* \"#utility.yul\":11310:11320   */\n      swap3\n      swap1\n      swap3\n      shl\n        /* \"#utility.yul\":11298:11321   */\n      dup5\n      add\n        /* \"#utility.yul\":11294:11326   */\n      dup2\n      add\n      swap2\n        /* \"#utility.yul\":11259:11271   */\n      dup2\n      dup2\n      add\n      swap1\n        /* \"#utility.yul\":11338:11353   */\n      dup7\n      dup5\n      gt\n        /* \"#utility.yul\":11335:11370   */\n      iszero\n      tag_293\n      jumpi\n        /* \"#utility.yul\":11366:11367   */\n      0x00\n        /* \"#utility.yul\":11363:11364   */\n      dup1\n        /* \"#utility.yul\":11356:11368   */\n      revert\n        /* \"#utility.yul\":11335:11370   */\n    tag_293:\n        /* \"#utility.yul\":11402:11404   */\n      dup3\n        /* \"#utility.yul\":11394:11400   */\n      dup7\n        /* \"#utility.yul\":11390:11405   */\n      add\n        /* \"#utility.yul\":11414:11910   */\n    tag_294:\n        /* \"#utility.yul\":11430:11436   */\n      dup5\n        /* \"#utility.yul\":11425:11428   */\n      dup2\n        /* \"#utility.yul\":11422:11437   */\n      lt\n        /* \"#utility.yul\":11414:11910   */\n      iszero\n      tag_296\n      jumpi\n        /* \"#utility.yul\":11508:11512   */\n      0x40\n        /* \"#utility.yul\":11502:11505   */\n      dup2\n        /* \"#utility.yul\":11497:11500   */\n      dup10\n        /* \"#utility.yul\":11493:11506   */\n      sub\n        /* \"#utility.yul\":11489:11513   */\n      slt\n        /* \"#utility.yul\":11486:11600   */\n      iszero\n      tag_297\n      jumpi\n        /* \"#utility.yul\":11554:11555   */\n      0x00\n        /* \"#utility.yul\":11583:11585   */\n      dup1\n        /* \"#utility.yul\":11579:11581   */\n      dup2\n        /* \"#utility.yul\":11572:11586   */\n      revert\n        /* \"#utility.yul\":11486:11600   */\n    tag_297:\n        /* \"#utility.yul\":11626:11648   */\n      tag_298\n      tag_197\n      jump\t// in\n    tag_298:\n        /* \"#utility.yul\":11689:11692   */\n      dup2\n        /* \"#utility.yul\":11676:11693   */\n      calldataload\n        /* \"#utility.yul\":11706:11739   */\n      tag_299\n        /* \"#utility.yul\":11731:11738   */\n      dup2\n        /* \"#utility.yul\":11706:11739   */\n      tag_195\n      jump\t// in\n    tag_299:\n        /* \"#utility.yul\":11752:11774   */\n      dup2\n      mstore\n        /* \"#utility.yul\":11823:11835   */\n      dup2\n      dup6\n      add\n        /* \"#utility.yul\":11810:11836   */\n      calldataload\n        /* \"#utility.yul\":11794:11808   */\n      dup6\n      dup3\n      add\n        /* \"#utility.yul\":11787:11837   */\n      mstore\n        /* \"#utility.yul\":11850:11868   */\n      dup4\n      mstore\n        /* \"#utility.yul\":11888:11900   */\n      swap2\n      dup4\n      add\n      swap2\n        /* \"#utility.yul\":11456:11460   */\n      0x40\n        /* \"#utility.yul\":11447:11461   */\n      add\n        /* \"#utility.yul\":11414:11910   */\n      jump(tag_294)\n    tag_296:\n      pop\n        /* \"#utility.yul\":11928:11933   */\n      swap7\n        /* \"#utility.yul\":10872:11939   */\n      swap6\n      pop\n      pop\n      pop\n      pop\n      pop\n      pop\n      jump\t// out\n        /* \"#utility.yul\":11944:12953   */\n    tag_142:\n        /* \"#utility.yul\":12058:12067   */\n      0x00\n        /* \"#utility.yul\":12117:12121   */\n      0xa0\n        /* \"#utility.yul\":12109:12114   */\n      dup3\n        /* \"#utility.yul\":12093:12107   */\n      calldatasize\n        /* \"#utility.yul\":12089:12115   */\n      sub\n        /* \"#utility.yul\":12085:12122   */\n      slt\n        /* \"#utility.yul\":12082:12139   */\n      iszero\n      tag_301\n      jumpi\n        /* \"#utility.yul\":12135:12136   */\n      0x00\n        /* \"#utility.yul\":12132:12133   */\n      dup1\n        /* \"#utility.yul\":12125:12137   */\n      revert\n        /* \"#utility.yul\":12082:12139   */\n    tag_301:\n        /* \"#utility.yul\":12163:12185   */\n      tag_302\n      tag_198\n      jump\t// in\n    tag_302:\n        /* \"#utility.yul\":12223:12228   */\n      dup3\n        /* \"#utility.yul\":12210:12229   */\n      calldataload\n        /* \"#utility.yul\":12201:12208   */\n      dup2\n        /* \"#utility.yul\":12194:12230   */\n      mstore\n        /* \"#utility.yul\":12264:12297   */\n      tag_303\n        /* \"#utility.yul\":12293:12295   */\n      0x20\n        /* \"#utility.yul\":12286:12291   */\n      dup5\n        /* \"#utility.yul\":12282:12296   */\n      add\n        /* \"#utility.yul\":12264:12297   */\n      tag_194\n      jump\t// in\n    tag_303:\n        /* \"#utility.yul\":12259:12261   */\n      0x20\n        /* \"#utility.yul\":12250:12257   */\n      dup3\n        /* \"#utility.yul\":12246:12262   */\n      add\n        /* \"#utility.yul\":12239:12298   */\n      mstore\n        /* \"#utility.yul\":12345:12347   */\n      0x40\n        /* \"#utility.yul\":12338:12343   */\n      dup4\n        /* \"#utility.yul\":12334:12348   */\n      add\n        /* \"#utility.yul\":12321:12349   */\n      calldataload\n      sub(shl(0x40, 0x01), 0x01)\n        /* \"#utility.yul\":12409:12411   */\n      dup1\n        /* \"#utility.yul\":12401:12407   */\n      dup3\n        /* \"#utility.yul\":12398:12412   */\n      gt\n        /* \"#utility.yul\":12395:12429   */\n      iszero\n      tag_304\n      jumpi\n        /* \"#utility.yul\":12425:12426   */\n      0x00\n        /* \"#utility.yul\":12422:12423   */\n      dup1\n        /* \"#utility.yul\":12415:12427   */\n      revert\n        /* \"#utility.yul\":12395:12429   */\n    tag_304:\n        /* \"#utility.yul\":12463:12515   */\n      tag_305\n        /* \"#utility.yul\":12500:12514   */\n      calldatasize\n        /* \"#utility.yul\":12491:12497   */\n      dup4\n        /* \"#utility.yul\":12484:12489   */\n      dup8\n        /* \"#utility.yul\":12480:12498   */\n      add\n        /* \"#utility.yul\":12463:12515   */\n      tag_201\n      jump\t// in\n    tag_305:\n        /* \"#utility.yul\":12458:12460   */\n      0x40\n        /* \"#utility.yul\":12449:12456   */\n      dup5\n        /* \"#utility.yul\":12445:12461   */\n      add\n        /* \"#utility.yul\":12438:12516   */\n      mstore\n        /* \"#utility.yul\":12565:12567   */\n      0x60\n        /* \"#utility.yul\":12558:12563   */\n      dup6\n        /* \"#utility.yul\":12554:12568   */\n      add\n        /* \"#utility.yul\":12541:12569   */\n      calldataload\n        /* \"#utility.yul\":12525:12569   */\n      swap2\n      pop\n        /* \"#utility.yul\":12594:12596   */\n      dup1\n        /* \"#utility.yul\":12584:12592   */\n      dup3\n        /* \"#utility.yul\":12581:12597   */\n      gt\n        /* \"#utility.yul\":12578:12614   */\n      iszero\n      tag_306\n      jumpi\n        /* \"#utility.yul\":12610:12611   */\n      0x00\n        /* \"#utility.yul\":12607:12608   */\n      dup1\n        /* \"#utility.yul\":12600:12612   */\n      revert\n        /* \"#utility.yul\":12578:12614   */\n    tag_306:\n        /* \"#utility.yul\":12648:12702   */\n      tag_307\n        /* \"#utility.yul\":12687:12701   */\n      calldatasize\n        /* \"#utility.yul\":12676:12684   */\n      dup4\n        /* \"#utility.yul\":12669:12674   */\n      dup8\n        /* \"#utility.yul\":12665:12685   */\n      add\n        /* \"#utility.yul\":12648:12702   */\n      tag_201\n      jump\t// in\n    tag_307:\n        /* \"#utility.yul\":12643:12645   */\n      0x60\n        /* \"#utility.yul\":12634:12641   */\n      dup5\n        /* \"#utility.yul\":12630:12646   */\n      add\n        /* \"#utility.yul\":12623:12703   */\n      mstore\n        /* \"#utility.yul\":12752:12755   */\n      0x80\n        /* \"#utility.yul\":12745:12750   */\n      dup6\n        /* \"#utility.yul\":12741:12756   */\n      add\n        /* \"#utility.yul\":12728:12757   */\n      calldataload\n        /* \"#utility.yul\":12712:12757   */\n      swap2\n      pop\n        /* \"#utility.yul\":12782:12784   */\n      dup1\n        /* \"#utility.yul\":12772:12780   */\n      dup3\n        /* \"#utility.yul\":12769:12785   */\n      gt\n        /* \"#utility.yul\":12766:12802   */\n      iszero\n      tag_308\n      jumpi\n        /* \"#utility.yul\":12798:12799   */\n      0x00\n        /* \"#utility.yul\":12795:12796   */\n      dup1\n        /* \"#utility.yul\":12788:12800   */\n      revert\n        /* \"#utility.yul\":12766:12802   */\n    tag_308:\n      pop\n        /* \"#utility.yul\":12837:12917   */\n      tag_309\n        /* \"#utility.yul\":12902:12916   */\n      calldatasize\n        /* \"#utility.yul\":12891:12899   */\n      dup3\n        /* \"#utility.yul\":12884:12889   */\n      dup7\n        /* \"#utility.yul\":12880:12900   */\n      add\n        /* \"#utility.yul\":12837:12917   */\n      tag_202\n      jump\t// in\n    tag_309:\n        /* \"#utility.yul\":12831:12834   */\n      0x80\n        /* \"#utility.yul\":12818:12835   */\n      dup4\n      add\n        /* \"#utility.yul\":12811:12918   */\n      mstore\n      pop\n        /* \"#utility.yul\":12822:12829   */\n      swap3\n        /* \"#utility.yul\":11944:12953   */\n      swap2\n      pop\n      pop\n      jump\t// out\n        /* \"#utility.yul\":13347:13474   */\n    tag_165:\n        /* \"#utility.yul\":13408:13418   */\n      0x4e487b71\n        /* \"#utility.yul\":13403:13406   */\n      0xe0\n        /* \"#utility.yul\":13399:13419   */\n      shl\n        /* \"#utility.yul\":13396:13397   */\n      0x00\n        /* \"#utility.yul\":13389:13420   */\n      mstore\n        /* \"#utility.yul\":13439:13443   */\n      0x32\n        /* \"#utility.yul\":13436:13437   */\n      0x04\n        /* \"#utility.yul\":13429:13444   */\n      mstore\n        /* \"#utility.yul\":13463:13467   */\n      0x24\n        /* \"#utility.yul\":13460:13461   */\n      0x00\n        /* \"#utility.yul\":13453:13468   */\n      revert\n        /* \"#utility.yul\":13989:14637   */\n    tag_175:\n        /* \"#utility.yul\":14069:14075   */\n      0x00\n        /* \"#utility.yul\":14122:14124   */\n      0x20\n        /* \"#utility.yul\":14110:14119   */\n      dup3\n        /* \"#utility.yul\":14101:14108   */\n      dup5\n        /* \"#utility.yul\":14097:14120   */\n      sub\n        /* \"#utility.yul\":14093:14125   */\n      slt\n        /* \"#utility.yul\":14090:14142   */\n      iszero\n      tag_315\n      jumpi\n        /* \"#utility.yul\":14138:14139   */\n      0x00\n        /* \"#utility.yul\":14135:14136   */\n      dup1\n        /* \"#utility.yul\":14128:14140   */\n      revert\n        /* \"#utility.yul\":14090:14142   */\n    tag_315:\n        /* \"#utility.yul\":14171:14180   */\n      dup2\n        /* \"#utility.yul\":14165:14181   */\n      mload\n      sub(shl(0x40, 0x01), 0x01)\n        /* \"#utility.yul\":14196:14202   */\n      dup2\n        /* \"#utility.yul\":14193:14223   */\n      gt\n        /* \"#utility.yul\":14190:14240   */\n      iszero\n      tag_316\n      jumpi\n        /* \"#utility.yul\":14236:14237   */\n      0x00\n        /* \"#utility.yul\":14233:14234   */\n      dup1\n        /* \"#utility.yul\":14226:14238   */\n      revert\n        /* \"#utility.yul\":14190:14240   */\n    tag_316:\n        /* \"#utility.yul\":14259:14281   */\n      dup3\n      add\n        /* \"#utility.yul\":14312:14316   */\n      0x1f\n        /* \"#utility.yul\":14304:14317   */\n      dup2\n      add\n        /* \"#utility.yul\":14300:14327   */\n      dup5\n      sgt\n        /* \"#utility.yul\":14290:14345   */\n      tag_317\n      jumpi\n        /* \"#utility.yul\":14341:14342   */\n      0x00\n        /* \"#utility.yul\":14338:14339   */\n      dup1\n        /* \"#utility.yul\":14331:14343   */\n      revert\n        /* \"#utility.yul\":14290:14345   */\n    tag_317:\n        /* \"#utility.yul\":14370:14372   */\n      dup1\n        /* \"#utility.yul\":14364:14373   */\n      mload\n        /* \"#utility.yul\":14395:14443   */\n      tag_318\n        /* \"#utility.yul\":14411:14442   */\n      tag_286\n        /* \"#utility.yul\":14439:14441   */\n      dup3\n        /* \"#utility.yul\":14411:14442   */\n      tag_200\n      jump\t// in\n        /* \"#utility.yul\":14395:14443   */\n    tag_318:\n        /* \"#utility.yul\":14466:14468   */\n      dup2\n        /* \"#utility.yul\":14459:14464   */\n      dup2\n        /* \"#utility.yul\":14452:14469   */\n      mstore\n        /* \"#utility.yul\":14506:14513   */\n      dup6\n        /* \"#utility.yul\":14501:14503   */\n      0x20\n        /* \"#utility.yul\":14496:14498   */\n      dup4\n        /* \"#utility.yul\":14492:14494   */\n      dup6\n        /* \"#utility.yul\":14488:14499   */\n      add\n        /* \"#utility.yul\":14484:14504   */\n      add\n        /* \"#utility.yul\":14481:14514   */\n      gt\n        /* \"#utility.yul\":14478:14531   */\n      iszero\n      tag_320\n      jumpi\n        /* \"#utility.yul\":14527:14528   */\n      0x00\n        /* \"#utility.yul\":14524:14525   */\n      dup1\n        /* \"#utility.yul\":14517:14529   */\n      revert\n        /* \"#utility.yul\":14478:14531   */\n    tag_320:\n        /* \"#utility.yul\":14540:14607   */\n      tag_321\n        /* \"#utility.yul\":14604:14606   */\n      dup3\n        /* \"#utility.yul\":14599:14601   */\n      0x20\n        /* \"#utility.yul\":14592:14597   */\n      dup4\n        /* \"#utility.yul\":14588:14602   */\n      add\n        /* \"#utility.yul\":14583:14585   */\n      0x20\n        /* \"#utility.yul\":14579:14581   */\n      dup7\n        /* \"#utility.yul\":14575:14586   */\n      add\n        /* \"#utility.yul\":14540:14607   */\n      tag_192\n      jump\t// in\n    tag_321:\n        /* \"#utility.yul\":14626:14631   */\n      swap6\n        /* \"#utility.yul\":13989:14637   */\n      swap5\n      pop\n      pop\n      pop\n      pop\n      pop\n      jump\t// out\n        /* \"#utility.yul\":14768:15313   */\n    tag_204:\n        /* \"#utility.yul\":14870:14872   */\n      0x1f\n        /* \"#utility.yul\":14865:14868   */\n      dup3\n        /* \"#utility.yul\":14862:14873   */\n      gt\n        /* \"#utility.yul\":14859:15307   */\n      iszero\n      tag_73\n      jumpi\n        /* \"#utility.yul\":14906:14907   */\n      0x00\n        /* \"#utility.yul\":14931:14936   */\n      dup2\n        /* \"#utility.yul\":14927:14929   */\n      dup2\n        /* \"#utility.yul\":14920:14937   */\n      mstore\n        /* \"#utility.yul\":14976:14980   */\n      0x20\n        /* \"#utility.yul\":14972:14974   */\n      dup2\n        /* \"#utility.yul\":14962:14981   */\n      keccak256\n        /* \"#utility.yul\":15046:15048   */\n      0x1f\n        /* \"#utility.yul\":15034:15044   */\n      dup6\n        /* \"#utility.yul\":15030:15049   */\n      add\n        /* \"#utility.yul\":15027:15028   */\n      0x05\n        /* \"#utility.yul\":15023:15050   */\n      shr\n        /* \"#utility.yul\":15017:15021   */\n      dup2\n        /* \"#utility.yul\":15013:15051   */\n      add\n        /* \"#utility.yul\":15082:15086   */\n      0x20\n        /* \"#utility.yul\":15070:15080   */\n      dup7\n        /* \"#utility.yul\":15067:15087   */\n      lt\n        /* \"#utility.yul\":15064:15111   */\n      iszero\n      tag_325\n      jumpi\n      pop\n        /* \"#utility.yul\":15105:15109   */\n      dup1\n        /* \"#utility.yul\":15064:15111   */\n    tag_325:\n        /* \"#utility.yul\":15160:15162   */\n      0x1f\n        /* \"#utility.yul\":15155:15158   */\n      dup6\n        /* \"#utility.yul\":15151:15163   */\n      add\n        /* \"#utility.yul\":15148:15149   */\n      0x05\n        /* \"#utility.yul\":15144:15164   */\n      shr\n        /* \"#utility.yul\":15138:15142   */\n      dup3\n        /* \"#utility.yul\":15134:15165   */\n      add\n        /* \"#utility.yul\":15124:15165   */\n      swap2\n      pop\n        /* \"#utility.yul\":15215:15297   */\n    tag_326:\n        /* \"#utility.yul\":15233:15235   */\n      dup2\n        /* \"#utility.yul\":15226:15231   */\n      dup2\n        /* \"#utility.yul\":15223:15236   */\n      lt\n        /* \"#utility.yul\":15215:15297   */\n      iszero\n      tag_166\n      jumpi\n        /* \"#utility.yul\":15278:15295   */\n      dup3\n      dup2\n      sstore\n        /* \"#utility.yul\":15259:15260   */\n      0x01\n        /* \"#utility.yul\":15248:15261   */\n      add\n        /* \"#utility.yul\":15215:15297   */\n      jump(tag_326)\n        /* \"#utility.yul\":15489:16841   */\n    tag_177:\n        /* \"#utility.yul\":15615:15618   */\n      dup2\n        /* \"#utility.yul\":15609:15619   */\n      mload\n      sub(shl(0x40, 0x01), 0x01)\n        /* \"#utility.yul\":15634:15640   */\n      dup2\n        /* \"#utility.yul\":15631:15661   */\n      gt\n        /* \"#utility.yul\":15628:15684   */\n      iszero\n      tag_332\n      jumpi\n        /* \"#utility.yul\":15664:15682   */\n      tag_332\n      tag_100\n      jump\t// in\n    tag_332:\n        /* \"#utility.yul\":15693:15790   */\n      tag_333\n        /* \"#utility.yul\":15783:15789   */\n      dup2\n        /* \"#utility.yul\":15743:15781   */\n      tag_334\n        /* \"#utility.yul\":15775:15779   */\n      dup5\n        /* \"#utility.yul\":15769:15780   */\n      sload\n        /* \"#utility.yul\":15743:15781   */\n      tag_76\n      jump\t// in\n    tag_334:\n        /* \"#utility.yul\":15737:15741   */\n      dup5\n        /* \"#utility.yul\":15693:15790   */\n      tag_204\n      jump\t// in\n    tag_333:\n        /* \"#utility.yul\":15845:15849   */\n      0x20\n      dup1\n        /* \"#utility.yul\":15909:15911   */\n      0x1f\n        /* \"#utility.yul\":15898:15912   */\n      dup4\n      gt\n        /* \"#utility.yul\":15926:15927   */\n      0x01\n        /* \"#utility.yul\":15921:16584   */\n      dup2\n      eq\n      tag_336\n      jumpi\n        /* \"#utility.yul\":16628:16629   */\n      0x00\n        /* \"#utility.yul\":16645:16651   */\n      dup5\n        /* \"#utility.yul\":16642:16731   */\n      iszero\n      tag_337\n      jumpi\n      pop\n        /* \"#utility.yul\":16697:16716   */\n      dup6\n      dup4\n      add\n        /* \"#utility.yul\":16691:16717   */\n      mload\n        /* \"#utility.yul\":16642:16731   */\n    tag_337:\n      not(0x00)\n        /* \"#utility.yul\":15446:15447   */\n      0x03\n        /* \"#utility.yul\":15442:15453   */\n      dup7\n      swap1\n      shl\n        /* \"#utility.yul\":15438:15462   */\n      shr\n        /* \"#utility.yul\":15434:15463   */\n      not\n        /* \"#utility.yul\":15424:15464   */\n      and\n        /* \"#utility.yul\":15470:15471   */\n      0x01\n        /* \"#utility.yul\":15466:15477   */\n      dup6\n      swap1\n      shl\n        /* \"#utility.yul\":15421:15478   */\n      or\n        /* \"#utility.yul\":16744:16825   */\n      dup6\n      sstore\n        /* \"#utility.yul\":15891:16835   */\n      jump(tag_166)\n        /* \"#utility.yul\":15921:16584   */\n    tag_336:\n        /* \"#utility.yul\":14715:14716   */\n      0x00\n        /* \"#utility.yul\":14708:14722   */\n      dup6\n      dup2\n      mstore\n        /* \"#utility.yul\":14752:14756   */\n      0x20\n        /* \"#utility.yul\":14739:14757   */\n      dup2\n      keccak256\n      not(0x1f)\n        /* \"#utility.yul\":15957:15977   */\n      dup7\n      and\n      swap2\n        /* \"#utility.yul\":16075:16311   */\n    tag_340:\n        /* \"#utility.yul\":16089:16096   */\n      dup3\n        /* \"#utility.yul\":16086:16087   */\n      dup2\n        /* \"#utility.yul\":16083:16097   */\n      lt\n        /* \"#utility.yul\":16075:16311   */\n      iszero\n      tag_342\n      jumpi\n        /* \"#utility.yul\":16178:16197   */\n      dup9\n      dup7\n      add\n        /* \"#utility.yul\":16172:16198   */\n      mload\n        /* \"#utility.yul\":16157:16199   */\n      dup3\n      sstore\n        /* \"#utility.yul\":16270:16297   */\n      swap5\n      dup5\n      add\n      swap5\n        /* \"#utility.yul\":16238:16239   */\n      0x01\n        /* \"#utility.yul\":16226:16240   */\n      swap1\n      swap2\n      add\n      swap1\n        /* \"#utility.yul\":16105:16124   */\n      dup5\n      add\n        /* \"#utility.yul\":16075:16311   */\n      jump(tag_340)\n    tag_342:\n        /* \"#utility.yul\":16079:16082   */\n      pop\n        /* \"#utility.yul\":16339:16345   */\n      dup6\n        /* \"#utility.yul\":16330:16337   */\n      dup3\n        /* \"#utility.yul\":16327:16346   */\n      lt\n        /* \"#utility.yul\":16324:16525   */\n      iszero\n      tag_343\n      jumpi\n        /* \"#utility.yul\":16400:16419   */\n      dup8\n      dup6\n      add\n        /* \"#utility.yul\":16394:16420   */\n      mload\n      not(0x00)\n        /* \"#utility.yul\":16483:16484   */\n      0x03\n        /* \"#utility.yul\":16479:16493   */\n      dup9\n      swap1\n      shl\n        /* \"#utility.yul\":16495:16498   */\n      0xf8\n        /* \"#utility.yul\":16475:16499   */\n      and\n        /* \"#utility.yul\":16471:16508   */\n      shr\n        /* \"#utility.yul\":16467:16509   */\n      not\n        /* \"#utility.yul\":16452:16510   */\n      and\n        /* \"#utility.yul\":16437:16511   */\n      dup2\n      sstore\n        /* \"#utility.yul\":16324:16525   */\n    tag_343:\n      pop\n      pop\n      pop\n      pop\n      pop\n        /* \"#utility.yul\":16571:16572   */\n      0x01\n        /* \"#utility.yul\":16555:16569   */\n      swap1\n      dup2\n      shl\n        /* \"#utility.yul\":16551:16573   */\n      add\n        /* \"#utility.yul\":16538:16574   */\n      swap1\n      sstore\n      pop\n        /* \"#utility.yul\":15489:16841   */\n      jump\t// out\n        /* \"#utility.yul\":16846:17105   */\n    tag_180:\n        /* \"#utility.yul\":16924:16930   */\n      0x00\n        /* \"#utility.yul\":16977:16979   */\n      0x20\n        /* \"#utility.yul\":16965:16974   */\n      dup3\n        /* \"#utility.yul\":16956:16963   */\n      dup5\n        /* \"#utility.yul\":16952:16975   */\n      sub\n        /* \"#utility.yul\":16948:16980   */\n      slt\n        /* \"#utility.yul\":16945:16997   */\n      iszero\n      tag_345\n      jumpi\n        /* \"#utility.yul\":16993:16994   */\n      0x00\n        /* \"#utility.yul\":16990:16991   */\n      dup1\n        /* \"#utility.yul\":16983:16995   */\n      revert\n        /* \"#utility.yul\":16945:16997   */\n    tag_345:\n        /* \"#utility.yul\":17025:17034   */\n      dup2\n        /* \"#utility.yul\":17019:17035   */\n      mload\n        /* \"#utility.yul\":17044:17075   */\n      tag_209\n        /* \"#utility.yul\":17069:17074   */\n      dup2\n        /* \"#utility.yul\":17044:17075   */\n      tag_195\n      jump\t// in\n        /* \"#utility.yul\":17110:17435   */\n    tag_183:\n      sub(shl(0xa0, 0x01), 0x01)\n        /* \"#utility.yul\":17295:17327   */\n      dup4\n      and\n        /* \"#utility.yul\":17277:17328   */\n      dup2\n      mstore\n        /* \"#utility.yul\":17364:17366   */\n      0x40\n        /* \"#utility.yul\":17359:17361   */\n      0x20\n        /* \"#utility.yul\":17344:17362   */\n      dup3\n      add\n        /* \"#utility.yul\":17337:17367   */\n      dup2\n      swap1\n      mstore\n      0x00\n      swap1\n        /* \"#utility.yul\":17384:17429   */\n      tag_249\n      swap1\n        /* \"#utility.yul\":17410:17428   */\n      dup4\n      add\n        /* \"#utility.yul\":17402:17408   */\n      dup5\n        /* \"#utility.yul\":17384:17429   */\n      tag_193\n      jump\t// in\n\n    auxdata: 0xa26469706673582212206595294e2150a301f1f2c4cf453c619ba35acc1b991fd90e5ea5ed6a52441e1d64736f6c63430008130033\n}\n",
				"bytecode": {
					"linkReferences": {},
					"object": "60c0604052600380546001600160a01b0319908116735ce8d5a2bc84beb22a398cca51996f7930313d61179091557f1770bdc7eec7771f7ba4ffd640f34260d7f095b79c92d34a5b2551d6f6cfd2be600455600780548216732a9c5afb0d0e4bab2bcdae109ec4b0c4be15a1651790556008805490911673b1d4538b4571d411f07960ef2838ce337fe1e80e17905534801561009a57600080fd5b506003546001600160a01b031633806000732a9c5afb0d0e4bab2bcdae109ec4b0c4be15a1656100ce565b60405180910390fd5b6001600160a01b03908116608052821661012a5760405162461bcd60e51b815260206004820152601860248201527f43616e6e6f7420736574206f776e657220746f207a65726f000000000000000060448201526064016100c5565b600080546001600160a01b0319166001600160a01b038481169190911790915581161561015a5761015a816101cd565b5050506001600160a01b0381166101845760405163d92e233d60e01b815260040160405180910390fd5b600280546001600160a01b0319166001600160a01b03929092169190911790557f9ce6df06a57d3e2e3ab551ecd52818a6d6ca9a88fa4ca8b8e26cb52b1cd1aef260a052610276565b336001600160a01b038216036102255760405162461bcd60e51b815260206004820152601760248201527f43616e6e6f74207472616e7366657220746f2073656c6600000000000000000060448201526064016100c5565b600180546001600160a01b0319166001600160a01b0383811691821790925560008054604051929316917fed8889f560326eb138920d842192f0eb3dd22b4f139c87a2c57538e05bae12789190a350565b60805160a051611443620002a360003960006103250152600081816101b7015261086301526114436000f3fe608060405234801561001057600080fd5b50600436106100cf5760003560e01c806385572ffb1161008c5780639eccacf6116100665780639eccacf6146101a2578063b0f479a1146101b5578063b5605b2e146101db578063f2fde38b146101e457600080fd5b806385572ffb146101575780638da5cb5b1461016a5780638ea981171461018f57600080fd5b806301ffc9a7146100d45780631fe543e3146100fc5780636812452e14610111578063773a11541461012657806379ba50971461012e5780637b2bf16814610136575b600080fd5b6100e76100e2366004610c4a565b6101f7565b60405190151581526020015b60405180910390f35b61010f61010a366004610c7b565b61022e565b005b610119610283565b6040516100f39190610d49565b61010f610311565b61010f6103f6565b610149610144366004610d8d565b6104a0565b6040519081526020016100f3565b61010f610165366004610dcc565b610858565b6000546001600160a01b03165b6040516001600160a01b0390911681526020016100f3565b61010f61019d366004610e06565b6108b7565b600254610177906001600160a01b031681565b7f0000000000000000000000000000000000000000000000000000000000000000610177565b61014960055481565b61010f6101f2366004610e06565b6109a9565b60006001600160e01b031982166385572ffb60e01b148061022857506001600160e01b031982166301ffc9a760e01b145b92915050565b6002546001600160a01b031633146102735760025460405163073e64fd60e21b81523360048201526001600160a01b0390911660248201526044015b60405180910390fd5b61027e8383836109ba565b505050565b6006805461029090610e23565b80601f01602080910402602001604051908101604052809291908181526020018280546102bc90610e23565b80156103095780601f106102de57610100808354040283529160200191610309565b820191906000526020600020905b8154815290600101906020018083116102ec57829003601f168201915b505050505081565b6002546040805160c08101825260045481527f00000000000000000000000000000000000000000000000000000000000000006020808301919091526001828401819052622625a06060840152608083015282519081019092526000808352926001600160a01b031691639b1c385e919060a082019061039090610a0c565b8152506040518263ffffffff1660e01b81526004016103af9190610e5d565b6020604051808303816000875af11580156103ce573d6000803e3d6000fd5b505050506040513d601f19601f820116820180604052508101906103f29190610ec2565b5050565b6001546001600160a01b031633146104495760405162461bcd60e51b815260206004820152601660248201527526bab9ba10313290383937b837b9b2b21037bbb732b960511b604482015260640161026a565b60008054336001600160a01b0319808316821784556001805490911690556040516001600160a01b0390921692909183917f8be0079c531659141344cd1fd0a4f28419497f9722a3daafe3b4186f6b6457e091a350565b6040805160a081019091526001600160a01b03831660c082015260009081908060e081016040516020818303038152906040528152602001846040516020016104eb91815260200190565b60408051601f198184030181529190528152602001600060405190808252806020026020018201604052801561054757816020015b60408051808201909152600080825260208201528152602001906001900390816105205790505b5081526008546001600160a01b031660208083019190915260408051918201815262030d4082529091019061057b90610a7d565b90526007546040516320487ded60e01b81529192506000916001600160a01b03909116906320487ded906105b59089908690600401610ef1565b602060405180830381865afa1580156105d2573d6000803e3d6000fd5b505050506040513d601f19601f820116820180604052508101906105f69190610ec2565b6008546040516370a0823160e01b81523060048201529192506001600160a01b0316906370a0823190602401602060405180830381865afa15801561063f573d6000803e3d6000fd5b505050506040513d601f19601f820116820180604052508101906106639190610ec2565b8111156106fa576008546040516370a0823160e01b81523060048201526001600160a01b03909116906370a0823190602401602060405180830381865afa1580156106b2573d6000803e3d6000fd5b505050506040513d601f19601f820116820180604052508101906106d69190610ec2565b604051634787a10360e11b815260048101919091526024810182905260440161026a565b60085460075460405163095ea7b360e01b81526001600160a01b0391821660048201526024810184905291169063095ea7b3906044016020604051808303816000875af115801561074f573d6000803e3d6000fd5b505050506040513d601f19601f820116820180604052508101906107739190610fca565b506007546040516396f4e9f960e01b81526001600160a01b03909116906396f4e9f9906107a69089908690600401610ef1565b6020604051808303816000875af11580156107c5573d6000803e3d6000fd5b505050506040513d601f19601f820116820180604052508101906107e99190610ec2565b600854604080516001600160a01b03808a1682526020820189905290921690820152606081018390529093506001600160401b0387169084907feea8a479f07983d1364c4330c9bf3442a1cd421b79b16909bcc1867188ea676b9060800160405180910390a350509392505050565b336001600160a01b037f000000000000000000000000000000000000000000000000000000000000000016146108a3576040516335fdcccd60e21b815233600482015260240161026a565b6108b46108af8261118f565b610a9b565b50565b6000546001600160a01b031633148015906108dd57506002546001600160a01b03163314155b1561092e57336108f56000546001600160a01b031690565b60025460405163061db9c160e01b81526001600160a01b039384166004820152918316602483015291909116604482015260640161026a565b6001600160a01b0381166109555760405163d92e233d60e01b815260040160405180910390fd5b600280546001600160a01b0319166001600160a01b0383169081179091556040519081527fd1a6a14209a385a964d036e404cb5cfb71f4000cdb03c9366292430787261be69060200160405180910390a150565b6109b1610b4c565b6108b481610ba1565b6000828260008181106109cf576109cf61123b565b90506020020135905060006748810ec3e431431f9050610a048173ec89faf56a7029eb3069ffa90be0c6461f475bc1846104a0565b505050505050565b60607f92fd13387c7fe7befbc38d303d6468778fb9731bc4583f17d92989c6fcfdeaaa82604051602401610a4591511515815260200190565b60408051601f198184030181529190526020810180516001600160e01b03166001600160e01b03199093169290921790915292915050565b604051815160248201526060906397a657c960e01b90604401610a45565b805160055560608101518051610ab991602091810182019101611251565b600690610ac6908261130d565b50610acf610311565b80602001516001600160401b031681600001517fb1e312a29937cc11967b0e4a346fef1ae132424ebaba9dc6d90249dba053e87c8360400151806020019051810190610b1b91906113cc565b8460600151806020019051810190610b339190611251565b604051610b419291906113e9565b60405180910390a350565b6000546001600160a01b03163314610b9f5760405162461bcd60e51b815260206004820152601660248201527527b7363c9031b0b63630b1363290313c9037bbb732b960511b604482015260640161026a565b565b336001600160a01b03821603610bf95760405162461bcd60e51b815260206004820152601760248201527f43616e6e6f74207472616e7366657220746f2073656c66000000000000000000604482015260640161026a565b600180546001600160a01b0319166001600160a01b0383811691821790925560008054604051929316917fed8889f560326eb138920d842192f0eb3dd22b4f139c87a2c57538e05bae12789190a350565b600060208284031215610c5c57600080fd5b81356001600160e01b031981168114610c7457600080fd5b9392505050565b600080600060408486031215610c9057600080fd5b8335925060208401356001600160401b0380821115610cae57600080fd5b818601915086601f830112610cc257600080fd5b813581811115610cd157600080fd5b8760208260051b8501011115610ce657600080fd5b6020830194508093505050509250925092565b60005b83811015610d14578181015183820152602001610cfc565b50506000910152565b60008151808452610d35816020860160208601610cf9565b601f01601f19169290920160200192915050565b602081526000610c746020830184610d1d565b80356001600160401b0381168114610d7357600080fd5b919050565b6001600160a01b03811681146108b457600080fd5b600080600060608486031215610da257600080fd5b610dab84610d5c565b92506020840135610dbb81610d78565b929592945050506040919091013590565b600060208284031215610dde57600080fd5b81356001600160401b03811115610df457600080fd5b820160a08185031215610c7457600080fd5b600060208284031215610e1857600080fd5b8135610c7481610d78565b600181811c90821680610e3757607f821691505b602082108103610e5757634e487b7160e01b600052602260045260246000fd5b50919050565b60208152815160208201526020820151604082015261ffff60408301511660608201526000606083015163ffffffff80821660808501528060808601511660a0850152505060a083015160c080840152610eba60e0840182610d1d565b949350505050565b600060208284031215610ed457600080fd5b5051919050565b634e487b7160e01b600052604160045260246000fd5b600060406001600160401b038516835260208181850152845160a083860152610f1d60e0860182610d1d565b905081860151603f1980878403016060880152610f3a8383610d1d565b88860151888203830160808a01528051808352908601945060009350908501905b80841015610f8d57845180516001600160a01b0316835286015186830152938501936001939093019290860190610f5b565b5060608901516001600160a01b031660a08901526080890151888203830160c08a01529550610fbc8187610d1d565b9a9950505050505050505050565b600060208284031215610fdc57600080fd5b81518015158114610c7457600080fd5b604080519081016001600160401b038111828210171561100e5761100e610edb565b60405290565b60405160a081016001600160401b038111828210171561100e5761100e610edb565b604051601f8201601f191681016001600160401b038111828210171561105e5761105e610edb565b604052919050565b60006001600160401b0382111561107f5761107f610edb565b50601f01601f191660200190565b600082601f83011261109e57600080fd5b81356110b16110ac82611066565b611036565b8181528460208386010111156110c657600080fd5b816020850160208301376000918101602001919091529392505050565b600082601f8301126110f457600080fd5b813560206001600160401b0382111561110f5761110f610edb565b61111d818360051b01611036565b82815260069290921b8401810191818101908684111561113c57600080fd5b8286015b8481101561118457604081890312156111595760008081fd5b611161610fec565b813561116c81610d78565b81528185013585820152835291830191604001611140565b509695505050505050565b600060a082360312156111a157600080fd5b6111a9611014565b823581526111b960208401610d5c565b602082015260408301356001600160401b03808211156111d857600080fd5b6111e43683870161108d565b604084015260608501359150808211156111fd57600080fd5b6112093683870161108d565b6060840152608085013591508082111561122257600080fd5b5061122f368286016110e3565b60808301525092915050565b634e487b7160e01b600052603260045260246000fd5b60006020828403121561126357600080fd5b81516001600160401b0381111561127957600080fd5b8201601f8101841361128a57600080fd5b80516112986110ac82611066565b8181528560208385010111156112ad57600080fd5b6112be826020830160208601610cf9565b95945050505050565b601f82111561027e57600081815260208120601f850160051c810160208610156112ee5750805b601f850160051c820191505b81811015610a04578281556001016112fa565b81516001600160401b0381111561132657611326610edb565b61133a816113348454610e23565b846112c7565b602080601f83116001811461136f57600084156113575750858301515b600019600386901b1c1916600185901b178555610a04565b600085815260208120601f198616915b8281101561139e5788860151825594840194600190910190840161137f565b50858210156113bc5787850151600019600388901b60f8161c191681555b5050505050600190811b01905550565b6000602082840312156113de57600080fd5b8151610c7481610d78565b6001600160a01b0383168152604060208201819052600090610eba90830184610d1d56fea26469706673582212206595294e2150a301f1f2c4cf453c619ba35acc1b991fd90e5ea5ed6a52441e1d64736f6c63430008130033",
					"opcodes": "PUSH1 0xC0 PUSH1 0x40 MSTORE PUSH1 0x3 DUP1 SLOAD PUSH1 0x1 PUSH1 0x1 PUSH1 0xA0 SHL SUB NOT SWAP1 DUP2 AND PUSH20 0x5CE8D5A2BC84BEB22A398CCA51996F7930313D61 OR SWAP1 SWAP2 SSTORE PUSH32 0x1770BDC7EEC7771F7BA4FFD640F34260D7F095B79C92D34A5B2551D6F6CFD2BE PUSH1 0x4 SSTORE PUSH1 0x7 DUP1 SLOAD DUP3 AND PUSH20 0x2A9C5AFB0D0E4BAB2BCDAE109EC4B0C4BE15A165 OR SWAP1 SSTORE PUSH1 0x8 DUP1 SLOAD SWAP1 SWAP2 AND PUSH20 0xB1D4538B4571D411F07960EF2838CE337FE1E80E OR SWAP1 SSTORE CALLVALUE DUP1 ISZERO PUSH2 0x9A JUMPI PUSH1 0x0 DUP1 REVERT JUMPDEST POP PUSH1 0x3 SLOAD PUSH1 0x1 PUSH1 0x1 PUSH1 0xA0 SHL SUB AND CALLER DUP1 PUSH1 0x0 PUSH20 0x2A9C5AFB0D0E4BAB2BCDAE109EC4B0C4BE15A165 PUSH2 0xCE JUMP JUMPDEST PUSH1 0x40 MLOAD DUP1 SWAP2 SUB SWAP1 REVERT JUMPDEST PUSH1 0x1 PUSH1 0x1 PUSH1 0xA0 SHL SUB SWAP1 DUP2 AND PUSH1 0x80 MSTORE DUP3 AND PUSH2 0x12A JUMPI PUSH1 0x40 MLOAD PUSH3 0x461BCD PUSH1 0xE5 SHL DUP2 MSTORE PUSH1 0x20 PUSH1 0x4 DUP3 ADD MSTORE PUSH1 0x18 PUSH1 0x24 DUP3 ADD MSTORE PUSH32 0x43616E6E6F7420736574206F776E657220746F207A65726F0000000000000000 PUSH1 0x44 DUP3 ADD MSTORE PUSH1 0x64 ADD PUSH2 0xC5 JUMP JUMPDEST PUSH1 0x0 DUP1 SLOAD PUSH1 0x1 PUSH1 0x1 PUSH1 0xA0 SHL SUB NOT AND PUSH1 0x1 PUSH1 0x1 PUSH1 0xA0 SHL SUB DUP5 DUP2 AND SWAP2 SWAP1 SWAP2 OR SWAP1 SWAP2 SSTORE DUP2 AND ISZERO PUSH2 0x15A JUMPI PUSH2 0x15A DUP2 PUSH2 0x1CD JUMP JUMPDEST POP POP POP PUSH1 0x1 PUSH1 0x1 PUSH1 0xA0 SHL SUB DUP2 AND PUSH2 0x184 JUMPI PUSH1 0x40 MLOAD PUSH4 0xD92E233D PUSH1 0xE0 SHL DUP2 MSTORE PUSH1 0x4 ADD PUSH1 0x40 MLOAD DUP1 SWAP2 SUB SWAP1 REVERT JUMPDEST PUSH1 0x2 DUP1 SLOAD PUSH1 0x1 PUSH1 0x1 PUSH1 0xA0 SHL SUB NOT AND PUSH1 0x1 PUSH1 0x1 PUSH1 0xA0 SHL SUB SWAP3 SWAP1 SWAP3 AND SWAP2 SWAP1 SWAP2 OR SWAP1 SSTORE PUSH32 0x9CE6DF06A57D3E2E3AB551ECD52818A6D6CA9A88FA4CA8B8E26CB52B1CD1AEF2 PUSH1 0xA0 MSTORE PUSH2 0x276 JUMP JUMPDEST CALLER PUSH1 0x1 PUSH1 0x1 PUSH1 0xA0 SHL SUB DUP3 AND SUB PUSH2 0x225 JUMPI PUSH1 0x40 MLOAD PUSH3 0x461BCD PUSH1 0xE5 SHL DUP2 MSTORE PUSH1 0x20 PUSH1 0x4 DUP3 ADD MSTORE PUSH1 0x17 PUSH1 0x24 DUP3 ADD MSTORE PUSH32 0x43616E6E6F74207472616E7366657220746F2073656C66000000000000000000 PUSH1 0x44 DUP3 ADD MSTORE PUSH1 0x64 ADD PUSH2 0xC5 JUMP JUMPDEST PUSH1 0x1 DUP1 SLOAD PUSH1 0x1 PUSH1 0x1 PUSH1 0xA0 SHL SUB NOT AND PUSH1 0x1 PUSH1 0x1 PUSH1 0xA0 SHL SUB DUP4 DUP2 AND SWAP2 DUP3 OR SWAP1 SWAP3 SSTORE PUSH1 0x0 DUP1 SLOAD PUSH1 0x40 MLOAD SWAP3 SWAP4 AND SWAP2 PUSH32 0xED8889F560326EB138920D842192F0EB3DD22B4F139C87A2C57538E05BAE1278 SWAP2 SWAP1 LOG3 POP JUMP JUMPDEST PUSH1 0x80 MLOAD PUSH1 0xA0 MLOAD PUSH2 0x1443 PUSH3 0x2A3 PUSH1 0x0 CODECOPY PUSH1 0x0 PUSH2 0x325 ADD MSTORE PUSH1 0x0 DUP2 DUP2 PUSH2 0x1B7 ADD MSTORE PUSH2 0x863 ADD MSTORE PUSH2 0x1443 PUSH1 0x0 RETURN INVALID PUSH1 0x80 PUSH1 0x40 MSTORE CALLVALUE DUP1 ISZERO PUSH2 0x10 JUMPI PUSH1 0x0 DUP1 REVERT JUMPDEST POP PUSH1 0x4 CALLDATASIZE LT PUSH2 0xCF JUMPI PUSH1 0x0 CALLDATALOAD PUSH1 0xE0 SHR DUP1 PUSH4 0x85572FFB GT PUSH2 0x8C JUMPI DUP1 PUSH4 0x9ECCACF6 GT PUSH2 0x66 JUMPI DUP1 PUSH4 0x9ECCACF6 EQ PUSH2 0x1A2 JUMPI DUP1 PUSH4 0xB0F479A1 EQ PUSH2 0x1B5 JUMPI DUP1 PUSH4 0xB5605B2E EQ PUSH2 0x1DB JUMPI DUP1 PUSH4 0xF2FDE38B EQ PUSH2 0x1E4 JUMPI PUSH1 0x0 DUP1 REVERT JUMPDEST DUP1 PUSH4 0x85572FFB EQ PUSH2 0x157 JUMPI DUP1 PUSH4 0x8DA5CB5B EQ PUSH2 0x16A JUMPI DUP1 PUSH4 0x8EA98117 EQ PUSH2 0x18F JUMPI PUSH1 0x0 DUP1 REVERT JUMPDEST DUP1 PUSH4 0x1FFC9A7 EQ PUSH2 0xD4 JUMPI DUP1 PUSH4 0x1FE543E3 EQ PUSH2 0xFC JUMPI DUP1 PUSH4 0x6812452E EQ PUSH2 0x111 JUMPI DUP1 PUSH4 0x773A1154 EQ PUSH2 0x126 JUMPI DUP1 PUSH4 0x79BA5097 EQ PUSH2 0x12E JUMPI DUP1 PUSH4 0x7B2BF168 EQ PUSH2 0x136 JUMPI JUMPDEST PUSH1 0x0 DUP1 REVERT JUMPDEST PUSH2 0xE7 PUSH2 0xE2 CALLDATASIZE PUSH1 0x4 PUSH2 0xC4A JUMP JUMPDEST PUSH2 0x1F7 JUMP JUMPDEST PUSH1 0x40 MLOAD SWAP1 ISZERO ISZERO DUP2 MSTORE PUSH1 0x20 ADD JUMPDEST PUSH1 0x40 MLOAD DUP1 SWAP2 SUB SWAP1 RETURN JUMPDEST PUSH2 0x10F PUSH2 0x10A CALLDATASIZE PUSH1 0x4 PUSH2 0xC7B JUMP JUMPDEST PUSH2 0x22E JUMP JUMPDEST STOP JUMPDEST PUSH2 0x119 PUSH2 0x283 JUMP JUMPDEST PUSH1 0x40 MLOAD PUSH2 0xF3 SWAP2 SWAP1 PUSH2 0xD49 JUMP JUMPDEST PUSH2 0x10F PUSH2 0x311 JUMP JUMPDEST PUSH2 0x10F PUSH2 0x3F6 JUMP JUMPDEST PUSH2 0x149 PUSH2 0x144 CALLDATASIZE PUSH1 0x4 PUSH2 0xD8D JUMP JUMPDEST PUSH2 0x4A0 JUMP JUMPDEST PUSH1 0x40 MLOAD SWAP1 DUP2 MSTORE PUSH1 0x20 ADD PUSH2 0xF3 JUMP JUMPDEST PUSH2 0x10F PUSH2 0x165 CALLDATASIZE PUSH1 0x4 PUSH2 0xDCC JUMP JUMPDEST PUSH2 0x858 JUMP JUMPDEST PUSH1 0x0 SLOAD PUSH1 0x1 PUSH1 0x1 PUSH1 0xA0 SHL SUB AND JUMPDEST PUSH1 0x40 MLOAD PUSH1 0x1 PUSH1 0x1 PUSH1 0xA0 SHL SUB SWAP1 SWAP2 AND DUP2 MSTORE PUSH1 0x20 ADD PUSH2 0xF3 JUMP JUMPDEST PUSH2 0x10F PUSH2 0x19D CALLDATASIZE PUSH1 0x4 PUSH2 0xE06 JUMP JUMPDEST PUSH2 0x8B7 JUMP JUMPDEST PUSH1 0x2 SLOAD PUSH2 0x177 SWAP1 PUSH1 0x1 PUSH1 0x1 PUSH1 0xA0 SHL SUB AND DUP2 JUMP JUMPDEST PUSH32 0x0 PUSH2 0x177 JUMP JUMPDEST PUSH2 0x149 PUSH1 0x5 SLOAD DUP2 JUMP JUMPDEST PUSH2 0x10F PUSH2 0x1F2 CALLDATASIZE PUSH1 0x4 PUSH2 0xE06 JUMP JUMPDEST PUSH2 0x9A9 JUMP JUMPDEST PUSH1 0x0 PUSH1 0x1 PUSH1 0x1 PUSH1 0xE0 SHL SUB NOT DUP3 AND PUSH4 0x85572FFB PUSH1 0xE0 SHL EQ DUP1 PUSH2 0x228 JUMPI POP PUSH1 0x1 PUSH1 0x1 PUSH1 0xE0 SHL SUB NOT DUP3 AND PUSH4 0x1FFC9A7 PUSH1 0xE0 SHL EQ JUMPDEST SWAP3 SWAP2 POP POP JUMP JUMPDEST PUSH1 0x2 SLOAD PUSH1 0x1 PUSH1 0x1 PUSH1 0xA0 SHL SUB AND CALLER EQ PUSH2 0x273 JUMPI PUSH1 0x2 SLOAD PUSH1 0x40 MLOAD PUSH4 0x73E64FD PUSH1 0xE2 SHL DUP2 MSTORE CALLER PUSH1 0x4 DUP3 ADD MSTORE PUSH1 0x1 PUSH1 0x1 PUSH1 0xA0 SHL SUB SWAP1 SWAP2 AND PUSH1 0x24 DUP3 ADD MSTORE PUSH1 0x44 ADD JUMPDEST PUSH1 0x40 MLOAD DUP1 SWAP2 SUB SWAP1 REVERT JUMPDEST PUSH2 0x27E DUP4 DUP4 DUP4 PUSH2 0x9BA JUMP JUMPDEST POP POP POP JUMP JUMPDEST PUSH1 0x6 DUP1 SLOAD PUSH2 0x290 SWAP1 PUSH2 0xE23 JUMP JUMPDEST DUP1 PUSH1 0x1F ADD PUSH1 0x20 DUP1 SWAP2 DIV MUL PUSH1 0x20 ADD PUSH1 0x40 MLOAD SWAP1 DUP2 ADD PUSH1 0x40 MSTORE DUP1 SWAP3 SWAP2 SWAP1 DUP2 DUP2 MSTORE PUSH1 0x20 ADD DUP3 DUP1 SLOAD PUSH2 0x2BC SWAP1 PUSH2 0xE23 JUMP JUMPDEST DUP1 ISZERO PUSH2 0x309 JUMPI DUP1 PUSH1 0x1F LT PUSH2 0x2DE JUMPI PUSH2 0x100 DUP1 DUP4 SLOAD DIV MUL DUP4 MSTORE SWAP2 PUSH1 0x20 ADD SWAP2 PUSH2 0x309 JUMP JUMPDEST DUP3 ADD SWAP2 SWAP1 PUSH1 0x0 MSTORE PUSH1 0x20 PUSH1 0x0 KECCAK256 SWAP1 JUMPDEST DUP2 SLOAD DUP2 MSTORE SWAP1 PUSH1 0x1 ADD SWAP1 PUSH1 0x20 ADD DUP1 DUP4 GT PUSH2 0x2EC JUMPI DUP3 SWAP1 SUB PUSH1 0x1F AND DUP3 ADD SWAP2 JUMPDEST POP POP POP POP POP DUP2 JUMP JUMPDEST PUSH1 0x2 SLOAD PUSH1 0x40 DUP1 MLOAD PUSH1 0xC0 DUP2 ADD DUP3 MSTORE PUSH1 0x4 SLOAD DUP2 MSTORE PUSH32 0x0 PUSH1 0x20 DUP1 DUP4 ADD SWAP2 SWAP1 SWAP2 MSTORE PUSH1 0x1 DUP3 DUP5 ADD DUP2 SWAP1 MSTORE PUSH3 0x2625A0 PUSH1 0x60 DUP5 ADD MSTORE PUSH1 0x80 DUP4 ADD MSTORE DUP3 MLOAD SWAP1 DUP2 ADD SWAP1 SWAP3 MSTORE PUSH1 0x0 DUP1 DUP4 MSTORE SWAP3 PUSH1 0x1 PUSH1 0x1 PUSH1 0xA0 SHL SUB AND SWAP2 PUSH4 0x9B1C385E SWAP2 SWAP1 PUSH1 0xA0 DUP3 ADD SWAP1 PUSH2 0x390 SWAP1 PUSH2 0xA0C JUMP JUMPDEST DUP2 MSTORE POP PUSH1 0x40 MLOAD DUP3 PUSH4 0xFFFFFFFF AND PUSH1 0xE0 SHL DUP2 MSTORE PUSH1 0x4 ADD PUSH2 0x3AF SWAP2 SWAP1 PUSH2 0xE5D JUMP JUMPDEST PUSH1 0x20 PUSH1 0x40 MLOAD DUP1 DUP4 SUB DUP2 PUSH1 0x0 DUP8 GAS CALL ISZERO DUP1 ISZERO PUSH2 0x3CE JUMPI RETURNDATASIZE PUSH1 0x0 DUP1 RETURNDATACOPY RETURNDATASIZE PUSH1 0x0 REVERT JUMPDEST POP POP POP POP PUSH1 0x40 MLOAD RETURNDATASIZE PUSH1 0x1F NOT PUSH1 0x1F DUP3 ADD AND DUP3 ADD DUP1 PUSH1 0x40 MSTORE POP DUP2 ADD SWAP1 PUSH2 0x3F2 SWAP2 SWAP1 PUSH2 0xEC2 JUMP JUMPDEST POP POP JUMP JUMPDEST PUSH1 0x1 SLOAD PUSH1 0x1 PUSH1 0x1 PUSH1 0xA0 SHL SUB AND CALLER EQ PUSH2 0x449 JUMPI PUSH1 0x40 MLOAD PUSH3 0x461BCD PUSH1 0xE5 SHL DUP2 MSTORE PUSH1 0x20 PUSH1 0x4 DUP3 ADD MSTORE PUSH1 0x16 PUSH1 0x24 DUP3 ADD MSTORE PUSH22 0x26BAB9BA10313290383937B837B9B2B21037BBB732B9 PUSH1 0x51 SHL PUSH1 0x44 DUP3 ADD MSTORE PUSH1 0x64 ADD PUSH2 0x26A JUMP JUMPDEST PUSH1 0x0 DUP1 SLOAD CALLER PUSH1 0x1 PUSH1 0x1 PUSH1 0xA0 SHL SUB NOT DUP1 DUP4 AND DUP3 OR DUP5 SSTORE PUSH1 0x1 DUP1 SLOAD SWAP1 SWAP2 AND SWAP1 SSTORE PUSH1 0x40 MLOAD PUSH1 0x1 PUSH1 0x1 PUSH1 0xA0 SHL SUB SWAP1 SWAP3 AND SWAP3 SWAP1 SWAP2 DUP4 SWAP2 PUSH32 0x8BE0079C531659141344CD1FD0A4F28419497F9722A3DAAFE3B4186F6B6457E0 SWAP2 LOG3 POP JUMP JUMPDEST PUSH1 0x40 DUP1 MLOAD PUSH1 0xA0 DUP2 ADD SWAP1 SWAP2 MSTORE PUSH1 0x1 PUSH1 0x1 PUSH1 0xA0 SHL SUB DUP4 AND PUSH1 0xC0 DUP3 ADD MSTORE PUSH1 0x0 SWAP1 DUP2 SWAP1 DUP1 PUSH1 0xE0 DUP2 ADD PUSH1 0x40 MLOAD PUSH1 0x20 DUP2 DUP4 SUB SUB DUP2 MSTORE SWAP1 PUSH1 0x40 MSTORE DUP2 MSTORE PUSH1 0x20 ADD DUP5 PUSH1 0x40 MLOAD PUSH1 0x20 ADD PUSH2 0x4EB SWAP2 DUP2 MSTORE PUSH1 0x20 ADD SWAP1 JUMP JUMPDEST PUSH1 0x40 DUP1 MLOAD PUSH1 0x1F NOT DUP2 DUP5 SUB ADD DUP2 MSTORE SWAP2 SWAP1 MSTORE DUP2 MSTORE PUSH1 0x20 ADD PUSH1 0x0 PUSH1 0x40 MLOAD SWAP1 DUP1 DUP3 MSTORE DUP1 PUSH1 0x20 MUL PUSH1 0x20 ADD DUP3 ADD PUSH1 0x40 MSTORE DUP1 ISZERO PUSH2 0x547 JUMPI DUP2 PUSH1 0x20 ADD JUMPDEST PUSH1 0x40 DUP1 MLOAD DUP1 DUP3 ADD SWAP1 SWAP2 MSTORE PUSH1 0x0 DUP1 DUP3 MSTORE PUSH1 0x20 DUP3 ADD MSTORE DUP2 MSTORE PUSH1 0x20 ADD SWAP1 PUSH1 0x1 SWAP1 SUB SWAP1 DUP2 PUSH2 0x520 JUMPI SWAP1 POP JUMPDEST POP DUP2 MSTORE PUSH1 0x8 SLOAD PUSH1 0x1 PUSH1 0x1 PUSH1 0xA0 SHL SUB AND PUSH1 0x20 DUP1 DUP4 ADD SWAP2 SWAP1 SWAP2 MSTORE PUSH1 0x40 DUP1 MLOAD SWAP2 DUP3 ADD DUP2 MSTORE PUSH3 0x30D40 DUP3 MSTORE SWAP1 SWAP2 ADD SWAP1 PUSH2 0x57B SWAP1 PUSH2 0xA7D JUMP JUMPDEST SWAP1 MSTORE PUSH1 0x7 SLOAD PUSH1 0x40 MLOAD PUSH4 0x20487DED PUSH1 0xE0 SHL DUP2 MSTORE SWAP2 SWAP3 POP PUSH1 0x0 SWAP2 PUSH1 0x1 PUSH1 0x1 PUSH1 0xA0 SHL SUB SWAP1 SWAP2 AND SWAP1 PUSH4 0x20487DED SWAP1 PUSH2 0x5B5 SWAP1 DUP10 SWAP1 DUP7 SWAP1 PUSH1 0x4 ADD PUSH2 0xEF1 JUMP JUMPDEST PUSH1 0x20 PUSH1 0x40 MLOAD DUP1 DUP4 SUB DUP2 DUP7 GAS STATICCALL ISZERO DUP1 ISZERO PUSH2 0x5D2 JUMPI RETURNDATASIZE PUSH1 0x0 DUP1 RETURNDATACOPY RETURNDATASIZE PUSH1 0x0 REVERT JUMPDEST POP POP POP POP PUSH1 0x40 MLOAD RETURNDATASIZE PUSH1 0x1F NOT PUSH1 0x1F DUP3 ADD AND DUP3 ADD DUP1 PUSH1 0x40 MSTORE POP DUP2 ADD SWAP1 PUSH2 0x5F6 SWAP2 SWAP1 PUSH2 0xEC2 JUMP JUMPDEST PUSH1 0x8 SLOAD PUSH1 0x40 MLOAD PUSH4 0x70A08231 PUSH1 0xE0 SHL DUP2 MSTORE ADDRESS PUSH1 0x4 DUP3 ADD MSTORE SWAP2 SWAP3 POP PUSH1 0x1 PUSH1 0x1 PUSH1 0xA0 SHL SUB AND SWAP1 PUSH4 0x70A08231 SWAP1 PUSH1 0x24 ADD PUSH1 0x20 PUSH1 0x40 MLOAD DUP1 DUP4 SUB DUP2 DUP7 GAS STATICCALL ISZERO DUP1 ISZERO PUSH2 0x63F JUMPI RETURNDATASIZE PUSH1 0x0 DUP1 RETURNDATACOPY RETURNDATASIZE PUSH1 0x0 REVERT JUMPDEST POP POP POP POP PUSH1 0x40 MLOAD RETURNDATASIZE PUSH1 0x1F NOT PUSH1 0x1F DUP3 ADD AND DUP3 ADD DUP1 PUSH1 0x40 MSTORE POP DUP2 ADD SWAP1 PUSH2 0x663 SWAP2 SWAP1 PUSH2 0xEC2 JUMP JUMPDEST DUP2 GT ISZERO PUSH2 0x6FA JUMPI PUSH1 0x8 SLOAD PUSH1 0x40 MLOAD PUSH4 0x70A08231 PUSH1 0xE0 SHL DUP2 MSTORE ADDRESS PUSH1 0x4 DUP3 ADD MSTORE PUSH1 0x1 PUSH1 0x1 PUSH1 0xA0 SHL SUB SWAP1 SWAP2 AND SWAP1 PUSH4 0x70A08231 SWAP1 PUSH1 0x24 ADD PUSH1 0x20 PUSH1 0x40 MLOAD DUP1 DUP4 SUB DUP2 DUP7 GAS STATICCALL ISZERO DUP1 ISZERO PUSH2 0x6B2 JUMPI RETURNDATASIZE PUSH1 0x0 DUP1 RETURNDATACOPY RETURNDATASIZE PUSH1 0x0 REVERT JUMPDEST POP POP POP POP PUSH1 0x40 MLOAD RETURNDATASIZE PUSH1 0x1F NOT PUSH1 0x1F DUP3 ADD AND DUP3 ADD DUP1 PUSH1 0x40 MSTORE POP DUP2 ADD SWAP1 PUSH2 0x6D6 SWAP2 SWAP1 PUSH2 0xEC2 JUMP JUMPDEST PUSH1 0x40 MLOAD PUSH4 0x4787A103 PUSH1 0xE1 SHL DUP2 MSTORE PUSH1 0x4 DUP2 ADD SWAP2 SWAP1 SWAP2 MSTORE PUSH1 0x24 DUP2 ADD DUP3 SWAP1 MSTORE PUSH1 0x44 ADD PUSH2 0x26A JUMP JUMPDEST PUSH1 0x8 SLOAD PUSH1 0x7 SLOAD PUSH1 0x40 MLOAD PUSH4 0x95EA7B3 PUSH1 0xE0 SHL DUP2 MSTORE PUSH1 0x1 PUSH1 0x1 PUSH1 0xA0 SHL SUB SWAP2 DUP3 AND PUSH1 0x4 DUP3 ADD MSTORE PUSH1 0x24 DUP2 ADD DUP5 SWAP1 MSTORE SWAP2 AND SWAP1 PUSH4 0x95EA7B3 SWAP1 PUSH1 0x44 ADD PUSH1 0x20 PUSH1 0x40 MLOAD DUP1 DUP4 SUB DUP2 PUSH1 0x0 DUP8 GAS CALL ISZERO DUP1 ISZERO PUSH2 0x74F JUMPI RETURNDATASIZE PUSH1 0x0 DUP1 RETURNDATACOPY RETURNDATASIZE PUSH1 0x0 REVERT JUMPDEST POP POP POP POP PUSH1 0x40 MLOAD RETURNDATASIZE PUSH1 0x1F NOT PUSH1 0x1F DUP3 ADD AND DUP3 ADD DUP1 PUSH1 0x40 MSTORE POP DUP2 ADD SWAP1 PUSH2 0x773 SWAP2 SWAP1 PUSH2 0xFCA JUMP JUMPDEST POP PUSH1 0x7 SLOAD PUSH1 0x40 MLOAD PUSH4 0x96F4E9F9 PUSH1 0xE0 SHL DUP2 MSTORE PUSH1 0x1 PUSH1 0x1 PUSH1 0xA0 SHL SUB SWAP1 SWAP2 AND SWAP1 PUSH4 0x96F4E9F9 SWAP1 PUSH2 0x7A6 SWAP1 DUP10 SWAP1 DUP7 SWAP1 PUSH1 0x4 ADD PUSH2 0xEF1 JUMP JUMPDEST PUSH1 0x20 PUSH1 0x40 MLOAD DUP1 DUP4 SUB DUP2 PUSH1 0x0 DUP8 GAS CALL ISZERO DUP1 ISZERO PUSH2 0x7C5 JUMPI RETURNDATASIZE PUSH1 0x0 DUP1 RETURNDATACOPY RETURNDATASIZE PUSH1 0x0 REVERT JUMPDEST POP POP POP POP PUSH1 0x40 MLOAD RETURNDATASIZE PUSH1 0x1F NOT PUSH1 0x1F DUP3 ADD AND DUP3 ADD DUP1 PUSH1 0x40 MSTORE POP DUP2 ADD SWAP1 PUSH2 0x7E9 SWAP2 SWAP1 PUSH2 0xEC2 JUMP JUMPDEST PUSH1 0x8 SLOAD PUSH1 0x40 DUP1 MLOAD PUSH1 0x1 PUSH1 0x1 PUSH1 0xA0 SHL SUB DUP1 DUP11 AND DUP3 MSTORE PUSH1 0x20 DUP3 ADD DUP10 SWAP1 MSTORE SWAP1 SWAP3 AND SWAP1 DUP3 ADD MSTORE PUSH1 0x60 DUP2 ADD DUP4 SWAP1 MSTORE SWAP1 SWAP4 POP PUSH1 0x1 PUSH1 0x1 PUSH1 0x40 SHL SUB DUP8 AND SWAP1 DUP5 SWAP1 PUSH32 0xEEA8A479F07983D1364C4330C9BF3442A1CD421B79B16909BCC1867188EA676B SWAP1 PUSH1 0x80 ADD PUSH1 0x40 MLOAD DUP1 SWAP2 SUB SWAP1 LOG3 POP POP SWAP4 SWAP3 POP POP POP JUMP JUMPDEST CALLER PUSH1 0x1 PUSH1 0x1 PUSH1 0xA0 SHL SUB PUSH32 0x0 AND EQ PUSH2 0x8A3 JUMPI PUSH1 0x40 MLOAD PUSH4 0x35FDCCCD PUSH1 0xE2 SHL DUP2 MSTORE CALLER PUSH1 0x4 DUP3 ADD MSTORE PUSH1 0x24 ADD PUSH2 0x26A JUMP JUMPDEST PUSH2 0x8B4 PUSH2 0x8AF DUP3 PUSH2 0x118F JUMP JUMPDEST PUSH2 0xA9B JUMP JUMPDEST POP JUMP JUMPDEST PUSH1 0x0 SLOAD PUSH1 0x1 PUSH1 0x1 PUSH1 0xA0 SHL SUB AND CALLER EQ DUP1 ISZERO SWAP1 PUSH2 0x8DD JUMPI POP PUSH1 0x2 SLOAD PUSH1 0x1 PUSH1 0x1 PUSH1 0xA0 SHL SUB AND CALLER EQ ISZERO JUMPDEST ISZERO PUSH2 0x92E JUMPI CALLER PUSH2 0x8F5 PUSH1 0x0 SLOAD PUSH1 0x1 PUSH1 0x1 PUSH1 0xA0 SHL SUB AND SWAP1 JUMP JUMPDEST PUSH1 0x2 SLOAD PUSH1 0x40 MLOAD PUSH4 0x61DB9C1 PUSH1 0xE0 SHL DUP2 MSTORE PUSH1 0x1 PUSH1 0x1 PUSH1 0xA0 SHL SUB SWAP4 DUP5 AND PUSH1 0x4 DUP3 ADD MSTORE SWAP2 DUP4 AND PUSH1 0x24 DUP4 ADD MSTORE SWAP2 SWAP1 SWAP2 AND PUSH1 0x44 DUP3 ADD MSTORE PUSH1 0x64 ADD PUSH2 0x26A JUMP JUMPDEST PUSH1 0x1 PUSH1 0x1 PUSH1 0xA0 SHL SUB DUP2 AND PUSH2 0x955 JUMPI PUSH1 0x40 MLOAD PUSH4 0xD92E233D PUSH1 0xE0 SHL DUP2 MSTORE PUSH1 0x4 ADD PUSH1 0x40 MLOAD DUP1 SWAP2 SUB SWAP1 REVERT JUMPDEST PUSH1 0x2 DUP1 SLOAD PUSH1 0x1 PUSH1 0x1 PUSH1 0xA0 SHL SUB NOT AND PUSH1 0x1 PUSH1 0x1 PUSH1 0xA0 SHL SUB DUP4 AND SWAP1 DUP2 OR SWAP1 SWAP2 SSTORE PUSH1 0x40 MLOAD SWAP1 DUP2 MSTORE PUSH32 0xD1A6A14209A385A964D036E404CB5CFB71F4000CDB03C9366292430787261BE6 SWAP1 PUSH1 0x20 ADD PUSH1 0x40 MLOAD DUP1 SWAP2 SUB SWAP1 LOG1 POP JUMP JUMPDEST PUSH2 0x9B1 PUSH2 0xB4C JUMP JUMPDEST PUSH2 0x8B4 DUP2 PUSH2 0xBA1 JUMP JUMPDEST PUSH1 0x0 DUP3 DUP3 PUSH1 0x0 DUP2 DUP2 LT PUSH2 0x9CF JUMPI PUSH2 0x9CF PUSH2 0x123B JUMP JUMPDEST SWAP1 POP PUSH1 0x20 MUL ADD CALLDATALOAD SWAP1 POP PUSH1 0x0 PUSH8 0x48810EC3E431431F SWAP1 POP PUSH2 0xA04 DUP2 PUSH20 0xEC89FAF56A7029EB3069FFA90BE0C6461F475BC1 DUP5 PUSH2 0x4A0 JUMP JUMPDEST POP POP POP POP POP POP JUMP JUMPDEST PUSH1 0x60 PUSH32 0x92FD13387C7FE7BEFBC38D303D6468778FB9731BC4583F17D92989C6FCFDEAAA DUP3 PUSH1 0x40 MLOAD PUSH1 0x24 ADD PUSH2 0xA45 SWAP2 MLOAD ISZERO ISZERO DUP2 MSTORE PUSH1 0x20 ADD SWAP1 JUMP JUMPDEST PUSH1 0x40 DUP1 MLOAD PUSH1 0x1F NOT DUP2 DUP5 SUB ADD DUP2 MSTORE SWAP2 SWAP1 MSTORE PUSH1 0x20 DUP2 ADD DUP1 MLOAD PUSH1 0x1 PUSH1 0x1 PUSH1 0xE0 SHL SUB AND PUSH1 0x1 PUSH1 0x1 PUSH1 0xE0 SHL SUB NOT SWAP1 SWAP4 AND SWAP3 SWAP1 SWAP3 OR SWAP1 SWAP2 MSTORE SWAP3 SWAP2 POP POP JUMP JUMPDEST PUSH1 0x40 MLOAD DUP2 MLOAD PUSH1 0x24 DUP3 ADD MSTORE PUSH1 0x60 SWAP1 PUSH4 0x97A657C9 PUSH1 0xE0 SHL SWAP1 PUSH1 0x44 ADD PUSH2 0xA45 JUMP JUMPDEST DUP1 MLOAD PUSH1 0x5 SSTORE PUSH1 0x60 DUP2 ADD MLOAD DUP1 MLOAD PUSH2 0xAB9 SWAP2 PUSH1 0x20 SWAP2 DUP2 ADD DUP3 ADD SWAP2 ADD PUSH2 0x1251 JUMP JUMPDEST PUSH1 0x6 SWAP1 PUSH2 0xAC6 SWAP1 DUP3 PUSH2 0x130D JUMP JUMPDEST POP PUSH2 0xACF PUSH2 0x311 JUMP JUMPDEST DUP1 PUSH1 0x20 ADD MLOAD PUSH1 0x1 PUSH1 0x1 PUSH1 0x40 SHL SUB AND DUP2 PUSH1 0x0 ADD MLOAD PUSH32 0xB1E312A29937CC11967B0E4A346FEF1AE132424EBABA9DC6D90249DBA053E87C DUP4 PUSH1 0x40 ADD MLOAD DUP1 PUSH1 0x20 ADD SWAP1 MLOAD DUP2 ADD SWAP1 PUSH2 0xB1B SWAP2 SWAP1 PUSH2 0x13CC JUMP JUMPDEST DUP5 PUSH1 0x60 ADD MLOAD DUP1 PUSH1 0x20 ADD SWAP1 MLOAD DUP2 ADD SWAP1 PUSH2 0xB33 SWAP2 SWAP1 PUSH2 0x1251 JUMP JUMPDEST PUSH1 0x40 MLOAD PUSH2 0xB41 SWAP3 SWAP2 SWAP1 PUSH2 0x13E9 JUMP JUMPDEST PUSH1 0x40 MLOAD DUP1 SWAP2 SUB SWAP1 LOG3 POP JUMP JUMPDEST PUSH1 0x0 SLOAD PUSH1 0x1 PUSH1 0x1 PUSH1 0xA0 SHL SUB AND CALLER EQ PUSH2 0xB9F JUMPI PUSH1 0x40 MLOAD PUSH3 0x461BCD PUSH1 0xE5 SHL DUP2 MSTORE PUSH1 0x20 PUSH1 0x4 DUP3 ADD MSTORE PUSH1 0x16 PUSH1 0x24 DUP3 ADD MSTORE PUSH22 0x27B7363C9031B0B63630B1363290313C9037BBB732B9 PUSH1 0x51 SHL PUSH1 0x44 DUP3 ADD MSTORE PUSH1 0x64 ADD PUSH2 0x26A JUMP JUMPDEST JUMP JUMPDEST CALLER PUSH1 0x1 PUSH1 0x1 PUSH1 0xA0 SHL SUB DUP3 AND SUB PUSH2 0xBF9 JUMPI PUSH1 0x40 MLOAD PUSH3 0x461BCD PUSH1 0xE5 SHL DUP2 MSTORE PUSH1 0x20 PUSH1 0x4 DUP3 ADD MSTORE PUSH1 0x17 PUSH1 0x24 DUP3 ADD MSTORE PUSH32 0x43616E6E6F74207472616E7366657220746F2073656C66000000000000000000 PUSH1 0x44 DUP3 ADD MSTORE PUSH1 0x64 ADD PUSH2 0x26A JUMP JUMPDEST PUSH1 0x1 DUP1 SLOAD PUSH1 0x1 PUSH1 0x1 PUSH1 0xA0 SHL SUB NOT AND PUSH1 0x1 PUSH1 0x1 PUSH1 0xA0 SHL SUB DUP4 DUP2 AND SWAP2 DUP3 OR SWAP1 SWAP3 SSTORE PUSH1 0x0 DUP1 SLOAD PUSH1 0x40 MLOAD SWAP3 SWAP4 AND SWAP2 PUSH32 0xED8889F560326EB138920D842192F0EB3DD22B4F139C87A2C57538E05BAE1278 SWAP2 SWAP1 LOG3 POP JUMP JUMPDEST PUSH1 0x0 PUSH1 0x20 DUP3 DUP5 SUB SLT ISZERO PUSH2 0xC5C JUMPI PUSH1 0x0 DUP1 REVERT JUMPDEST DUP2 CALLDATALOAD PUSH1 0x1 PUSH1 0x1 PUSH1 0xE0 SHL SUB NOT DUP2 AND DUP2 EQ PUSH2 0xC74 JUMPI PUSH1 0x0 DUP1 REVERT JUMPDEST SWAP4 SWAP3 POP POP POP JUMP JUMPDEST PUSH1 0x0 DUP1 PUSH1 0x0 PUSH1 0x40 DUP5 DUP7 SUB SLT ISZERO PUSH2 0xC90 JUMPI PUSH1 0x0 DUP1 REVERT JUMPDEST DUP4 CALLDATALOAD SWAP3 POP PUSH1 0x20 DUP5 ADD CALLDATALOAD PUSH1 0x1 PUSH1 0x1 PUSH1 0x40 SHL SUB DUP1 DUP3 GT ISZERO PUSH2 0xCAE JUMPI PUSH1 0x0 DUP1 REVERT JUMPDEST DUP2 DUP7 ADD SWAP2 POP DUP7 PUSH1 0x1F DUP4 ADD SLT PUSH2 0xCC2 JUMPI PUSH1 0x0 DUP1 REVERT JUMPDEST DUP2 CALLDATALOAD DUP2 DUP2 GT ISZERO PUSH2 0xCD1 JUMPI PUSH1 0x0 DUP1 REVERT JUMPDEST DUP8 PUSH1 0x20 DUP3 PUSH1 0x5 SHL DUP6 ADD ADD GT ISZERO PUSH2 0xCE6 JUMPI PUSH1 0x0 DUP1 REVERT JUMPDEST PUSH1 0x20 DUP4 ADD SWAP5 POP DUP1 SWAP4 POP POP POP POP SWAP3 POP SWAP3 POP SWAP3 JUMP JUMPDEST PUSH1 0x0 JUMPDEST DUP4 DUP2 LT ISZERO PUSH2 0xD14 JUMPI DUP2 DUP2 ADD MLOAD DUP4 DUP3 ADD MSTORE PUSH1 0x20 ADD PUSH2 0xCFC JUMP JUMPDEST POP POP PUSH1 0x0 SWAP2 ADD MSTORE JUMP JUMPDEST PUSH1 0x0 DUP2 MLOAD DUP1 DUP5 MSTORE PUSH2 0xD35 DUP2 PUSH1 0x20 DUP7 ADD PUSH1 0x20 DUP7 ADD PUSH2 0xCF9 JUMP JUMPDEST PUSH1 0x1F ADD PUSH1 0x1F NOT AND SWAP3 SWAP1 SWAP3 ADD PUSH1 0x20 ADD SWAP3 SWAP2 POP POP JUMP JUMPDEST PUSH1 0x20 DUP2 MSTORE PUSH1 0x0 PUSH2 0xC74 PUSH1 0x20 DUP4 ADD DUP5 PUSH2 0xD1D JUMP JUMPDEST DUP1 CALLDATALOAD PUSH1 0x1 PUSH1 0x1 PUSH1 0x40 SHL SUB DUP2 AND DUP2 EQ PUSH2 0xD73 JUMPI PUSH1 0x0 DUP1 REVERT JUMPDEST SWAP2 SWAP1 POP JUMP JUMPDEST PUSH1 0x1 PUSH1 0x1 PUSH1 0xA0 SHL SUB DUP2 AND DUP2 EQ PUSH2 0x8B4 JUMPI PUSH1 0x0 DUP1 REVERT JUMPDEST PUSH1 0x0 DUP1 PUSH1 0x0 PUSH1 0x60 DUP5 DUP7 SUB SLT ISZERO PUSH2 0xDA2 JUMPI PUSH1 0x0 DUP1 REVERT JUMPDEST PUSH2 0xDAB DUP5 PUSH2 0xD5C JUMP JUMPDEST SWAP3 POP PUSH1 0x20 DUP5 ADD CALLDATALOAD PUSH2 0xDBB DUP2 PUSH2 0xD78 JUMP JUMPDEST SWAP3 SWAP6 SWAP3 SWAP5 POP POP POP PUSH1 0x40 SWAP2 SWAP1 SWAP2 ADD CALLDATALOAD SWAP1 JUMP JUMPDEST PUSH1 0x0 PUSH1 0x20 DUP3 DUP5 SUB SLT ISZERO PUSH2 0xDDE JUMPI PUSH1 0x0 DUP1 REVERT JUMPDEST DUP2 CALLDATALOAD PUSH1 0x1 PUSH1 0x1 PUSH1 0x40 SHL SUB DUP2 GT ISZERO PUSH2 0xDF4 JUMPI PUSH1 0x0 DUP1 REVERT JUMPDEST DUP3 ADD PUSH1 0xA0 DUP2 DUP6 SUB SLT ISZERO PUSH2 0xC74 JUMPI PUSH1 0x0 DUP1 REVERT JUMPDEST PUSH1 0x0 PUSH1 0x20 DUP3 DUP5 SUB SLT ISZERO PUSH2 0xE18 JUMPI PUSH1 0x0 DUP1 REVERT JUMPDEST DUP2 CALLDATALOAD PUSH2 0xC74 DUP2 PUSH2 0xD78 JUMP JUMPDEST PUSH1 0x1 DUP2 DUP2 SHR SWAP1 DUP3 AND DUP1 PUSH2 0xE37 JUMPI PUSH1 0x7F DUP3 AND SWAP2 POP JUMPDEST PUSH1 0x20 DUP3 LT DUP2 SUB PUSH2 0xE57 JUMPI PUSH4 0x4E487B71 PUSH1 0xE0 SHL PUSH1 0x0 MSTORE PUSH1 0x22 PUSH1 0x4 MSTORE PUSH1 0x24 PUSH1 0x0 REVERT JUMPDEST POP SWAP2 SWAP1 POP JUMP JUMPDEST PUSH1 0x20 DUP2 MSTORE DUP2 MLOAD PUSH1 0x20 DUP3 ADD MSTORE PUSH1 0x20 DUP3 ADD MLOAD PUSH1 0x40 DUP3 ADD MSTORE PUSH2 0xFFFF PUSH1 0x40 DUP4 ADD MLOAD AND PUSH1 0x60 DUP3 ADD MSTORE PUSH1 0x0 PUSH1 0x60 DUP4 ADD MLOAD PUSH4 0xFFFFFFFF DUP1 DUP3 AND PUSH1 0x80 DUP6 ADD MSTORE DUP1 PUSH1 0x80 DUP7 ADD MLOAD AND PUSH1 0xA0 DUP6 ADD MSTORE POP POP PUSH1 0xA0 DUP4 ADD MLOAD PUSH1 0xC0 DUP1 DUP5 ADD MSTORE PUSH2 0xEBA PUSH1 0xE0 DUP5 ADD DUP3 PUSH2 0xD1D JUMP JUMPDEST SWAP5 SWAP4 POP POP POP POP JUMP JUMPDEST PUSH1 0x0 PUSH1 0x20 DUP3 DUP5 SUB SLT ISZERO PUSH2 0xED4 JUMPI PUSH1 0x0 DUP1 REVERT JUMPDEST POP MLOAD SWAP2 SWAP1 POP JUMP JUMPDEST PUSH4 0x4E487B71 PUSH1 0xE0 SHL PUSH1 0x0 MSTORE PUSH1 0x41 PUSH1 0x4 MSTORE PUSH1 0x24 PUSH1 0x0 REVERT JUMPDEST PUSH1 0x0 PUSH1 0x40 PUSH1 0x1 PUSH1 0x1 PUSH1 0x40 SHL SUB DUP6 AND DUP4 MSTORE PUSH1 0x20 DUP2 DUP2 DUP6 ADD MSTORE DUP5 MLOAD PUSH1 0xA0 DUP4 DUP7 ADD MSTORE PUSH2 0xF1D PUSH1 0xE0 DUP7 ADD DUP3 PUSH2 0xD1D JUMP JUMPDEST SWAP1 POP DUP2 DUP7 ADD MLOAD PUSH1 0x3F NOT DUP1 DUP8 DUP5 SUB ADD PUSH1 0x60 DUP9 ADD MSTORE PUSH2 0xF3A DUP4 DUP4 PUSH2 0xD1D JUMP JUMPDEST DUP9 DUP7 ADD MLOAD DUP9 DUP3 SUB DUP4 ADD PUSH1 0x80 DUP11 ADD MSTORE DUP1 MLOAD DUP1 DUP4 MSTORE SWAP1 DUP7 ADD SWAP5 POP PUSH1 0x0 SWAP4 POP SWAP1 DUP6 ADD SWAP1 JUMPDEST DUP1 DUP5 LT ISZERO PUSH2 0xF8D JUMPI DUP5 MLOAD DUP1 MLOAD PUSH1 0x1 PUSH1 0x1 PUSH1 0xA0 SHL SUB AND DUP4 MSTORE DUP7 ADD MLOAD DUP7 DUP4 ADD MSTORE SWAP4 DUP6 ADD SWAP4 PUSH1 0x1 SWAP4 SWAP1 SWAP4 ADD SWAP3 SWAP1 DUP7 ADD SWAP1 PUSH2 0xF5B JUMP JUMPDEST POP PUSH1 0x60 DUP10 ADD MLOAD PUSH1 0x1 PUSH1 0x1 PUSH1 0xA0 SHL SUB AND PUSH1 0xA0 DUP10 ADD MSTORE PUSH1 0x80 DUP10 ADD MLOAD DUP9 DUP3 SUB DUP4 ADD PUSH1 0xC0 DUP11 ADD MSTORE SWAP6 POP PUSH2 0xFBC DUP2 DUP8 PUSH2 0xD1D JUMP JUMPDEST SWAP11 SWAP10 POP POP POP POP POP POP POP POP POP POP JUMP JUMPDEST PUSH1 0x0 PUSH1 0x20 DUP3 DUP5 SUB SLT ISZERO PUSH2 0xFDC JUMPI PUSH1 0x0 DUP1 REVERT JUMPDEST DUP2 MLOAD DUP1 ISZERO ISZERO DUP2 EQ PUSH2 0xC74 JUMPI PUSH1 0x0 DUP1 REVERT JUMPDEST PUSH1 0x40 DUP1 MLOAD SWAP1 DUP2 ADD PUSH1 0x1 PUSH1 0x1 PUSH1 0x40 SHL SUB DUP2 GT DUP3 DUP3 LT OR ISZERO PUSH2 0x100E JUMPI PUSH2 0x100E PUSH2 0xEDB JUMP JUMPDEST PUSH1 0x40 MSTORE SWAP1 JUMP JUMPDEST PUSH1 0x40 MLOAD PUSH1 0xA0 DUP2 ADD PUSH1 0x1 PUSH1 0x1 PUSH1 0x40 SHL SUB DUP2 GT DUP3 DUP3 LT OR ISZERO PUSH2 0x100E JUMPI PUSH2 0x100E PUSH2 0xEDB JUMP JUMPDEST PUSH1 0x40 MLOAD PUSH1 0x1F DUP3 ADD PUSH1 0x1F NOT AND DUP2 ADD PUSH1 0x1 PUSH1 0x1 PUSH1 0x40 SHL SUB DUP2 GT DUP3 DUP3 LT OR ISZERO PUSH2 0x105E JUMPI PUSH2 0x105E PUSH2 0xEDB JUMP JUMPDEST PUSH1 0x40 MSTORE SWAP2 SWAP1 POP JUMP JUMPDEST PUSH1 0x0 PUSH1 0x1 PUSH1 0x1 PUSH1 0x40 SHL SUB DUP3 GT ISZERO PUSH2 0x107F JUMPI PUSH2 0x107F PUSH2 0xEDB JUMP JUMPDEST POP PUSH1 0x1F ADD PUSH1 0x1F NOT AND PUSH1 0x20 ADD SWAP1 JUMP JUMPDEST PUSH1 0x0 DUP3 PUSH1 0x1F DUP4 ADD SLT PUSH2 0x109E JUMPI PUSH1 0x0 DUP1 REVERT JUMPDEST DUP2 CALLDATALOAD PUSH2 0x10B1 PUSH2 0x10AC DUP3 PUSH2 0x1066 JUMP JUMPDEST PUSH2 0x1036 JUMP JUMPDEST DUP2 DUP2 MSTORE DUP5 PUSH1 0x20 DUP4 DUP7 ADD ADD GT ISZERO PUSH2 0x10C6 JUMPI PUSH1 0x0 DUP1 REVERT JUMPDEST DUP2 PUSH1 0x20 DUP6 ADD PUSH1 0x20 DUP4 ADD CALLDATACOPY PUSH1 0x0 SWAP2 DUP2 ADD PUSH1 0x20 ADD SWAP2 SWAP1 SWAP2 MSTORE SWAP4 SWAP3 POP POP POP JUMP JUMPDEST PUSH1 0x0 DUP3 PUSH1 0x1F DUP4 ADD SLT PUSH2 0x10F4 JUMPI PUSH1 0x0 DUP1 REVERT JUMPDEST DUP2 CALLDATALOAD PUSH1 0x20 PUSH1 0x1 PUSH1 0x1 PUSH1 0x40 SHL SUB DUP3 GT ISZERO PUSH2 0x110F JUMPI PUSH2 0x110F PUSH2 0xEDB JUMP JUMPDEST PUSH2 0x111D DUP2 DUP4 PUSH1 0x5 SHL ADD PUSH2 0x1036 JUMP JUMPDEST DUP3 DUP2 MSTORE PUSH1 0x6 SWAP3 SWAP1 SWAP3 SHL DUP5 ADD DUP2 ADD SWAP2 DUP2 DUP2 ADD SWAP1 DUP7 DUP5 GT ISZERO PUSH2 0x113C JUMPI PUSH1 0x0 DUP1 REVERT JUMPDEST DUP3 DUP7 ADD JUMPDEST DUP5 DUP2 LT ISZERO PUSH2 0x1184 JUMPI PUSH1 0x40 DUP2 DUP10 SUB SLT ISZERO PUSH2 0x1159 JUMPI PUSH1 0x0 DUP1 DUP2 REVERT JUMPDEST PUSH2 0x1161 PUSH2 0xFEC JUMP JUMPDEST DUP2 CALLDATALOAD PUSH2 0x116C DUP2 PUSH2 0xD78 JUMP JUMPDEST DUP2 MSTORE DUP2 DUP6 ADD CALLDATALOAD DUP6 DUP3 ADD MSTORE DUP4 MSTORE SWAP2 DUP4 ADD SWAP2 PUSH1 0x40 ADD PUSH2 0x1140 JUMP JUMPDEST POP SWAP7 SWAP6 POP POP POP POP POP POP JUMP JUMPDEST PUSH1 0x0 PUSH1 0xA0 DUP3 CALLDATASIZE SUB SLT ISZERO PUSH2 0x11A1 JUMPI PUSH1 0x0 DUP1 REVERT JUMPDEST PUSH2 0x11A9 PUSH2 0x1014 JUMP JUMPDEST DUP3 CALLDATALOAD DUP2 MSTORE PUSH2 0x11B9 PUSH1 0x20 DUP5 ADD PUSH2 0xD5C JUMP JUMPDEST PUSH1 0x20 DUP3 ADD MSTORE PUSH1 0x40 DUP4 ADD CALLDATALOAD PUSH1 0x1 PUSH1 0x1 PUSH1 0x40 SHL SUB DUP1 DUP3 GT ISZERO PUSH2 0x11D8 JUMPI PUSH1 0x0 DUP1 REVERT JUMPDEST PUSH2 0x11E4 CALLDATASIZE DUP4 DUP8 ADD PUSH2 0x108D JUMP JUMPDEST PUSH1 0x40 DUP5 ADD MSTORE PUSH1 0x60 DUP6 ADD CALLDATALOAD SWAP2 POP DUP1 DUP3 GT ISZERO PUSH2 0x11FD JUMPI PUSH1 0x0 DUP1 REVERT JUMPDEST PUSH2 0x1209 CALLDATASIZE DUP4 DUP8 ADD PUSH2 0x108D JUMP JUMPDEST PUSH1 0x60 DUP5 ADD MSTORE PUSH1 0x80 DUP6 ADD CALLDATALOAD SWAP2 POP DUP1 DUP3 GT ISZERO PUSH2 0x1222 JUMPI PUSH1 0x0 DUP1 REVERT JUMPDEST POP PUSH2 0x122F CALLDATASIZE DUP3 DUP7 ADD PUSH2 0x10E3 JUMP JUMPDEST PUSH1 0x80 DUP4 ADD MSTORE POP SWAP3 SWAP2 POP POP JUMP JUMPDEST PUSH4 0x4E487B71 PUSH1 0xE0 SHL PUSH1 0x0 MSTORE PUSH1 0x32 PUSH1 0x4 MSTORE PUSH1 0x24 PUSH1 0x0 REVERT JUMPDEST PUSH1 0x0 PUSH1 0x20 DUP3 DUP5 SUB SLT ISZERO PUSH2 0x1263 JUMPI PUSH1 0x0 DUP1 REVERT JUMPDEST DUP2 MLOAD PUSH1 0x1 PUSH1 0x1 PUSH1 0x40 SHL SUB DUP2 GT ISZERO PUSH2 0x1279 JUMPI PUSH1 0x0 DUP1 REVERT JUMPDEST DUP3 ADD PUSH1 0x1F DUP2 ADD DUP5 SGT PUSH2 0x128A JUMPI PUSH1 0x0 DUP1 REVERT JUMPDEST DUP1 MLOAD PUSH2 0x1298 PUSH2 0x10AC DUP3 PUSH2 0x1066 JUMP JUMPDEST DUP2 DUP2 MSTORE DUP6 PUSH1 0x20 DUP4 DUP6 ADD ADD GT ISZERO PUSH2 0x12AD JUMPI PUSH1 0x0 DUP1 REVERT JUMPDEST PUSH2 0x12BE DUP3 PUSH1 0x20 DUP4 ADD PUSH1 0x20 DUP7 ADD PUSH2 0xCF9 JUMP JUMPDEST SWAP6 SWAP5 POP POP POP POP POP JUMP JUMPDEST PUSH1 0x1F DUP3 GT ISZERO PUSH2 0x27E JUMPI PUSH1 0x0 DUP2 DUP2 MSTORE PUSH1 0x20 DUP2 KECCAK256 PUSH1 0x1F DUP6 ADD PUSH1 0x5 SHR DUP2 ADD PUSH1 0x20 DUP7 LT ISZERO PUSH2 0x12EE JUMPI POP DUP1 JUMPDEST PUSH1 0x1F DUP6 ADD PUSH1 0x5 SHR DUP3 ADD SWAP2 POP JUMPDEST DUP2 DUP2 LT ISZERO PUSH2 0xA04 JUMPI DUP3 DUP2 SSTORE PUSH1 0x1 ADD PUSH2 0x12FA JUMP JUMPDEST DUP2 MLOAD PUSH1 0x1 PUSH1 0x1 PUSH1 0x40 SHL SUB DUP2 GT ISZERO PUSH2 0x1326 JUMPI PUSH2 0x1326 PUSH2 0xEDB JUMP JUMPDEST PUSH2 0x133A DUP2 PUSH2 0x1334 DUP5 SLOAD PUSH2 0xE23 JUMP JUMPDEST DUP5 PUSH2 0x12C7 JUMP JUMPDEST PUSH1 0x20 DUP1 PUSH1 0x1F DUP4 GT PUSH1 0x1 DUP2 EQ PUSH2 0x136F JUMPI PUSH1 0x0 DUP5 ISZERO PUSH2 0x1357 JUMPI POP DUP6 DUP4 ADD MLOAD JUMPDEST PUSH1 0x0 NOT PUSH1 0x3 DUP7 SWAP1 SHL SHR NOT AND PUSH1 0x1 DUP6 SWAP1 SHL OR DUP6 SSTORE PUSH2 0xA04 JUMP JUMPDEST PUSH1 0x0 DUP6 DUP2 MSTORE PUSH1 0x20 DUP2 KECCAK256 PUSH1 0x1F NOT DUP7 AND SWAP2 JUMPDEST DUP3 DUP2 LT ISZERO PUSH2 0x139E JUMPI DUP9 DUP7 ADD MLOAD DUP3 SSTORE SWAP5 DUP5 ADD SWAP5 PUSH1 0x1 SWAP1 SWAP2 ADD SWAP1 DUP5 ADD PUSH2 0x137F JUMP JUMPDEST POP DUP6 DUP3 LT ISZERO PUSH2 0x13BC JUMPI DUP8 DUP6 ADD MLOAD PUSH1 0x0 NOT PUSH1 0x3 DUP9 SWAP1 SHL PUSH1 0xF8 AND SHR NOT AND DUP2 SSTORE JUMPDEST POP POP POP POP POP PUSH1 0x1 SWAP1 DUP2 SHL ADD SWAP1 SSTORE POP JUMP JUMPDEST PUSH1 0x0 PUSH1 0x20 DUP3 DUP5 SUB SLT ISZERO PUSH2 0x13DE JUMPI PUSH1 0x0 DUP1 REVERT JUMPDEST DUP2 MLOAD PUSH2 0xC74 DUP2 PUSH2 0xD78 JUMP JUMPDEST PUSH1 0x1 PUSH1 0x1 PUSH1 0xA0 SHL SUB DUP4 AND DUP2 MSTORE PUSH1 0x40 PUSH1 0x20 DUP3 ADD DUP2 SWAP1 MSTORE PUSH1 0x0 SWAP1 PUSH2 0xEBA SWAP1 DUP4 ADD DUP5 PUSH2 0xD1D JUMP INVALID LOG2 PUSH5 0x6970667358 0x22 SLT KECCAK256 PUSH6 0x95294E2150A3 ADD CALL CALLCODE 0xC4 0xCF GASLIMIT EXTCODECOPY PUSH2 0x9BA3 GAS 0xCC SHL SWAP10 0x1F 0xD9 0xE 0x5E 0xA5 0xED PUSH11 0x52441E1D64736F6C634300 ADDMOD SGT STOP CALLER "
				},
				"gasEstimates": {
					"creation": {
						"codeDepositCost": "1037400",
						"executionCost": "infinite",
						"totalCost": "infinite"
					},
					"external": {
						"acceptOwnership()": "52388",
						"ccipReceive((bytes32,uint64,bytes,bytes,(address,uint256)[]))": "infinite",
						"generateRandomNumber()": "infinite",
						"getRouter()": "infinite",
						"owner()": "2365",
						"rawFulfillRandomWords(uint256,uint256[])": "infinite",
						"s_lastReceivedMessageId()": "2361",
						"s_lastReceivedText()": "infinite",
						"s_vrfCoordinator()": "2359",
						"sendMessage(uint64,address,uint256)": "infinite",
						"setCoordinator(address)": "30017",
						"supportsInterface(bytes4)": "427",
						"transferOwnership(address)": "infinite"
					},
					"internal": {
						"_ccipReceive(struct Client.Any2EVMMessage memory)": "infinite",
						"fulfillRandomWords(uint256,uint256[] calldata)": "infinite"
					}
				},
				"methodIdentifiers": {
					"acceptOwnership()": "79ba5097",
					"ccipReceive((bytes32,uint64,bytes,bytes,(address,uint256)[]))": "85572ffb",
					"generateRandomNumber()": "773a1154",
					"getRouter()": "b0f479a1",
					"owner()": "8da5cb5b",
					"rawFulfillRandomWords(uint256,uint256[])": "1fe543e3",
					"s_lastReceivedMessageId()": "b5605b2e",
					"s_lastReceivedText()": "6812452e",
					"s_vrfCoordinator()": "9eccacf6",
					"sendMessage(uint64,address,uint256)": "7b2bf168",
					"setCoordinator(address)": "8ea98117",
					"supportsInterface(bytes4)": "01ffc9a7",
					"transferOwnership(address)": "f2fde38b"
				}
			},
			"storageLayout": {
				"storage": [
					{
						"astId": 176,
						"contract": "vrfGeneratorArbitrumSepolia_flattened.sol:vrfGeneratorArbitrumSepolia",
						"label": "s_owner",
						"offset": 0,
						"slot": "0",
						"type": "t_address"
					},
					{
						"astId": 178,
						"contract": "vrfGeneratorArbitrumSepolia_flattened.sol:vrfGeneratorArbitrumSepolia",
						"label": "s_pendingOwner",
						"offset": 0,
						"slot": "1",
						"type": "t_address"
					},
					{
						"astId": 373,
						"contract": "vrfGeneratorArbitrumSepolia_flattened.sol:vrfGeneratorArbitrumSepolia",
						"label": "s_vrfCoordinator",
						"offset": 0,
						"slot": "2",
						"type": "t_contract(IVRFCoordinatorV2Plus)142"
					},
					{
						"astId": 845,
						"contract": "vrfGeneratorArbitrumSepolia_flattened.sol:vrfGeneratorArbitrumSepolia",
						"label": "vrfCoordinatorArbitrumSepolia",
						"offset": 0,
						"slot": "3",
						"type": "t_address"
					},
					{
						"astId": 848,
						"contract": "vrfGeneratorArbitrumSepolia_flattened.sol:vrfGeneratorArbitrumSepolia",
						"label": "vrfV2KeyHash",
						"offset": 0,
						"slot": "4",
						"type": "t_bytes32"
					},
					{
						"astId": 860,
						"contract": "vrfGeneratorArbitrumSepolia_flattened.sol:vrfGeneratorArbitrumSepolia",
						"label": "s_lastReceivedMessageId",
						"offset": 0,
						"slot": "5",
						"type": "t_bytes32"
					},
					{
						"astId": 862,
						"contract": "vrfGeneratorArbitrumSepolia_flattened.sol:vrfGeneratorArbitrumSepolia",
						"label": "s_lastReceivedText",
						"offset": 0,
						"slot": "6",
						"type": "t_string_storage"
					},
					{
						"astId": 888,
						"contract": "vrfGeneratorArbitrumSepolia_flattened.sol:vrfGeneratorArbitrumSepolia",
						"label": "s_router",
						"offset": 0,
						"slot": "7",
						"type": "t_contract(IRouterClient)741"
					},
					{
						"astId": 894,
						"contract": "vrfGeneratorArbitrumSepolia_flattened.sol:vrfGeneratorArbitrumSepolia",
						"label": "s_linkToken",
						"offset": 0,
						"slot": "8",
						"type": "t_contract(LinkTokenInterface)835"
					}
				],
				"types": {
					"t_address": {
						"encoding": "inplace",
						"label": "address",
						"numberOfBytes": "20"
					},
					"t_bytes32": {
						"encoding": "inplace",
						"label": "bytes32",
						"numberOfBytes": "32"
					},
					"t_contract(IRouterClient)741": {
						"encoding": "inplace",
						"label": "contract IRouterClient",
						"numberOfBytes": "20"
					},
					"t_contract(IVRFCoordinatorV2Plus)142": {
						"encoding": "inplace",
						"label": "contract IVRFCoordinatorV2Plus",
						"numberOfBytes": "20"
					},
					"t_contract(LinkTokenInterface)835": {
						"encoding": "inplace",
						"label": "contract LinkTokenInterface",
						"numberOfBytes": "20"
					},
					"t_string_storage": {
						"encoding": "bytes",
						"label": "string",
						"numberOfBytes": "32"
					}
				}
			},
			"userdoc": {
				"kind": "user",
				"methods": {
					"acceptOwnership()": {
						"notice": "Allows an ownership transfer to be completed by the recipient."
					},
					"ccipReceive((bytes32,uint64,bytes,bytes,(address,uint256)[]))": {
						"notice": "Called by the Router to deliver a message. If this reverts, any token transfers also revert. The message will move to a FAILED state and become available for manual execution."
					},
					"getRouter()": {
						"notice": "Return the current router"
					},
					"owner()": {
						"notice": "Get the current owner"
					},
					"setCoordinator(address)": {
						"notice": "Sets the VRF Coordinator addressThis method should only be callable by the coordinator or contract owner"
					},
					"supportsInterface(bytes4)": {
						"notice": "IERC165 supports an interfaceId"
					},
					"transferOwnership(address)": {
						"notice": "Allows an owner to begin transferring ownership to a new address."
					}
				},
				"version": 1
			}
		}
	}
}