{
	"vrfReceiverCeloAlfajores.sol": {
		"vrfGeneratorCeloAlfajores": {
			"abi": [
				{
					"inputs": [],
					"stateMutability": "nonpayable",
					"type": "constructor"
				},
				{
					"inputs": [
						{
							"internalType": "address",
							"name": "router",
							"type": "address"
						}
					],
					"name": "InvalidRouter",
					"type": "error"
				},
				{
					"inputs": [
						{
							"internalType": "uint256",
							"name": "currentBalance",
							"type": "uint256"
						},
						{
							"internalType": "uint256",
							"name": "calculatedFees",
							"type": "uint256"
						}
					],
					"name": "NotEnoughBalance",
					"type": "error"
				},
				{
					"anonymous": false,
					"inputs": [
						{
							"indexed": true,
							"internalType": "bytes32",
							"name": "messageId",
							"type": "bytes32"
						},
						{
							"indexed": true,
							"internalType": "uint64",
							"name": "sourceChainSelector",
							"type": "uint64"
						},
						{
							"indexed": false,
							"internalType": "address",
							"name": "sender",
							"type": "address"
						},
						{
							"indexed": false,
							"internalType": "uint256",
							"name": "text",
							"type": "uint256"
						}
					],
					"name": "MessageReceived",
					"type": "event"
				},
				{
					"anonymous": false,
					"inputs": [
						{
							"indexed": true,
							"internalType": "bytes32",
							"name": "messageId",
							"type": "bytes32"
						},
						{
							"indexed": true,
							"internalType": "uint64",
							"name": "destinationChainSelector",
							"type": "uint64"
						},
						{
							"indexed": false,
							"internalType": "address",
							"name": "receiver",
							"type": "address"
						},
						{
							"indexed": false,
							"internalType": "string",
							"name": "message",
							"type": "string"
						},
						{
							"indexed": false,
							"internalType": "address",
							"name": "feeToken",
							"type": "address"
						},
						{
							"indexed": false,
							"internalType": "uint256",
							"name": "fees",
							"type": "uint256"
						}
					],
					"name": "MessageSent",
					"type": "event"
				},
				{
					"inputs": [
						{
							"components": [
								{
									"internalType": "bytes32",
									"name": "messageId",
									"type": "bytes32"
								},
								{
									"internalType": "uint64",
									"name": "sourceChainSelector",
									"type": "uint64"
								},
								{
									"internalType": "bytes",
									"name": "sender",
									"type": "bytes"
								},
								{
									"internalType": "bytes",
									"name": "data",
									"type": "bytes"
								},
								{
									"components": [
										{
											"internalType": "address",
											"name": "token",
											"type": "address"
										},
										{
											"internalType": "uint256",
											"name": "amount",
											"type": "uint256"
										}
									],
									"internalType": "struct Client.EVMTokenAmount[]",
									"name": "destTokenAmounts",
									"type": "tuple[]"
								}
							],
							"internalType": "struct Client.Any2EVMMessage",
							"name": "message",
							"type": "tuple"
						}
					],
					"name": "ccipReceive",
					"outputs": [],
					"stateMutability": "nonpayable",
					"type": "function"
				},
				{
					"inputs": [],
					"name": "getRouter",
					"outputs": [
						{
							"internalType": "address",
							"name": "",
							"type": "address"
						}
					],
					"stateMutability": "view",
					"type": "function"
				},
				{
					"inputs": [
						{
							"internalType": "address",
							"name": "receiver",
							"type": "address"
						}
					],
					"name": "sendMessage",
					"outputs": [
						{
							"internalType": "bytes32",
							"name": "messageId",
							"type": "bytes32"
						}
					],
					"stateMutability": "nonpayable",
					"type": "function"
				},
				{
					"inputs": [
						{
							"internalType": "bytes4",
							"name": "interfaceId",
							"type": "bytes4"
						}
					],
					"name": "supportsInterface",
					"outputs": [
						{
							"internalType": "bool",
							"name": "",
							"type": "bool"
						}
					],
					"stateMutability": "pure",
					"type": "function"
				}
			],
			"devdoc": {
				"kind": "dev",
				"methods": {
					"ccipReceive((bytes32,uint64,bytes,bytes,(address,uint256)[]))": {
						"details": "Note ensure you check the msg.sender is the OffRampRouter",
						"params": {
							"message": "CCIP Message"
						}
					},
					"getRouter()": {
						"returns": {
							"_0": "CCIP router address"
						}
					},
					"supportsInterface(bytes4)": {
						"details": "Should indicate whether the contract implements IAny2EVMMessageReceiver e.g. return interfaceId == type(IAny2EVMMessageReceiver).interfaceId || interfaceId == type(IERC165).interfaceId This allows CCIP to check if ccipReceive is available before calling it. If this returns false or reverts, only tokens are transferred to the receiver. If this returns true, tokens are transferred and ccipReceive is called atomically. Additionally, if the receiver address does not have code associated with it at the time of execution (EXTCODESIZE returns 0), only tokens will be transferred.",
						"params": {
							"interfaceId": "The interfaceId to check"
						},
						"returns": {
							"_0": "true if the interfaceId is supported"
						}
					}
				},
				"version": 1
			},
			"evm": {
				"assembly": "    /* \"vrfReceiverCeloAlfajores.sol\":679:4720  contract vrfGeneratorCeloAlfajores is CCIPReceiver {... */\n  mstore(0x40, 0xa0)\n    /* \"vrfReceiverCeloAlfajores.sol\":1985:2249  constructor() CCIPReceiver(0xb00E95b773528E2Ea724DB06B75113F239D15Dca) {... */\n  callvalue\n  dup1\n  iszero\n  tag_1\n  jumpi\n  0x00\n  dup1\n  revert\ntag_1:\n  pop\n    /* \"vrfReceiverCeloAlfajores.sol\":2012:2054  0xb00E95b773528E2Ea724DB06B75113F239D15Dca */\n  0xb00e95b773528e2ea724db06b75113f239d15dca\n  sub(shl(0xa0, 0x01), 0x01)\n    /* \"@chainlink/contracts-ccip@1.4.0/src/v0.8/ccip/applications/CCIPReceiver.sol\":602:623  i_ccipRouter = router */\n  and\n  0x80\n  mstore\n    /* \"vrfReceiverCeloAlfajores.sol\":2066:2074  s_router */\n  0x02\n    /* \"vrfReceiverCeloAlfajores.sol\":2066:2134  s_router = IRouterClient(0xb00E95b773528E2Ea724DB06B75113F239D15Dca) */\n  dup1\n  sload\n  not(sub(shl(0xa0, 0x01), 0x01))\n  swap1\n  dup2\n  and\n    /* \"vrfReceiverCeloAlfajores.sol\":2091:2133  0xb00E95b773528E2Ea724DB06B75113F239D15Dca */\n  0xb00e95b773528e2ea724db06b75113f239d15dca\n    /* \"vrfReceiverCeloAlfajores.sol\":2066:2134  s_router = IRouterClient(0xb00E95b773528E2Ea724DB06B75113F239D15Dca) */\n  or\n  swap1\n  swap2\n  sstore\n    /* \"vrfReceiverCeloAlfajores.sol\":2144:2155  s_linkToken */\n  0x03\n    /* \"vrfReceiverCeloAlfajores.sol\":2144:2242  s_linkToken = LinkTokenInterface(... */\n  dup1\n  sload\n  swap1\n  swap2\n  and\n    /* \"vrfReceiverCeloAlfajores.sol\":2190:2232  0x32E08557B14FaD8908025619797221281D439071 */\n  0x32e08557b14fad8908025619797221281d439071\n    /* \"vrfReceiverCeloAlfajores.sol\":2144:2242  s_linkToken = LinkTokenInterface(... */\n  or\n  swap1\n  sstore\n    /* \"vrfReceiverCeloAlfajores.sol\":679:4720  contract vrfGeneratorCeloAlfajores is CCIPReceiver {... */\n  mload(0x80)\n  codecopy(0x00, dataOffset(sub_0), dataSize(sub_0))\n  0x00\n  assignImmutable(\"0x5c4c6aa067b6f8e6cb38e6ab843832a94d1712d661a04d73c517d6a1931a9e5d\")\n  return(0x00, dataSize(sub_0))\nstop\n\nsub_0: assembly {\n        /* \"vrfReceiverCeloAlfajores.sol\":679:4720  contract vrfGeneratorCeloAlfajores is CCIPReceiver {... */\n      mstore(0x40, 0x80)\n      callvalue\n      dup1\n      iszero\n      tag_1\n      jumpi\n      0x00\n      dup1\n      revert\n    tag_1:\n      pop\n      jumpi(tag_2, lt(calldatasize, 0x04))\n      shr(0xe0, calldataload(0x00))\n      dup1\n      0x01ffc9a7\n      eq\n      tag_3\n      jumpi\n      dup1\n      0x3b7c4b93\n      eq\n      tag_4\n      jumpi\n      dup1\n      0x85572ffb\n      eq\n      tag_5\n      jumpi\n      dup1\n      0xb0f479a1\n      eq\n      tag_6\n      jumpi\n    tag_2:\n      0x00\n      dup1\n      revert\n        /* \"@chainlink/contracts-ccip@1.4.0/src/v0.8/ccip/applications/CCIPReceiver.sol\":1405:1614  function supportsInterface(bytes4 interfaceId) public pure virtual override returns (bool) {... */\n    tag_3:\n      tag_7\n      tag_8\n      calldatasize\n      0x04\n      tag_9\n      jump\t// in\n    tag_8:\n      tag_10\n      jump\t// in\n    tag_7:\n      mload(0x40)\n        /* \"#utility.yul\":470:484   */\n      swap1\n      iszero\n        /* \"#utility.yul\":463:485   */\n      iszero\n        /* \"#utility.yul\":445:486   */\n      dup2\n      mstore\n        /* \"#utility.yul\":433:435   */\n      0x20\n        /* \"#utility.yul\":418:436   */\n      add\n        /* \"@chainlink/contracts-ccip@1.4.0/src/v0.8/ccip/applications/CCIPReceiver.sol\":1405:1614  function supportsInterface(bytes4 interfaceId) public pure virtual override returns (bool) {... */\n    tag_11:\n      mload(0x40)\n      dup1\n      swap2\n      sub\n      swap1\n      return\n        /* \"vrfReceiverCeloAlfajores.sol\":2861:4718  function sendMessage(address receiver) public returns (bytes32 messageId) {... */\n    tag_4:\n      tag_13\n      tag_14\n      calldatasize\n      0x04\n      tag_15\n      jump\t// in\n    tag_14:\n      tag_16\n      jump\t// in\n    tag_13:\n      mload(0x40)\n        /* \"#utility.yul\":1031:1056   */\n      swap1\n      dup2\n      mstore\n        /* \"#utility.yul\":1019:1021   */\n      0x20\n        /* \"#utility.yul\":1004:1022   */\n      add\n        /* \"vrfReceiverCeloAlfajores.sol\":2861:4718  function sendMessage(address receiver) public returns (bytes32 messageId) {... */\n      tag_11\n        /* \"#utility.yul\":885:1062   */\n      jump\n        /* \"@chainlink/contracts-ccip@1.4.0/src/v0.8/ccip/applications/CCIPReceiver.sol\":1660:1790  function ccipReceive(Client.Any2EVMMessage calldata message) external virtual override onlyRouter {... */\n    tag_5:\n      tag_19\n      tag_20\n      calldatasize\n      0x04\n      tag_21\n      jump\t// in\n    tag_20:\n      tag_22\n      jump\t// in\n    tag_19:\n      stop\n        /* \"@chainlink/contracts-ccip@1.4.0/src/v0.8/ccip/applications/CCIPReceiver.sol\":2205:2295  function getRouter() public view returns (address) {... */\n    tag_6:\n      mload(0x40)\n      sub(shl(0xa0, 0x01), 0x01)\n        /* \"@chainlink/contracts-ccip@1.4.0/src/v0.8/ccip/applications/CCIPReceiver.sol\":2277:2289  i_ccipRouter */\n      immutable(\"0x5c4c6aa067b6f8e6cb38e6ab843832a94d1712d661a04d73c517d6a1931a9e5d\")\n        /* \"#utility.yul\":1738:1770   */\n      and\n        /* \"#utility.yul\":1720:1771   */\n      dup2\n      mstore\n        /* \"#utility.yul\":1708:1710   */\n      0x20\n        /* \"#utility.yul\":1693:1711   */\n      add\n        /* \"@chainlink/contracts-ccip@1.4.0/src/v0.8/ccip/applications/CCIPReceiver.sol\":2205:2295  function getRouter() public view returns (address) {... */\n      tag_11\n        /* \"#utility.yul\":1574:1777   */\n      jump\n        /* \"@chainlink/contracts-ccip@1.4.0/src/v0.8/ccip/applications/CCIPReceiver.sol\":1405:1614  function supportsInterface(bytes4 interfaceId) public pure virtual override returns (bool) {... */\n    tag_10:\n        /* \"@chainlink/contracts-ccip@1.4.0/src/v0.8/ccip/applications/CCIPReceiver.sol\":1490:1494  bool */\n      0x00\n      not(sub(shl(0xe0, 0x01), 0x01))\n        /* \"@chainlink/contracts-ccip@1.4.0/src/v0.8/ccip/applications/CCIPReceiver.sol\":1509:1565  interfaceId == type(IAny2EVMMessageReceiver).interfaceId */\n      dup3\n      and\n      shl(0xe0, 0x85572ffb)\n      eq\n      dup1\n        /* \"@chainlink/contracts-ccip@1.4.0/src/v0.8/ccip/applications/CCIPReceiver.sol\":1509:1609  interfaceId == type(IAny2EVMMessageReceiver).interfaceId || interfaceId == type(IERC165).interfaceId */\n      tag_28\n      jumpi\n      pop\n      not(sub(shl(0xe0, 0x01), 0x01))\n        /* \"@chainlink/contracts-ccip@1.4.0/src/v0.8/ccip/applications/CCIPReceiver.sol\":1569:1609  interfaceId == type(IERC165).interfaceId */\n      dup3\n      and\n      shl(0xe0, 0x01ffc9a7)\n      eq\n        /* \"@chainlink/contracts-ccip@1.4.0/src/v0.8/ccip/applications/CCIPReceiver.sol\":1509:1609  interfaceId == type(IAny2EVMMessageReceiver).interfaceId || interfaceId == type(IERC165).interfaceId */\n    tag_28:\n        /* \"@chainlink/contracts-ccip@1.4.0/src/v0.8/ccip/applications/CCIPReceiver.sol\":1502:1609  return interfaceId == type(IAny2EVMMessageReceiver).interfaceId || interfaceId == type(IERC165).interfaceId */\n      swap3\n        /* \"@chainlink/contracts-ccip@1.4.0/src/v0.8/ccip/applications/CCIPReceiver.sol\":1405:1614  function supportsInterface(bytes4 interfaceId) public pure virtual override returns (bool) {... */\n      swap2\n      pop\n      pop\n      jump\t// out\n        /* \"vrfReceiverCeloAlfajores.sol\":2861:4718  function sendMessage(address receiver) public returns (bytes32 messageId) {... */\n    tag_16:\n        /* \"vrfReceiverCeloAlfajores.sol\":3168:3764  Client.EVM2AnyMessage({... */\n      0x40\n      dup1\n      mload\n      0xa0\n      dup2\n      add\n      swap1\n      swap2\n      mstore\n      sub(shl(0xa0, 0x01), 0x01)\n        /* \"#utility.yul\":1738:1770   */\n      dup3\n      and\n        /* \"vrfReceiverCeloAlfajores.sol\":3214:3234  abi.encode(receiver) */\n      0xc0\n      dup3\n      add\n        /* \"#utility.yul\":1720:1771   */\n      mstore\n      0x00\n      swap1\n        /* \"vrfReceiverCeloAlfajores.sol\":2979:2998  3478487238524512106 */\n      0x304611b6affba76a\n      swap1\n      dup3\n      swap1\n        /* \"vrfReceiverCeloAlfajores.sol\":3168:3764  Client.EVM2AnyMessage({... */\n      dup1\n        /* \"#utility.yul\":1693:1711   */\n      0xe0\n      dup2\n      add\n        /* \"vrfReceiverCeloAlfajores.sol\":3214:3234  abi.encode(receiver) */\n      mload(0x40)\n      0x20\n      dup2\n      dup4\n      sub\n      sub\n      dup2\n      mstore\n      swap1\n      0x40\n      mstore\n        /* \"vrfReceiverCeloAlfajores.sol\":3168:3764  Client.EVM2AnyMessage({... */\n      dup2\n      mstore\n      0x20\n      add\n        /* \"vrfReceiverCeloAlfajores.sol\":3286:3320  abi.encode(\"generateRandomNumber\") */\n      add(0x20, mload(0x40))\n      tag_31\n      swap1\n      tag_32\n      jump\t// in\n    tag_31:\n      0x40\n      dup1\n      mload\n      not(0x1f)\n      dup2\n      dup5\n      sub\n      add\n      dup2\n      mstore\n      swap2\n      swap1\n      mstore\n        /* \"vrfReceiverCeloAlfajores.sol\":3168:3764  Client.EVM2AnyMessage({... */\n      dup2\n      mstore\n        /* \"vrfReceiverCeloAlfajores.sol\":3286:3320  abi.encode(\"generateRandomNumber\") */\n      0x20\n        /* \"vrfReceiverCeloAlfajores.sol\":3168:3764  Client.EVM2AnyMessage({... */\n      add\n        /* \"vrfReceiverCeloAlfajores.sol\":3399:3400  0 */\n      0x00\n        /* \"vrfReceiverCeloAlfajores.sol\":3371:3401  new Client.EVMTokenAmount[](0) */\n      mload(0x40)\n      swap1\n      dup1\n      dup3\n      mstore\n      dup1\n      0x20\n      mul\n      0x20\n      add\n      dup3\n      add\n      0x40\n      mstore\n      dup1\n      iszero\n      tag_36\n      jumpi\n      dup2\n      0x20\n      add\n    tag_37:\n      0x40\n      dup1\n      mload\n      dup1\n      dup3\n      add\n      swap1\n      swap2\n      mstore\n      0x00\n      dup1\n      dup3\n      mstore\n      0x20\n      dup3\n      add\n      mstore\n      dup2\n      mstore\n      0x20\n      add\n      swap1\n      0x01\n      swap1\n      sub\n      swap1\n      dup2\n      tag_37\n      jumpi\n      swap1\n      pop\n    tag_36:\n      pop\n        /* \"vrfReceiverCeloAlfajores.sol\":3168:3764  Client.EVM2AnyMessage({... */\n      dup2\n      mstore\n        /* \"vrfReceiverCeloAlfajores.sol\":3741:3752  s_linkToken */\n      and(sub(shl(0xa0, 0x01), 0x01), sload(0x03))\n        /* \"vrfReceiverCeloAlfajores.sol\":3168:3764  Client.EVM2AnyMessage({... */\n      0x20\n      dup1\n      dup4\n      add\n      swap2\n      swap1\n      swap2\n      mstore\n      0x40\n        /* \"vrfReceiverCeloAlfajores.sol\":3573:3615  Client.EVMExtraArgsV1({gasLimit: 200_000}) */\n      dup1\n      mload\n      dup1\n      dup4\n      add\n      dup3\n      mstore\n        /* \"vrfReceiverCeloAlfajores.sol\":3606:3613  200_000 */\n      0x030d40\n        /* \"vrfReceiverCeloAlfajores.sol\":3573:3615  Client.EVMExtraArgsV1({gasLimit: 200_000}) */\n      swap1\n      dup2\n      swap1\n      mstore\n        /* \"@chainlink/contracts-ccip@1.4.0/src/v0.8/ccip/libraries/Client.sol\":1394:1450  abi.encodeWithSelector(EVM_EXTRA_ARGS_V1_TAG, extraArgs) */\n      dup2\n      mload\n      0x24\n      dup1\n      dup3\n      add\n        /* \"#utility.yul\":9955:9987   */\n      swap3\n      swap1\n      swap3\n      mstore\n        /* \"@chainlink/contracts-ccip@1.4.0/src/v0.8/ccip/libraries/Client.sol\":1394:1450  abi.encodeWithSelector(EVM_EXTRA_ARGS_V1_TAG, extraArgs) */\n      dup3\n      mload\n      dup1\n      dup3\n      sub\n      swap1\n      swap3\n      add\n      dup3\n      mstore\n        /* \"#utility.yul\":9928:9946   */\n      0x44\n      add\n        /* \"@chainlink/contracts-ccip@1.4.0/src/v0.8/ccip/libraries/Client.sol\":1394:1450  abi.encodeWithSelector(EVM_EXTRA_ARGS_V1_TAG, extraArgs) */\n      dup3\n      mstore\n      swap2\n      dup3\n      add\n      dup1\n      mload\n      sub(shl(0xe0, 0x01), 0x01)\n      and\n      shl(0xe0, 0x97a657c9)\n      or\n      swap1\n      mstore\n        /* \"vrfReceiverCeloAlfajores.sol\":3168:3764  Client.EVM2AnyMessage({... */\n      swap1\n      swap2\n      add\n      mstore\n        /* \"vrfReceiverCeloAlfajores.sol\":3842:3850  s_router */\n      sload(0x02)\n        /* \"vrfReceiverCeloAlfajores.sol\":3842:3933  s_router.getFee(... */\n      mload(0x40)\n      shl(0xe0, 0x20487ded)\n      dup2\n      mstore\n        /* \"vrfReceiverCeloAlfajores.sol\":3122:3764  Client.EVM2AnyMessage memory evm2AnyMessage = Client.EVM2AnyMessage({... */\n      swap2\n      swap3\n      pop\n        /* \"vrfReceiverCeloAlfajores.sol\":3827:3839  uint256 fees */\n      0x00\n      swap2\n      sub(shl(0xa0, 0x01), 0x01)\n        /* \"vrfReceiverCeloAlfajores.sol\":3842:3850  s_router */\n      swap1\n      swap2\n      and\n      swap1\n        /* \"vrfReceiverCeloAlfajores.sol\":3842:3857  s_router.getFee */\n      0x20487ded\n      swap1\n        /* \"vrfReceiverCeloAlfajores.sol\":3842:3933  s_router.getFee(... */\n      tag_42\n      swap1\n        /* \"vrfReceiverCeloAlfajores.sol\":3871:3895  destinationChainSelector */\n      dup7\n      swap1\n        /* \"vrfReceiverCeloAlfajores.sol\":3122:3764  Client.EVM2AnyMessage memory evm2AnyMessage = Client.EVM2AnyMessage({... */\n      dup7\n      swap1\n        /* \"vrfReceiverCeloAlfajores.sol\":3842:3933  s_router.getFee(... */\n      0x04\n      add\n      tag_43\n      jump\t// in\n    tag_42:\n      0x20\n      mload(0x40)\n      dup1\n      dup4\n      sub\n      dup2\n      dup7\n      gas\n      staticcall\n      iszero\n      dup1\n      iszero\n      tag_45\n      jumpi\n      returndatasize\n      0x00\n      dup1\n      returndatacopy\n      revert(0x00, returndatasize)\n    tag_45:\n      pop\n      pop\n      pop\n      pop\n      mload(0x40)\n      returndatasize\n      not(0x1f)\n      0x1f\n      dup3\n      add\n      and\n      dup3\n      add\n      dup1\n      0x40\n      mstore\n      pop\n      dup2\n      add\n      swap1\n      tag_46\n      swap2\n      swap1\n      tag_47\n      jump\t// in\n    tag_46:\n        /* \"vrfReceiverCeloAlfajores.sol\":3955:3966  s_linkToken */\n      sload(0x03)\n        /* \"vrfReceiverCeloAlfajores.sol\":3955:3991  s_linkToken.balanceOf(address(this)) */\n      mload(0x40)\n      shl(0xe0, 0x70a08231)\n      dup2\n      mstore\n        /* \"vrfReceiverCeloAlfajores.sol\":3985:3989  this */\n      address\n        /* \"vrfReceiverCeloAlfajores.sol\":3955:3991  s_linkToken.balanceOf(address(this)) */\n      0x04\n      dup3\n      add\n        /* \"#utility.yul\":1720:1771   */\n      mstore\n        /* \"vrfReceiverCeloAlfajores.sol\":3827:3933  uint256 fees = s_router.getFee(... */\n      swap2\n      swap3\n      pop\n      sub(shl(0xa0, 0x01), 0x01)\n        /* \"vrfReceiverCeloAlfajores.sol\":3955:3966  s_linkToken */\n      and\n      swap1\n        /* \"vrfReceiverCeloAlfajores.sol\":3955:3976  s_linkToken.balanceOf */\n      0x70a08231\n      swap1\n        /* \"#utility.yul\":1693:1711   */\n      0x24\n      add\n        /* \"vrfReceiverCeloAlfajores.sol\":3955:3991  s_linkToken.balanceOf(address(this)) */\n      0x20\n      mload(0x40)\n      dup1\n      dup4\n      sub\n      dup2\n      dup7\n      gas\n      staticcall\n      iszero\n      dup1\n      iszero\n      tag_50\n      jumpi\n      returndatasize\n      0x00\n      dup1\n      returndatacopy\n      revert(0x00, returndatasize)\n    tag_50:\n      pop\n      pop\n      pop\n      pop\n      mload(0x40)\n      returndatasize\n      not(0x1f)\n      0x1f\n      dup3\n      add\n      and\n      dup3\n      add\n      dup1\n      0x40\n      mstore\n      pop\n      dup2\n      add\n      swap1\n      tag_51\n      swap2\n      swap1\n      tag_47\n      jump\t// in\n    tag_51:\n        /* \"vrfReceiverCeloAlfajores.sol\":3948:3952  fees */\n      dup2\n        /* \"vrfReceiverCeloAlfajores.sol\":3948:3991  fees > s_linkToken.balanceOf(address(this)) */\n      gt\n        /* \"vrfReceiverCeloAlfajores.sol\":3944:4072  if (fees > s_linkToken.balanceOf(address(this)))... */\n      iszero\n      tag_52\n      jumpi\n        /* \"vrfReceiverCeloAlfajores.sol\":4029:4040  s_linkToken */\n      sload(0x03)\n        /* \"vrfReceiverCeloAlfajores.sol\":4029:4065  s_linkToken.balanceOf(address(this)) */\n      mload(0x40)\n      shl(0xe0, 0x70a08231)\n      dup2\n      mstore\n        /* \"vrfReceiverCeloAlfajores.sol\":4059:4063  this */\n      address\n        /* \"vrfReceiverCeloAlfajores.sol\":4029:4065  s_linkToken.balanceOf(address(this)) */\n      0x04\n      dup3\n      add\n        /* \"#utility.yul\":1720:1771   */\n      mstore\n      sub(shl(0xa0, 0x01), 0x01)\n        /* \"vrfReceiverCeloAlfajores.sol\":4029:4040  s_linkToken */\n      swap1\n      swap2\n      and\n      swap1\n        /* \"vrfReceiverCeloAlfajores.sol\":4029:4050  s_linkToken.balanceOf */\n      0x70a08231\n      swap1\n        /* \"#utility.yul\":1693:1711   */\n      0x24\n      add\n        /* \"vrfReceiverCeloAlfajores.sol\":4029:4065  s_linkToken.balanceOf(address(this)) */\n      0x20\n      mload(0x40)\n      dup1\n      dup4\n      sub\n      dup2\n      dup7\n      gas\n      staticcall\n      iszero\n      dup1\n      iszero\n      tag_55\n      jumpi\n      returndatasize\n      0x00\n      dup1\n      returndatacopy\n      revert(0x00, returndatasize)\n    tag_55:\n      pop\n      pop\n      pop\n      pop\n      mload(0x40)\n      returndatasize\n      not(0x1f)\n      0x1f\n      dup3\n      add\n      and\n      dup3\n      add\n      dup1\n      0x40\n      mstore\n      pop\n      dup2\n      add\n      swap1\n      tag_56\n      swap2\n      swap1\n      tag_47\n      jump\t// in\n    tag_56:\n        /* \"vrfReceiverCeloAlfajores.sol\":4012:4072  NotEnoughBalance(s_linkToken.balanceOf(address(this)), fees) */\n      mload(0x40)\n      shl(0xe1, 0x4787a103)\n      dup2\n      mstore\n      0x04\n      dup2\n      add\n        /* \"#utility.yul\":4768:4793   */\n      swap2\n      swap1\n      swap2\n      mstore\n        /* \"#utility.yul\":4809:4827   */\n      0x24\n      dup2\n      add\n        /* \"#utility.yul\":4802:4836   */\n      dup3\n      swap1\n      mstore\n        /* \"#utility.yul\":4741:4759   */\n      0x44\n      add\n        /* \"vrfReceiverCeloAlfajores.sol\":4012:4072  NotEnoughBalance(s_linkToken.balanceOf(address(this)), fees) */\n    tag_57:\n      mload(0x40)\n      dup1\n      swap2\n      sub\n      swap1\n      revert\n        /* \"vrfReceiverCeloAlfajores.sol\":3944:4072  if (fees > s_linkToken.balanceOf(address(this)))... */\n    tag_52:\n        /* \"vrfReceiverCeloAlfajores.sol\":4190:4201  s_linkToken */\n      sload(0x03)\n        /* \"vrfReceiverCeloAlfajores.sol\":4218:4226  s_router */\n      sload(0x02)\n        /* \"vrfReceiverCeloAlfajores.sol\":4190:4234  s_linkToken.approve(address(s_router), fees) */\n      mload(0x40)\n      shl(0xe0, 0x095ea7b3)\n      dup2\n      mstore\n      sub(shl(0xa0, 0x01), 0x01)\n        /* \"vrfReceiverCeloAlfajores.sol\":4218:4226  s_router */\n      swap2\n      dup3\n      and\n        /* \"vrfReceiverCeloAlfajores.sol\":4190:4234  s_linkToken.approve(address(s_router), fees) */\n      0x04\n      dup3\n      add\n        /* \"#utility.yul\":5021:5072   */\n      mstore\n        /* \"#utility.yul\":5088:5106   */\n      0x24\n      dup2\n      add\n        /* \"#utility.yul\":5081:5115   */\n      dup5\n      swap1\n      mstore\n        /* \"vrfReceiverCeloAlfajores.sol\":4190:4201  s_linkToken */\n      swap2\n      and\n      swap1\n        /* \"vrfReceiverCeloAlfajores.sol\":4190:4209  s_linkToken.approve */\n      0x095ea7b3\n      swap1\n        /* \"#utility.yul\":4994:5012   */\n      0x44\n      add\n        /* \"vrfReceiverCeloAlfajores.sol\":4190:4234  s_linkToken.approve(address(s_router), fees) */\n      0x20\n      mload(0x40)\n      dup1\n      dup4\n      sub\n      dup2\n      0x00\n      dup8\n      gas\n      call\n      iszero\n      dup1\n      iszero\n      tag_62\n      jumpi\n      returndatasize\n      0x00\n      dup1\n      returndatacopy\n      revert(0x00, returndatasize)\n    tag_62:\n      pop\n      pop\n      pop\n      pop\n      mload(0x40)\n      returndatasize\n      not(0x1f)\n      0x1f\n      dup3\n      add\n      and\n      dup3\n      add\n      dup1\n      0x40\n      mstore\n      pop\n      dup2\n      add\n      swap1\n      tag_63\n      swap2\n      swap1\n      tag_64\n      jump\t// in\n    tag_63:\n      pop\n        /* \"vrfReceiverCeloAlfajores.sol\":4338:4346  s_router */\n      sload(0x02)\n        /* \"vrfReceiverCeloAlfajores.sol\":4338:4397  s_router.ccipSend(destinationChainSelector, evm2AnyMessage) */\n      mload(0x40)\n      shl(0xe0, 0x96f4e9f9)\n      dup2\n      mstore\n      sub(shl(0xa0, 0x01), 0x01)\n        /* \"vrfReceiverCeloAlfajores.sol\":4338:4346  s_router */\n      swap1\n      swap2\n      and\n      swap1\n        /* \"vrfReceiverCeloAlfajores.sol\":4338:4355  s_router.ccipSend */\n      0x96f4e9f9\n      swap1\n        /* \"vrfReceiverCeloAlfajores.sol\":4338:4397  s_router.ccipSend(destinationChainSelector, evm2AnyMessage) */\n      tag_65\n      swap1\n        /* \"vrfReceiverCeloAlfajores.sol\":4356:4380  destinationChainSelector */\n      dup7\n      swap1\n        /* \"vrfReceiverCeloAlfajores.sol\":4382:4396  evm2AnyMessage */\n      dup7\n      swap1\n        /* \"vrfReceiverCeloAlfajores.sol\":4338:4397  s_router.ccipSend(destinationChainSelector, evm2AnyMessage) */\n      0x04\n      add\n      tag_43\n      jump\t// in\n    tag_65:\n      0x20\n      mload(0x40)\n      dup1\n      dup4\n      sub\n      dup2\n      0x00\n      dup8\n      gas\n      call\n      iszero\n      dup1\n      iszero\n      tag_67\n      jumpi\n      returndatasize\n      0x00\n      dup1\n      returndatacopy\n      revert(0x00, returndatasize)\n    tag_67:\n      pop\n      pop\n      pop\n      pop\n      mload(0x40)\n      returndatasize\n      not(0x1f)\n      0x1f\n      dup3\n      add\n      and\n      dup3\n      add\n      dup1\n      0x40\n      mstore\n      pop\n      dup2\n      add\n      swap1\n      tag_68\n      swap2\n      swap1\n      tag_47\n      jump\t// in\n    tag_68:\n        /* \"vrfReceiverCeloAlfajores.sol\":4611:4622  s_linkToken */\n      sload(0x03)\n        /* \"vrfReceiverCeloAlfajores.sol\":4459:4651  MessageSent(... */\n      0x40\n      dup1\n      mload\n      sub(shl(0xa0, 0x01), 0x01)\n        /* \"#utility.yul\":5921:5936   */\n      dup1\n      dup11\n      and\n        /* \"#utility.yul\":5903:5937   */\n      dup3\n      mstore\n        /* \"#utility.yul\":5973:5976   */\n      0x80\n        /* \"#utility.yul\":5968:5970   */\n      0x20\n        /* \"#utility.yul\":5953:5971   */\n      dup4\n      add\n        /* \"#utility.yul\":5946:5977   */\n      dup2\n      swap1\n      mstore\n        /* \"#utility.yul\":1859:1861   */\n      0x14\n        /* \"#utility.yul\":6024:6043   */\n      swap1\n      dup4\n      add\n        /* \"#utility.yul\":1847:1862   */\n      mstore\n      shl(0x61, 0x33b2b732b930ba32a930b73237b6a73ab6b132b9)\n        /* \"#utility.yul\":5883:5886   */\n      0xa0\n        /* \"#utility.yul\":1878:1892   */\n      dup4\n      add\n        /* \"#utility.yul\":1871:1917   */\n      mstore\n        /* \"vrfReceiverCeloAlfajores.sol\":4611:4622  s_linkToken */\n      swap1\n      swap3\n      and\n        /* \"#utility.yul\":6060:6078   */\n      swap1\n      dup3\n      add\n        /* \"#utility.yul\":6053:6096   */\n      mstore\n      0x60\n        /* \"#utility.yul\":6112:6130   */\n      dup2\n      add\n        /* \"#utility.yul\":6105:6139   */\n      dup4\n      swap1\n      mstore\n        /* \"vrfReceiverCeloAlfajores.sol\":4326:4397  messageId = s_router.ccipSend(destinationChainSelector, evm2AnyMessage) */\n      swap1\n      swap5\n      pop\n        /* \"vrfReceiverCeloAlfajores.sol\":4459:4651  MessageSent(... */\n      0xffffffffffffffff\n      dup5\n      and\n      swap1\n        /* \"vrfReceiverCeloAlfajores.sol\":4326:4397  messageId = s_router.ccipSend(destinationChainSelector, evm2AnyMessage) */\n      dup6\n      swap1\n        /* \"vrfReceiverCeloAlfajores.sol\":4459:4651  MessageSent(... */\n      0xd36445359b3c6e26c120659aef090ce0f2eb005cf9af450d11aa1225609b4f4d\n      swap1\n        /* \"#utility.yul\":1933:1945   */\n      0xc0\n      add\n        /* \"vrfReceiverCeloAlfajores.sol\":4459:4651  MessageSent(... */\n      mload(0x40)\n      dup1\n      swap2\n      sub\n      swap1\n      log3\n        /* \"vrfReceiverCeloAlfajores.sol\":4695:4711  return messageId */\n      pop\n      pop\n      pop\n        /* \"vrfReceiverCeloAlfajores.sol\":2861:4718  function sendMessage(address receiver) public returns (bytes32 messageId) {... */\n      swap2\n      swap1\n      pop\n      jump\t// out\n        /* \"@chainlink/contracts-ccip@1.4.0/src/v0.8/ccip/applications/CCIPReceiver.sol\":1660:1790  function ccipReceive(Client.Any2EVMMessage calldata message) external virtual override onlyRouter {... */\n    tag_22:\n        /* \"@chainlink/contracts-ccip@1.4.0/src/v0.8/ccip/applications/CCIPReceiver.sol\":2427:2437  msg.sender */\n      caller\n      sub(shl(0xa0, 0x01), 0x01)\n        /* \"@chainlink/contracts-ccip@1.4.0/src/v0.8/ccip/applications/CCIPReceiver.sol\":2449:2461  i_ccipRouter */\n      immutable(\"0x5c4c6aa067b6f8e6cb38e6ab843832a94d1712d661a04d73c517d6a1931a9e5d\")\n        /* \"@chainlink/contracts-ccip@1.4.0/src/v0.8/ccip/applications/CCIPReceiver.sol\":2427:2462  msg.sender != address(i_ccipRouter) */\n      and\n      eq\n        /* \"@chainlink/contracts-ccip@1.4.0/src/v0.8/ccip/applications/CCIPReceiver.sol\":2423:2496  if (msg.sender != address(i_ccipRouter)) revert InvalidRouter(msg.sender) */\n      tag_73\n      jumpi\n        /* \"@chainlink/contracts-ccip@1.4.0/src/v0.8/ccip/applications/CCIPReceiver.sol\":2471:2496  InvalidRouter(msg.sender) */\n      mload(0x40)\n      shl(0xe2, 0x35fdcccd)\n      dup2\n      mstore\n        /* \"@chainlink/contracts-ccip@1.4.0/src/v0.8/ccip/applications/CCIPReceiver.sol\":2485:2495  msg.sender */\n      caller\n        /* \"@chainlink/contracts-ccip@1.4.0/src/v0.8/ccip/applications/CCIPReceiver.sol\":2471:2496  InvalidRouter(msg.sender) */\n      0x04\n      dup3\n      add\n        /* \"#utility.yul\":1720:1771   */\n      mstore\n        /* \"#utility.yul\":1693:1711   */\n      0x24\n      add\n        /* \"@chainlink/contracts-ccip@1.4.0/src/v0.8/ccip/applications/CCIPReceiver.sol\":2471:2496  InvalidRouter(msg.sender) */\n      tag_57\n        /* \"#utility.yul\":1574:1777   */\n      jump\n        /* \"@chainlink/contracts-ccip@1.4.0/src/v0.8/ccip/applications/CCIPReceiver.sol\":2423:2496  if (msg.sender != address(i_ccipRouter)) revert InvalidRouter(msg.sender) */\n    tag_73:\n        /* \"@chainlink/contracts-ccip@1.4.0/src/v0.8/ccip/applications/CCIPReceiver.sol\":1764:1785  _ccipReceive(message) */\n      tag_76\n      tag_77\n        /* \"@chainlink/contracts-ccip@1.4.0/src/v0.8/ccip/applications/CCIPReceiver.sol\":1777:1784  message */\n      dup3\n        /* \"@chainlink/contracts-ccip@1.4.0/src/v0.8/ccip/applications/CCIPReceiver.sol\":1764:1785  _ccipReceive(message) */\n      tag_78\n      jump\t// in\n    tag_77:\n        /* \"@chainlink/contracts-ccip@1.4.0/src/v0.8/ccip/applications/CCIPReceiver.sol\":1764:1776  _ccipReceive */\n      tag_79\n        /* \"@chainlink/contracts-ccip@1.4.0/src/v0.8/ccip/applications/CCIPReceiver.sol\":1764:1785  _ccipReceive(message) */\n      jump\t// in\n    tag_76:\n        /* \"@chainlink/contracts-ccip@1.4.0/src/v0.8/ccip/applications/CCIPReceiver.sol\":1660:1790  function ccipReceive(Client.Any2EVMMessage calldata message) external virtual override onlyRouter {... */\n      pop\n      jump\t// out\n        /* \"vrfReceiverCeloAlfajores.sol\":2255:2855  function _ccipReceive(Client.Any2EVMMessage memory any2EvmMessage)... */\n    tag_79:\n        /* \"vrfReceiverCeloAlfajores.sol\":2396:2420  any2EvmMessage.messageId */\n      dup1\n      mload\n      0x00\n        /* \"vrfReceiverCeloAlfajores.sol\":2370:2420  s_lastReceivedMessageId = any2EvmMessage.messageId */\n      sstore\n        /* \"vrfReceiverCeloAlfajores.sol\":2485:2504  any2EvmMessage.data */\n      0x60\n      dup2\n      add\n      mload\n        /* \"vrfReceiverCeloAlfajores.sol\":2474:2516  abi.decode(any2EvmMessage.data, (uint256)) */\n      dup1\n      mload\n      tag_85\n      swap2\n      0x20\n      swap2\n      dup2\n      add\n      dup3\n      add\n      swap2\n      add\n      tag_47\n      jump\t// in\n    tag_85:\n        /* \"vrfReceiverCeloAlfajores.sol\":2453:2471  s_lastReceivedText */\n      0x01\n        /* \"vrfReceiverCeloAlfajores.sol\":2453:2516  s_lastReceivedText = abi.decode(any2EvmMessage.data, (uint256)) */\n      dup2\n      swap1\n      sstore\n      pop\n        /* \"vrfReceiverCeloAlfajores.sol\":2599:2613  any2EvmMessage */\n      dup1\n        /* \"vrfReceiverCeloAlfajores.sol\":2599:2633  any2EvmMessage.sourceChainSelector */\n      0x20\n      add\n      mload\n        /* \"vrfReceiverCeloAlfajores.sol\":2532:2848  MessageReceived(... */\n      0xffffffffffffffff\n      and\n        /* \"vrfReceiverCeloAlfajores.sol\":2561:2575  any2EvmMessage */\n      dup2\n        /* \"vrfReceiverCeloAlfajores.sol\":2561:2585  any2EvmMessage.messageId */\n      0x00\n      add\n      mload\n        /* \"vrfReceiverCeloAlfajores.sol\":2532:2848  MessageReceived(... */\n      0x9e0cedd023f625fb8db19f2eb903c24aa1a45f05fd9ef9431a80505ad65e30fe\n        /* \"vrfReceiverCeloAlfajores.sol\":2710:2724  any2EvmMessage */\n      dup4\n        /* \"vrfReceiverCeloAlfajores.sol\":2710:2731  any2EvmMessage.sender */\n      0x40\n      add\n      mload\n        /* \"vrfReceiverCeloAlfajores.sol\":2699:2743  abi.decode(any2EvmMessage.sender, (address)) */\n      dup1\n      0x20\n      add\n      swap1\n      mload\n      dup2\n      add\n      swap1\n      tag_86\n      swap2\n      swap1\n      tag_87\n      jump\t// in\n    tag_86:\n        /* \"vrfReceiverCeloAlfajores.sol\":2807:2821  any2EvmMessage */\n      dup5\n        /* \"vrfReceiverCeloAlfajores.sol\":2807:2826  any2EvmMessage.data */\n      0x60\n      add\n      mload\n        /* \"vrfReceiverCeloAlfajores.sol\":2796:2838  abi.decode(any2EvmMessage.data, (uint256)) */\n      dup1\n      0x20\n      add\n      swap1\n      mload\n      dup2\n      add\n      swap1\n      tag_88\n      swap2\n      swap1\n      tag_47\n      jump\t// in\n    tag_88:\n        /* \"vrfReceiverCeloAlfajores.sol\":2532:2848  MessageReceived(... */\n      0x40\n      dup1\n      mload\n      sub(shl(0xa0, 0x01), 0x01)\n        /* \"#utility.yul\":5039:5071   */\n      swap1\n      swap4\n      and\n        /* \"#utility.yul\":5021:5072   */\n      dup4\n      mstore\n        /* \"#utility.yul\":5103:5105   */\n      0x20\n        /* \"#utility.yul\":5088:5106   */\n      dup4\n      add\n        /* \"#utility.yul\":5081:5115   */\n      swap2\n      swap1\n      swap2\n      mstore\n        /* \"#utility.yul\":4994:5012   */\n      add\n        /* \"vrfReceiverCeloAlfajores.sol\":2532:2848  MessageReceived(... */\n      mload(0x40)\n      dup1\n      swap2\n      sub\n      swap1\n      log3\n        /* \"vrfReceiverCeloAlfajores.sol\":2255:2855  function _ccipReceive(Client.Any2EVMMessage memory any2EvmMessage)... */\n      pop\n      jump\t// out\n        /* \"#utility.yul\":14:300   */\n    tag_9:\n        /* \"#utility.yul\":72:78   */\n      0x00\n        /* \"#utility.yul\":125:127   */\n      0x20\n        /* \"#utility.yul\":113:122   */\n      dup3\n        /* \"#utility.yul\":104:111   */\n      dup5\n        /* \"#utility.yul\":100:123   */\n      sub\n        /* \"#utility.yul\":96:128   */\n      slt\n        /* \"#utility.yul\":93:145   */\n      iszero\n      tag_103\n      jumpi\n        /* \"#utility.yul\":141:142   */\n      0x00\n        /* \"#utility.yul\":138:139   */\n      dup1\n        /* \"#utility.yul\":131:143   */\n      revert\n        /* \"#utility.yul\":93:145   */\n    tag_103:\n        /* \"#utility.yul\":167:190   */\n      dup2\n      calldataload\n      not(sub(shl(0xe0, 0x01), 0x01))\n        /* \"#utility.yul\":219:251   */\n      dup2\n      and\n        /* \"#utility.yul\":209:252   */\n      dup2\n      eq\n        /* \"#utility.yul\":199:270   */\n      tag_104\n      jumpi\n        /* \"#utility.yul\":266:267   */\n      0x00\n        /* \"#utility.yul\":263:264   */\n      dup1\n        /* \"#utility.yul\":256:268   */\n      revert\n        /* \"#utility.yul\":199:270   */\n    tag_104:\n        /* \"#utility.yul\":289:294   */\n      swap4\n        /* \"#utility.yul\":14:300   */\n      swap3\n      pop\n      pop\n      pop\n      jump\t// out\n        /* \"#utility.yul\":497:628   */\n    tag_91:\n      sub(shl(0xa0, 0x01), 0x01)\n        /* \"#utility.yul\":572:603   */\n      dup2\n      and\n        /* \"#utility.yul\":562:604   */\n      dup2\n      eq\n        /* \"#utility.yul\":552:622   */\n      tag_76\n      jumpi\n        /* \"#utility.yul\":618:619   */\n      0x00\n        /* \"#utility.yul\":615:616   */\n      dup1\n        /* \"#utility.yul\":608:620   */\n      revert\n        /* \"#utility.yul\":633:880   */\n    tag_15:\n        /* \"#utility.yul\":692:698   */\n      0x00\n        /* \"#utility.yul\":745:747   */\n      0x20\n        /* \"#utility.yul\":733:742   */\n      dup3\n        /* \"#utility.yul\":724:731   */\n      dup5\n        /* \"#utility.yul\":720:743   */\n      sub\n        /* \"#utility.yul\":716:748   */\n      slt\n        /* \"#utility.yul\":713:765   */\n      iszero\n      tag_109\n      jumpi\n        /* \"#utility.yul\":761:762   */\n      0x00\n        /* \"#utility.yul\":758:759   */\n      dup1\n        /* \"#utility.yul\":751:763   */\n      revert\n        /* \"#utility.yul\":713:765   */\n    tag_109:\n        /* \"#utility.yul\":800:809   */\n      dup2\n        /* \"#utility.yul\":787:810   */\n      calldataload\n        /* \"#utility.yul\":819:850   */\n      tag_104\n        /* \"#utility.yul\":844:849   */\n      dup2\n        /* \"#utility.yul\":819:850   */\n      tag_91\n      jump\t// in\n        /* \"#utility.yul\":1067:1460   */\n    tag_21:\n        /* \"#utility.yul\":1159:1165   */\n      0x00\n        /* \"#utility.yul\":1212:1214   */\n      0x20\n        /* \"#utility.yul\":1200:1209   */\n      dup3\n        /* \"#utility.yul\":1191:1198   */\n      dup5\n        /* \"#utility.yul\":1187:1210   */\n      sub\n        /* \"#utility.yul\":1183:1215   */\n      slt\n        /* \"#utility.yul\":1180:1232   */\n      iszero\n      tag_113\n      jumpi\n        /* \"#utility.yul\":1228:1229   */\n      0x00\n        /* \"#utility.yul\":1225:1226   */\n      dup1\n        /* \"#utility.yul\":1218:1230   */\n      revert\n        /* \"#utility.yul\":1180:1232   */\n    tag_113:\n        /* \"#utility.yul\":1268:1277   */\n      dup2\n        /* \"#utility.yul\":1255:1278   */\n      calldataload\n        /* \"#utility.yul\":1301:1319   */\n      0xffffffffffffffff\n        /* \"#utility.yul\":1293:1299   */\n      dup2\n        /* \"#utility.yul\":1290:1320   */\n      gt\n        /* \"#utility.yul\":1287:1337   */\n      iszero\n      tag_114\n      jumpi\n        /* \"#utility.yul\":1333:1334   */\n      0x00\n        /* \"#utility.yul\":1330:1331   */\n      dup1\n        /* \"#utility.yul\":1323:1335   */\n      revert\n        /* \"#utility.yul\":1287:1337   */\n    tag_114:\n        /* \"#utility.yul\":1356:1378   */\n      dup3\n      add\n        /* \"#utility.yul\":1412:1415   */\n      0xa0\n        /* \"#utility.yul\":1394:1410   */\n      dup2\n      dup6\n      sub\n        /* \"#utility.yul\":1390:1416   */\n      slt\n        /* \"#utility.yul\":1387:1433   */\n      iszero\n      tag_104\n      jumpi\n        /* \"#utility.yul\":1429:1430   */\n      0x00\n        /* \"#utility.yul\":1426:1427   */\n      dup1\n        /* \"#utility.yul\":1419:1431   */\n      revert\n        /* \"#utility.yul\":1956:2233   */\n    tag_32:\n        /* \"#utility.yul\":2158:2160   */\n      0x20\n        /* \"#utility.yul\":2147:2156   */\n      dup2\n        /* \"#utility.yul\":2140:2161   */\n      mstore\n        /* \"#utility.yul\":2121:2125   */\n      0x00\n        /* \"#utility.yul\":2178:2227   */\n      tag_28\n        /* \"#utility.yul\":2223:2225   */\n      0x20\n        /* \"#utility.yul\":2212:2221   */\n      dup4\n        /* \"#utility.yul\":2208:2226   */\n      add\n        /* \"#utility.yul\":1859:1861   */\n      0x14\n        /* \"#utility.yul\":1847:1862   */\n      dup2\n      mstore\n      shl(0x61, 0x33b2b732b930ba32a930b73237b6a73ab6b132b9)\n        /* \"#utility.yul\":1887:1891   */\n      0x20\n        /* \"#utility.yul\":1878:1892   */\n      dup3\n      add\n        /* \"#utility.yul\":1871:1917   */\n      mstore\n        /* \"#utility.yul\":1942:1944   */\n      0x40\n        /* \"#utility.yul\":1933:1945   */\n      add\n      swap1\n        /* \"#utility.yul\":1782:1951   */\n      jump\n        /* \"#utility.yul\":2238:2365   */\n    tag_35:\n        /* \"#utility.yul\":2299:2309   */\n      0x4e487b71\n        /* \"#utility.yul\":2294:2297   */\n      0xe0\n        /* \"#utility.yul\":2290:2310   */\n      shl\n        /* \"#utility.yul\":2287:2288   */\n      0x00\n        /* \"#utility.yul\":2280:2311   */\n      mstore\n        /* \"#utility.yul\":2330:2334   */\n      0x41\n        /* \"#utility.yul\":2327:2328   */\n      0x04\n        /* \"#utility.yul\":2320:2335   */\n      mstore\n        /* \"#utility.yul\":2354:2358   */\n      0x24\n        /* \"#utility.yul\":2351:2352   */\n      0x00\n        /* \"#utility.yul\":2344:2359   */\n      revert\n        /* \"#utility.yul\":2370:2792   */\n    tag_94:\n        /* \"#utility.yul\":2411:2414   */\n      0x00\n        /* \"#utility.yul\":2449:2454   */\n      dup2\n        /* \"#utility.yul\":2443:2455   */\n      mload\n        /* \"#utility.yul\":2476:2482   */\n      dup1\n        /* \"#utility.yul\":2471:2474   */\n      dup5\n        /* \"#utility.yul\":2464:2483   */\n      mstore\n        /* \"#utility.yul\":2501:2502   */\n      0x00\n        /* \"#utility.yul\":2511:2673   */\n    tag_123:\n        /* \"#utility.yul\":2525:2531   */\n      dup2\n        /* \"#utility.yul\":2522:2523   */\n      dup2\n        /* \"#utility.yul\":2519:2532   */\n      lt\n        /* \"#utility.yul\":2511:2673   */\n      iszero\n      tag_125\n      jumpi\n        /* \"#utility.yul\":2587:2591   */\n      0x20\n        /* \"#utility.yul\":2643:2656   */\n      dup2\n      dup6\n      add\n        /* \"#utility.yul\":2639:2661   */\n      dup2\n      add\n        /* \"#utility.yul\":2633:2662   */\n      mload\n        /* \"#utility.yul\":2615:2626   */\n      dup7\n      dup4\n      add\n        /* \"#utility.yul\":2611:2631   */\n      dup3\n      add\n        /* \"#utility.yul\":2604:2663   */\n      mstore\n        /* \"#utility.yul\":2540:2552   */\n      add\n        /* \"#utility.yul\":2511:2673   */\n      jump(tag_123)\n    tag_125:\n        /* \"#utility.yul\":2515:2518   */\n      pop\n        /* \"#utility.yul\":2718:2719   */\n      0x00\n        /* \"#utility.yul\":2711:2715   */\n      0x20\n        /* \"#utility.yul\":2702:2708   */\n      dup3\n        /* \"#utility.yul\":2697:2700   */\n      dup7\n        /* \"#utility.yul\":2693:2709   */\n      add\n        /* \"#utility.yul\":2689:2716   */\n      add\n        /* \"#utility.yul\":2682:2720   */\n      mstore\n        /* \"#utility.yul\":2781:2785   */\n      0x20\n        /* \"#utility.yul\":2774:2776   */\n      0x1f\n        /* \"#utility.yul\":2770:2777   */\n      not\n        /* \"#utility.yul\":2765:2767   */\n      0x1f\n        /* \"#utility.yul\":2757:2763   */\n      dup4\n        /* \"#utility.yul\":2753:2768   */\n      add\n        /* \"#utility.yul\":2749:2778   */\n      and\n        /* \"#utility.yul\":2744:2747   */\n      dup6\n        /* \"#utility.yul\":2740:2779   */\n      add\n        /* \"#utility.yul\":2736:2786   */\n      add\n        /* \"#utility.yul\":2729:2786   */\n      swap2\n      pop\n      pop\n        /* \"#utility.yul\":2370:2792   */\n      swap3\n      swap2\n      pop\n      pop\n      jump\t// out\n        /* \"#utility.yul\":2797:4400   */\n    tag_43:\n        /* \"#utility.yul\":2977:2981   */\n      0x00\n        /* \"#utility.yul\":3006:3008   */\n      0x40\n        /* \"#utility.yul\":3047:3065   */\n      0xffffffffffffffff\n        /* \"#utility.yul\":3039:3045   */\n      dup6\n        /* \"#utility.yul\":3035:3066   */\n      and\n        /* \"#utility.yul\":3024:3033   */\n      dup4\n        /* \"#utility.yul\":3017:3067   */\n      mstore\n        /* \"#utility.yul\":3086:3088   */\n      0x20\n        /* \"#utility.yul\":3124:3126   */\n      dup2\n        /* \"#utility.yul\":3119:3121   */\n      dup2\n        /* \"#utility.yul\":3108:3117   */\n      dup6\n        /* \"#utility.yul\":3104:3122   */\n      add\n        /* \"#utility.yul\":3097:3127   */\n      mstore\n        /* \"#utility.yul\":3162:3168   */\n      dup5\n        /* \"#utility.yul\":3156:3169   */\n      mload\n        /* \"#utility.yul\":3205:3209   */\n      0xa0\n        /* \"#utility.yul\":3200:3202   */\n      dup4\n        /* \"#utility.yul\":3189:3198   */\n      dup7\n        /* \"#utility.yul\":3185:3203   */\n      add\n        /* \"#utility.yul\":3178:3210   */\n      mstore\n        /* \"#utility.yul\":3233:3284   */\n      tag_127\n        /* \"#utility.yul\":3279:3282   */\n      0xe0\n        /* \"#utility.yul\":3268:3277   */\n      dup7\n        /* \"#utility.yul\":3264:3283   */\n      add\n        /* \"#utility.yul\":3250:3262   */\n      dup3\n        /* \"#utility.yul\":3233:3284   */\n      tag_94\n      jump\t// in\n    tag_127:\n        /* \"#utility.yul\":3219:3284   */\n      swap1\n      pop\n        /* \"#utility.yul\":3333:3335   */\n      dup2\n        /* \"#utility.yul\":3325:3331   */\n      dup7\n        /* \"#utility.yul\":3321:3336   */\n      add\n        /* \"#utility.yul\":3315:3337   */\n      mload\n        /* \"#utility.yul\":3360:3362   */\n      0x3f\n        /* \"#utility.yul\":3356:3363   */\n      not\n        /* \"#utility.yul\":3427:3429   */\n      dup1\n        /* \"#utility.yul\":3415:3424   */\n      dup8\n        /* \"#utility.yul\":3407:3413   */\n      dup5\n        /* \"#utility.yul\":3403:3425   */\n      sub\n        /* \"#utility.yul\":3399:3430   */\n      add\n        /* \"#utility.yul\":3394:3396   */\n      0x60\n        /* \"#utility.yul\":3383:3392   */\n      dup9\n        /* \"#utility.yul\":3379:3397   */\n      add\n        /* \"#utility.yul\":3372:3431   */\n      mstore\n        /* \"#utility.yul\":3454:3494   */\n      tag_128\n        /* \"#utility.yul\":3487:3493   */\n      dup4\n        /* \"#utility.yul\":3471:3485   */\n      dup4\n        /* \"#utility.yul\":3454:3494   */\n      tag_94\n      jump\t// in\n    tag_128:\n        /* \"#utility.yul\":3531:3546   */\n      dup9\n      dup7\n      add\n        /* \"#utility.yul\":3525:3547   */\n      mload\n        /* \"#utility.yul\":3588:3610   */\n      dup9\n      dup3\n      sub\n        /* \"#utility.yul\":3584:3615   */\n      dup4\n      add\n        /* \"#utility.yul\":3578:3581   */\n      0x80\n        /* \"#utility.yul\":3563:3582   */\n      dup11\n      add\n        /* \"#utility.yul\":3556:3616   */\n      mstore\n        /* \"#utility.yul\":3665:3686   */\n      dup1\n      mload\n        /* \"#utility.yul\":3695:3717   */\n      dup1\n      dup4\n      mstore\n        /* \"#utility.yul\":3771:3794   */\n      swap1\n      dup7\n      add\n      swap5\n      pop\n        /* \"#utility.yul\":3812:3813   */\n      0x00\n      swap4\n      pop\n        /* \"#utility.yul\":3733:3748   */\n      swap1\n      dup6\n      add\n      swap1\n        /* \"#utility.yul\":3822:4102   */\n    tag_129:\n        /* \"#utility.yul\":3836:3842   */\n      dup1\n        /* \"#utility.yul\":3833:3834   */\n      dup5\n        /* \"#utility.yul\":3830:3843   */\n      lt\n        /* \"#utility.yul\":3822:4102   */\n      iszero\n      tag_131\n      jumpi\n        /* \"#utility.yul\":3895:3908   */\n      dup5\n      mload\n        /* \"#utility.yul\":3937:3946   */\n      dup1\n      mload\n      sub(shl(0xa0, 0x01), 0x01)\n        /* \"#utility.yul\":3933:3968   */\n      and\n        /* \"#utility.yul\":3921:3969   */\n      dup4\n      mstore\n        /* \"#utility.yul\":4009:4020   */\n      dup7\n      add\n        /* \"#utility.yul\":4003:4021   */\n      mload\n        /* \"#utility.yul\":3989:4001   */\n      dup7\n      dup4\n      add\n        /* \"#utility.yul\":3982:4022   */\n      mstore\n        /* \"#utility.yul\":4077:4092   */\n      swap4\n      dup6\n      add\n      swap4\n        /* \"#utility.yul\":3965:3966   */\n      0x01\n        /* \"#utility.yul\":3851:3860   */\n      swap4\n      swap1\n      swap4\n      add\n      swap3\n        /* \"#utility.yul\":4042:4054   */\n      swap1\n      dup7\n      add\n      swap1\n        /* \"#utility.yul\":3822:4102   */\n      jump(tag_129)\n    tag_131:\n      pop\n        /* \"#utility.yul\":4151:4153   */\n      0x60\n        /* \"#utility.yul\":4139:4154   */\n      dup10\n      add\n        /* \"#utility.yul\":4133:4155   */\n      mload\n      sub(shl(0xa0, 0x01), 0x01)\n        /* \"#utility.yul\":1531:1562   */\n      and\n        /* \"#utility.yul\":4214:4218   */\n      0xa0\n        /* \"#utility.yul\":4199:4219   */\n      dup10\n      add\n        /* \"#utility.yul\":1519:1563   */\n      mstore\n        /* \"#utility.yul\":4269:4272   */\n      0x80\n        /* \"#utility.yul\":4257:4273   */\n      dup10\n      add\n        /* \"#utility.yul\":4251:4274   */\n      mload\n        /* \"#utility.yul\":4315:4334   */\n      dup9\n      dup3\n      sub\n        /* \"#utility.yul\":4311:4339   */\n      dup4\n      add\n        /* \"#utility.yul\":4305:4308   */\n      0xc0\n        /* \"#utility.yul\":4290:4309   */\n      dup11\n      add\n        /* \"#utility.yul\":4283:4340   */\n      mstore\n        /* \"#utility.yul\":4251:4274   */\n      swap6\n      pop\n        /* \"#utility.yul\":4357:4394   */\n      tag_133\n        /* \"#utility.yul\":4319:4322   */\n      dup2\n        /* \"#utility.yul\":4251:4274   */\n      dup8\n        /* \"#utility.yul\":4357:4394   */\n      tag_94\n      jump\t// in\n    tag_133:\n        /* \"#utility.yul\":4349:4394   */\n      swap11\n        /* \"#utility.yul\":2797:4400   */\n      swap10\n      pop\n      pop\n      pop\n      pop\n      pop\n      pop\n      pop\n      pop\n      pop\n      pop\n      jump\t// out\n        /* \"#utility.yul\":4405:4589   */\n    tag_47:\n        /* \"#utility.yul\":4475:4481   */\n      0x00\n        /* \"#utility.yul\":4528:4530   */\n      0x20\n        /* \"#utility.yul\":4516:4525   */\n      dup3\n        /* \"#utility.yul\":4507:4514   */\n      dup5\n        /* \"#utility.yul\":4503:4526   */\n      sub\n        /* \"#utility.yul\":4499:4531   */\n      slt\n        /* \"#utility.yul\":4496:4548   */\n      iszero\n      tag_135\n      jumpi\n        /* \"#utility.yul\":4544:4545   */\n      0x00\n        /* \"#utility.yul\":4541:4542   */\n      dup1\n        /* \"#utility.yul\":4534:4546   */\n      revert\n        /* \"#utility.yul\":4496:4548   */\n    tag_135:\n      pop\n        /* \"#utility.yul\":4567:4583   */\n      mload\n      swap2\n        /* \"#utility.yul\":4405:4589   */\n      swap1\n      pop\n      jump\t// out\n        /* \"#utility.yul\":5126:5403   */\n    tag_64:\n        /* \"#utility.yul\":5193:5199   */\n      0x00\n        /* \"#utility.yul\":5246:5248   */\n      0x20\n        /* \"#utility.yul\":5234:5243   */\n      dup3\n        /* \"#utility.yul\":5225:5232   */\n      dup5\n        /* \"#utility.yul\":5221:5244   */\n      sub\n        /* \"#utility.yul\":5217:5249   */\n      slt\n        /* \"#utility.yul\":5214:5266   */\n      iszero\n      tag_139\n      jumpi\n        /* \"#utility.yul\":5262:5263   */\n      0x00\n        /* \"#utility.yul\":5259:5260   */\n      dup1\n        /* \"#utility.yul\":5252:5264   */\n      revert\n        /* \"#utility.yul\":5214:5266   */\n    tag_139:\n        /* \"#utility.yul\":5294:5303   */\n      dup2\n        /* \"#utility.yul\":5288:5304   */\n      mload\n        /* \"#utility.yul\":5347:5352   */\n      dup1\n        /* \"#utility.yul\":5340:5353   */\n      iszero\n        /* \"#utility.yul\":5333:5354   */\n      iszero\n        /* \"#utility.yul\":5326:5331   */\n      dup2\n        /* \"#utility.yul\":5323:5355   */\n      eq\n        /* \"#utility.yul\":5313:5373   */\n      tag_104\n      jumpi\n        /* \"#utility.yul\":5369:5370   */\n      0x00\n        /* \"#utility.yul\":5366:5367   */\n      dup1\n        /* \"#utility.yul\":5359:5371   */\n      revert\n        /* \"#utility.yul\":6150:6407   */\n    tag_95:\n        /* \"#utility.yul\":6222:6226   */\n      0x40\n        /* \"#utility.yul\":6216:6227   */\n      dup1\n      mload\n      swap1\n        /* \"#utility.yul\":6254:6271   */\n      dup2\n      add\n        /* \"#utility.yul\":6301:6319   */\n      0xffffffffffffffff\n        /* \"#utility.yul\":6286:6320   */\n      dup2\n      gt\n        /* \"#utility.yul\":6322:6344   */\n      dup3\n      dup3\n      lt\n        /* \"#utility.yul\":6283:6345   */\n      or\n        /* \"#utility.yul\":6280:6368   */\n      iszero\n      tag_147\n      jumpi\n        /* \"#utility.yul\":6348:6366   */\n      tag_147\n      tag_35\n      jump\t// in\n    tag_147:\n        /* \"#utility.yul\":6384:6388   */\n      0x40\n        /* \"#utility.yul\":6377:6401   */\n      mstore\n        /* \"#utility.yul\":6150:6407   */\n      swap1\n      jump\t// out\n        /* \"#utility.yul\":6412:6665   */\n    tag_96:\n        /* \"#utility.yul\":6484:6486   */\n      0x40\n        /* \"#utility.yul\":6478:6487   */\n      mload\n        /* \"#utility.yul\":6526:6530   */\n      0xa0\n        /* \"#utility.yul\":6514:6531   */\n      dup2\n      add\n        /* \"#utility.yul\":6561:6579   */\n      0xffffffffffffffff\n        /* \"#utility.yul\":6546:6580   */\n      dup2\n      gt\n        /* \"#utility.yul\":6582:6604   */\n      dup3\n      dup3\n      lt\n        /* \"#utility.yul\":6543:6605   */\n      or\n        /* \"#utility.yul\":6540:6628   */\n      iszero\n      tag_147\n      jumpi\n        /* \"#utility.yul\":6608:6626   */\n      tag_147\n      tag_35\n      jump\t// in\n        /* \"#utility.yul\":6670:6945   */\n    tag_97:\n        /* \"#utility.yul\":6741:6743   */\n      0x40\n        /* \"#utility.yul\":6735:6744   */\n      mload\n        /* \"#utility.yul\":6806:6808   */\n      0x1f\n        /* \"#utility.yul\":6787:6800   */\n      dup3\n      add\n      not(0x1f)\n        /* \"#utility.yul\":6783:6810   */\n      and\n        /* \"#utility.yul\":6771:6811   */\n      dup2\n      add\n        /* \"#utility.yul\":6841:6859   */\n      0xffffffffffffffff\n        /* \"#utility.yul\":6826:6860   */\n      dup2\n      gt\n        /* \"#utility.yul\":6862:6884   */\n      dup3\n      dup3\n      lt\n        /* \"#utility.yul\":6823:6885   */\n      or\n        /* \"#utility.yul\":6820:6908   */\n      iszero\n      tag_153\n      jumpi\n        /* \"#utility.yul\":6888:6906   */\n      tag_153\n      tag_35\n      jump\t// in\n    tag_153:\n        /* \"#utility.yul\":6924:6926   */\n      0x40\n        /* \"#utility.yul\":6917:6939   */\n      mstore\n        /* \"#utility.yul\":6670:6945   */\n      swap2\n      swap1\n      pop\n      jump\t// out\n        /* \"#utility.yul\":6950:7121   */\n    tag_98:\n        /* \"#utility.yul\":7017:7037   */\n      dup1\n      calldataload\n        /* \"#utility.yul\":7077:7095   */\n      0xffffffffffffffff\n        /* \"#utility.yul\":7066:7096   */\n      dup2\n      and\n        /* \"#utility.yul\":7056:7097   */\n      dup2\n      eq\n        /* \"#utility.yul\":7046:7115   */\n      tag_155\n      jumpi\n        /* \"#utility.yul\":7111:7112   */\n      0x00\n        /* \"#utility.yul\":7108:7109   */\n      dup1\n        /* \"#utility.yul\":7101:7113   */\n      revert\n        /* \"#utility.yul\":7046:7115   */\n    tag_155:\n        /* \"#utility.yul\":6950:7121   */\n      swap2\n      swap1\n      pop\n      jump\t// out\n        /* \"#utility.yul\":7126:7656   */\n    tag_99:\n        /* \"#utility.yul\":7168:7173   */\n      0x00\n        /* \"#utility.yul\":7221:7224   */\n      dup3\n        /* \"#utility.yul\":7214:7218   */\n      0x1f\n        /* \"#utility.yul\":7206:7212   */\n      dup4\n        /* \"#utility.yul\":7202:7219   */\n      add\n        /* \"#utility.yul\":7198:7225   */\n      slt\n        /* \"#utility.yul\":7188:7243   */\n      tag_157\n      jumpi\n        /* \"#utility.yul\":7239:7240   */\n      0x00\n        /* \"#utility.yul\":7236:7237   */\n      dup1\n        /* \"#utility.yul\":7229:7241   */\n      revert\n        /* \"#utility.yul\":7188:7243   */\n    tag_157:\n        /* \"#utility.yul\":7275:7281   */\n      dup2\n        /* \"#utility.yul\":7262:7282   */\n      calldataload\n        /* \"#utility.yul\":7301:7319   */\n      0xffffffffffffffff\n        /* \"#utility.yul\":7297:7299   */\n      dup2\n        /* \"#utility.yul\":7294:7320   */\n      gt\n        /* \"#utility.yul\":7291:7343   */\n      iszero\n      tag_159\n      jumpi\n        /* \"#utility.yul\":7323:7341   */\n      tag_159\n      tag_35\n      jump\t// in\n    tag_159:\n        /* \"#utility.yul\":7367:7422   */\n      tag_160\n        /* \"#utility.yul\":7410:7412   */\n      0x1f\n        /* \"#utility.yul\":7391:7404   */\n      dup3\n      add\n      not(0x1f)\n        /* \"#utility.yul\":7387:7414   */\n      and\n        /* \"#utility.yul\":7416:7420   */\n      0x20\n        /* \"#utility.yul\":7383:7421   */\n      add\n        /* \"#utility.yul\":7367:7422   */\n      tag_97\n      jump\t// in\n    tag_160:\n        /* \"#utility.yul\":7447:7449   */\n      dup2\n        /* \"#utility.yul\":7438:7445   */\n      dup2\n        /* \"#utility.yul\":7431:7450   */\n      mstore\n        /* \"#utility.yul\":7493:7496   */\n      dup5\n        /* \"#utility.yul\":7486:7490   */\n      0x20\n        /* \"#utility.yul\":7481:7483   */\n      dup4\n        /* \"#utility.yul\":7473:7479   */\n      dup7\n        /* \"#utility.yul\":7469:7484   */\n      add\n        /* \"#utility.yul\":7465:7491   */\n      add\n        /* \"#utility.yul\":7462:7497   */\n      gt\n        /* \"#utility.yul\":7459:7514   */\n      iszero\n      tag_161\n      jumpi\n        /* \"#utility.yul\":7510:7511   */\n      0x00\n        /* \"#utility.yul\":7507:7508   */\n      dup1\n        /* \"#utility.yul\":7500:7512   */\n      revert\n        /* \"#utility.yul\":7459:7514   */\n    tag_161:\n        /* \"#utility.yul\":7575:7577   */\n      dup2\n        /* \"#utility.yul\":7568:7572   */\n      0x20\n        /* \"#utility.yul\":7560:7566   */\n      dup6\n        /* \"#utility.yul\":7556:7573   */\n      add\n        /* \"#utility.yul\":7549:7553   */\n      0x20\n        /* \"#utility.yul\":7540:7547   */\n      dup4\n        /* \"#utility.yul\":7536:7554   */\n      add\n        /* \"#utility.yul\":7523:7578   */\n      calldatacopy\n        /* \"#utility.yul\":7623:7624   */\n      0x00\n        /* \"#utility.yul\":7598:7614   */\n      swap2\n      dup2\n      add\n        /* \"#utility.yul\":7616:7620   */\n      0x20\n        /* \"#utility.yul\":7594:7621   */\n      add\n        /* \"#utility.yul\":7587:7625   */\n      swap2\n      swap1\n      swap2\n      mstore\n        /* \"#utility.yul\":7602:7609   */\n      swap4\n        /* \"#utility.yul\":7126:7656   */\n      swap3\n      pop\n      pop\n      pop\n      jump\t// out\n        /* \"#utility.yul\":7661:8728   */\n    tag_100:\n        /* \"#utility.yul\":7729:7734   */\n      0x00\n        /* \"#utility.yul\":7782:7785   */\n      dup3\n        /* \"#utility.yul\":7775:7779   */\n      0x1f\n        /* \"#utility.yul\":7767:7773   */\n      dup4\n        /* \"#utility.yul\":7763:7780   */\n      add\n        /* \"#utility.yul\":7759:7786   */\n      slt\n        /* \"#utility.yul\":7749:7804   */\n      tag_163\n      jumpi\n        /* \"#utility.yul\":7800:7801   */\n      0x00\n        /* \"#utility.yul\":7797:7798   */\n      dup1\n        /* \"#utility.yul\":7790:7802   */\n      revert\n        /* \"#utility.yul\":7749:7804   */\n    tag_163:\n        /* \"#utility.yul\":7836:7842   */\n      dup2\n        /* \"#utility.yul\":7823:7843   */\n      calldataload\n        /* \"#utility.yul\":7862:7866   */\n      0x20\n        /* \"#utility.yul\":7885:7903   */\n      0xffffffffffffffff\n        /* \"#utility.yul\":7881:7883   */\n      dup3\n        /* \"#utility.yul\":7878:7904   */\n      gt\n        /* \"#utility.yul\":7875:7927   */\n      iszero\n      tag_165\n      jumpi\n        /* \"#utility.yul\":7907:7925   */\n      tag_165\n      tag_35\n      jump\t// in\n    tag_165:\n        /* \"#utility.yul\":7947:7983   */\n      tag_166\n        /* \"#utility.yul\":7979:7981   */\n      dup2\n        /* \"#utility.yul\":7974:7976   */\n      dup4\n        /* \"#utility.yul\":7971:7972   */\n      0x05\n        /* \"#utility.yul\":7967:7977   */\n      shl\n        /* \"#utility.yul\":7963:7982   */\n      add\n        /* \"#utility.yul\":7947:7983   */\n      tag_97\n      jump\t// in\n    tag_166:\n        /* \"#utility.yul\":8017:8032   */\n      dup3\n      dup2\n      mstore\n        /* \"#utility.yul\":8103:8104   */\n      0x06\n        /* \"#utility.yul\":8099:8109   */\n      swap3\n      swap1\n      swap3\n      shl\n        /* \"#utility.yul\":8087:8110   */\n      dup5\n      add\n        /* \"#utility.yul\":8083:8115   */\n      dup2\n      add\n      swap2\n        /* \"#utility.yul\":8048:8060   */\n      dup2\n      dup2\n      add\n      swap1\n        /* \"#utility.yul\":8127:8142   */\n      dup7\n      dup5\n      gt\n        /* \"#utility.yul\":8124:8159   */\n      iszero\n      tag_167\n      jumpi\n        /* \"#utility.yul\":8155:8156   */\n      0x00\n        /* \"#utility.yul\":8152:8153   */\n      dup1\n        /* \"#utility.yul\":8145:8157   */\n      revert\n        /* \"#utility.yul\":8124:8159   */\n    tag_167:\n        /* \"#utility.yul\":8191:8193   */\n      dup3\n        /* \"#utility.yul\":8183:8189   */\n      dup7\n        /* \"#utility.yul\":8179:8194   */\n      add\n        /* \"#utility.yul\":8203:8699   */\n    tag_168:\n        /* \"#utility.yul\":8219:8225   */\n      dup5\n        /* \"#utility.yul\":8214:8217   */\n      dup2\n        /* \"#utility.yul\":8211:8226   */\n      lt\n        /* \"#utility.yul\":8203:8699   */\n      iszero\n      tag_170\n      jumpi\n        /* \"#utility.yul\":8297:8301   */\n      0x40\n        /* \"#utility.yul\":8291:8294   */\n      dup2\n        /* \"#utility.yul\":8286:8289   */\n      dup10\n        /* \"#utility.yul\":8282:8295   */\n      sub\n        /* \"#utility.yul\":8278:8302   */\n      slt\n        /* \"#utility.yul\":8275:8389   */\n      iszero\n      tag_171\n      jumpi\n        /* \"#utility.yul\":8343:8344   */\n      0x00\n        /* \"#utility.yul\":8372:8374   */\n      dup1\n        /* \"#utility.yul\":8368:8370   */\n      dup2\n        /* \"#utility.yul\":8361:8375   */\n      revert\n        /* \"#utility.yul\":8275:8389   */\n    tag_171:\n        /* \"#utility.yul\":8415:8437   */\n      tag_172\n      tag_95\n      jump\t// in\n    tag_172:\n        /* \"#utility.yul\":8478:8481   */\n      dup2\n        /* \"#utility.yul\":8465:8482   */\n      calldataload\n        /* \"#utility.yul\":8495:8528   */\n      tag_173\n        /* \"#utility.yul\":8520:8527   */\n      dup2\n        /* \"#utility.yul\":8495:8528   */\n      tag_91\n      jump\t// in\n    tag_173:\n        /* \"#utility.yul\":8541:8563   */\n      dup2\n      mstore\n        /* \"#utility.yul\":8612:8624   */\n      dup2\n      dup6\n      add\n        /* \"#utility.yul\":8599:8625   */\n      calldataload\n        /* \"#utility.yul\":8583:8597   */\n      dup6\n      dup3\n      add\n        /* \"#utility.yul\":8576:8626   */\n      mstore\n        /* \"#utility.yul\":8639:8657   */\n      dup4\n      mstore\n        /* \"#utility.yul\":8677:8689   */\n      swap2\n      dup4\n      add\n      swap2\n        /* \"#utility.yul\":8245:8249   */\n      0x40\n        /* \"#utility.yul\":8236:8250   */\n      add\n        /* \"#utility.yul\":8203:8699   */\n      jump(tag_168)\n    tag_170:\n      pop\n        /* \"#utility.yul\":8717:8722   */\n      swap7\n        /* \"#utility.yul\":7661:8728   */\n      swap6\n      pop\n      pop\n      pop\n      pop\n      pop\n      pop\n      jump\t// out\n        /* \"#utility.yul\":8733:9742   */\n    tag_78:\n        /* \"#utility.yul\":8847:8856   */\n      0x00\n        /* \"#utility.yul\":8906:8910   */\n      0xa0\n        /* \"#utility.yul\":8898:8903   */\n      dup3\n        /* \"#utility.yul\":8882:8896   */\n      calldatasize\n        /* \"#utility.yul\":8878:8904   */\n      sub\n        /* \"#utility.yul\":8874:8911   */\n      slt\n        /* \"#utility.yul\":8871:8928   */\n      iszero\n      tag_175\n      jumpi\n        /* \"#utility.yul\":8924:8925   */\n      0x00\n        /* \"#utility.yul\":8921:8922   */\n      dup1\n        /* \"#utility.yul\":8914:8926   */\n      revert\n        /* \"#utility.yul\":8871:8928   */\n    tag_175:\n        /* \"#utility.yul\":8952:8974   */\n      tag_176\n      tag_96\n      jump\t// in\n    tag_176:\n        /* \"#utility.yul\":9012:9017   */\n      dup3\n        /* \"#utility.yul\":8999:9018   */\n      calldataload\n        /* \"#utility.yul\":8990:8997   */\n      dup2\n        /* \"#utility.yul\":8983:9019   */\n      mstore\n        /* \"#utility.yul\":9053:9086   */\n      tag_177\n        /* \"#utility.yul\":9082:9084   */\n      0x20\n        /* \"#utility.yul\":9075:9080   */\n      dup5\n        /* \"#utility.yul\":9071:9085   */\n      add\n        /* \"#utility.yul\":9053:9086   */\n      tag_98\n      jump\t// in\n    tag_177:\n        /* \"#utility.yul\":9048:9050   */\n      0x20\n        /* \"#utility.yul\":9039:9046   */\n      dup3\n        /* \"#utility.yul\":9035:9051   */\n      add\n        /* \"#utility.yul\":9028:9087   */\n      mstore\n        /* \"#utility.yul\":9134:9136   */\n      0x40\n        /* \"#utility.yul\":9127:9132   */\n      dup4\n        /* \"#utility.yul\":9123:9137   */\n      add\n        /* \"#utility.yul\":9110:9138   */\n      calldataload\n        /* \"#utility.yul\":9157:9175   */\n      0xffffffffffffffff\n        /* \"#utility.yul\":9198:9200   */\n      dup1\n        /* \"#utility.yul\":9190:9196   */\n      dup3\n        /* \"#utility.yul\":9187:9201   */\n      gt\n        /* \"#utility.yul\":9184:9218   */\n      iszero\n      tag_178\n      jumpi\n        /* \"#utility.yul\":9214:9215   */\n      0x00\n        /* \"#utility.yul\":9211:9212   */\n      dup1\n        /* \"#utility.yul\":9204:9216   */\n      revert\n        /* \"#utility.yul\":9184:9218   */\n    tag_178:\n        /* \"#utility.yul\":9252:9304   */\n      tag_179\n        /* \"#utility.yul\":9289:9303   */\n      calldatasize\n        /* \"#utility.yul\":9280:9286   */\n      dup4\n        /* \"#utility.yul\":9273:9278   */\n      dup8\n        /* \"#utility.yul\":9269:9287   */\n      add\n        /* \"#utility.yul\":9252:9304   */\n      tag_99\n      jump\t// in\n    tag_179:\n        /* \"#utility.yul\":9247:9249   */\n      0x40\n        /* \"#utility.yul\":9238:9245   */\n      dup5\n        /* \"#utility.yul\":9234:9250   */\n      add\n        /* \"#utility.yul\":9227:9305   */\n      mstore\n        /* \"#utility.yul\":9354:9356   */\n      0x60\n        /* \"#utility.yul\":9347:9352   */\n      dup6\n        /* \"#utility.yul\":9343:9357   */\n      add\n        /* \"#utility.yul\":9330:9358   */\n      calldataload\n        /* \"#utility.yul\":9314:9358   */\n      swap2\n      pop\n        /* \"#utility.yul\":9383:9385   */\n      dup1\n        /* \"#utility.yul\":9373:9381   */\n      dup3\n        /* \"#utility.yul\":9370:9386   */\n      gt\n        /* \"#utility.yul\":9367:9403   */\n      iszero\n      tag_180\n      jumpi\n        /* \"#utility.yul\":9399:9400   */\n      0x00\n        /* \"#utility.yul\":9396:9397   */\n      dup1\n        /* \"#utility.yul\":9389:9401   */\n      revert\n        /* \"#utility.yul\":9367:9403   */\n    tag_180:\n        /* \"#utility.yul\":9437:9491   */\n      tag_181\n        /* \"#utility.yul\":9476:9490   */\n      calldatasize\n        /* \"#utility.yul\":9465:9473   */\n      dup4\n        /* \"#utility.yul\":9458:9463   */\n      dup8\n        /* \"#utility.yul\":9454:9474   */\n      add\n        /* \"#utility.yul\":9437:9491   */\n      tag_99\n      jump\t// in\n    tag_181:\n        /* \"#utility.yul\":9432:9434   */\n      0x60\n        /* \"#utility.yul\":9423:9430   */\n      dup5\n        /* \"#utility.yul\":9419:9435   */\n      add\n        /* \"#utility.yul\":9412:9492   */\n      mstore\n        /* \"#utility.yul\":9541:9544   */\n      0x80\n        /* \"#utility.yul\":9534:9539   */\n      dup6\n        /* \"#utility.yul\":9530:9545   */\n      add\n        /* \"#utility.yul\":9517:9546   */\n      calldataload\n        /* \"#utility.yul\":9501:9546   */\n      swap2\n      pop\n        /* \"#utility.yul\":9571:9573   */\n      dup1\n        /* \"#utility.yul\":9561:9569   */\n      dup3\n        /* \"#utility.yul\":9558:9574   */\n      gt\n        /* \"#utility.yul\":9555:9591   */\n      iszero\n      tag_182\n      jumpi\n        /* \"#utility.yul\":9587:9588   */\n      0x00\n        /* \"#utility.yul\":9584:9585   */\n      dup1\n        /* \"#utility.yul\":9577:9589   */\n      revert\n        /* \"#utility.yul\":9555:9591   */\n    tag_182:\n      pop\n        /* \"#utility.yul\":9626:9706   */\n      tag_183\n        /* \"#utility.yul\":9691:9705   */\n      calldatasize\n        /* \"#utility.yul\":9680:9688   */\n      dup3\n        /* \"#utility.yul\":9673:9678   */\n      dup7\n        /* \"#utility.yul\":9669:9689   */\n      add\n        /* \"#utility.yul\":9626:9706   */\n      tag_100\n      jump\t// in\n    tag_183:\n        /* \"#utility.yul\":9620:9623   */\n      0x80\n        /* \"#utility.yul\":9607:9624   */\n      dup4\n      add\n        /* \"#utility.yul\":9600:9707   */\n      mstore\n      pop\n        /* \"#utility.yul\":9611:9618   */\n      swap3\n        /* \"#utility.yul\":8733:9742   */\n      swap2\n      pop\n      pop\n      jump\t// out\n        /* \"#utility.yul\":9998:10257   */\n    tag_87:\n        /* \"#utility.yul\":10076:10082   */\n      0x00\n        /* \"#utility.yul\":10129:10131   */\n      0x20\n        /* \"#utility.yul\":10117:10126   */\n      dup3\n        /* \"#utility.yul\":10108:10115   */\n      dup5\n        /* \"#utility.yul\":10104:10127   */\n      sub\n        /* \"#utility.yul\":10100:10132   */\n      slt\n        /* \"#utility.yul\":10097:10149   */\n      iszero\n      tag_186\n      jumpi\n        /* \"#utility.yul\":10145:10146   */\n      0x00\n        /* \"#utility.yul\":10142:10143   */\n      dup1\n        /* \"#utility.yul\":10135:10147   */\n      revert\n        /* \"#utility.yul\":10097:10149   */\n    tag_186:\n        /* \"#utility.yul\":10177:10186   */\n      dup2\n        /* \"#utility.yul\":10171:10187   */\n      mload\n        /* \"#utility.yul\":10196:10227   */\n      tag_104\n        /* \"#utility.yul\":10221:10226   */\n      dup2\n        /* \"#utility.yul\":10196:10227   */\n      tag_91\n      jump\t// in\n\n    auxdata: 0xa2646970667358221220e3c2343bc7f842d961a9da84f051f6319cd523a7192968feedd47575995a047364736f6c63430008130033\n}\n",
				"bytecode": {
					"linkReferences": {},
					"object": "60a060405234801561001057600080fd5b5073b00e95b773528e2ea724db06b75113f239d15dca6001600160a01b0316608052600280546001600160a01b031990811673b00e95b773528e2ea724db06b75113f239d15dca17909155600380549091167332e08557b14fad8908025619797221281d439071179055608051610b3661009b6000396000818160bc015261053a0152610b366000f3fe608060405234801561001057600080fd5b506004361061004c5760003560e01c806301ffc9a7146100515780633b7c4b931461007957806385572ffb1461009a578063b0f479a1146100af575b600080fd5b61006461005f36600461063c565b6100e6565b60405190151581526020015b60405180910390f35b61008c610087366004610682565b61011d565b604051908152602001610070565b6100ad6100a836600461069f565b61052f565b005b6040516001600160a01b037f0000000000000000000000000000000000000000000000000000000000000000168152602001610070565b60006001600160e01b031982166385572ffb60e01b148061011757506001600160e01b031982166301ffc9a760e01b145b92915050565b6040805160a081019091526001600160a01b03821660c082015260009067304611b6affba76a9082908060e08101604051602081830303815290604052815260200160405160200161016e906106da565b60408051601f19818403018152919052815260200160006040519080825280602002602001820160405280156101ca57816020015b60408051808201909152600080825260208201528152602001906001900390816101a35790505b5081526003546001600160a01b031660208083019190915260408051808301825262030d4090819052815160248082019290925282518082039092018252604401825291820180516001600160e01b03166397a657c960e01b179052909101526002546040516320487ded60e01b81529192506000916001600160a01b03909116906320487ded90610262908690869060040161076a565b602060405180830381865afa15801561027f573d6000803e3d6000fd5b505050506040513d601f19601f820116820180604052508101906102a39190610844565b6003546040516370a0823160e01b81523060048201529192506001600160a01b0316906370a0823190602401602060405180830381865afa1580156102ec573d6000803e3d6000fd5b505050506040513d601f19601f820116820180604052508101906103109190610844565b8111156103ac576003546040516370a0823160e01b81523060048201526001600160a01b03909116906370a0823190602401602060405180830381865afa15801561035f573d6000803e3d6000fd5b505050506040513d601f19601f820116820180604052508101906103839190610844565b604051634787a10360e11b81526004810191909152602481018290526044015b60405180910390fd5b60035460025460405163095ea7b360e01b81526001600160a01b0391821660048201526024810184905291169063095ea7b3906044016020604051808303816000875af1158015610401573d6000803e3d6000fd5b505050506040513d601f19601f82011682018060405250810190610425919061085d565b506002546040516396f4e9f960e01b81526001600160a01b03909116906396f4e9f990610458908690869060040161076a565b6020604051808303816000875af1158015610477573d6000803e3d6000fd5b505050506040513d601f19601f8201168201806040525081019061049b9190610844565b600354604080516001600160a01b03808a1682526080602083018190526014908301527333b2b732b930ba32a930b73237b6a73ab6b132b960611b60a0830152909216908201526060810183905290945067ffffffffffffffff84169085907fd36445359b3c6e26c120659aef090ce0f2eb005cf9af450d11aa1225609b4f4d9060c00160405180910390a3505050919050565b336001600160a01b037f0000000000000000000000000000000000000000000000000000000000000000161461057a576040516335fdcccd60e21b81523360048201526024016103a3565b61058b61058682610a36565b61058e565b50565b8051600055606081015180516105ac91602091810182019101610844565b600181905550806020015167ffffffffffffffff1681600001517f9e0cedd023f625fb8db19f2eb903c24aa1a45f05fd9ef9431a80505ad65e30fe83604001518060200190518101906105ff9190610ae3565b84606001518060200190518101906106179190610844565b604080516001600160a01b03909316835260208301919091520160405180910390a350565b60006020828403121561064e57600080fd5b81356001600160e01b03198116811461066657600080fd5b9392505050565b6001600160a01b038116811461058b57600080fd5b60006020828403121561069457600080fd5b81356106668161066d565b6000602082840312156106b157600080fd5b813567ffffffffffffffff8111156106c857600080fd5b820160a0818503121561066657600080fd5b60208152600061011760208301601481527333b2b732b930ba32a930b73237b6a73ab6b132b960611b602082015260400190565b634e487b7160e01b600052604160045260246000fd5b6000815180845260005b8181101561074a5760208185018101518683018201520161072e565b506000602082860101526020601f19601f83011685010191505092915050565b6000604067ffffffffffffffff8516835260208181850152845160a08386015261079760e0860182610724565b905081860151603f19808784030160608801526107b48383610724565b88860151888203830160808a01528051808352908601945060009350908501905b8084101561080757845180516001600160a01b03168352860151868301529385019360019390930192908601906107d5565b5060608901516001600160a01b031660a08901526080890151888203830160c08a015295506108368187610724565b9a9950505050505050505050565b60006020828403121561085657600080fd5b5051919050565b60006020828403121561086f57600080fd5b8151801515811461066657600080fd5b6040805190810167ffffffffffffffff811182821017156108a2576108a261070e565b60405290565b60405160a0810167ffffffffffffffff811182821017156108a2576108a261070e565b604051601f8201601f1916810167ffffffffffffffff811182821017156108f4576108f461070e565b604052919050565b803567ffffffffffffffff8116811461091457600080fd5b919050565b600082601f83011261092a57600080fd5b813567ffffffffffffffff8111156109445761094461070e565b610957601f8201601f19166020016108cb565b81815284602083860101111561096c57600080fd5b816020850160208301376000918101602001919091529392505050565b600082601f83011261099a57600080fd5b8135602067ffffffffffffffff8211156109b6576109b661070e565b6109c4818360051b016108cb565b82815260069290921b840181019181810190868411156109e357600080fd5b8286015b84811015610a2b5760408189031215610a005760008081fd5b610a0861087f565b8135610a138161066d565b815281850135858201528352918301916040016109e7565b509695505050505050565b600060a08236031215610a4857600080fd5b610a506108a8565b82358152610a60602084016108fc565b6020820152604083013567ffffffffffffffff80821115610a8057600080fd5b610a8c36838701610919565b60408401526060850135915080821115610aa557600080fd5b610ab136838701610919565b60608401526080850135915080821115610aca57600080fd5b50610ad736828601610989565b60808301525092915050565b600060208284031215610af557600080fd5b81516106668161066d56fea2646970667358221220e3c2343bc7f842d961a9da84f051f6319cd523a7192968feedd47575995a047364736f6c63430008130033",
					"opcodes": "PUSH1 0xA0 PUSH1 0x40 MSTORE CALLVALUE DUP1 ISZERO PUSH2 0x10 JUMPI PUSH1 0x0 DUP1 REVERT JUMPDEST POP PUSH20 0xB00E95B773528E2EA724DB06B75113F239D15DCA PUSH1 0x1 PUSH1 0x1 PUSH1 0xA0 SHL SUB AND PUSH1 0x80 MSTORE PUSH1 0x2 DUP1 SLOAD PUSH1 0x1 PUSH1 0x1 PUSH1 0xA0 SHL SUB NOT SWAP1 DUP2 AND PUSH20 0xB00E95B773528E2EA724DB06B75113F239D15DCA OR SWAP1 SWAP2 SSTORE PUSH1 0x3 DUP1 SLOAD SWAP1 SWAP2 AND PUSH20 0x32E08557B14FAD8908025619797221281D439071 OR SWAP1 SSTORE PUSH1 0x80 MLOAD PUSH2 0xB36 PUSH2 0x9B PUSH1 0x0 CODECOPY PUSH1 0x0 DUP2 DUP2 PUSH1 0xBC ADD MSTORE PUSH2 0x53A ADD MSTORE PUSH2 0xB36 PUSH1 0x0 RETURN INVALID PUSH1 0x80 PUSH1 0x40 MSTORE CALLVALUE DUP1 ISZERO PUSH2 0x10 JUMPI PUSH1 0x0 DUP1 REVERT JUMPDEST POP PUSH1 0x4 CALLDATASIZE LT PUSH2 0x4C JUMPI PUSH1 0x0 CALLDATALOAD PUSH1 0xE0 SHR DUP1 PUSH4 0x1FFC9A7 EQ PUSH2 0x51 JUMPI DUP1 PUSH4 0x3B7C4B93 EQ PUSH2 0x79 JUMPI DUP1 PUSH4 0x85572FFB EQ PUSH2 0x9A JUMPI DUP1 PUSH4 0xB0F479A1 EQ PUSH2 0xAF JUMPI JUMPDEST PUSH1 0x0 DUP1 REVERT JUMPDEST PUSH2 0x64 PUSH2 0x5F CALLDATASIZE PUSH1 0x4 PUSH2 0x63C JUMP JUMPDEST PUSH2 0xE6 JUMP JUMPDEST PUSH1 0x40 MLOAD SWAP1 ISZERO ISZERO DUP2 MSTORE PUSH1 0x20 ADD JUMPDEST PUSH1 0x40 MLOAD DUP1 SWAP2 SUB SWAP1 RETURN JUMPDEST PUSH2 0x8C PUSH2 0x87 CALLDATASIZE PUSH1 0x4 PUSH2 0x682 JUMP JUMPDEST PUSH2 0x11D JUMP JUMPDEST PUSH1 0x40 MLOAD SWAP1 DUP2 MSTORE PUSH1 0x20 ADD PUSH2 0x70 JUMP JUMPDEST PUSH2 0xAD PUSH2 0xA8 CALLDATASIZE PUSH1 0x4 PUSH2 0x69F JUMP JUMPDEST PUSH2 0x52F JUMP JUMPDEST STOP JUMPDEST PUSH1 0x40 MLOAD PUSH1 0x1 PUSH1 0x1 PUSH1 0xA0 SHL SUB PUSH32 0x0 AND DUP2 MSTORE PUSH1 0x20 ADD PUSH2 0x70 JUMP JUMPDEST PUSH1 0x0 PUSH1 0x1 PUSH1 0x1 PUSH1 0xE0 SHL SUB NOT DUP3 AND PUSH4 0x85572FFB PUSH1 0xE0 SHL EQ DUP1 PUSH2 0x117 JUMPI POP PUSH1 0x1 PUSH1 0x1 PUSH1 0xE0 SHL SUB NOT DUP3 AND PUSH4 0x1FFC9A7 PUSH1 0xE0 SHL EQ JUMPDEST SWAP3 SWAP2 POP POP JUMP JUMPDEST PUSH1 0x40 DUP1 MLOAD PUSH1 0xA0 DUP2 ADD SWAP1 SWAP2 MSTORE PUSH1 0x1 PUSH1 0x1 PUSH1 0xA0 SHL SUB DUP3 AND PUSH1 0xC0 DUP3 ADD MSTORE PUSH1 0x0 SWAP1 PUSH8 0x304611B6AFFBA76A SWAP1 DUP3 SWAP1 DUP1 PUSH1 0xE0 DUP2 ADD PUSH1 0x40 MLOAD PUSH1 0x20 DUP2 DUP4 SUB SUB DUP2 MSTORE SWAP1 PUSH1 0x40 MSTORE DUP2 MSTORE PUSH1 0x20 ADD PUSH1 0x40 MLOAD PUSH1 0x20 ADD PUSH2 0x16E SWAP1 PUSH2 0x6DA JUMP JUMPDEST PUSH1 0x40 DUP1 MLOAD PUSH1 0x1F NOT DUP2 DUP5 SUB ADD DUP2 MSTORE SWAP2 SWAP1 MSTORE DUP2 MSTORE PUSH1 0x20 ADD PUSH1 0x0 PUSH1 0x40 MLOAD SWAP1 DUP1 DUP3 MSTORE DUP1 PUSH1 0x20 MUL PUSH1 0x20 ADD DUP3 ADD PUSH1 0x40 MSTORE DUP1 ISZERO PUSH2 0x1CA JUMPI DUP2 PUSH1 0x20 ADD JUMPDEST PUSH1 0x40 DUP1 MLOAD DUP1 DUP3 ADD SWAP1 SWAP2 MSTORE PUSH1 0x0 DUP1 DUP3 MSTORE PUSH1 0x20 DUP3 ADD MSTORE DUP2 MSTORE PUSH1 0x20 ADD SWAP1 PUSH1 0x1 SWAP1 SUB SWAP1 DUP2 PUSH2 0x1A3 JUMPI SWAP1 POP JUMPDEST POP DUP2 MSTORE PUSH1 0x3 SLOAD PUSH1 0x1 PUSH1 0x1 PUSH1 0xA0 SHL SUB AND PUSH1 0x20 DUP1 DUP4 ADD SWAP2 SWAP1 SWAP2 MSTORE PUSH1 0x40 DUP1 MLOAD DUP1 DUP4 ADD DUP3 MSTORE PUSH3 0x30D40 SWAP1 DUP2 SWAP1 MSTORE DUP2 MLOAD PUSH1 0x24 DUP1 DUP3 ADD SWAP3 SWAP1 SWAP3 MSTORE DUP3 MLOAD DUP1 DUP3 SUB SWAP1 SWAP3 ADD DUP3 MSTORE PUSH1 0x44 ADD DUP3 MSTORE SWAP2 DUP3 ADD DUP1 MLOAD PUSH1 0x1 PUSH1 0x1 PUSH1 0xE0 SHL SUB AND PUSH4 0x97A657C9 PUSH1 0xE0 SHL OR SWAP1 MSTORE SWAP1 SWAP2 ADD MSTORE PUSH1 0x2 SLOAD PUSH1 0x40 MLOAD PUSH4 0x20487DED PUSH1 0xE0 SHL DUP2 MSTORE SWAP2 SWAP3 POP PUSH1 0x0 SWAP2 PUSH1 0x1 PUSH1 0x1 PUSH1 0xA0 SHL SUB SWAP1 SWAP2 AND SWAP1 PUSH4 0x20487DED SWAP1 PUSH2 0x262 SWAP1 DUP7 SWAP1 DUP7 SWAP1 PUSH1 0x4 ADD PUSH2 0x76A JUMP JUMPDEST PUSH1 0x20 PUSH1 0x40 MLOAD DUP1 DUP4 SUB DUP2 DUP7 GAS STATICCALL ISZERO DUP1 ISZERO PUSH2 0x27F JUMPI RETURNDATASIZE PUSH1 0x0 DUP1 RETURNDATACOPY RETURNDATASIZE PUSH1 0x0 REVERT JUMPDEST POP POP POP POP PUSH1 0x40 MLOAD RETURNDATASIZE PUSH1 0x1F NOT PUSH1 0x1F DUP3 ADD AND DUP3 ADD DUP1 PUSH1 0x40 MSTORE POP DUP2 ADD SWAP1 PUSH2 0x2A3 SWAP2 SWAP1 PUSH2 0x844 JUMP JUMPDEST PUSH1 0x3 SLOAD PUSH1 0x40 MLOAD PUSH4 0x70A08231 PUSH1 0xE0 SHL DUP2 MSTORE ADDRESS PUSH1 0x4 DUP3 ADD MSTORE SWAP2 SWAP3 POP PUSH1 0x1 PUSH1 0x1 PUSH1 0xA0 SHL SUB AND SWAP1 PUSH4 0x70A08231 SWAP1 PUSH1 0x24 ADD PUSH1 0x20 PUSH1 0x40 MLOAD DUP1 DUP4 SUB DUP2 DUP7 GAS STATICCALL ISZERO DUP1 ISZERO PUSH2 0x2EC JUMPI RETURNDATASIZE PUSH1 0x0 DUP1 RETURNDATACOPY RETURNDATASIZE PUSH1 0x0 REVERT JUMPDEST POP POP POP POP PUSH1 0x40 MLOAD RETURNDATASIZE PUSH1 0x1F NOT PUSH1 0x1F DUP3 ADD AND DUP3 ADD DUP1 PUSH1 0x40 MSTORE POP DUP2 ADD SWAP1 PUSH2 0x310 SWAP2 SWAP1 PUSH2 0x844 JUMP JUMPDEST DUP2 GT ISZERO PUSH2 0x3AC JUMPI PUSH1 0x3 SLOAD PUSH1 0x40 MLOAD PUSH4 0x70A08231 PUSH1 0xE0 SHL DUP2 MSTORE ADDRESS PUSH1 0x4 DUP3 ADD MSTORE PUSH1 0x1 PUSH1 0x1 PUSH1 0xA0 SHL SUB SWAP1 SWAP2 AND SWAP1 PUSH4 0x70A08231 SWAP1 PUSH1 0x24 ADD PUSH1 0x20 PUSH1 0x40 MLOAD DUP1 DUP4 SUB DUP2 DUP7 GAS STATICCALL ISZERO DUP1 ISZERO PUSH2 0x35F JUMPI RETURNDATASIZE PUSH1 0x0 DUP1 RETURNDATACOPY RETURNDATASIZE PUSH1 0x0 REVERT JUMPDEST POP POP POP POP PUSH1 0x40 MLOAD RETURNDATASIZE PUSH1 0x1F NOT PUSH1 0x1F DUP3 ADD AND DUP3 ADD DUP1 PUSH1 0x40 MSTORE POP DUP2 ADD SWAP1 PUSH2 0x383 SWAP2 SWAP1 PUSH2 0x844 JUMP JUMPDEST PUSH1 0x40 MLOAD PUSH4 0x4787A103 PUSH1 0xE1 SHL DUP2 MSTORE PUSH1 0x4 DUP2 ADD SWAP2 SWAP1 SWAP2 MSTORE PUSH1 0x24 DUP2 ADD DUP3 SWAP1 MSTORE PUSH1 0x44 ADD JUMPDEST PUSH1 0x40 MLOAD DUP1 SWAP2 SUB SWAP1 REVERT JUMPDEST PUSH1 0x3 SLOAD PUSH1 0x2 SLOAD PUSH1 0x40 MLOAD PUSH4 0x95EA7B3 PUSH1 0xE0 SHL DUP2 MSTORE PUSH1 0x1 PUSH1 0x1 PUSH1 0xA0 SHL SUB SWAP2 DUP3 AND PUSH1 0x4 DUP3 ADD MSTORE PUSH1 0x24 DUP2 ADD DUP5 SWAP1 MSTORE SWAP2 AND SWAP1 PUSH4 0x95EA7B3 SWAP1 PUSH1 0x44 ADD PUSH1 0x20 PUSH1 0x40 MLOAD DUP1 DUP4 SUB DUP2 PUSH1 0x0 DUP8 GAS CALL ISZERO DUP1 ISZERO PUSH2 0x401 JUMPI RETURNDATASIZE PUSH1 0x0 DUP1 RETURNDATACOPY RETURNDATASIZE PUSH1 0x0 REVERT JUMPDEST POP POP POP POP PUSH1 0x40 MLOAD RETURNDATASIZE PUSH1 0x1F NOT PUSH1 0x1F DUP3 ADD AND DUP3 ADD DUP1 PUSH1 0x40 MSTORE POP DUP2 ADD SWAP1 PUSH2 0x425 SWAP2 SWAP1 PUSH2 0x85D JUMP JUMPDEST POP PUSH1 0x2 SLOAD PUSH1 0x40 MLOAD PUSH4 0x96F4E9F9 PUSH1 0xE0 SHL DUP2 MSTORE PUSH1 0x1 PUSH1 0x1 PUSH1 0xA0 SHL SUB SWAP1 SWAP2 AND SWAP1 PUSH4 0x96F4E9F9 SWAP1 PUSH2 0x458 SWAP1 DUP7 SWAP1 DUP7 SWAP1 PUSH1 0x4 ADD PUSH2 0x76A JUMP JUMPDEST PUSH1 0x20 PUSH1 0x40 MLOAD DUP1 DUP4 SUB DUP2 PUSH1 0x0 DUP8 GAS CALL ISZERO DUP1 ISZERO PUSH2 0x477 JUMPI RETURNDATASIZE PUSH1 0x0 DUP1 RETURNDATACOPY RETURNDATASIZE PUSH1 0x0 REVERT JUMPDEST POP POP POP POP PUSH1 0x40 MLOAD RETURNDATASIZE PUSH1 0x1F NOT PUSH1 0x1F DUP3 ADD AND DUP3 ADD DUP1 PUSH1 0x40 MSTORE POP DUP2 ADD SWAP1 PUSH2 0x49B SWAP2 SWAP1 PUSH2 0x844 JUMP JUMPDEST PUSH1 0x3 SLOAD PUSH1 0x40 DUP1 MLOAD PUSH1 0x1 PUSH1 0x1 PUSH1 0xA0 SHL SUB DUP1 DUP11 AND DUP3 MSTORE PUSH1 0x80 PUSH1 0x20 DUP4 ADD DUP2 SWAP1 MSTORE PUSH1 0x14 SWAP1 DUP4 ADD MSTORE PUSH20 0x33B2B732B930BA32A930B73237B6A73AB6B132B9 PUSH1 0x61 SHL PUSH1 0xA0 DUP4 ADD MSTORE SWAP1 SWAP3 AND SWAP1 DUP3 ADD MSTORE PUSH1 0x60 DUP2 ADD DUP4 SWAP1 MSTORE SWAP1 SWAP5 POP PUSH8 0xFFFFFFFFFFFFFFFF DUP5 AND SWAP1 DUP6 SWAP1 PUSH32 0xD36445359B3C6E26C120659AEF090CE0F2EB005CF9AF450D11AA1225609B4F4D SWAP1 PUSH1 0xC0 ADD PUSH1 0x40 MLOAD DUP1 SWAP2 SUB SWAP1 LOG3 POP POP POP SWAP2 SWAP1 POP JUMP JUMPDEST CALLER PUSH1 0x1 PUSH1 0x1 PUSH1 0xA0 SHL SUB PUSH32 0x0 AND EQ PUSH2 0x57A JUMPI PUSH1 0x40 MLOAD PUSH4 0x35FDCCCD PUSH1 0xE2 SHL DUP2 MSTORE CALLER PUSH1 0x4 DUP3 ADD MSTORE PUSH1 0x24 ADD PUSH2 0x3A3 JUMP JUMPDEST PUSH2 0x58B PUSH2 0x586 DUP3 PUSH2 0xA36 JUMP JUMPDEST PUSH2 0x58E JUMP JUMPDEST POP JUMP JUMPDEST DUP1 MLOAD PUSH1 0x0 SSTORE PUSH1 0x60 DUP2 ADD MLOAD DUP1 MLOAD PUSH2 0x5AC SWAP2 PUSH1 0x20 SWAP2 DUP2 ADD DUP3 ADD SWAP2 ADD PUSH2 0x844 JUMP JUMPDEST PUSH1 0x1 DUP2 SWAP1 SSTORE POP DUP1 PUSH1 0x20 ADD MLOAD PUSH8 0xFFFFFFFFFFFFFFFF AND DUP2 PUSH1 0x0 ADD MLOAD PUSH32 0x9E0CEDD023F625FB8DB19F2EB903C24AA1A45F05FD9EF9431A80505AD65E30FE DUP4 PUSH1 0x40 ADD MLOAD DUP1 PUSH1 0x20 ADD SWAP1 MLOAD DUP2 ADD SWAP1 PUSH2 0x5FF SWAP2 SWAP1 PUSH2 0xAE3 JUMP JUMPDEST DUP5 PUSH1 0x60 ADD MLOAD DUP1 PUSH1 0x20 ADD SWAP1 MLOAD DUP2 ADD SWAP1 PUSH2 0x617 SWAP2 SWAP1 PUSH2 0x844 JUMP JUMPDEST PUSH1 0x40 DUP1 MLOAD PUSH1 0x1 PUSH1 0x1 PUSH1 0xA0 SHL SUB SWAP1 SWAP4 AND DUP4 MSTORE PUSH1 0x20 DUP4 ADD SWAP2 SWAP1 SWAP2 MSTORE ADD PUSH1 0x40 MLOAD DUP1 SWAP2 SUB SWAP1 LOG3 POP JUMP JUMPDEST PUSH1 0x0 PUSH1 0x20 DUP3 DUP5 SUB SLT ISZERO PUSH2 0x64E JUMPI PUSH1 0x0 DUP1 REVERT JUMPDEST DUP2 CALLDATALOAD PUSH1 0x1 PUSH1 0x1 PUSH1 0xE0 SHL SUB NOT DUP2 AND DUP2 EQ PUSH2 0x666 JUMPI PUSH1 0x0 DUP1 REVERT JUMPDEST SWAP4 SWAP3 POP POP POP JUMP JUMPDEST PUSH1 0x1 PUSH1 0x1 PUSH1 0xA0 SHL SUB DUP2 AND DUP2 EQ PUSH2 0x58B JUMPI PUSH1 0x0 DUP1 REVERT JUMPDEST PUSH1 0x0 PUSH1 0x20 DUP3 DUP5 SUB SLT ISZERO PUSH2 0x694 JUMPI PUSH1 0x0 DUP1 REVERT JUMPDEST DUP2 CALLDATALOAD PUSH2 0x666 DUP2 PUSH2 0x66D JUMP JUMPDEST PUSH1 0x0 PUSH1 0x20 DUP3 DUP5 SUB SLT ISZERO PUSH2 0x6B1 JUMPI PUSH1 0x0 DUP1 REVERT JUMPDEST DUP2 CALLDATALOAD PUSH8 0xFFFFFFFFFFFFFFFF DUP2 GT ISZERO PUSH2 0x6C8 JUMPI PUSH1 0x0 DUP1 REVERT JUMPDEST DUP3 ADD PUSH1 0xA0 DUP2 DUP6 SUB SLT ISZERO PUSH2 0x666 JUMPI PUSH1 0x0 DUP1 REVERT JUMPDEST PUSH1 0x20 DUP2 MSTORE PUSH1 0x0 PUSH2 0x117 PUSH1 0x20 DUP4 ADD PUSH1 0x14 DUP2 MSTORE PUSH20 0x33B2B732B930BA32A930B73237B6A73AB6B132B9 PUSH1 0x61 SHL PUSH1 0x20 DUP3 ADD MSTORE PUSH1 0x40 ADD SWAP1 JUMP JUMPDEST PUSH4 0x4E487B71 PUSH1 0xE0 SHL PUSH1 0x0 MSTORE PUSH1 0x41 PUSH1 0x4 MSTORE PUSH1 0x24 PUSH1 0x0 REVERT JUMPDEST PUSH1 0x0 DUP2 MLOAD DUP1 DUP5 MSTORE PUSH1 0x0 JUMPDEST DUP2 DUP2 LT ISZERO PUSH2 0x74A JUMPI PUSH1 0x20 DUP2 DUP6 ADD DUP2 ADD MLOAD DUP7 DUP4 ADD DUP3 ADD MSTORE ADD PUSH2 0x72E JUMP JUMPDEST POP PUSH1 0x0 PUSH1 0x20 DUP3 DUP7 ADD ADD MSTORE PUSH1 0x20 PUSH1 0x1F NOT PUSH1 0x1F DUP4 ADD AND DUP6 ADD ADD SWAP2 POP POP SWAP3 SWAP2 POP POP JUMP JUMPDEST PUSH1 0x0 PUSH1 0x40 PUSH8 0xFFFFFFFFFFFFFFFF DUP6 AND DUP4 MSTORE PUSH1 0x20 DUP2 DUP2 DUP6 ADD MSTORE DUP5 MLOAD PUSH1 0xA0 DUP4 DUP7 ADD MSTORE PUSH2 0x797 PUSH1 0xE0 DUP7 ADD DUP3 PUSH2 0x724 JUMP JUMPDEST SWAP1 POP DUP2 DUP7 ADD MLOAD PUSH1 0x3F NOT DUP1 DUP8 DUP5 SUB ADD PUSH1 0x60 DUP9 ADD MSTORE PUSH2 0x7B4 DUP4 DUP4 PUSH2 0x724 JUMP JUMPDEST DUP9 DUP7 ADD MLOAD DUP9 DUP3 SUB DUP4 ADD PUSH1 0x80 DUP11 ADD MSTORE DUP1 MLOAD DUP1 DUP4 MSTORE SWAP1 DUP7 ADD SWAP5 POP PUSH1 0x0 SWAP4 POP SWAP1 DUP6 ADD SWAP1 JUMPDEST DUP1 DUP5 LT ISZERO PUSH2 0x807 JUMPI DUP5 MLOAD DUP1 MLOAD PUSH1 0x1 PUSH1 0x1 PUSH1 0xA0 SHL SUB AND DUP4 MSTORE DUP7 ADD MLOAD DUP7 DUP4 ADD MSTORE SWAP4 DUP6 ADD SWAP4 PUSH1 0x1 SWAP4 SWAP1 SWAP4 ADD SWAP3 SWAP1 DUP7 ADD SWAP1 PUSH2 0x7D5 JUMP JUMPDEST POP PUSH1 0x60 DUP10 ADD MLOAD PUSH1 0x1 PUSH1 0x1 PUSH1 0xA0 SHL SUB AND PUSH1 0xA0 DUP10 ADD MSTORE PUSH1 0x80 DUP10 ADD MLOAD DUP9 DUP3 SUB DUP4 ADD PUSH1 0xC0 DUP11 ADD MSTORE SWAP6 POP PUSH2 0x836 DUP2 DUP8 PUSH2 0x724 JUMP JUMPDEST SWAP11 SWAP10 POP POP POP POP POP POP POP POP POP POP JUMP JUMPDEST PUSH1 0x0 PUSH1 0x20 DUP3 DUP5 SUB SLT ISZERO PUSH2 0x856 JUMPI PUSH1 0x0 DUP1 REVERT JUMPDEST POP MLOAD SWAP2 SWAP1 POP JUMP JUMPDEST PUSH1 0x0 PUSH1 0x20 DUP3 DUP5 SUB SLT ISZERO PUSH2 0x86F JUMPI PUSH1 0x0 DUP1 REVERT JUMPDEST DUP2 MLOAD DUP1 ISZERO ISZERO DUP2 EQ PUSH2 0x666 JUMPI PUSH1 0x0 DUP1 REVERT JUMPDEST PUSH1 0x40 DUP1 MLOAD SWAP1 DUP2 ADD PUSH8 0xFFFFFFFFFFFFFFFF DUP2 GT DUP3 DUP3 LT OR ISZERO PUSH2 0x8A2 JUMPI PUSH2 0x8A2 PUSH2 0x70E JUMP JUMPDEST PUSH1 0x40 MSTORE SWAP1 JUMP JUMPDEST PUSH1 0x40 MLOAD PUSH1 0xA0 DUP2 ADD PUSH8 0xFFFFFFFFFFFFFFFF DUP2 GT DUP3 DUP3 LT OR ISZERO PUSH2 0x8A2 JUMPI PUSH2 0x8A2 PUSH2 0x70E JUMP JUMPDEST PUSH1 0x40 MLOAD PUSH1 0x1F DUP3 ADD PUSH1 0x1F NOT AND DUP2 ADD PUSH8 0xFFFFFFFFFFFFFFFF DUP2 GT DUP3 DUP3 LT OR ISZERO PUSH2 0x8F4 JUMPI PUSH2 0x8F4 PUSH2 0x70E JUMP JUMPDEST PUSH1 0x40 MSTORE SWAP2 SWAP1 POP JUMP JUMPDEST DUP1 CALLDATALOAD PUSH8 0xFFFFFFFFFFFFFFFF DUP2 AND DUP2 EQ PUSH2 0x914 JUMPI PUSH1 0x0 DUP1 REVERT JUMPDEST SWAP2 SWAP1 POP JUMP JUMPDEST PUSH1 0x0 DUP3 PUSH1 0x1F DUP4 ADD SLT PUSH2 0x92A JUMPI PUSH1 0x0 DUP1 REVERT JUMPDEST DUP2 CALLDATALOAD PUSH8 0xFFFFFFFFFFFFFFFF DUP2 GT ISZERO PUSH2 0x944 JUMPI PUSH2 0x944 PUSH2 0x70E JUMP JUMPDEST PUSH2 0x957 PUSH1 0x1F DUP3 ADD PUSH1 0x1F NOT AND PUSH1 0x20 ADD PUSH2 0x8CB JUMP JUMPDEST DUP2 DUP2 MSTORE DUP5 PUSH1 0x20 DUP4 DUP7 ADD ADD GT ISZERO PUSH2 0x96C JUMPI PUSH1 0x0 DUP1 REVERT JUMPDEST DUP2 PUSH1 0x20 DUP6 ADD PUSH1 0x20 DUP4 ADD CALLDATACOPY PUSH1 0x0 SWAP2 DUP2 ADD PUSH1 0x20 ADD SWAP2 SWAP1 SWAP2 MSTORE SWAP4 SWAP3 POP POP POP JUMP JUMPDEST PUSH1 0x0 DUP3 PUSH1 0x1F DUP4 ADD SLT PUSH2 0x99A JUMPI PUSH1 0x0 DUP1 REVERT JUMPDEST DUP2 CALLDATALOAD PUSH1 0x20 PUSH8 0xFFFFFFFFFFFFFFFF DUP3 GT ISZERO PUSH2 0x9B6 JUMPI PUSH2 0x9B6 PUSH2 0x70E JUMP JUMPDEST PUSH2 0x9C4 DUP2 DUP4 PUSH1 0x5 SHL ADD PUSH2 0x8CB JUMP JUMPDEST DUP3 DUP2 MSTORE PUSH1 0x6 SWAP3 SWAP1 SWAP3 SHL DUP5 ADD DUP2 ADD SWAP2 DUP2 DUP2 ADD SWAP1 DUP7 DUP5 GT ISZERO PUSH2 0x9E3 JUMPI PUSH1 0x0 DUP1 REVERT JUMPDEST DUP3 DUP7 ADD JUMPDEST DUP5 DUP2 LT ISZERO PUSH2 0xA2B JUMPI PUSH1 0x40 DUP2 DUP10 SUB SLT ISZERO PUSH2 0xA00 JUMPI PUSH1 0x0 DUP1 DUP2 REVERT JUMPDEST PUSH2 0xA08 PUSH2 0x87F JUMP JUMPDEST DUP2 CALLDATALOAD PUSH2 0xA13 DUP2 PUSH2 0x66D JUMP JUMPDEST DUP2 MSTORE DUP2 DUP6 ADD CALLDATALOAD DUP6 DUP3 ADD MSTORE DUP4 MSTORE SWAP2 DUP4 ADD SWAP2 PUSH1 0x40 ADD PUSH2 0x9E7 JUMP JUMPDEST POP SWAP7 SWAP6 POP POP POP POP POP POP JUMP JUMPDEST PUSH1 0x0 PUSH1 0xA0 DUP3 CALLDATASIZE SUB SLT ISZERO PUSH2 0xA48 JUMPI PUSH1 0x0 DUP1 REVERT JUMPDEST PUSH2 0xA50 PUSH2 0x8A8 JUMP JUMPDEST DUP3 CALLDATALOAD DUP2 MSTORE PUSH2 0xA60 PUSH1 0x20 DUP5 ADD PUSH2 0x8FC JUMP JUMPDEST PUSH1 0x20 DUP3 ADD MSTORE PUSH1 0x40 DUP4 ADD CALLDATALOAD PUSH8 0xFFFFFFFFFFFFFFFF DUP1 DUP3 GT ISZERO PUSH2 0xA80 JUMPI PUSH1 0x0 DUP1 REVERT JUMPDEST PUSH2 0xA8C CALLDATASIZE DUP4 DUP8 ADD PUSH2 0x919 JUMP JUMPDEST PUSH1 0x40 DUP5 ADD MSTORE PUSH1 0x60 DUP6 ADD CALLDATALOAD SWAP2 POP DUP1 DUP3 GT ISZERO PUSH2 0xAA5 JUMPI PUSH1 0x0 DUP1 REVERT JUMPDEST PUSH2 0xAB1 CALLDATASIZE DUP4 DUP8 ADD PUSH2 0x919 JUMP JUMPDEST PUSH1 0x60 DUP5 ADD MSTORE PUSH1 0x80 DUP6 ADD CALLDATALOAD SWAP2 POP DUP1 DUP3 GT ISZERO PUSH2 0xACA JUMPI PUSH1 0x0 DUP1 REVERT JUMPDEST POP PUSH2 0xAD7 CALLDATASIZE DUP3 DUP7 ADD PUSH2 0x989 JUMP JUMPDEST PUSH1 0x80 DUP4 ADD MSTORE POP SWAP3 SWAP2 POP POP JUMP JUMPDEST PUSH1 0x0 PUSH1 0x20 DUP3 DUP5 SUB SLT ISZERO PUSH2 0xAF5 JUMPI PUSH1 0x0 DUP1 REVERT JUMPDEST DUP2 MLOAD PUSH2 0x666 DUP2 PUSH2 0x66D JUMP INVALID LOG2 PUSH5 0x6970667358 0x22 SLT KECCAK256 0xE3 0xC2 CALLVALUE EXTCODESIZE 0xC7 0xF8 TIMESTAMP 0xD9 PUSH2 0xA9DA DUP5 CREATE MLOAD 0xF6 BALANCE SWAP13 0xD5 0x23 0xA7 NOT 0x29 PUSH9 0xFEEDD47575995A0473 PUSH5 0x736F6C6343 STOP ADDMOD SGT STOP CALLER "
				},
				"gasEstimates": {
					"creation": {
						"codeDepositCost": "574000",
						"executionCost": "infinite",
						"totalCost": "infinite"
					},
					"external": {
						"ccipReceive((bytes32,uint64,bytes,bytes,(address,uint256)[]))": "infinite",
						"getRouter()": "infinite",
						"sendMessage(address)": "infinite",
						"supportsInterface(bytes4)": "404"
					},
					"internal": {
						"_ccipReceive(struct Client.Any2EVMMessage memory)": "infinite"
					}
				},
				"methodIdentifiers": {
					"ccipReceive((bytes32,uint64,bytes,bytes,(address,uint256)[]))": "85572ffb",
					"getRouter()": "b0f479a1",
					"sendMessage(address)": "3b7c4b93",
					"supportsInterface(bytes4)": "01ffc9a7"
				}
			},
			"storageLayout": {
				"storage": [
					{
						"astId": 900,
						"contract": "vrfReceiverCeloAlfajores.sol:vrfGeneratorCeloAlfajores",
						"label": "s_lastReceivedMessageId",
						"offset": 0,
						"slot": "0",
						"type": "t_bytes32"
					},
					{
						"astId": 902,
						"contract": "vrfReceiverCeloAlfajores.sol:vrfGeneratorCeloAlfajores",
						"label": "s_lastReceivedText",
						"offset": 0,
						"slot": "1",
						"type": "t_uint256"
					},
					{
						"astId": 925,
						"contract": "vrfReceiverCeloAlfajores.sol:vrfGeneratorCeloAlfajores",
						"label": "s_router",
						"offset": 0,
						"slot": "2",
						"type": "t_contract(IRouterClient)184"
					},
					{
						"astId": 928,
						"contract": "vrfReceiverCeloAlfajores.sol:vrfGeneratorCeloAlfajores",
						"label": "s_linkToken",
						"offset": 0,
						"slot": "3",
						"type": "t_contract(LinkTokenInterface)872"
					}
				],
				"types": {
					"t_bytes32": {
						"encoding": "inplace",
						"label": "bytes32",
						"numberOfBytes": "32"
					},
					"t_contract(IRouterClient)184": {
						"encoding": "inplace",
						"label": "contract IRouterClient",
						"numberOfBytes": "20"
					},
					"t_contract(LinkTokenInterface)872": {
						"encoding": "inplace",
						"label": "contract LinkTokenInterface",
						"numberOfBytes": "20"
					},
					"t_uint256": {
						"encoding": "inplace",
						"label": "uint256",
						"numberOfBytes": "32"
					}
				}
			},
			"userdoc": {
				"kind": "user",
				"methods": {
					"ccipReceive((bytes32,uint64,bytes,bytes,(address,uint256)[]))": {
						"notice": "Called by the Router to deliver a message. If this reverts, any token transfers also revert. The message will move to a FAILED state and become available for manual execution."
					},
					"getRouter()": {
						"notice": "Return the current router"
					},
					"supportsInterface(bytes4)": {
						"notice": "IERC165 supports an interfaceId"
					}
				},
				"version": 1
			}
		}
	}
}